{
	"Lottery.sol": {
		"Lottery": {
			"abi": [
				{
					"inputs": [
						{
							"internalType": "address",
							"name": "usdtAddress",
							"type": "address"
						},
						{
							"internalType": "uint256",
							"name": "initialTicketPrice",
							"type": "uint256"
						}
					],
					"stateMutability": "nonpayable",
					"type": "constructor"
				},
				{
					"inputs": [],
					"name": "InsufficientTickets",
					"type": "error"
				},
				{
					"inputs": [],
					"name": "InvalidAddress",
					"type": "error"
				},
				{
					"inputs": [],
					"name": "InvalidTicketCount",
					"type": "error"
				},
				{
					"inputs": [],
					"name": "NoActiveSeries",
					"type": "error"
				},
				{
					"inputs": [],
					"name": "NotOwner",
					"type": "error"
				},
				{
					"inputs": [],
					"name": "TransferFailed",
					"type": "error"
				},
				{
					"anonymous": false,
					"inputs": [
						{
							"indexed": true,
							"internalType": "uint256",
							"name": "seriesId",
							"type": "uint256"
						},
						{
							"indexed": false,
							"internalType": "uint256",
							"name": "totalTickets",
							"type": "uint256"
						}
					],
					"name": "SeriesActivated",
					"type": "event"
				},
				{
					"anonymous": false,
					"inputs": [
						{
							"indexed": true,
							"internalType": "uint256",
							"name": "seriesId",
							"type": "uint256"
						}
					],
					"name": "SeriesCompleted",
					"type": "event"
				},
				{
					"anonymous": false,
					"inputs": [
						{
							"indexed": true,
							"internalType": "uint256",
							"name": "seriesId",
							"type": "uint256"
						},
						{
							"indexed": false,
							"internalType": "uint256",
							"name": "totalTickets",
							"type": "uint256"
						}
					],
					"name": "SeriesConfigured",
					"type": "event"
				},
				{
					"anonymous": false,
					"inputs": [
						{
							"indexed": false,
							"internalType": "uint256",
							"name": "newPrice",
							"type": "uint256"
						}
					],
					"name": "TicketPriceUpdated",
					"type": "event"
				},
				{
					"anonymous": false,
					"inputs": [
						{
							"indexed": true,
							"internalType": "address",
							"name": "buyer",
							"type": "address"
						},
						{
							"indexed": false,
							"internalType": "uint256",
							"name": "count",
							"type": "uint256"
						},
						{
							"indexed": false,
							"internalType": "uint256",
							"name": "totalCost",
							"type": "uint256"
						},
						{
							"indexed": false,
							"internalType": "uint256[]",
							"name": "ticketIds",
							"type": "uint256[]"
						},
						{
							"indexed": true,
							"internalType": "uint256",
							"name": "seriesId",
							"type": "uint256"
						}
					],
					"name": "TicketPurchased",
					"type": "event"
				},
				{
					"anonymous": false,
					"inputs": [
						{
							"indexed": true,
							"internalType": "address",
							"name": "to",
							"type": "address"
						},
						{
							"indexed": false,
							"internalType": "uint256",
							"name": "amount",
							"type": "uint256"
						}
					],
					"name": "Withdraw",
					"type": "event"
				},
				{
					"inputs": [],
					"name": "activeSeriesId",
					"outputs": [
						{
							"internalType": "uint256",
							"name": "",
							"type": "uint256"
						}
					],
					"stateMutability": "view",
					"type": "function"
				},
				{
					"inputs": [
						{
							"internalType": "uint256",
							"name": "count",
							"type": "uint256"
						}
					],
					"name": "buyTickets",
					"outputs": [],
					"stateMutability": "nonpayable",
					"type": "function"
				},
				{
					"inputs": [
						{
							"internalType": "address",
							"name": "account",
							"type": "address"
						}
					],
					"name": "getOwnedTicketIds",
					"outputs": [
						{
							"internalType": "uint256[]",
							"name": "",
							"type": "uint256[]"
						}
					],
					"stateMutability": "view",
					"type": "function"
				},
				{
					"inputs": [
						{
							"internalType": "uint256",
							"name": "seriesId",
							"type": "uint256"
						}
					],
					"name": "getSeriesInfo",
					"outputs": [
						{
							"internalType": "uint256",
							"name": "totalTickets",
							"type": "uint256"
						},
						{
							"internalType": "uint256",
							"name": "sold",
							"type": "uint256"
						}
					],
					"stateMutability": "view",
					"type": "function"
				},
				{
					"inputs": [],
					"name": "owner",
					"outputs": [
						{
							"internalType": "address",
							"name": "",
							"type": "address"
						}
					],
					"stateMutability": "view",
					"type": "function"
				},
				{
					"inputs": [
						{
							"internalType": "uint256",
							"name": "ticketCount",
							"type": "uint256"
						}
					],
					"name": "queueSeries",
					"outputs": [],
					"stateMutability": "nonpayable",
					"type": "function"
				},
				{
					"inputs": [
						{
							"internalType": "uint256",
							"name": "",
							"type": "uint256"
						}
					],
					"name": "seriesInfo",
					"outputs": [
						{
							"internalType": "uint256",
							"name": "totalTickets",
							"type": "uint256"
						},
						{
							"internalType": "uint256",
							"name": "ticketsSold",
							"type": "uint256"
						}
					],
					"stateMutability": "view",
					"type": "function"
				},
				{
					"inputs": [
						{
							"internalType": "uint256",
							"name": "newTicketPrice",
							"type": "uint256"
						}
					],
					"name": "setTicketPrice",
					"outputs": [],
					"stateMutability": "nonpayable",
					"type": "function"
				},
				{
					"inputs": [
						{
							"internalType": "address",
							"name": "",
							"type": "address"
						}
					],
					"name": "ticketBalances",
					"outputs": [
						{
							"internalType": "uint256",
							"name": "",
							"type": "uint256"
						}
					],
					"stateMutability": "view",
					"type": "function"
				},
				{
					"inputs": [
						{
							"internalType": "uint256",
							"name": "",
							"type": "uint256"
						}
					],
					"name": "ticketOwners",
					"outputs": [
						{
							"internalType": "address",
							"name": "",
							"type": "address"
						}
					],
					"stateMutability": "view",
					"type": "function"
				},
				{
					"inputs": [],
					"name": "ticketPrice",
					"outputs": [
						{
							"internalType": "uint256",
							"name": "",
							"type": "uint256"
						}
					],
					"stateMutability": "view",
					"type": "function"
				},
				{
					"inputs": [
						{
							"internalType": "uint256",
							"name": "",
							"type": "uint256"
						}
					],
					"name": "ticketSeries",
					"outputs": [
						{
							"internalType": "uint256",
							"name": "",
							"type": "uint256"
						}
					],
					"stateMutability": "view",
					"type": "function"
				},
				{
					"inputs": [],
					"name": "ticketsSold",
					"outputs": [
						{
							"internalType": "uint256",
							"name": "",
							"type": "uint256"
						}
					],
					"stateMutability": "view",
					"type": "function"
				},
				{
					"inputs": [],
					"name": "totalSeriesCount",
					"outputs": [
						{
							"internalType": "uint256",
							"name": "",
							"type": "uint256"
						}
					],
					"stateMutability": "view",
					"type": "function"
				},
				{
					"inputs": [
						{
							"internalType": "address",
							"name": "newOwner",
							"type": "address"
						}
					],
					"name": "transferOwnership",
					"outputs": [],
					"stateMutability": "nonpayable",
					"type": "function"
				},
				{
					"inputs": [],
					"name": "usdt",
					"outputs": [
						{
							"internalType": "contract IERC20",
							"name": "",
							"type": "address"
						}
					],
					"stateMutability": "view",
					"type": "function"
				},
				{
					"inputs": [
						{
							"internalType": "address",
							"name": "to",
							"type": "address"
						},
						{
							"internalType": "uint256",
							"name": "amount",
							"type": "uint256"
						}
					],
					"name": "withdraw",
					"outputs": [],
					"stateMutability": "nonpayable",
					"type": "function"
				}
			],
			"devdoc": {
				"kind": "dev",
				"methods": {},
				"title": "Nebula Lottery",
				"version": 1
			},
			"evm": {
				"assembly": "    /* \"Lottery.sol\":171:7353  contract Lottery {... */\n  mstore(0x40, 0xa0)\n    /* \"Lottery.sol\":2390:2628  constructor(address usdtAddress, uint256 initialTicketPrice) {... */\n  callvalue\n  dup1\n  iszero\n  tag_1\n  jumpi\n  revert(0x00, 0x00)\ntag_1:\n  pop\n  mload(0x40)\n  sub(codesize, bytecodeSize)\n  dup1\n  bytecodeSize\n  dup4\n  codecopy\n  dup2\n  dup2\n  add\n  0x40\n  mstore\n  dup2\n  add\n  swap1\n  tag_2\n  swap2\n  swap1\n  tag_3\n  jump\t// in\ntag_2:\n    /* \"Lottery.sol\":2488:2489  0 */\n  0x00\n    /* \"Lottery.sol\":2465:2490  usdtAddress == address(0) */\n  0xffffffffffffffffffffffffffffffffffffffff\n  and\n    /* \"Lottery.sol\":2465:2476  usdtAddress */\n  dup3\n    /* \"Lottery.sol\":2465:2490  usdtAddress == address(0) */\n  0xffffffffffffffffffffffffffffffffffffffff\n  and\n  sub\n    /* \"Lottery.sol\":2461:2515  if (usdtAddress == address(0)) revert InvalidAddress() */\n  tag_6\n  jumpi\n    /* \"Lottery.sol\":2499:2515  InvalidAddress() */\n  mload(0x40)\n  0xe6c4247b00000000000000000000000000000000000000000000000000000000\n  dup2\n  mstore\n  0x04\n  add\n  mload(0x40)\n  dup1\n  swap2\n  sub\n  swap1\n  revert\n    /* \"Lottery.sol\":2461:2515  if (usdtAddress == address(0)) revert InvalidAddress() */\ntag_6:\n    /* \"Lottery.sol\":2533:2543  msg.sender */\n  caller\n    /* \"Lottery.sol\":2525:2530  owner */\n  0x00\n  0x00\n    /* \"Lottery.sol\":2525:2543  owner = msg.sender */\n  0x0100\n  exp\n  dup2\n  sload\n  dup2\n  0xffffffffffffffffffffffffffffffffffffffff\n  mul\n  not\n  and\n  swap1\n  dup4\n  0xffffffffffffffffffffffffffffffffffffffff\n  and\n  mul\n  or\n  swap1\n  sstore\n  pop\n    /* \"Lottery.sol\":2567:2578  usdtAddress */\n  dup2\n    /* \"Lottery.sol\":2553:2579  usdt = IERC20(usdtAddress) */\n  0xffffffffffffffffffffffffffffffffffffffff\n  and\n  0x80\n  dup2\n  0xffffffffffffffffffffffffffffffffffffffff\n  and\n  dup2\n  mstore\n  pop\n  pop\n    /* \"Lottery.sol\":2603:2621  initialTicketPrice */\n  dup1\n    /* \"Lottery.sol\":2589:2600  ticketPrice */\n  0x01\n    /* \"Lottery.sol\":2589:2621  ticketPrice = initialTicketPrice */\n  dup2\n  swap1\n  sstore\n  pop\n    /* \"Lottery.sol\":2390:2628  constructor(address usdtAddress, uint256 initialTicketPrice) {... */\n  pop\n  pop\n    /* \"Lottery.sol\":171:7353  contract Lottery {... */\n  jump(tag_7)\n    /* \"#utility.yul\":88:205   */\ntag_9:\n    /* \"#utility.yul\":197:198   */\n  0x00\n    /* \"#utility.yul\":194:195   */\n  0x00\n    /* \"#utility.yul\":187:199   */\n  revert\n    /* \"#utility.yul\":334:460   */\ntag_11:\n    /* \"#utility.yul\":371:378   */\n  0x00\n    /* \"#utility.yul\":411:453   */\n  0xffffffffffffffffffffffffffffffffffffffff\n    /* \"#utility.yul\":404:409   */\n  dup3\n    /* \"#utility.yul\":400:454   */\n  and\n    /* \"#utility.yul\":389:454   */\n  swap1\n  pop\n    /* \"#utility.yul\":334:460   */\n  swap2\n  swap1\n  pop\n  jump\t// out\n    /* \"#utility.yul\":466:562   */\ntag_12:\n    /* \"#utility.yul\":503:510   */\n  0x00\n    /* \"#utility.yul\":532:556   */\n  tag_24\n    /* \"#utility.yul\":550:555   */\n  dup3\n    /* \"#utility.yul\":532:556   */\n  tag_11\n  jump\t// in\ntag_24:\n    /* \"#utility.yul\":521:556   */\n  swap1\n  pop\n    /* \"#utility.yul\":466:562   */\n  swap2\n  swap1\n  pop\n  jump\t// out\n    /* \"#utility.yul\":568:690   */\ntag_13:\n    /* \"#utility.yul\":641:665   */\n  tag_26\n    /* \"#utility.yul\":659:664   */\n  dup2\n    /* \"#utility.yul\":641:665   */\n  tag_12\n  jump\t// in\ntag_26:\n    /* \"#utility.yul\":634:639   */\n  dup2\n    /* \"#utility.yul\":631:666   */\n  eq\n    /* \"#utility.yul\":621:684   */\n  tag_27\n  jumpi\n    /* \"#utility.yul\":680:681   */\n  0x00\n    /* \"#utility.yul\":677:678   */\n  0x00\n    /* \"#utility.yul\":670:682   */\n  revert\n    /* \"#utility.yul\":621:684   */\ntag_27:\n    /* \"#utility.yul\":568:690   */\n  pop\n  jump\t// out\n    /* \"#utility.yul\":696:839   */\ntag_14:\n    /* \"#utility.yul\":753:758   */\n  0x00\n    /* \"#utility.yul\":784:790   */\n  dup2\n    /* \"#utility.yul\":778:791   */\n  mload\n    /* \"#utility.yul\":769:791   */\n  swap1\n  pop\n    /* \"#utility.yul\":800:833   */\n  tag_29\n    /* \"#utility.yul\":827:832   */\n  dup2\n    /* \"#utility.yul\":800:833   */\n  tag_13\n  jump\t// in\ntag_29:\n    /* \"#utility.yul\":696:839   */\n  swap3\n  swap2\n  pop\n  pop\n  jump\t// out\n    /* \"#utility.yul\":845:922   */\ntag_15:\n    /* \"#utility.yul\":882:889   */\n  0x00\n    /* \"#utility.yul\":911:916   */\n  dup2\n    /* \"#utility.yul\":900:916   */\n  swap1\n  pop\n    /* \"#utility.yul\":845:922   */\n  swap2\n  swap1\n  pop\n  jump\t// out\n    /* \"#utility.yul\":928:1050   */\ntag_16:\n    /* \"#utility.yul\":1001:1025   */\n  tag_32\n    /* \"#utility.yul\":1019:1024   */\n  dup2\n    /* \"#utility.yul\":1001:1025   */\n  tag_15\n  jump\t// in\ntag_32:\n    /* \"#utility.yul\":994:999   */\n  dup2\n    /* \"#utility.yul\":991:1026   */\n  eq\n    /* \"#utility.yul\":981:1044   */\n  tag_33\n  jumpi\n    /* \"#utility.yul\":1040:1041   */\n  0x00\n    /* \"#utility.yul\":1037:1038   */\n  0x00\n    /* \"#utility.yul\":1030:1042   */\n  revert\n    /* \"#utility.yul\":981:1044   */\ntag_33:\n    /* \"#utility.yul\":928:1050   */\n  pop\n  jump\t// out\n    /* \"#utility.yul\":1056:1199   */\ntag_17:\n    /* \"#utility.yul\":1113:1118   */\n  0x00\n    /* \"#utility.yul\":1144:1150   */\n  dup2\n    /* \"#utility.yul\":1138:1151   */\n  mload\n    /* \"#utility.yul\":1129:1151   */\n  swap1\n  pop\n    /* \"#utility.yul\":1160:1193   */\n  tag_35\n    /* \"#utility.yul\":1187:1192   */\n  dup2\n    /* \"#utility.yul\":1160:1193   */\n  tag_16\n  jump\t// in\ntag_35:\n    /* \"#utility.yul\":1056:1199   */\n  swap3\n  swap2\n  pop\n  pop\n  jump\t// out\n    /* \"#utility.yul\":1205:1712   */\ntag_3:\n    /* \"#utility.yul\":1284:1290   */\n  0x00\n    /* \"#utility.yul\":1292:1298   */\n  0x00\n    /* \"#utility.yul\":1341:1343   */\n  0x40\n    /* \"#utility.yul\":1329:1338   */\n  dup4\n    /* \"#utility.yul\":1320:1327   */\n  dup6\n    /* \"#utility.yul\":1316:1339   */\n  sub\n    /* \"#utility.yul\":1312:1344   */\n  slt\n    /* \"#utility.yul\":1309:1428   */\n  iszero\n  tag_37\n  jumpi\n    /* \"#utility.yul\":1347:1426   */\n  tag_38\n  tag_9\n  jump\t// in\ntag_38:\n    /* \"#utility.yul\":1309:1428   */\ntag_37:\n    /* \"#utility.yul\":1467:1468   */\n  0x00\n    /* \"#utility.yul\":1492:1556   */\n  tag_39\n    /* \"#utility.yul\":1548:1555   */\n  dup6\n    /* \"#utility.yul\":1539:1545   */\n  dup3\n    /* \"#utility.yul\":1528:1537   */\n  dup7\n    /* \"#utility.yul\":1524:1546   */\n  add\n    /* \"#utility.yul\":1492:1556   */\n  tag_14\n  jump\t// in\ntag_39:\n    /* \"#utility.yul\":1482:1556   */\n  swap3\n  pop\n    /* \"#utility.yul\":1438:1566   */\n  pop\n    /* \"#utility.yul\":1605:1607   */\n  0x20\n    /* \"#utility.yul\":1631:1695   */\n  tag_40\n    /* \"#utility.yul\":1687:1694   */\n  dup6\n    /* \"#utility.yul\":1678:1684   */\n  dup3\n    /* \"#utility.yul\":1667:1676   */\n  dup7\n    /* \"#utility.yul\":1663:1685   */\n  add\n    /* \"#utility.yul\":1631:1695   */\n  tag_17\n  jump\t// in\ntag_40:\n    /* \"#utility.yul\":1621:1695   */\n  swap2\n  pop\n    /* \"#utility.yul\":1576:1705   */\n  pop\n    /* \"#utility.yul\":1205:1712   */\n  swap3\n  pop\n  swap3\n  swap1\n  pop\n  jump\t// out\n    /* \"Lottery.sol\":171:7353  contract Lottery {... */\ntag_7:\n  mload(0x80)\n  codecopy(0x00, dataOffset(sub_0), dataSize(sub_0))\n  0x00\n  assignImmutable(\"0x35bb2e240092263378f77ea1e9c278099a33b604c4c4e26d13ea227e8bb74470\")\n  return(0x00, dataSize(sub_0))\nstop\n\nsub_0: assembly {\n        /* \"Lottery.sol\":171:7353  contract Lottery {... */\n      mstore(0x40, 0x80)\n      callvalue\n      dup1\n      iszero\n      tag_1\n      jumpi\n      revert(0x00, 0x00)\n    tag_1:\n      pop\n      jumpi(tag_2, lt(calldatasize, 0x04))\n      shr(0xe0, calldataload(0x00))\n      dup1\n      0x8da5cb5b\n      gt\n      tag_20\n      jumpi\n      dup1\n      0xeb2dbcf6\n      gt\n      tag_21\n      jumpi\n      dup1\n      0xeb2dbcf6\n      eq\n      tag_15\n      jumpi\n      dup1\n      0xf2fde38b\n      eq\n      tag_16\n      jumpi\n      dup1\n      0xf3eec42f\n      eq\n      tag_17\n      jumpi\n      dup1\n      0xf3fef3a3\n      eq\n      tag_18\n      jumpi\n      dup1\n      0xfe8ace85\n      eq\n      tag_19\n      jumpi\n      jump(tag_2)\n    tag_21:\n      dup1\n      0x8da5cb5b\n      eq\n      tag_11\n      jumpi\n      dup1\n      0x8f15024f\n      eq\n      tag_12\n      jumpi\n      dup1\n      0xa4bfd0cc\n      eq\n      tag_13\n      jumpi\n      dup1\n      0xe54566f3\n      eq\n      tag_14\n      jumpi\n      jump(tag_2)\n    tag_20:\n      dup1\n      0x2671fd2b\n      gt\n      tag_22\n      jumpi\n      dup1\n      0x2671fd2b\n      eq\n      tag_7\n      jumpi\n      dup1\n      0x2f366637\n      eq\n      tag_8\n      jumpi\n      dup1\n      0x2f48ab7d\n      eq\n      tag_9\n      jumpi\n      dup1\n      0x616eb255\n      eq\n      tag_10\n      jumpi\n      jump(tag_2)\n    tag_22:\n      dup1\n      0x03914276\n      eq\n      tag_3\n      jumpi\n      dup1\n      0x1209b1f6\n      eq\n      tag_4\n      jumpi\n      dup1\n      0x15981650\n      eq\n      tag_5\n      jumpi\n      dup1\n      0x15b5386e\n      eq\n      tag_6\n      jumpi\n    tag_2:\n      revert(0x00, 0x00)\n        /* \"Lottery.sol\":3381:3905  function queueSeries(uint256 ticketCount) external onlyOwner {... */\n    tag_3:\n      tag_23\n      0x04\n      dup1\n      calldatasize\n      sub\n      dup2\n      add\n      swap1\n      tag_24\n      swap2\n      swap1\n      tag_25\n      jump\t// in\n    tag_24:\n      tag_26\n      jump\t// in\n    tag_23:\n      stop\n        /* \"Lottery.sol\":1527:1553  uint256 public ticketPrice */\n    tag_4:\n      tag_27\n      tag_28\n      jump\t// in\n    tag_27:\n      mload(0x40)\n      tag_29\n      swap2\n      swap1\n      tag_30\n      jump\t// in\n    tag_29:\n      mload(0x40)\n      dup1\n      swap2\n      sub\n      swap1\n      return\n        /* \"Lottery.sol\":2817:2978  function setTicketPrice(uint256 newTicketPrice) external onlyOwner {... */\n    tag_5:\n      tag_31\n      0x04\n      dup1\n      calldatasize\n      sub\n      dup2\n      add\n      swap1\n      tag_32\n      swap2\n      swap1\n      tag_25\n      jump\t// in\n    tag_32:\n      tag_33\n      jump\t// in\n    tag_31:\n      stop\n        /* \"Lottery.sol\":1626:1657  uint256 public totalSeriesCount */\n    tag_6:\n      tag_34\n      tag_35\n      jump\t// in\n    tag_34:\n      mload(0x40)\n      tag_36\n      swap2\n      swap1\n      tag_30\n      jump\t// in\n    tag_36:\n      mload(0x40)\n      dup1\n      swap2\n      sub\n      swap1\n      return\n        /* \"Lottery.sol\":1591:1620  uint256 public activeSeriesId */\n    tag_7:\n      tag_37\n      tag_38\n      jump\t// in\n    tag_37:\n      mload(0x40)\n      tag_39\n      swap2\n      swap1\n      tag_30\n      jump\t// in\n    tag_39:\n      mload(0x40)\n      dup1\n      swap2\n      sub\n      swap1\n      return\n        /* \"Lottery.sol\":4095:5280  function buyTickets(uint256 count) external {... */\n    tag_8:\n      tag_40\n      0x04\n      dup1\n      calldatasize\n      sub\n      dup2\n      add\n      swap1\n      tag_41\n      swap2\n      swap1\n      tag_25\n      jump\t// in\n    tag_41:\n      tag_42\n      jump\t// in\n    tag_40:\n      stop\n        /* \"Lottery.sol\":1493:1521  IERC20 public immutable usdt */\n    tag_9:\n      tag_43\n      tag_44\n      jump\t// in\n    tag_43:\n      mload(0x40)\n      tag_45\n      swap2\n      swap1\n      tag_46\n      jump\t// in\n    tag_45:\n      mload(0x40)\n      dup1\n      swap2\n      sub\n      swap1\n      return\n        /* \"Lottery.sol\":5424:5671  function getSeriesInfo(uint256 seriesId)... */\n    tag_10:\n      tag_47\n      0x04\n      dup1\n      calldatasize\n      sub\n      dup2\n      add\n      swap1\n      tag_48\n      swap2\n      swap1\n      tag_25\n      jump\t// in\n    tag_48:\n      tag_49\n      jump\t// in\n    tag_47:\n      mload(0x40)\n      tag_50\n      swap3\n      swap2\n      swap1\n      tag_51\n      jump\t// in\n    tag_50:\n      mload(0x40)\n      dup1\n      swap2\n      sub\n      swap1\n      return\n        /* \"Lottery.sol\":1467:1487  address public owner */\n    tag_11:\n      tag_52\n      tag_53\n      jump\t// in\n    tag_52:\n      mload(0x40)\n      tag_54\n      swap2\n      swap1\n      tag_55\n      jump\t// in\n    tag_54:\n      mload(0x40)\n      dup1\n      swap2\n      sub\n      swap1\n      return\n        /* \"Lottery.sol\":1559:1585  uint256 public ticketsSold */\n    tag_12:\n      tag_56\n      tag_57\n      jump\t// in\n    tag_56:\n      mload(0x40)\n      tag_58\n      swap2\n      swap1\n      tag_30\n      jump\t// in\n    tag_58:\n      mload(0x40)\n      dup1\n      swap2\n      sub\n      swap1\n      return\n        /* \"Lottery.sol\":5286:5418  function getOwnedTicketIds(address account) external view returns (uint256[] memory) {... */\n    tag_13:\n      tag_59\n      0x04\n      dup1\n      calldatasize\n      sub\n      dup2\n      add\n      swap1\n      tag_60\n      swap2\n      swap1\n      tag_61\n      jump\t// in\n    tag_60:\n      tag_62\n      jump\t// in\n    tag_59:\n      mload(0x40)\n      tag_63\n      swap2\n      swap1\n      tag_64\n      jump\t// in\n    tag_63:\n      mload(0x40)\n      dup1\n      swap2\n      sub\n      swap1\n      return\n        /* \"Lottery.sol\":1713:1762  mapping(address => uint256) public ticketBalances */\n    tag_14:\n      tag_65\n      0x04\n      dup1\n      calldatasize\n      sub\n      dup2\n      add\n      swap1\n      tag_66\n      swap2\n      swap1\n      tag_61\n      jump\t// in\n    tag_66:\n      tag_67\n      jump\t// in\n    tag_65:\n      mload(0x40)\n      tag_68\n      swap2\n      swap1\n      tag_30\n      jump\t// in\n    tag_68:\n      mload(0x40)\n      dup1\n      swap2\n      sub\n      swap1\n      return\n        /* \"Lottery.sol\":1768:1815  mapping(uint256 => address) public ticketOwners */\n    tag_15:\n      tag_69\n      0x04\n      dup1\n      calldatasize\n      sub\n      dup2\n      add\n      swap1\n      tag_70\n      swap2\n      swap1\n      tag_25\n      jump\t// in\n    tag_70:\n      tag_71\n      jump\t// in\n    tag_69:\n      mload(0x40)\n      tag_72\n      swap2\n      swap1\n      tag_55\n      jump\t// in\n    tag_72:\n      mload(0x40)\n      dup1\n      swap2\n      sub\n      swap1\n      return\n        /* \"Lottery.sol\":2984:3142  function transferOwnership(address newOwner) external onlyOwner {... */\n    tag_16:\n      tag_73\n      0x04\n      dup1\n      calldatasize\n      sub\n      dup2\n      add\n      swap1\n      tag_74\n      swap2\n      swap1\n      tag_61\n      jump\t// in\n    tag_74:\n      tag_75\n      jump\t// in\n    tag_73:\n      stop\n        /* \"Lottery.sol\":1821:1868  mapping(uint256 => uint256) public ticketSeries */\n    tag_17:\n      tag_76\n      0x04\n      dup1\n      calldatasize\n      sub\n      dup2\n      add\n      swap1\n      tag_77\n      swap2\n      swap1\n      tag_25\n      jump\t// in\n    tag_77:\n      tag_78\n      jump\t// in\n    tag_76:\n      mload(0x40)\n      tag_79\n      swap2\n      swap1\n      tag_30\n      jump\t// in\n    tag_79:\n      mload(0x40)\n      dup1\n      swap2\n      sub\n      swap1\n      return\n        /* \"Lottery.sol\":3148:3375  function withdraw(address to, uint256 amount) external onlyOwner {... */\n    tag_18:\n      tag_80\n      0x04\n      dup1\n      calldatasize\n      sub\n      dup2\n      add\n      swap1\n      tag_81\n      swap2\n      swap1\n      tag_82\n      jump\t// in\n    tag_81:\n      tag_83\n      jump\t// in\n    tag_80:\n      stop\n        /* \"Lottery.sol\":1663:1707  mapping(uint256 => Series) public seriesInfo */\n    tag_19:\n      tag_84\n      0x04\n      dup1\n      calldatasize\n      sub\n      dup2\n      add\n      swap1\n      tag_85\n      swap2\n      swap1\n      tag_25\n      jump\t// in\n    tag_85:\n      tag_86\n      jump\t// in\n    tag_84:\n      mload(0x40)\n      tag_87\n      swap3\n      swap2\n      swap1\n      tag_51\n      jump\t// in\n    tag_87:\n      mload(0x40)\n      dup1\n      swap2\n      sub\n      swap1\n      return\n        /* \"Lottery.sol\":3381:3905  function queueSeries(uint256 ticketCount) external onlyOwner {... */\n    tag_26:\n        /* \"Lottery.sol\":2161:2166  owner */\n      0x00\n      0x00\n      swap1\n      sload\n      swap1\n      0x0100\n      exp\n      swap1\n      div\n      0xffffffffffffffffffffffffffffffffffffffff\n      and\n        /* \"Lottery.sol\":2147:2166  msg.sender != owner */\n      0xffffffffffffffffffffffffffffffffffffffff\n      and\n        /* \"Lottery.sol\":2147:2157  msg.sender */\n      caller\n        /* \"Lottery.sol\":2147:2166  msg.sender != owner */\n      0xffffffffffffffffffffffffffffffffffffffff\n      and\n      eq\n        /* \"Lottery.sol\":2143:2185  if (msg.sender != owner) revert NotOwner() */\n      tag_89\n      jumpi\n        /* \"Lottery.sol\":2175:2185  NotOwner() */\n      mload(0x40)\n      0x30cd747100000000000000000000000000000000000000000000000000000000\n      dup2\n      mstore\n      0x04\n      add\n      mload(0x40)\n      dup1\n      swap2\n      sub\n      swap1\n      revert\n        /* \"Lottery.sol\":2143:2185  if (msg.sender != owner) revert NotOwner() */\n    tag_89:\n        /* \"Lottery.sol\":3471:3472  0 */\n      0x00\n        /* \"Lottery.sol\":3456:3467  ticketCount */\n      dup2\n        /* \"Lottery.sol\":3456:3472  ticketCount == 0 */\n      sub\n        /* \"Lottery.sol\":3452:3501  if (ticketCount == 0) revert InvalidTicketCount() */\n      tag_91\n      jumpi\n        /* \"Lottery.sol\":3481:3501  InvalidTicketCount() */\n      mload(0x40)\n      0x8e71bef900000000000000000000000000000000000000000000000000000000\n      dup2\n      mstore\n      0x04\n      add\n      mload(0x40)\n      dup1\n      swap2\n      sub\n      swap1\n      revert\n        /* \"Lottery.sol\":3452:3501  if (ticketCount == 0) revert InvalidTicketCount() */\n    tag_91:\n        /* \"Lottery.sol\":3532:3533  1 */\n      0x01\n        /* \"Lottery.sol\":3512:3528  totalSeriesCount */\n      0x04\n      0x00\n        /* \"Lottery.sol\":3512:3533  totalSeriesCount += 1 */\n      dup3\n      dup3\n      sload\n      tag_92\n      swap2\n      swap1\n      tag_93\n      jump\t// in\n    tag_92:\n      swap3\n      pop\n      pop\n      dup2\n      swap1\n      sstore\n      pop\n        /* \"Lottery.sol\":3543:3567  Series storage newSeries */\n      0x00\n        /* \"Lottery.sol\":3570:3580  seriesInfo */\n      0x05\n        /* \"Lottery.sol\":3570:3598  seriesInfo[totalSeriesCount] */\n      0x00\n        /* \"Lottery.sol\":3581:3597  totalSeriesCount */\n      sload(0x04)\n        /* \"Lottery.sol\":3570:3598  seriesInfo[totalSeriesCount] */\n      dup2\n      mstore\n      0x20\n      add\n      swap1\n      dup2\n      mstore\n      0x20\n      add\n      0x00\n      keccak256\n        /* \"Lottery.sol\":3543:3598  Series storage newSeries = seriesInfo[totalSeriesCount] */\n      swap1\n      pop\n        /* \"Lottery.sol\":3633:3644  ticketCount */\n      dup2\n        /* \"Lottery.sol\":3608:3617  newSeries */\n      dup2\n        /* \"Lottery.sol\":3608:3630  newSeries.totalTickets */\n      0x00\n      add\n        /* \"Lottery.sol\":3608:3644  newSeries.totalTickets = ticketCount */\n      dup2\n      swap1\n      sstore\n      pop\n        /* \"Lottery.sol\":3678:3679  0 */\n      0x00\n        /* \"Lottery.sol\":3654:3663  newSeries */\n      dup2\n        /* \"Lottery.sol\":3654:3675  newSeries.ticketsSold */\n      0x01\n      add\n        /* \"Lottery.sol\":3654:3679  newSeries.ticketsSold = 0 */\n      dup2\n      swap1\n      sstore\n      pop\n        /* \"Lottery.sol\":3712:3728  totalSeriesCount */\n      sload(0x04)\n        /* \"Lottery.sol\":3695:3742  SeriesConfigured(totalSeriesCount, ticketCount) */\n      0xa9bb9f177c59b93f2b7abb2dfb6ffc1518c0d3a40145c47a372f46e70d011d15\n        /* \"Lottery.sol\":3730:3741  ticketCount */\n      dup4\n        /* \"Lottery.sol\":3695:3742  SeriesConfigured(totalSeriesCount, ticketCount) */\n      mload(0x40)\n      tag_94\n      swap2\n      swap1\n      tag_30\n      jump\t// in\n    tag_94:\n      mload(0x40)\n      dup1\n      swap2\n      sub\n      swap1\n      log2\n        /* \"Lottery.sol\":3775:3776  0 */\n      0x00\n        /* \"Lottery.sol\":3757:3771  activeSeriesId */\n      sload(0x03)\n        /* \"Lottery.sol\":3757:3776  activeSeriesId == 0 */\n      sub\n        /* \"Lottery.sol\":3753:3899  if (activeSeriesId == 0) {... */\n      tag_95\n      jumpi\n        /* \"Lottery.sol\":3809:3825  totalSeriesCount */\n      sload(0x04)\n        /* \"Lottery.sol\":3792:3806  activeSeriesId */\n      0x03\n        /* \"Lottery.sol\":3792:3825  activeSeriesId = totalSeriesCount */\n      dup2\n      swap1\n      sstore\n      pop\n        /* \"Lottery.sol\":3860:3874  activeSeriesId */\n      sload(0x03)\n        /* \"Lottery.sol\":3844:3888  SeriesActivated(activeSeriesId, ticketCount) */\n      0x92f4672ba5b2b4f28a7cee1336b7f92f4c6d73f32a8a3317187229febcb68a4b\n        /* \"Lottery.sol\":3876:3887  ticketCount */\n      dup4\n        /* \"Lottery.sol\":3844:3888  SeriesActivated(activeSeriesId, ticketCount) */\n      mload(0x40)\n      tag_96\n      swap2\n      swap1\n      tag_30\n      jump\t// in\n    tag_96:\n      mload(0x40)\n      dup1\n      swap2\n      sub\n      swap1\n      log2\n        /* \"Lottery.sol\":3753:3899  if (activeSeriesId == 0) {... */\n    tag_95:\n        /* \"Lottery.sol\":3442:3905  {... */\n      pop\n        /* \"Lottery.sol\":3381:3905  function queueSeries(uint256 ticketCount) external onlyOwner {... */\n      pop\n      jump\t// out\n        /* \"Lottery.sol\":1527:1553  uint256 public ticketPrice */\n    tag_28:\n      sload(0x01)\n      dup2\n      jump\t// out\n        /* \"Lottery.sol\":2817:2978  function setTicketPrice(uint256 newTicketPrice) external onlyOwner {... */\n    tag_33:\n        /* \"Lottery.sol\":2161:2166  owner */\n      0x00\n      0x00\n      swap1\n      sload\n      swap1\n      0x0100\n      exp\n      swap1\n      div\n      0xffffffffffffffffffffffffffffffffffffffff\n      and\n        /* \"Lottery.sol\":2147:2166  msg.sender != owner */\n      0xffffffffffffffffffffffffffffffffffffffff\n      and\n        /* \"Lottery.sol\":2147:2157  msg.sender */\n      caller\n        /* \"Lottery.sol\":2147:2166  msg.sender != owner */\n      0xffffffffffffffffffffffffffffffffffffffff\n      and\n      eq\n        /* \"Lottery.sol\":2143:2185  if (msg.sender != owner) revert NotOwner() */\n      tag_98\n      jumpi\n        /* \"Lottery.sol\":2175:2185  NotOwner() */\n      mload(0x40)\n      0x30cd747100000000000000000000000000000000000000000000000000000000\n      dup2\n      mstore\n      0x04\n      add\n      mload(0x40)\n      dup1\n      swap2\n      sub\n      swap1\n      revert\n        /* \"Lottery.sol\":2143:2185  if (msg.sender != owner) revert NotOwner() */\n    tag_98:\n        /* \"Lottery.sol\":2908:2922  newTicketPrice */\n      dup1\n        /* \"Lottery.sol\":2894:2905  ticketPrice */\n      0x01\n        /* \"Lottery.sol\":2894:2922  ticketPrice = newTicketPrice */\n      dup2\n      swap1\n      sstore\n      pop\n        /* \"Lottery.sol\":2937:2971  TicketPriceUpdated(newTicketPrice) */\n      0x7429795511c1ec5ebcc0e6839095ec18f13fce25cdc7c90da9d8a016584a1dbe\n        /* \"Lottery.sol\":2956:2970  newTicketPrice */\n      dup2\n        /* \"Lottery.sol\":2937:2971  TicketPriceUpdated(newTicketPrice) */\n      mload(0x40)\n      tag_100\n      swap2\n      swap1\n      tag_30\n      jump\t// in\n    tag_100:\n      mload(0x40)\n      dup1\n      swap2\n      sub\n      swap1\n      log1\n        /* \"Lottery.sol\":2817:2978  function setTicketPrice(uint256 newTicketPrice) external onlyOwner {... */\n      pop\n      jump\t// out\n        /* \"Lottery.sol\":1626:1657  uint256 public totalSeriesCount */\n    tag_35:\n      sload(0x04)\n      dup2\n      jump\t// out\n        /* \"Lottery.sol\":1591:1620  uint256 public activeSeriesId */\n    tag_38:\n      sload(0x03)\n      dup2\n      jump\t// out\n        /* \"Lottery.sol\":4095:5280  function buyTickets(uint256 count) external {... */\n    tag_42:\n        /* \"Lottery.sol\":4162:4163  0 */\n      0x00\n        /* \"Lottery.sol\":4153:4158  count */\n      dup2\n        /* \"Lottery.sol\":4153:4163  count == 0 */\n      sub\n        /* \"Lottery.sol\":4149:4192  if (count == 0) revert InvalidTicketCount() */\n      tag_102\n      jumpi\n        /* \"Lottery.sol\":4172:4192  InvalidTicketCount() */\n      mload(0x40)\n      0x8e71bef900000000000000000000000000000000000000000000000000000000\n      dup2\n      mstore\n      0x04\n      add\n      mload(0x40)\n      dup1\n      swap2\n      sub\n      swap1\n      revert\n        /* \"Lottery.sol\":4149:4192  if (count == 0) revert InvalidTicketCount() */\n    tag_102:\n        /* \"Lottery.sol\":4203:4224  _ensureActiveSeries() */\n      tag_103\n        /* \"Lottery.sol\":4203:4222  _ensureActiveSeries */\n      tag_104\n        /* \"Lottery.sol\":4203:4224  _ensureActiveSeries() */\n      jump\t// in\n    tag_103:\n        /* \"Lottery.sol\":4256:4257  0 */\n      0x00\n        /* \"Lottery.sol\":4238:4252  activeSeriesId */\n      sload(0x03)\n        /* \"Lottery.sol\":4238:4257  activeSeriesId == 0 */\n      sub\n        /* \"Lottery.sol\":4234:4282  if (activeSeriesId == 0) revert NoActiveSeries() */\n      tag_105\n      jumpi\n        /* \"Lottery.sol\":4266:4282  NoActiveSeries() */\n      mload(0x40)\n      0xba6add4400000000000000000000000000000000000000000000000000000000\n      dup2\n      mstore\n      0x04\n      add\n      mload(0x40)\n      dup1\n      swap2\n      sub\n      swap1\n      revert\n        /* \"Lottery.sol\":4234:4282  if (activeSeriesId == 0) revert NoActiveSeries() */\n    tag_105:\n        /* \"Lottery.sol\":4293:4314  Series storage series */\n      0x00\n        /* \"Lottery.sol\":4317:4327  seriesInfo */\n      0x05\n        /* \"Lottery.sol\":4317:4343  seriesInfo[activeSeriesId] */\n      0x00\n        /* \"Lottery.sol\":4328:4342  activeSeriesId */\n      sload(0x03)\n        /* \"Lottery.sol\":4317:4343  seriesInfo[activeSeriesId] */\n      dup2\n      mstore\n      0x20\n      add\n      swap1\n      dup2\n      mstore\n      0x20\n      add\n      0x00\n      keccak256\n        /* \"Lottery.sol\":4293:4343  Series storage series = seriesInfo[activeSeriesId] */\n      swap1\n      pop\n        /* \"Lottery.sol\":4353:4370  uint256 remaining */\n      0x00\n        /* \"Lottery.sol\":4395:4401  series */\n      dup2\n        /* \"Lottery.sol\":4395:4413  series.ticketsSold */\n      0x01\n      add\n      sload\n        /* \"Lottery.sol\":4373:4379  series */\n      dup3\n        /* \"Lottery.sol\":4373:4392  series.totalTickets */\n      0x00\n      add\n      sload\n        /* \"Lottery.sol\":4373:4413  series.totalTickets - series.ticketsSold */\n      tag_106\n      swap2\n      swap1\n      tag_107\n      jump\t// in\n    tag_106:\n        /* \"Lottery.sol\":4353:4413  uint256 remaining = series.totalTickets - series.ticketsSold */\n      swap1\n      pop\n        /* \"Lottery.sol\":4435:4444  remaining */\n      dup1\n        /* \"Lottery.sol\":4427:4432  count */\n      dup4\n        /* \"Lottery.sol\":4427:4444  count > remaining */\n      gt\n        /* \"Lottery.sol\":4423:4474  if (count > remaining) revert InsufficientTickets() */\n      iszero\n      tag_108\n      jumpi\n        /* \"Lottery.sol\":4453:4474  InsufficientTickets() */\n      mload(0x40)\n      0x19e215bc00000000000000000000000000000000000000000000000000000000\n      dup2\n      mstore\n      0x04\n      add\n      mload(0x40)\n      dup1\n      swap2\n      sub\n      swap1\n      revert\n        /* \"Lottery.sol\":4423:4474  if (count > remaining) revert InsufficientTickets() */\n    tag_108:\n        /* \"Lottery.sol\":4485:4502  uint256 totalCost */\n      0x00\n        /* \"Lottery.sol\":4519:4524  count */\n      dup4\n        /* \"Lottery.sol\":4505:4516  ticketPrice */\n      sload(0x01)\n        /* \"Lottery.sol\":4505:4524  ticketPrice * count */\n      tag_109\n      swap2\n      swap1\n      tag_110\n      jump\t// in\n    tag_109:\n        /* \"Lottery.sol\":4485:4524  uint256 totalCost = ticketPrice * count */\n      swap1\n      pop\n        /* \"Lottery.sol\":4534:4558  uint256 seriesSoldBefore */\n      0x00\n        /* \"Lottery.sol\":4561:4567  series */\n      dup4\n        /* \"Lottery.sol\":4561:4579  series.ticketsSold */\n      0x01\n      add\n      sload\n        /* \"Lottery.sol\":4534:4579  uint256 seriesSoldBefore = series.ticketsSold */\n      swap1\n      pop\n        /* \"Lottery.sol\":4611:4616  count */\n      dup5\n        /* \"Lottery.sol\":4589:4595  series */\n      dup5\n        /* \"Lottery.sol\":4589:4607  series.ticketsSold */\n      0x01\n      add\n      0x00\n        /* \"Lottery.sol\":4589:4616  series.ticketsSold += count */\n      dup3\n      dup3\n      sload\n      tag_111\n      swap2\n      swap1\n      tag_93\n      jump\t// in\n    tag_111:\n      swap3\n      pop\n      pop\n      dup2\n      swap1\n      sstore\n      pop\n        /* \"Lottery.sol\":4641:4646  count */\n      dup5\n        /* \"Lottery.sol\":4626:4637  ticketsSold */\n      0x02\n      0x00\n        /* \"Lottery.sol\":4626:4646  ticketsSold += count */\n      dup3\n      dup3\n      sload\n      tag_112\n      swap2\n      swap1\n      tag_93\n      jump\t// in\n    tag_112:\n      swap3\n      pop\n      pop\n      dup2\n      swap1\n      sstore\n      pop\n        /* \"Lottery.sol\":4686:4691  count */\n      dup5\n        /* \"Lottery.sol\":4656:4670  ticketBalances */\n      0x06\n        /* \"Lottery.sol\":4656:4682  ticketBalances[msg.sender] */\n      0x00\n        /* \"Lottery.sol\":4671:4681  msg.sender */\n      caller\n        /* \"Lottery.sol\":4656:4682  ticketBalances[msg.sender] */\n      0xffffffffffffffffffffffffffffffffffffffff\n      and\n      0xffffffffffffffffffffffffffffffffffffffff\n      and\n      dup2\n      mstore\n      0x20\n      add\n      swap1\n      dup2\n      mstore\n      0x20\n      add\n      0x00\n      keccak256\n      0x00\n        /* \"Lottery.sol\":4656:4691  ticketBalances[msg.sender] += count */\n      dup3\n      dup3\n      sload\n      tag_113\n      swap2\n      swap1\n      tag_93\n      jump\t// in\n    tag_113:\n      swap3\n      pop\n      pop\n      dup2\n      swap1\n      sstore\n      pop\n        /* \"Lottery.sol\":4701:4727  uint256[] memory ticketIds */\n      0x00\n        /* \"Lottery.sol\":4730:4866  _generateTicketSeries(... */\n      tag_114\n        /* \"Lottery.sol\":4765:4775  msg.sender */\n      caller\n        /* \"Lottery.sol\":4789:4803  activeSeriesId */\n      sload(0x03)\n        /* \"Lottery.sol\":4836:4837  1 */\n      0x01\n        /* \"Lottery.sol\":4817:4833  seriesSoldBefore */\n      dup6\n        /* \"Lottery.sol\":4817:4837  seriesSoldBefore + 1 */\n      tag_115\n      swap2\n      swap1\n      tag_93\n      jump\t// in\n    tag_115:\n        /* \"Lottery.sol\":4851:4856  count */\n      dup10\n        /* \"Lottery.sol\":4730:4751  _generateTicketSeries */\n      tag_116\n        /* \"Lottery.sol\":4730:4866  _generateTicketSeries(... */\n      jump\t// in\n    tag_114:\n        /* \"Lottery.sol\":4701:4866  uint256[] memory ticketIds = _generateTicketSeries(... */\n      swap1\n      pop\n        /* \"Lottery.sol\":4939:4953  activeSeriesId */\n      sload(0x03)\n        /* \"Lottery.sol\":4898:4908  msg.sender */\n      caller\n        /* \"Lottery.sol\":4882:4954  TicketPurchased(msg.sender, count, totalCost, ticketIds, activeSeriesId) */\n      0xffffffffffffffffffffffffffffffffffffffff\n      and\n      0x7478e1ca4690b7ad34581c0f0974fc4d6c826cb3d55af76a85334ed9537c5dd9\n        /* \"Lottery.sol\":4910:4915  count */\n      dup9\n        /* \"Lottery.sol\":4917:4926  totalCost */\n      dup7\n        /* \"Lottery.sol\":4928:4937  ticketIds */\n      dup6\n        /* \"Lottery.sol\":4882:4954  TicketPurchased(msg.sender, count, totalCost, ticketIds, activeSeriesId) */\n      mload(0x40)\n      tag_117\n      swap4\n      swap3\n      swap2\n      swap1\n      tag_118\n      jump\t// in\n    tag_117:\n      mload(0x40)\n      dup1\n      swap2\n      sub\n      swap1\n      log3\n        /* \"Lottery.sol\":4981:4982  0 */\n      0x00\n        /* \"Lottery.sol\":4969:4978  totalCost */\n      dup4\n        /* \"Lottery.sol\":4969:4982  totalCost > 0 */\n      gt\n        /* \"Lottery.sol\":4965:5126  if (totalCost > 0) {... */\n      iszero\n      tag_119\n      jumpi\n        /* \"Lottery.sol\":5003:5007  usdt */\n      immutable(\"0x35bb2e240092263378f77ea1e9c278099a33b604c4c4e26d13ea227e8bb74470\")\n        /* \"Lottery.sol\":5003:5020  usdt.transferFrom */\n      0xffffffffffffffffffffffffffffffffffffffff\n      and\n      0x23b872dd\n        /* \"Lottery.sol\":5021:5031  msg.sender */\n      caller\n        /* \"Lottery.sol\":5041:5045  this */\n      address\n        /* \"Lottery.sol\":5048:5057  totalCost */\n      dup7\n        /* \"Lottery.sol\":5003:5058  usdt.transferFrom(msg.sender, address(this), totalCost) */\n      mload(0x40)\n      dup5\n      0xffffffff\n      and\n      0xe0\n      shl\n      dup2\n      mstore\n      0x04\n      add\n      tag_120\n      swap4\n      swap3\n      swap2\n      swap1\n      tag_121\n      jump\t// in\n    tag_120:\n      0x20\n      mload(0x40)\n      dup1\n      dup4\n      sub\n      dup2\n      0x00\n      dup8\n      gas\n      call\n      iszero\n      dup1\n      iszero\n      tag_123\n      jumpi\n      returndatacopy(0x00, 0x00, returndatasize)\n      revert(0x00, returndatasize)\n    tag_123:\n      pop\n      pop\n      pop\n      pop\n      mload(0x40)\n      returndatasize\n      not(0x1f)\n      0x1f\n      dup3\n      add\n      and\n      dup3\n      add\n      dup1\n      0x40\n      mstore\n      pop\n      dup2\n      add\n      swap1\n      tag_124\n      swap2\n      swap1\n      tag_125\n      jump\t// in\n    tag_124:\n        /* \"Lottery.sol\":4998:5116  if (!usdt.transferFrom(msg.sender, address(this), totalCost)) {... */\n      tag_126\n      jumpi\n        /* \"Lottery.sol\":5085:5101  TransferFailed() */\n      mload(0x40)\n      0x90b8ec1800000000000000000000000000000000000000000000000000000000\n      dup2\n      mstore\n      0x04\n      add\n      mload(0x40)\n      dup1\n      swap2\n      sub\n      swap1\n      revert\n        /* \"Lottery.sol\":4998:5116  if (!usdt.transferFrom(msg.sender, address(this), totalCost)) {... */\n    tag_126:\n        /* \"Lottery.sol\":4965:5126  if (totalCost > 0) {... */\n    tag_119:\n        /* \"Lottery.sol\":5162:5168  series */\n      dup5\n        /* \"Lottery.sol\":5162:5181  series.totalTickets */\n      0x00\n      add\n      sload\n        /* \"Lottery.sol\":5140:5146  series */\n      dup6\n        /* \"Lottery.sol\":5140:5158  series.ticketsSold */\n      0x01\n      add\n      sload\n        /* \"Lottery.sol\":5140:5181  series.ticketsSold == series.totalTickets */\n      sub\n        /* \"Lottery.sol\":5136:5274  if (series.ticketsSold == series.totalTickets) {... */\n      tag_127\n      jumpi\n        /* \"Lottery.sol\":5218:5232  activeSeriesId */\n      sload(0x03)\n        /* \"Lottery.sol\":5202:5233  SeriesCompleted(activeSeriesId) */\n      0xfd8d96e5e049823e751e0c23004bdbb7793038835ac2cb5e6eeec672aa5c8ebc\n      mload(0x40)\n      mload(0x40)\n      dup1\n      swap2\n      sub\n      swap1\n      log2\n        /* \"Lottery.sol\":5247:5263  _advanceSeries() */\n      tag_128\n        /* \"Lottery.sol\":5247:5261  _advanceSeries */\n      tag_129\n        /* \"Lottery.sol\":5247:5263  _advanceSeries() */\n      jump\t// in\n    tag_128:\n        /* \"Lottery.sol\":5136:5274  if (series.ticketsSold == series.totalTickets) {... */\n    tag_127:\n        /* \"Lottery.sol\":4139:5280  {... */\n      pop\n      pop\n      pop\n      pop\n      pop\n        /* \"Lottery.sol\":4095:5280  function buyTickets(uint256 count) external {... */\n      pop\n      jump\t// out\n        /* \"Lottery.sol\":1493:1521  IERC20 public immutable usdt */\n    tag_44:\n      immutable(\"0x35bb2e240092263378f77ea1e9c278099a33b604c4c4e26d13ea227e8bb74470\")\n      dup2\n      jump\t// out\n        /* \"Lottery.sol\":5424:5671  function getSeriesInfo(uint256 seriesId)... */\n    tag_49:\n        /* \"Lottery.sol\":5512:5532  uint256 totalTickets */\n      0x00\n        /* \"Lottery.sol\":5534:5546  uint256 sold */\n      0x00\n        /* \"Lottery.sol\":5562:5583  Series storage series */\n      0x00\n        /* \"Lottery.sol\":5586:5596  seriesInfo */\n      0x05\n        /* \"Lottery.sol\":5586:5606  seriesInfo[seriesId] */\n      0x00\n        /* \"Lottery.sol\":5597:5605  seriesId */\n      dup6\n        /* \"Lottery.sol\":5586:5606  seriesInfo[seriesId] */\n      dup2\n      mstore\n      0x20\n      add\n      swap1\n      dup2\n      mstore\n      0x20\n      add\n      0x00\n      keccak256\n        /* \"Lottery.sol\":5562:5606  Series storage series = seriesInfo[seriesId] */\n      swap1\n      pop\n        /* \"Lottery.sol\":5624:5630  series */\n      dup1\n        /* \"Lottery.sol\":5624:5643  series.totalTickets */\n      0x00\n      add\n      sload\n        /* \"Lottery.sol\":5645:5651  series */\n      dup2\n        /* \"Lottery.sol\":5645:5663  series.ticketsSold */\n      0x01\n      add\n      sload\n        /* \"Lottery.sol\":5616:5664  return (series.totalTickets, series.ticketsSold) */\n      swap3\n      pop\n      swap3\n      pop\n      pop\n        /* \"Lottery.sol\":5424:5671  function getSeriesInfo(uint256 seriesId)... */\n      swap2\n      pop\n      swap2\n      jump\t// out\n        /* \"Lottery.sol\":1467:1487  address public owner */\n    tag_53:\n      0x00\n      0x00\n      swap1\n      sload\n      swap1\n      0x0100\n      exp\n      swap1\n      div\n      0xffffffffffffffffffffffffffffffffffffffff\n      and\n      dup2\n      jump\t// out\n        /* \"Lottery.sol\":1559:1585  uint256 public ticketsSold */\n    tag_57:\n      sload(0x02)\n      dup2\n      jump\t// out\n        /* \"Lottery.sol\":5286:5418  function getOwnedTicketIds(address account) external view returns (uint256[] memory) {... */\n    tag_62:\n        /* \"Lottery.sol\":5353:5369  uint256[] memory */\n      0x60\n        /* \"Lottery.sol\":5388:5402  ownedTicketIds */\n      0x09\n        /* \"Lottery.sol\":5388:5411  ownedTicketIds[account] */\n      0x00\n        /* \"Lottery.sol\":5403:5410  account */\n      dup4\n        /* \"Lottery.sol\":5388:5411  ownedTicketIds[account] */\n      0xffffffffffffffffffffffffffffffffffffffff\n      and\n      0xffffffffffffffffffffffffffffffffffffffff\n      and\n      dup2\n      mstore\n      0x20\n      add\n      swap1\n      dup2\n      mstore\n      0x20\n      add\n      0x00\n      keccak256\n        /* \"Lottery.sol\":5381:5411  return ownedTicketIds[account] */\n      dup1\n      sload\n      dup1\n      0x20\n      mul\n      0x20\n      add\n      mload(0x40)\n      swap1\n      dup2\n      add\n      0x40\n      mstore\n      dup1\n      swap3\n      swap2\n      swap1\n      dup2\n      dup2\n      mstore\n      0x20\n      add\n      dup3\n      dup1\n      sload\n      dup1\n      iszero\n      tag_132\n      jumpi\n      0x20\n      mul\n      dup3\n      add\n      swap2\n      swap1\n      0x00\n      mstore\n      keccak256(0x00, 0x20)\n      swap1\n    tag_133:\n      dup2\n      sload\n      dup2\n      mstore\n      0x20\n      add\n      swap1\n      0x01\n      add\n      swap1\n      dup1\n      dup4\n      gt\n      tag_133\n      jumpi\n    tag_132:\n      pop\n      pop\n      pop\n      pop\n      pop\n      swap1\n      pop\n        /* \"Lottery.sol\":5286:5418  function getOwnedTicketIds(address account) external view returns (uint256[] memory) {... */\n      swap2\n      swap1\n      pop\n      jump\t// out\n        /* \"Lottery.sol\":1713:1762  mapping(address => uint256) public ticketBalances */\n    tag_67:\n      mstore(0x20, 0x06)\n      dup1\n      0x00\n      mstore\n      keccak256(0x00, 0x40)\n      0x00\n      swap2\n      pop\n      swap1\n      pop\n      sload\n      dup2\n      jump\t// out\n        /* \"Lottery.sol\":1768:1815  mapping(uint256 => address) public ticketOwners */\n    tag_71:\n      mstore(0x20, 0x07)\n      dup1\n      0x00\n      mstore\n      keccak256(0x00, 0x40)\n      0x00\n      swap2\n      pop\n      sload\n      swap1\n      0x0100\n      exp\n      swap1\n      div\n      0xffffffffffffffffffffffffffffffffffffffff\n      and\n      dup2\n      jump\t// out\n        /* \"Lottery.sol\":2984:3142  function transferOwnership(address newOwner) external onlyOwner {... */\n    tag_75:\n        /* \"Lottery.sol\":2161:2166  owner */\n      0x00\n      0x00\n      swap1\n      sload\n      swap1\n      0x0100\n      exp\n      swap1\n      div\n      0xffffffffffffffffffffffffffffffffffffffff\n      and\n        /* \"Lottery.sol\":2147:2166  msg.sender != owner */\n      0xffffffffffffffffffffffffffffffffffffffff\n      and\n        /* \"Lottery.sol\":2147:2157  msg.sender */\n      caller\n        /* \"Lottery.sol\":2147:2166  msg.sender != owner */\n      0xffffffffffffffffffffffffffffffffffffffff\n      and\n      eq\n        /* \"Lottery.sol\":2143:2185  if (msg.sender != owner) revert NotOwner() */\n      tag_135\n      jumpi\n        /* \"Lottery.sol\":2175:2185  NotOwner() */\n      mload(0x40)\n      0x30cd747100000000000000000000000000000000000000000000000000000000\n      dup2\n      mstore\n      0x04\n      add\n      mload(0x40)\n      dup1\n      swap2\n      sub\n      swap1\n      revert\n        /* \"Lottery.sol\":2143:2185  if (msg.sender != owner) revert NotOwner() */\n    tag_135:\n        /* \"Lottery.sol\":3082:3083  0 */\n      0x00\n        /* \"Lottery.sol\":3062:3084  newOwner == address(0) */\n      0xffffffffffffffffffffffffffffffffffffffff\n      and\n        /* \"Lottery.sol\":3062:3070  newOwner */\n      dup2\n        /* \"Lottery.sol\":3062:3084  newOwner == address(0) */\n      0xffffffffffffffffffffffffffffffffffffffff\n      and\n      sub\n        /* \"Lottery.sol\":3058:3109  if (newOwner == address(0)) revert InvalidAddress() */\n      tag_137\n      jumpi\n        /* \"Lottery.sol\":3093:3109  InvalidAddress() */\n      mload(0x40)\n      0xe6c4247b00000000000000000000000000000000000000000000000000000000\n      dup2\n      mstore\n      0x04\n      add\n      mload(0x40)\n      dup1\n      swap2\n      sub\n      swap1\n      revert\n        /* \"Lottery.sol\":3058:3109  if (newOwner == address(0)) revert InvalidAddress() */\n    tag_137:\n        /* \"Lottery.sol\":3127:3135  newOwner */\n      dup1\n        /* \"Lottery.sol\":3119:3124  owner */\n      0x00\n      0x00\n        /* \"Lottery.sol\":3119:3135  owner = newOwner */\n      0x0100\n      exp\n      dup2\n      sload\n      dup2\n      0xffffffffffffffffffffffffffffffffffffffff\n      mul\n      not\n      and\n      swap1\n      dup4\n      0xffffffffffffffffffffffffffffffffffffffff\n      and\n      mul\n      or\n      swap1\n      sstore\n      pop\n        /* \"Lottery.sol\":2984:3142  function transferOwnership(address newOwner) external onlyOwner {... */\n      pop\n      jump\t// out\n        /* \"Lottery.sol\":1821:1868  mapping(uint256 => uint256) public ticketSeries */\n    tag_78:\n      mstore(0x20, 0x08)\n      dup1\n      0x00\n      mstore\n      keccak256(0x00, 0x40)\n      0x00\n      swap2\n      pop\n      swap1\n      pop\n      sload\n      dup2\n      jump\t// out\n        /* \"Lottery.sol\":3148:3375  function withdraw(address to, uint256 amount) external onlyOwner {... */\n    tag_83:\n        /* \"Lottery.sol\":2161:2166  owner */\n      0x00\n      0x00\n      swap1\n      sload\n      swap1\n      0x0100\n      exp\n      swap1\n      div\n      0xffffffffffffffffffffffffffffffffffffffff\n      and\n        /* \"Lottery.sol\":2147:2166  msg.sender != owner */\n      0xffffffffffffffffffffffffffffffffffffffff\n      and\n        /* \"Lottery.sol\":2147:2157  msg.sender */\n      caller\n        /* \"Lottery.sol\":2147:2166  msg.sender != owner */\n      0xffffffffffffffffffffffffffffffffffffffff\n      and\n      eq\n        /* \"Lottery.sol\":2143:2185  if (msg.sender != owner) revert NotOwner() */\n      tag_139\n      jumpi\n        /* \"Lottery.sol\":2175:2185  NotOwner() */\n      mload(0x40)\n      0x30cd747100000000000000000000000000000000000000000000000000000000\n      dup2\n      mstore\n      0x04\n      add\n      mload(0x40)\n      dup1\n      swap2\n      sub\n      swap1\n      revert\n        /* \"Lottery.sol\":2143:2185  if (msg.sender != owner) revert NotOwner() */\n    tag_139:\n        /* \"Lottery.sol\":3241:3242  0 */\n      0x00\n        /* \"Lottery.sol\":3227:3243  to == address(0) */\n      0xffffffffffffffffffffffffffffffffffffffff\n      and\n        /* \"Lottery.sol\":3227:3229  to */\n      dup3\n        /* \"Lottery.sol\":3227:3243  to == address(0) */\n      0xffffffffffffffffffffffffffffffffffffffff\n      and\n      sub\n        /* \"Lottery.sol\":3223:3268  if (to == address(0)) revert InvalidAddress() */\n      tag_141\n      jumpi\n        /* \"Lottery.sol\":3252:3268  InvalidAddress() */\n      mload(0x40)\n      0xe6c4247b00000000000000000000000000000000000000000000000000000000\n      dup2\n      mstore\n      0x04\n      add\n      mload(0x40)\n      dup1\n      swap2\n      sub\n      swap1\n      revert\n        /* \"Lottery.sol\":3223:3268  if (to == address(0)) revert InvalidAddress() */\n    tag_141:\n        /* \"Lottery.sol\":3283:3287  usdt */\n      immutable(\"0x35bb2e240092263378f77ea1e9c278099a33b604c4c4e26d13ea227e8bb74470\")\n        /* \"Lottery.sol\":3283:3296  usdt.transfer */\n      0xffffffffffffffffffffffffffffffffffffffff\n      and\n      0xa9059cbb\n        /* \"Lottery.sol\":3297:3299  to */\n      dup4\n        /* \"Lottery.sol\":3301:3307  amount */\n      dup4\n        /* \"Lottery.sol\":3283:3308  usdt.transfer(to, amount) */\n      mload(0x40)\n      dup4\n      0xffffffff\n      and\n      0xe0\n      shl\n      dup2\n      mstore\n      0x04\n      add\n      tag_142\n      swap3\n      swap2\n      swap1\n      tag_143\n      jump\t// in\n    tag_142:\n      0x20\n      mload(0x40)\n      dup1\n      dup4\n      sub\n      dup2\n      0x00\n      dup8\n      gas\n      call\n      iszero\n      dup1\n      iszero\n      tag_145\n      jumpi\n      returndatacopy(0x00, 0x00, returndatasize)\n      revert(0x00, returndatasize)\n    tag_145:\n      pop\n      pop\n      pop\n      pop\n      mload(0x40)\n      returndatasize\n      not(0x1f)\n      0x1f\n      dup3\n      add\n      and\n      dup3\n      add\n      dup1\n      0x40\n      mstore\n      pop\n      dup2\n      add\n      swap1\n      tag_146\n      swap2\n      swap1\n      tag_125\n      jump\t// in\n    tag_146:\n        /* \"Lottery.sol\":3278:3333  if (!usdt.transfer(to, amount)) revert TransferFailed() */\n      tag_147\n      jumpi\n        /* \"Lottery.sol\":3317:3333  TransferFailed() */\n      mload(0x40)\n      0x90b8ec1800000000000000000000000000000000000000000000000000000000\n      dup2\n      mstore\n      0x04\n      add\n      mload(0x40)\n      dup1\n      swap2\n      sub\n      swap1\n      revert\n        /* \"Lottery.sol\":3278:3333  if (!usdt.transfer(to, amount)) revert TransferFailed() */\n    tag_147:\n        /* \"Lottery.sol\":3357:3359  to */\n      dup2\n        /* \"Lottery.sol\":3348:3368  Withdraw(to, amount) */\n      0xffffffffffffffffffffffffffffffffffffffff\n      and\n      0x884edad9ce6fa2440d8a54cc123490eb96d2768479d49ff9c7366125a9424364\n        /* \"Lottery.sol\":3361:3367  amount */\n      dup3\n        /* \"Lottery.sol\":3348:3368  Withdraw(to, amount) */\n      mload(0x40)\n      tag_148\n      swap2\n      swap1\n      tag_30\n      jump\t// in\n    tag_148:\n      mload(0x40)\n      dup1\n      swap2\n      sub\n      swap1\n      log2\n        /* \"Lottery.sol\":3148:3375  function withdraw(address to, uint256 amount) external onlyOwner {... */\n      pop\n      pop\n      jump\t// out\n        /* \"Lottery.sol\":1663:1707  mapping(uint256 => Series) public seriesInfo */\n    tag_86:\n      mstore(0x20, 0x05)\n      dup1\n      0x00\n      mstore\n      keccak256(0x00, 0x40)\n      0x00\n      swap2\n      pop\n      swap1\n      pop\n      dup1\n      0x00\n      add\n      sload\n      swap1\n      dup1\n      0x01\n      add\n      sload\n      swap1\n      pop\n      dup3\n      jump\t// out\n        /* \"Lottery.sol\":6508:6808  function _ensureActiveSeries() internal {... */\n    tag_104:\n        /* \"Lottery.sol\":6580:6581  0 */\n      0x00\n        /* \"Lottery.sol\":6562:6576  activeSeriesId */\n      sload(0x03)\n        /* \"Lottery.sol\":6562:6581  activeSeriesId == 0 */\n      sub\n        /* \"Lottery.sol\":6558:6644  if (activeSeriesId == 0) {... */\n      tag_150\n      jumpi\n        /* \"Lottery.sol\":6597:6613  _advanceSeries() */\n      tag_151\n        /* \"Lottery.sol\":6597:6611  _advanceSeries */\n      tag_129\n        /* \"Lottery.sol\":6597:6613  _advanceSeries() */\n      jump\t// in\n    tag_151:\n        /* \"Lottery.sol\":6627:6634  return; */\n      jump(tag_149)\n        /* \"Lottery.sol\":6558:6644  if (activeSeriesId == 0) {... */\n    tag_150:\n        /* \"Lottery.sol\":6654:6675  Series storage series */\n      0x00\n        /* \"Lottery.sol\":6678:6688  seriesInfo */\n      0x05\n        /* \"Lottery.sol\":6678:6704  seriesInfo[activeSeriesId] */\n      0x00\n        /* \"Lottery.sol\":6689:6703  activeSeriesId */\n      sload(0x03)\n        /* \"Lottery.sol\":6678:6704  seriesInfo[activeSeriesId] */\n      dup2\n      mstore\n      0x20\n      add\n      swap1\n      dup2\n      mstore\n      0x20\n      add\n      0x00\n      keccak256\n        /* \"Lottery.sol\":6654:6704  Series storage series = seriesInfo[activeSeriesId] */\n      swap1\n      pop\n        /* \"Lottery.sol\":6740:6746  series */\n      dup1\n        /* \"Lottery.sol\":6740:6759  series.totalTickets */\n      0x00\n      add\n      sload\n        /* \"Lottery.sol\":6718:6724  series */\n      dup2\n        /* \"Lottery.sol\":6718:6736  series.ticketsSold */\n      0x01\n      add\n      sload\n        /* \"Lottery.sol\":6718:6759  series.ticketsSold == series.totalTickets */\n      sub\n        /* \"Lottery.sol\":6714:6802  if (series.ticketsSold == series.totalTickets) {... */\n      tag_152\n      jumpi\n        /* \"Lottery.sol\":6775:6791  _advanceSeries() */\n      tag_153\n        /* \"Lottery.sol\":6775:6789  _advanceSeries */\n      tag_129\n        /* \"Lottery.sol\":6775:6791  _advanceSeries() */\n      jump\t// in\n    tag_153:\n        /* \"Lottery.sol\":6714:6802  if (series.ticketsSold == series.totalTickets) {... */\n    tag_152:\n        /* \"Lottery.sol\":6548:6808  {... */\n      pop\n        /* \"Lottery.sol\":6508:6808  function _ensureActiveSeries() internal {... */\n    tag_149:\n      jump\t// out\n        /* \"Lottery.sol\":5863:6502  function _generateTicketSeries(... */\n    tag_116:\n        /* \"Lottery.sol\":6035:6061  uint256[] memory ticketIds */\n      0x60\n        /* \"Lottery.sol\":6103:6108  count */\n      dup2\n        /* \"Lottery.sol\":6089:6109  new uint256[](count) */\n      0xffffffffffffffff\n      dup2\n      gt\n      iszero\n      tag_155\n      jumpi\n      tag_156\n      tag_157\n      jump\t// in\n    tag_156:\n    tag_155:\n      mload(0x40)\n      swap1\n      dup1\n      dup3\n      mstore\n      dup1\n      0x20\n      mul\n      0x20\n      add\n      dup3\n      add\n      0x40\n      mstore\n      dup1\n      iszero\n      tag_158\n      jumpi\n      dup2\n      0x20\n      add\n      0x20\n      dup3\n      mul\n      dup1\n      calldatasize\n      dup4\n      calldatacopy\n      dup1\n      dup3\n      add\n      swap2\n      pop\n      pop\n      swap1\n      pop\n    tag_158:\n      pop\n        /* \"Lottery.sol\":6077:6109  ticketIds = new uint256[](count) */\n      swap1\n      pop\n        /* \"Lottery.sol\":6124:6133  uint256 i */\n      0x00\n        /* \"Lottery.sol\":6136:6137  0 */\n      0x00\n        /* \"Lottery.sol\":6124:6137  uint256 i = 0 */\n      swap1\n      pop\n        /* \"Lottery.sol\":6119:6496  for (uint256 i = 0; i < count; i++) {... */\n    tag_159:\n        /* \"Lottery.sol\":6143:6148  count */\n      dup3\n        /* \"Lottery.sol\":6139:6140  i */\n      dup2\n        /* \"Lottery.sol\":6139:6148  i < count */\n      lt\n        /* \"Lottery.sol\":6119:6496  for (uint256 i = 0; i < count; i++) {... */\n      iszero\n      tag_160\n      jumpi\n        /* \"Lottery.sol\":6169:6189  uint256 ticketNumber */\n      0x00\n        /* \"Lottery.sol\":6206:6207  i */\n      dup2\n        /* \"Lottery.sol\":6192:6203  startNumber */\n      dup6\n        /* \"Lottery.sol\":6192:6207  startNumber + i */\n      tag_162\n      swap2\n      swap1\n      tag_93\n      jump\t// in\n    tag_162:\n        /* \"Lottery.sol\":6169:6207  uint256 ticketNumber = startNumber + i */\n      swap1\n      pop\n        /* \"Lottery.sol\":6221:6244  uint256 currentTicketId */\n      0x00\n        /* \"Lottery.sol\":6267:6279  ticketNumber */\n      dup2\n        /* \"Lottery.sol\":6260:6263  128 */\n      0x80\n        /* \"Lottery.sol\":6248:6256  seriesId */\n      dup9\n        /* \"Lottery.sol\":6248:6263  seriesId << 128 */\n      swap1\n      shl\n        /* \"Lottery.sol\":6247:6279  (seriesId << 128) | ticketNumber */\n      or\n        /* \"Lottery.sol\":6221:6279  uint256 currentTicketId = (seriesId << 128) | ticketNumber */\n      swap1\n      pop\n        /* \"Lottery.sol\":6325:6330  buyer */\n      dup8\n        /* \"Lottery.sol\":6293:6305  ticketOwners */\n      0x07\n        /* \"Lottery.sol\":6293:6322  ticketOwners[currentTicketId] */\n      0x00\n        /* \"Lottery.sol\":6306:6321  currentTicketId */\n      dup4\n        /* \"Lottery.sol\":6293:6322  ticketOwners[currentTicketId] */\n      dup2\n      mstore\n      0x20\n      add\n      swap1\n      dup2\n      mstore\n      0x20\n      add\n      0x00\n      keccak256\n      0x00\n        /* \"Lottery.sol\":6293:6330  ticketOwners[currentTicketId] = buyer */\n      0x0100\n      exp\n      dup2\n      sload\n      dup2\n      0xffffffffffffffffffffffffffffffffffffffff\n      mul\n      not\n      and\n      swap1\n      dup4\n      0xffffffffffffffffffffffffffffffffffffffff\n      and\n      mul\n      or\n      swap1\n      sstore\n      pop\n        /* \"Lottery.sol\":6376:6384  seriesId */\n      dup7\n        /* \"Lottery.sol\":6344:6356  ticketSeries */\n      0x08\n        /* \"Lottery.sol\":6344:6373  ticketSeries[currentTicketId] */\n      0x00\n        /* \"Lottery.sol\":6357:6372  currentTicketId */\n      dup4\n        /* \"Lottery.sol\":6344:6373  ticketSeries[currentTicketId] */\n      dup2\n      mstore\n      0x20\n      add\n      swap1\n      dup2\n      mstore\n      0x20\n      add\n      0x00\n      keccak256\n        /* \"Lottery.sol\":6344:6384  ticketSeries[currentTicketId] = seriesId */\n      dup2\n      swap1\n      sstore\n      pop\n        /* \"Lottery.sol\":6398:6412  ownedTicketIds */\n      0x09\n        /* \"Lottery.sol\":6398:6419  ownedTicketIds[buyer] */\n      0x00\n        /* \"Lottery.sol\":6413:6418  buyer */\n      dup10\n        /* \"Lottery.sol\":6398:6419  ownedTicketIds[buyer] */\n      0xffffffffffffffffffffffffffffffffffffffff\n      and\n      0xffffffffffffffffffffffffffffffffffffffff\n      and\n      dup2\n      mstore\n      0x20\n      add\n      swap1\n      dup2\n      mstore\n      0x20\n      add\n      0x00\n      keccak256\n        /* \"Lottery.sol\":6425:6440  currentTicketId */\n      dup2\n        /* \"Lottery.sol\":6398:6441  ownedTicketIds[buyer].push(currentTicketId) */\n      swap1\n      dup1\n      0x01\n      dup2\n      sload\n      add\n      dup1\n      dup3\n      sstore\n      dup1\n      swap2\n      pop\n      pop\n      0x01\n      swap1\n      sub\n      swap1\n      0x00\n      mstore\n      keccak256(0x00, 0x20)\n      add\n      0x00\n      swap1\n      swap2\n      swap1\n      swap2\n      swap1\n      swap2\n      pop\n      sstore\n        /* \"Lottery.sol\":6470:6485  currentTicketId */\n      dup1\n        /* \"Lottery.sol\":6455:6464  ticketIds */\n      dup5\n        /* \"Lottery.sol\":6465:6466  i */\n      dup5\n        /* \"Lottery.sol\":6455:6467  ticketIds[i] */\n      dup2\n      mload\n      dup2\n      lt\n      tag_164\n      jumpi\n      tag_165\n      tag_166\n      jump\t// in\n    tag_165:\n    tag_164:\n      0x20\n      mul\n      0x20\n      add\n      add\n        /* \"Lottery.sol\":6455:6485  ticketIds[i] = currentTicketId */\n      dup2\n      dup2\n      mstore\n      pop\n      pop\n        /* \"Lottery.sol\":6155:6496  {... */\n      pop\n      pop\n        /* \"Lottery.sol\":6150:6153  i++ */\n      dup1\n      dup1\n      0x01\n      add\n      swap2\n      pop\n      pop\n        /* \"Lottery.sol\":6119:6496  for (uint256 i = 0; i < count; i++) {... */\n      jump(tag_159)\n    tag_160:\n      pop\n        /* \"Lottery.sol\":5863:6502  function _generateTicketSeries(... */\n      swap5\n      swap4\n      pop\n      pop\n      pop\n      pop\n      jump\t// out\n        /* \"Lottery.sol\":6814:7351  function _advanceSeries() internal {... */\n    tag_129:\n        /* \"Lottery.sol\":6859:6874  uint256 startId */\n      0x00\n        /* \"Lottery.sol\":6895:6896  0 */\n      0x00\n        /* \"Lottery.sol\":6877:6891  activeSeriesId */\n      sload(0x03)\n        /* \"Lottery.sol\":6877:6896  activeSeriesId == 0 */\n      eq\n        /* \"Lottery.sol\":6877:6921  activeSeriesId == 0 ? 1 : activeSeriesId + 1 */\n      tag_168\n      jumpi\n        /* \"Lottery.sol\":6920:6921  1 */\n      0x01\n        /* \"Lottery.sol\":6903:6917  activeSeriesId */\n      sload(0x03)\n        /* \"Lottery.sol\":6903:6921  activeSeriesId + 1 */\n      tag_169\n      swap2\n      swap1\n      tag_93\n      jump\t// in\n    tag_169:\n        /* \"Lottery.sol\":6877:6921  activeSeriesId == 0 ? 1 : activeSeriesId + 1 */\n      jump(tag_170)\n    tag_168:\n        /* \"Lottery.sol\":6899:6900  1 */\n      0x01\n        /* \"Lottery.sol\":6877:6921  activeSeriesId == 0 ? 1 : activeSeriesId + 1 */\n    tag_170:\n        /* \"Lottery.sol\":6859:6921  uint256 startId = activeSeriesId == 0 ? 1 : activeSeriesId + 1 */\n      swap1\n      pop\n        /* \"Lottery.sol\":6936:6946  uint256 id */\n      0x00\n        /* \"Lottery.sol\":6949:6956  startId */\n      dup2\n        /* \"Lottery.sol\":6936:6956  uint256 id = startId */\n      swap1\n      pop\n        /* \"Lottery.sol\":6931:7316  for (uint256 id = startId; id <= totalSeriesCount; id++) {... */\n    tag_171:\n        /* \"Lottery.sol\":6964:6980  totalSeriesCount */\n      sload(0x04)\n        /* \"Lottery.sol\":6958:6960  id */\n      dup2\n        /* \"Lottery.sol\":6958:6980  id <= totalSeriesCount */\n      gt\n        /* \"Lottery.sol\":6931:7316  for (uint256 id = startId; id <= totalSeriesCount; id++) {... */\n      tag_172\n      jumpi\n        /* \"Lottery.sol\":7002:7026  Series storage candidate */\n      0x00\n        /* \"Lottery.sol\":7029:7039  seriesInfo */\n      0x05\n        /* \"Lottery.sol\":7029:7043  seriesInfo[id] */\n      0x00\n        /* \"Lottery.sol\":7040:7042  id */\n      dup4\n        /* \"Lottery.sol\":7029:7043  seriesInfo[id] */\n      dup2\n      mstore\n      0x20\n      add\n      swap1\n      dup2\n      mstore\n      0x20\n      add\n      0x00\n      keccak256\n        /* \"Lottery.sol\":7002:7043  Series storage candidate = seriesInfo[id] */\n      swap1\n      pop\n        /* \"Lottery.sol\":7087:7088  0 */\n      0x00\n        /* \"Lottery.sol\":7061:7070  candidate */\n      dup2\n        /* \"Lottery.sol\":7061:7083  candidate.totalTickets */\n      0x00\n      add\n      sload\n        /* \"Lottery.sol\":7061:7088  candidate.totalTickets == 0 */\n      sub\n        /* \"Lottery.sol\":7057:7098  if (candidate.totalTickets == 0) continue */\n      tag_174\n      jumpi\n        /* \"Lottery.sol\":7090:7098  continue */\n      pop\n      jump(tag_173)\n        /* \"Lottery.sol\":7057:7098  if (candidate.totalTickets == 0) continue */\n    tag_174:\n        /* \"Lottery.sol\":7140:7149  candidate */\n      dup1\n        /* \"Lottery.sol\":7140:7162  candidate.totalTickets */\n      0x00\n      add\n      sload\n        /* \"Lottery.sol\":7116:7125  candidate */\n      dup2\n        /* \"Lottery.sol\":7116:7137  candidate.ticketsSold */\n      0x01\n      add\n      sload\n        /* \"Lottery.sol\":7116:7162  candidate.ticketsSold < candidate.totalTickets */\n      lt\n        /* \"Lottery.sol\":7112:7306  if (candidate.ticketsSold < candidate.totalTickets) {... */\n      iszero\n      tag_175\n      jumpi\n        /* \"Lottery.sol\":7199:7201  id */\n      dup2\n        /* \"Lottery.sol\":7182:7196  activeSeriesId */\n      0x03\n        /* \"Lottery.sol\":7182:7201  activeSeriesId = id */\n      dup2\n      swap1\n      sstore\n      pop\n        /* \"Lottery.sol\":7240:7242  id */\n      dup2\n        /* \"Lottery.sol\":7224:7267  SeriesActivated(id, candidate.totalTickets) */\n      0x92f4672ba5b2b4f28a7cee1336b7f92f4c6d73f32a8a3317187229febcb68a4b\n        /* \"Lottery.sol\":7244:7253  candidate */\n      dup3\n        /* \"Lottery.sol\":7244:7266  candidate.totalTickets */\n      0x00\n      add\n      sload\n        /* \"Lottery.sol\":7224:7267  SeriesActivated(id, candidate.totalTickets) */\n      mload(0x40)\n      tag_176\n      swap2\n      swap1\n      tag_30\n      jump\t// in\n    tag_176:\n      mload(0x40)\n      dup1\n      swap2\n      sub\n      swap1\n      log2\n        /* \"Lottery.sol\":7285:7292  return; */\n      pop\n      pop\n      pop\n      jump(tag_167)\n        /* \"Lottery.sol\":7112:7306  if (candidate.ticketsSold < candidate.totalTickets) {... */\n    tag_175:\n        /* \"Lottery.sol\":6988:7316  {... */\n      pop\n        /* \"Lottery.sol\":6931:7316  for (uint256 id = startId; id <= totalSeriesCount; id++) {... */\n    tag_173:\n        /* \"Lottery.sol\":6982:6986  id++ */\n      dup1\n      dup1\n      tag_177\n      swap1\n      tag_178\n      jump\t// in\n    tag_177:\n      swap2\n      pop\n      pop\n        /* \"Lottery.sol\":6931:7316  for (uint256 id = startId; id <= totalSeriesCount; id++) {... */\n      jump(tag_171)\n    tag_172:\n      pop\n        /* \"Lottery.sol\":7343:7344  0 */\n      0x00\n        /* \"Lottery.sol\":7326:7340  activeSeriesId */\n      0x03\n        /* \"Lottery.sol\":7326:7344  activeSeriesId = 0 */\n      dup2\n      swap1\n      sstore\n      pop\n        /* \"Lottery.sol\":6849:7351  {... */\n      pop\n        /* \"Lottery.sol\":6814:7351  function _advanceSeries() internal {... */\n    tag_167:\n      jump\t// out\n        /* \"#utility.yul\":88:205   */\n    tag_180:\n        /* \"#utility.yul\":197:198   */\n      0x00\n        /* \"#utility.yul\":194:195   */\n      0x00\n        /* \"#utility.yul\":187:199   */\n      revert\n        /* \"#utility.yul\":334:411   */\n    tag_182:\n        /* \"#utility.yul\":371:378   */\n      0x00\n        /* \"#utility.yul\":400:405   */\n      dup2\n        /* \"#utility.yul\":389:405   */\n      swap1\n      pop\n        /* \"#utility.yul\":334:411   */\n      swap2\n      swap1\n      pop\n      jump\t// out\n        /* \"#utility.yul\":417:539   */\n    tag_183:\n        /* \"#utility.yul\":490:514   */\n      tag_213\n        /* \"#utility.yul\":508:513   */\n      dup2\n        /* \"#utility.yul\":490:514   */\n      tag_182\n      jump\t// in\n    tag_213:\n        /* \"#utility.yul\":483:488   */\n      dup2\n        /* \"#utility.yul\":480:515   */\n      eq\n        /* \"#utility.yul\":470:533   */\n      tag_214\n      jumpi\n        /* \"#utility.yul\":529:530   */\n      0x00\n        /* \"#utility.yul\":526:527   */\n      0x00\n        /* \"#utility.yul\":519:531   */\n      revert\n        /* \"#utility.yul\":470:533   */\n    tag_214:\n        /* \"#utility.yul\":417:539   */\n      pop\n      jump\t// out\n        /* \"#utility.yul\":545:684   */\n    tag_184:\n        /* \"#utility.yul\":591:596   */\n      0x00\n        /* \"#utility.yul\":629:635   */\n      dup2\n        /* \"#utility.yul\":616:636   */\n      calldataload\n        /* \"#utility.yul\":607:636   */\n      swap1\n      pop\n        /* \"#utility.yul\":645:678   */\n      tag_216\n        /* \"#utility.yul\":672:677   */\n      dup2\n        /* \"#utility.yul\":645:678   */\n      tag_183\n      jump\t// in\n    tag_216:\n        /* \"#utility.yul\":545:684   */\n      swap3\n      swap2\n      pop\n      pop\n      jump\t// out\n        /* \"#utility.yul\":690:1019   */\n    tag_25:\n        /* \"#utility.yul\":749:755   */\n      0x00\n        /* \"#utility.yul\":798:800   */\n      0x20\n        /* \"#utility.yul\":786:795   */\n      dup3\n        /* \"#utility.yul\":777:784   */\n      dup5\n        /* \"#utility.yul\":773:796   */\n      sub\n        /* \"#utility.yul\":769:801   */\n      slt\n        /* \"#utility.yul\":766:885   */\n      iszero\n      tag_218\n      jumpi\n        /* \"#utility.yul\":804:883   */\n      tag_219\n      tag_180\n      jump\t// in\n    tag_219:\n        /* \"#utility.yul\":766:885   */\n    tag_218:\n        /* \"#utility.yul\":924:925   */\n      0x00\n        /* \"#utility.yul\":949:1002   */\n      tag_220\n        /* \"#utility.yul\":994:1001   */\n      dup5\n        /* \"#utility.yul\":985:991   */\n      dup3\n        /* \"#utility.yul\":974:983   */\n      dup6\n        /* \"#utility.yul\":970:992   */\n      add\n        /* \"#utility.yul\":949:1002   */\n      tag_184\n      jump\t// in\n    tag_220:\n        /* \"#utility.yul\":939:1002   */\n      swap2\n      pop\n        /* \"#utility.yul\":895:1012   */\n      pop\n        /* \"#utility.yul\":690:1019   */\n      swap3\n      swap2\n      pop\n      pop\n      jump\t// out\n        /* \"#utility.yul\":1025:1143   */\n    tag_185:\n        /* \"#utility.yul\":1112:1136   */\n      tag_222\n        /* \"#utility.yul\":1130:1135   */\n      dup2\n        /* \"#utility.yul\":1112:1136   */\n      tag_182\n      jump\t// in\n    tag_222:\n        /* \"#utility.yul\":1107:1110   */\n      dup3\n        /* \"#utility.yul\":1100:1137   */\n      mstore\n        /* \"#utility.yul\":1025:1143   */\n      pop\n      pop\n      jump\t// out\n        /* \"#utility.yul\":1149:1371   */\n    tag_30:\n        /* \"#utility.yul\":1242:1246   */\n      0x00\n        /* \"#utility.yul\":1280:1282   */\n      0x20\n        /* \"#utility.yul\":1269:1278   */\n      dup3\n        /* \"#utility.yul\":1265:1283   */\n      add\n        /* \"#utility.yul\":1257:1283   */\n      swap1\n      pop\n        /* \"#utility.yul\":1293:1364   */\n      tag_224\n        /* \"#utility.yul\":1361:1362   */\n      0x00\n        /* \"#utility.yul\":1350:1359   */\n      dup4\n        /* \"#utility.yul\":1346:1363   */\n      add\n        /* \"#utility.yul\":1337:1343   */\n      dup5\n        /* \"#utility.yul\":1293:1364   */\n      tag_185\n      jump\t// in\n    tag_224:\n        /* \"#utility.yul\":1149:1371   */\n      swap3\n      swap2\n      pop\n      pop\n      jump\t// out\n        /* \"#utility.yul\":1377:1503   */\n    tag_186:\n        /* \"#utility.yul\":1414:1421   */\n      0x00\n        /* \"#utility.yul\":1454:1496   */\n      0xffffffffffffffffffffffffffffffffffffffff\n        /* \"#utility.yul\":1447:1452   */\n      dup3\n        /* \"#utility.yul\":1443:1497   */\n      and\n        /* \"#utility.yul\":1432:1497   */\n      swap1\n      pop\n        /* \"#utility.yul\":1377:1503   */\n      swap2\n      swap1\n      pop\n      jump\t// out\n        /* \"#utility.yul\":1509:1569   */\n    tag_187:\n        /* \"#utility.yul\":1537:1540   */\n      0x00\n        /* \"#utility.yul\":1558:1563   */\n      dup2\n        /* \"#utility.yul\":1551:1563   */\n      swap1\n      pop\n        /* \"#utility.yul\":1509:1569   */\n      swap2\n      swap1\n      pop\n      jump\t// out\n        /* \"#utility.yul\":1575:1717   */\n    tag_188:\n        /* \"#utility.yul\":1625:1634   */\n      0x00\n        /* \"#utility.yul\":1658:1711   */\n      tag_228\n        /* \"#utility.yul\":1676:1710   */\n      tag_229\n        /* \"#utility.yul\":1685:1709   */\n      tag_230\n        /* \"#utility.yul\":1703:1708   */\n      dup5\n        /* \"#utility.yul\":1685:1709   */\n      tag_186\n      jump\t// in\n    tag_230:\n        /* \"#utility.yul\":1676:1710   */\n      tag_187\n      jump\t// in\n    tag_229:\n        /* \"#utility.yul\":1658:1711   */\n      tag_186\n      jump\t// in\n    tag_228:\n        /* \"#utility.yul\":1645:1711   */\n      swap1\n      pop\n        /* \"#utility.yul\":1575:1717   */\n      swap2\n      swap1\n      pop\n      jump\t// out\n        /* \"#utility.yul\":1723:1849   */\n    tag_189:\n        /* \"#utility.yul\":1773:1782   */\n      0x00\n        /* \"#utility.yul\":1806:1843   */\n      tag_232\n        /* \"#utility.yul\":1837:1842   */\n      dup3\n        /* \"#utility.yul\":1806:1843   */\n      tag_188\n      jump\t// in\n    tag_232:\n        /* \"#utility.yul\":1793:1843   */\n      swap1\n      pop\n        /* \"#utility.yul\":1723:1849   */\n      swap2\n      swap1\n      pop\n      jump\t// out\n        /* \"#utility.yul\":1855:1995   */\n    tag_190:\n        /* \"#utility.yul\":1919:1928   */\n      0x00\n        /* \"#utility.yul\":1952:1989   */\n      tag_234\n        /* \"#utility.yul\":1983:1988   */\n      dup3\n        /* \"#utility.yul\":1952:1989   */\n      tag_189\n      jump\t// in\n    tag_234:\n        /* \"#utility.yul\":1939:1989   */\n      swap1\n      pop\n        /* \"#utility.yul\":1855:1995   */\n      swap2\n      swap1\n      pop\n      jump\t// out\n        /* \"#utility.yul\":2001:2160   */\n    tag_191:\n        /* \"#utility.yul\":2102:2153   */\n      tag_236\n        /* \"#utility.yul\":2147:2152   */\n      dup2\n        /* \"#utility.yul\":2102:2153   */\n      tag_190\n      jump\t// in\n    tag_236:\n        /* \"#utility.yul\":2097:2100   */\n      dup3\n        /* \"#utility.yul\":2090:2154   */\n      mstore\n        /* \"#utility.yul\":2001:2160   */\n      pop\n      pop\n      jump\t// out\n        /* \"#utility.yul\":2166:2416   */\n    tag_46:\n        /* \"#utility.yul\":2273:2277   */\n      0x00\n        /* \"#utility.yul\":2311:2313   */\n      0x20\n        /* \"#utility.yul\":2300:2309   */\n      dup3\n        /* \"#utility.yul\":2296:2314   */\n      add\n        /* \"#utility.yul\":2288:2314   */\n      swap1\n      pop\n        /* \"#utility.yul\":2324:2409   */\n      tag_238\n        /* \"#utility.yul\":2406:2407   */\n      0x00\n        /* \"#utility.yul\":2395:2404   */\n      dup4\n        /* \"#utility.yul\":2391:2408   */\n      add\n        /* \"#utility.yul\":2382:2388   */\n      dup5\n        /* \"#utility.yul\":2324:2409   */\n      tag_191\n      jump\t// in\n    tag_238:\n        /* \"#utility.yul\":2166:2416   */\n      swap3\n      swap2\n      pop\n      pop\n      jump\t// out\n        /* \"#utility.yul\":2422:2754   */\n    tag_51:\n        /* \"#utility.yul\":2543:2547   */\n      0x00\n        /* \"#utility.yul\":2581:2583   */\n      0x40\n        /* \"#utility.yul\":2570:2579   */\n      dup3\n        /* \"#utility.yul\":2566:2584   */\n      add\n        /* \"#utility.yul\":2558:2584   */\n      swap1\n      pop\n        /* \"#utility.yul\":2594:2665   */\n      tag_240\n        /* \"#utility.yul\":2662:2663   */\n      0x00\n        /* \"#utility.yul\":2651:2660   */\n      dup4\n        /* \"#utility.yul\":2647:2664   */\n      add\n        /* \"#utility.yul\":2638:2644   */\n      dup6\n        /* \"#utility.yul\":2594:2665   */\n      tag_185\n      jump\t// in\n    tag_240:\n        /* \"#utility.yul\":2675:2747   */\n      tag_241\n        /* \"#utility.yul\":2743:2745   */\n      0x20\n        /* \"#utility.yul\":2732:2741   */\n      dup4\n        /* \"#utility.yul\":2728:2746   */\n      add\n        /* \"#utility.yul\":2719:2725   */\n      dup5\n        /* \"#utility.yul\":2675:2747   */\n      tag_185\n      jump\t// in\n    tag_241:\n        /* \"#utility.yul\":2422:2754   */\n      swap4\n      swap3\n      pop\n      pop\n      pop\n      jump\t// out\n        /* \"#utility.yul\":2760:2856   */\n    tag_192:\n        /* \"#utility.yul\":2797:2804   */\n      0x00\n        /* \"#utility.yul\":2826:2850   */\n      tag_243\n        /* \"#utility.yul\":2844:2849   */\n      dup3\n        /* \"#utility.yul\":2826:2850   */\n      tag_186\n      jump\t// in\n    tag_243:\n        /* \"#utility.yul\":2815:2850   */\n      swap1\n      pop\n        /* \"#utility.yul\":2760:2856   */\n      swap2\n      swap1\n      pop\n      jump\t// out\n        /* \"#utility.yul\":2862:2980   */\n    tag_193:\n        /* \"#utility.yul\":2949:2973   */\n      tag_245\n        /* \"#utility.yul\":2967:2972   */\n      dup2\n        /* \"#utility.yul\":2949:2973   */\n      tag_192\n      jump\t// in\n    tag_245:\n        /* \"#utility.yul\":2944:2947   */\n      dup3\n        /* \"#utility.yul\":2937:2974   */\n      mstore\n        /* \"#utility.yul\":2862:2980   */\n      pop\n      pop\n      jump\t// out\n        /* \"#utility.yul\":2986:3208   */\n    tag_55:\n        /* \"#utility.yul\":3079:3083   */\n      0x00\n        /* \"#utility.yul\":3117:3119   */\n      0x20\n        /* \"#utility.yul\":3106:3115   */\n      dup3\n        /* \"#utility.yul\":3102:3120   */\n      add\n        /* \"#utility.yul\":3094:3120   */\n      swap1\n      pop\n        /* \"#utility.yul\":3130:3201   */\n      tag_247\n        /* \"#utility.yul\":3198:3199   */\n      0x00\n        /* \"#utility.yul\":3187:3196   */\n      dup4\n        /* \"#utility.yul\":3183:3200   */\n      add\n        /* \"#utility.yul\":3174:3180   */\n      dup5\n        /* \"#utility.yul\":3130:3201   */\n      tag_193\n      jump\t// in\n    tag_247:\n        /* \"#utility.yul\":2986:3208   */\n      swap3\n      swap2\n      pop\n      pop\n      jump\t// out\n        /* \"#utility.yul\":3214:3336   */\n    tag_194:\n        /* \"#utility.yul\":3287:3311   */\n      tag_249\n        /* \"#utility.yul\":3305:3310   */\n      dup2\n        /* \"#utility.yul\":3287:3311   */\n      tag_192\n      jump\t// in\n    tag_249:\n        /* \"#utility.yul\":3280:3285   */\n      dup2\n        /* \"#utility.yul\":3277:3312   */\n      eq\n        /* \"#utility.yul\":3267:3330   */\n      tag_250\n      jumpi\n        /* \"#utility.yul\":3326:3327   */\n      0x00\n        /* \"#utility.yul\":3323:3324   */\n      0x00\n        /* \"#utility.yul\":3316:3328   */\n      revert\n        /* \"#utility.yul\":3267:3330   */\n    tag_250:\n        /* \"#utility.yul\":3214:3336   */\n      pop\n      jump\t// out\n        /* \"#utility.yul\":3342:3481   */\n    tag_195:\n        /* \"#utility.yul\":3388:3393   */\n      0x00\n        /* \"#utility.yul\":3426:3432   */\n      dup2\n        /* \"#utility.yul\":3413:3433   */\n      calldataload\n        /* \"#utility.yul\":3404:3433   */\n      swap1\n      pop\n        /* \"#utility.yul\":3442:3475   */\n      tag_252\n        /* \"#utility.yul\":3469:3474   */\n      dup2\n        /* \"#utility.yul\":3442:3475   */\n      tag_194\n      jump\t// in\n    tag_252:\n        /* \"#utility.yul\":3342:3481   */\n      swap3\n      swap2\n      pop\n      pop\n      jump\t// out\n        /* \"#utility.yul\":3487:3816   */\n    tag_61:\n        /* \"#utility.yul\":3546:3552   */\n      0x00\n        /* \"#utility.yul\":3595:3597   */\n      0x20\n        /* \"#utility.yul\":3583:3592   */\n      dup3\n        /* \"#utility.yul\":3574:3581   */\n      dup5\n        /* \"#utility.yul\":3570:3593   */\n      sub\n        /* \"#utility.yul\":3566:3598   */\n      slt\n        /* \"#utility.yul\":3563:3682   */\n      iszero\n      tag_254\n      jumpi\n        /* \"#utility.yul\":3601:3680   */\n      tag_255\n      tag_180\n      jump\t// in\n    tag_255:\n        /* \"#utility.yul\":3563:3682   */\n    tag_254:\n        /* \"#utility.yul\":3721:3722   */\n      0x00\n        /* \"#utility.yul\":3746:3799   */\n      tag_256\n        /* \"#utility.yul\":3791:3798   */\n      dup5\n        /* \"#utility.yul\":3782:3788   */\n      dup3\n        /* \"#utility.yul\":3771:3780   */\n      dup6\n        /* \"#utility.yul\":3767:3789   */\n      add\n        /* \"#utility.yul\":3746:3799   */\n      tag_195\n      jump\t// in\n    tag_256:\n        /* \"#utility.yul\":3736:3799   */\n      swap2\n      pop\n        /* \"#utility.yul\":3692:3809   */\n      pop\n        /* \"#utility.yul\":3487:3816   */\n      swap3\n      swap2\n      pop\n      pop\n      jump\t// out\n        /* \"#utility.yul\":3822:3936   */\n    tag_196:\n        /* \"#utility.yul\":3889:3895   */\n      0x00\n        /* \"#utility.yul\":3923:3928   */\n      dup2\n        /* \"#utility.yul\":3917:3929   */\n      mload\n        /* \"#utility.yul\":3907:3929   */\n      swap1\n      pop\n        /* \"#utility.yul\":3822:3936   */\n      swap2\n      swap1\n      pop\n      jump\t// out\n        /* \"#utility.yul\":3942:4126   */\n    tag_197:\n        /* \"#utility.yul\":4041:4052   */\n      0x00\n        /* \"#utility.yul\":4075:4081   */\n      dup3\n        /* \"#utility.yul\":4070:4073   */\n      dup3\n        /* \"#utility.yul\":4063:4082   */\n      mstore\n        /* \"#utility.yul\":4115:4119   */\n      0x20\n        /* \"#utility.yul\":4110:4113   */\n      dup3\n        /* \"#utility.yul\":4106:4120   */\n      add\n        /* \"#utility.yul\":4091:4120   */\n      swap1\n      pop\n        /* \"#utility.yul\":3942:4126   */\n      swap3\n      swap2\n      pop\n      pop\n      jump\t// out\n        /* \"#utility.yul\":4132:4264   */\n    tag_198:\n        /* \"#utility.yul\":4199:4203   */\n      0x00\n        /* \"#utility.yul\":4222:4225   */\n      dup2\n        /* \"#utility.yul\":4214:4225   */\n      swap1\n      pop\n        /* \"#utility.yul\":4252:4256   */\n      0x20\n        /* \"#utility.yul\":4247:4250   */\n      dup3\n        /* \"#utility.yul\":4243:4257   */\n      add\n        /* \"#utility.yul\":4235:4257   */\n      swap1\n      pop\n        /* \"#utility.yul\":4132:4264   */\n      swap2\n      swap1\n      pop\n      jump\t// out\n        /* \"#utility.yul\":4270:4378   */\n    tag_199:\n        /* \"#utility.yul\":4347:4371   */\n      tag_261\n        /* \"#utility.yul\":4365:4370   */\n      dup2\n        /* \"#utility.yul\":4347:4371   */\n      tag_182\n      jump\t// in\n    tag_261:\n        /* \"#utility.yul\":4342:4345   */\n      dup3\n        /* \"#utility.yul\":4335:4372   */\n      mstore\n        /* \"#utility.yul\":4270:4378   */\n      pop\n      pop\n      jump\t// out\n        /* \"#utility.yul\":4384:4563   */\n    tag_200:\n        /* \"#utility.yul\":4453:4463   */\n      0x00\n        /* \"#utility.yul\":4474:4520   */\n      tag_263\n        /* \"#utility.yul\":4516:4519   */\n      dup4\n        /* \"#utility.yul\":4508:4514   */\n      dup4\n        /* \"#utility.yul\":4474:4520   */\n      tag_199\n      jump\t// in\n    tag_263:\n        /* \"#utility.yul\":4552:4556   */\n      0x20\n        /* \"#utility.yul\":4547:4550   */\n      dup4\n        /* \"#utility.yul\":4543:4557   */\n      add\n        /* \"#utility.yul\":4529:4557   */\n      swap1\n      pop\n        /* \"#utility.yul\":4384:4563   */\n      swap3\n      swap2\n      pop\n      pop\n      jump\t// out\n        /* \"#utility.yul\":4569:4682   */\n    tag_201:\n        /* \"#utility.yul\":4639:4643   */\n      0x00\n        /* \"#utility.yul\":4671:4675   */\n      0x20\n        /* \"#utility.yul\":4666:4669   */\n      dup3\n        /* \"#utility.yul\":4662:4676   */\n      add\n        /* \"#utility.yul\":4654:4676   */\n      swap1\n      pop\n        /* \"#utility.yul\":4569:4682   */\n      swap2\n      swap1\n      pop\n      jump\t// out\n        /* \"#utility.yul\":4718:5450   */\n    tag_202:\n        /* \"#utility.yul\":4837:4840   */\n      0x00\n        /* \"#utility.yul\":4866:4920   */\n      tag_266\n        /* \"#utility.yul\":4914:4919   */\n      dup3\n        /* \"#utility.yul\":4866:4920   */\n      tag_196\n      jump\t// in\n    tag_266:\n        /* \"#utility.yul\":4936:5022   */\n      tag_267\n        /* \"#utility.yul\":5015:5021   */\n      dup2\n        /* \"#utility.yul\":5010:5013   */\n      dup6\n        /* \"#utility.yul\":4936:5022   */\n      tag_197\n      jump\t// in\n    tag_267:\n        /* \"#utility.yul\":4929:5022   */\n      swap4\n      pop\n        /* \"#utility.yul\":5046:5102   */\n      tag_268\n        /* \"#utility.yul\":5096:5101   */\n      dup4\n        /* \"#utility.yul\":5046:5102   */\n      tag_198\n      jump\t// in\n    tag_268:\n        /* \"#utility.yul\":5125:5132   */\n      dup1\n        /* \"#utility.yul\":5156:5157   */\n      0x00\n        /* \"#utility.yul\":5141:5425   */\n    tag_269:\n        /* \"#utility.yul\":5166:5172   */\n      dup4\n        /* \"#utility.yul\":5163:5164   */\n      dup2\n        /* \"#utility.yul\":5160:5173   */\n      lt\n        /* \"#utility.yul\":5141:5425   */\n      iszero\n      tag_271\n      jumpi\n        /* \"#utility.yul\":5242:5248   */\n      dup2\n        /* \"#utility.yul\":5236:5249   */\n      mload\n        /* \"#utility.yul\":5269:5332   */\n      tag_272\n        /* \"#utility.yul\":5328:5331   */\n      dup9\n        /* \"#utility.yul\":5313:5326   */\n      dup3\n        /* \"#utility.yul\":5269:5332   */\n      tag_200\n      jump\t// in\n    tag_272:\n        /* \"#utility.yul\":5262:5332   */\n      swap8\n      pop\n        /* \"#utility.yul\":5355:5415   */\n      tag_273\n        /* \"#utility.yul\":5408:5414   */\n      dup4\n        /* \"#utility.yul\":5355:5415   */\n      tag_201\n      jump\t// in\n    tag_273:\n        /* \"#utility.yul\":5345:5415   */\n      swap3\n      pop\n        /* \"#utility.yul\":5201:5425   */\n      pop\n        /* \"#utility.yul\":5188:5189   */\n      0x01\n        /* \"#utility.yul\":5185:5186   */\n      dup2\n        /* \"#utility.yul\":5181:5190   */\n      add\n        /* \"#utility.yul\":5176:5190   */\n      swap1\n      pop\n        /* \"#utility.yul\":5141:5425   */\n      jump(tag_269)\n    tag_271:\n        /* \"#utility.yul\":5145:5159   */\n      pop\n        /* \"#utility.yul\":5441:5444   */\n      dup6\n        /* \"#utility.yul\":5434:5444   */\n      swap4\n      pop\n        /* \"#utility.yul\":4842:5450   */\n      pop\n      pop\n      pop\n        /* \"#utility.yul\":4718:5450   */\n      swap3\n      swap2\n      pop\n      pop\n      jump\t// out\n        /* \"#utility.yul\":5456:5829   */\n    tag_64:\n        /* \"#utility.yul\":5599:5603   */\n      0x00\n        /* \"#utility.yul\":5637:5639   */\n      0x20\n        /* \"#utility.yul\":5626:5635   */\n      dup3\n        /* \"#utility.yul\":5622:5640   */\n      add\n        /* \"#utility.yul\":5614:5640   */\n      swap1\n      pop\n        /* \"#utility.yul\":5686:5695   */\n      dup2\n        /* \"#utility.yul\":5680:5684   */\n      dup2\n        /* \"#utility.yul\":5676:5696   */\n      sub\n        /* \"#utility.yul\":5672:5673   */\n      0x00\n        /* \"#utility.yul\":5661:5670   */\n      dup4\n        /* \"#utility.yul\":5657:5674   */\n      add\n        /* \"#utility.yul\":5650:5697   */\n      mstore\n        /* \"#utility.yul\":5714:5822   */\n      tag_275\n        /* \"#utility.yul\":5817:5821   */\n      dup2\n        /* \"#utility.yul\":5808:5814   */\n      dup5\n        /* \"#utility.yul\":5714:5822   */\n      tag_202\n      jump\t// in\n    tag_275:\n        /* \"#utility.yul\":5706:5822   */\n      swap1\n      pop\n        /* \"#utility.yul\":5456:5829   */\n      swap3\n      swap2\n      pop\n      pop\n      jump\t// out\n        /* \"#utility.yul\":5835:6309   */\n    tag_82:\n        /* \"#utility.yul\":5903:5909   */\n      0x00\n        /* \"#utility.yul\":5911:5917   */\n      0x00\n        /* \"#utility.yul\":5960:5962   */\n      0x40\n        /* \"#utility.yul\":5948:5957   */\n      dup4\n        /* \"#utility.yul\":5939:5946   */\n      dup6\n        /* \"#utility.yul\":5935:5958   */\n      sub\n        /* \"#utility.yul\":5931:5963   */\n      slt\n        /* \"#utility.yul\":5928:6047   */\n      iszero\n      tag_277\n      jumpi\n        /* \"#utility.yul\":5966:6045   */\n      tag_278\n      tag_180\n      jump\t// in\n    tag_278:\n        /* \"#utility.yul\":5928:6047   */\n    tag_277:\n        /* \"#utility.yul\":6086:6087   */\n      0x00\n        /* \"#utility.yul\":6111:6164   */\n      tag_279\n        /* \"#utility.yul\":6156:6163   */\n      dup6\n        /* \"#utility.yul\":6147:6153   */\n      dup3\n        /* \"#utility.yul\":6136:6145   */\n      dup7\n        /* \"#utility.yul\":6132:6154   */\n      add\n        /* \"#utility.yul\":6111:6164   */\n      tag_195\n      jump\t// in\n    tag_279:\n        /* \"#utility.yul\":6101:6164   */\n      swap3\n      pop\n        /* \"#utility.yul\":6057:6174   */\n      pop\n        /* \"#utility.yul\":6213:6215   */\n      0x20\n        /* \"#utility.yul\":6239:6292   */\n      tag_280\n        /* \"#utility.yul\":6284:6291   */\n      dup6\n        /* \"#utility.yul\":6275:6281   */\n      dup3\n        /* \"#utility.yul\":6264:6273   */\n      dup7\n        /* \"#utility.yul\":6260:6282   */\n      add\n        /* \"#utility.yul\":6239:6292   */\n      tag_184\n      jump\t// in\n    tag_280:\n        /* \"#utility.yul\":6229:6292   */\n      swap2\n      pop\n        /* \"#utility.yul\":6184:6302   */\n      pop\n        /* \"#utility.yul\":5835:6309   */\n      swap3\n      pop\n      swap3\n      swap1\n      pop\n      jump\t// out\n        /* \"#utility.yul\":6315:6495   */\n    tag_203:\n        /* \"#utility.yul\":6363:6440   */\n      0x4e487b7100000000000000000000000000000000000000000000000000000000\n        /* \"#utility.yul\":6360:6361   */\n      0x00\n        /* \"#utility.yul\":6353:6441   */\n      mstore\n        /* \"#utility.yul\":6460:6464   */\n      0x11\n        /* \"#utility.yul\":6457:6458   */\n      0x04\n        /* \"#utility.yul\":6450:6465   */\n      mstore\n        /* \"#utility.yul\":6484:6488   */\n      0x24\n        /* \"#utility.yul\":6481:6482   */\n      0x00\n        /* \"#utility.yul\":6474:6489   */\n      revert\n        /* \"#utility.yul\":6501:6692   */\n    tag_93:\n        /* \"#utility.yul\":6541:6544   */\n      0x00\n        /* \"#utility.yul\":6560:6580   */\n      tag_283\n        /* \"#utility.yul\":6578:6579   */\n      dup3\n        /* \"#utility.yul\":6560:6580   */\n      tag_182\n      jump\t// in\n    tag_283:\n        /* \"#utility.yul\":6555:6580   */\n      swap2\n      pop\n        /* \"#utility.yul\":6594:6614   */\n      tag_284\n        /* \"#utility.yul\":6612:6613   */\n      dup4\n        /* \"#utility.yul\":6594:6614   */\n      tag_182\n      jump\t// in\n    tag_284:\n        /* \"#utility.yul\":6589:6614   */\n      swap3\n      pop\n        /* \"#utility.yul\":6637:6638   */\n      dup3\n        /* \"#utility.yul\":6634:6635   */\n      dup3\n        /* \"#utility.yul\":6630:6639   */\n      add\n        /* \"#utility.yul\":6623:6639   */\n      swap1\n      pop\n        /* \"#utility.yul\":6658:6661   */\n      dup1\n        /* \"#utility.yul\":6655:6656   */\n      dup3\n        /* \"#utility.yul\":6652:6662   */\n      gt\n        /* \"#utility.yul\":6649:6685   */\n      iszero\n      tag_285\n      jumpi\n        /* \"#utility.yul\":6665:6683   */\n      tag_286\n      tag_203\n      jump\t// in\n    tag_286:\n        /* \"#utility.yul\":6649:6685   */\n    tag_285:\n        /* \"#utility.yul\":6501:6692   */\n      swap3\n      swap2\n      pop\n      pop\n      jump\t// out\n        /* \"#utility.yul\":6698:6892   */\n    tag_107:\n        /* \"#utility.yul\":6738:6742   */\n      0x00\n        /* \"#utility.yul\":6758:6778   */\n      tag_288\n        /* \"#utility.yul\":6776:6777   */\n      dup3\n        /* \"#utility.yul\":6758:6778   */\n      tag_182\n      jump\t// in\n    tag_288:\n        /* \"#utility.yul\":6753:6778   */\n      swap2\n      pop\n        /* \"#utility.yul\":6792:6812   */\n      tag_289\n        /* \"#utility.yul\":6810:6811   */\n      dup4\n        /* \"#utility.yul\":6792:6812   */\n      tag_182\n      jump\t// in\n    tag_289:\n        /* \"#utility.yul\":6787:6812   */\n      swap3\n      pop\n        /* \"#utility.yul\":6836:6837   */\n      dup3\n        /* \"#utility.yul\":6833:6834   */\n      dup3\n        /* \"#utility.yul\":6829:6838   */\n      sub\n        /* \"#utility.yul\":6821:6838   */\n      swap1\n      pop\n        /* \"#utility.yul\":6860:6861   */\n      dup2\n        /* \"#utility.yul\":6854:6858   */\n      dup2\n        /* \"#utility.yul\":6851:6862   */\n      gt\n        /* \"#utility.yul\":6848:6885   */\n      iszero\n      tag_290\n      jumpi\n        /* \"#utility.yul\":6865:6883   */\n      tag_291\n      tag_203\n      jump\t// in\n    tag_291:\n        /* \"#utility.yul\":6848:6885   */\n    tag_290:\n        /* \"#utility.yul\":6698:6892   */\n      swap3\n      swap2\n      pop\n      pop\n      jump\t// out\n        /* \"#utility.yul\":6898:7308   */\n    tag_110:\n        /* \"#utility.yul\":6938:6945   */\n      0x00\n        /* \"#utility.yul\":6961:6981   */\n      tag_293\n        /* \"#utility.yul\":6979:6980   */\n      dup3\n        /* \"#utility.yul\":6961:6981   */\n      tag_182\n      jump\t// in\n    tag_293:\n        /* \"#utility.yul\":6956:6981   */\n      swap2\n      pop\n        /* \"#utility.yul\":6995:7015   */\n      tag_294\n        /* \"#utility.yul\":7013:7014   */\n      dup4\n        /* \"#utility.yul\":6995:7015   */\n      tag_182\n      jump\t// in\n    tag_294:\n        /* \"#utility.yul\":6990:7015   */\n      swap3\n      pop\n        /* \"#utility.yul\":7050:7051   */\n      dup3\n        /* \"#utility.yul\":7047:7048   */\n      dup3\n        /* \"#utility.yul\":7043:7052   */\n      mul\n        /* \"#utility.yul\":7072:7102   */\n      tag_295\n        /* \"#utility.yul\":7090:7101   */\n      dup2\n        /* \"#utility.yul\":7072:7102   */\n      tag_182\n      jump\t// in\n    tag_295:\n        /* \"#utility.yul\":7061:7102   */\n      swap2\n      pop\n        /* \"#utility.yul\":7251:7252   */\n      dup3\n        /* \"#utility.yul\":7242:7249   */\n      dup3\n        /* \"#utility.yul\":7238:7253   */\n      div\n        /* \"#utility.yul\":7235:7236   */\n      dup5\n        /* \"#utility.yul\":7232:7254   */\n      eq\n        /* \"#utility.yul\":7212:7213   */\n      dup4\n        /* \"#utility.yul\":7205:7214   */\n      iszero\n        /* \"#utility.yul\":7185:7268   */\n      or\n        /* \"#utility.yul\":7162:7301   */\n      tag_296\n      jumpi\n        /* \"#utility.yul\":7281:7299   */\n      tag_297\n      tag_203\n      jump\t// in\n    tag_297:\n        /* \"#utility.yul\":7162:7301   */\n    tag_296:\n        /* \"#utility.yul\":6946:7308   */\n      pop\n        /* \"#utility.yul\":6898:7308   */\n      swap3\n      swap2\n      pop\n      pop\n      jump\t// out\n        /* \"#utility.yul\":7314:7907   */\n    tag_118:\n        /* \"#utility.yul\":7513:7517   */\n      0x00\n        /* \"#utility.yul\":7551:7553   */\n      0x60\n        /* \"#utility.yul\":7540:7549   */\n      dup3\n        /* \"#utility.yul\":7536:7554   */\n      add\n        /* \"#utility.yul\":7528:7554   */\n      swap1\n      pop\n        /* \"#utility.yul\":7564:7635   */\n      tag_299\n        /* \"#utility.yul\":7632:7633   */\n      0x00\n        /* \"#utility.yul\":7621:7630   */\n      dup4\n        /* \"#utility.yul\":7617:7634   */\n      add\n        /* \"#utility.yul\":7608:7614   */\n      dup7\n        /* \"#utility.yul\":7564:7635   */\n      tag_185\n      jump\t// in\n    tag_299:\n        /* \"#utility.yul\":7645:7717   */\n      tag_300\n        /* \"#utility.yul\":7713:7715   */\n      0x20\n        /* \"#utility.yul\":7702:7711   */\n      dup4\n        /* \"#utility.yul\":7698:7716   */\n      add\n        /* \"#utility.yul\":7689:7695   */\n      dup6\n        /* \"#utility.yul\":7645:7717   */\n      tag_185\n      jump\t// in\n    tag_300:\n        /* \"#utility.yul\":7764:7773   */\n      dup2\n        /* \"#utility.yul\":7758:7762   */\n      dup2\n        /* \"#utility.yul\":7754:7774   */\n      sub\n        /* \"#utility.yul\":7749:7751   */\n      0x40\n        /* \"#utility.yul\":7738:7747   */\n      dup4\n        /* \"#utility.yul\":7734:7752   */\n      add\n        /* \"#utility.yul\":7727:7775   */\n      mstore\n        /* \"#utility.yul\":7792:7900   */\n      tag_301\n        /* \"#utility.yul\":7895:7899   */\n      dup2\n        /* \"#utility.yul\":7886:7892   */\n      dup5\n        /* \"#utility.yul\":7792:7900   */\n      tag_202\n      jump\t// in\n    tag_301:\n        /* \"#utility.yul\":7784:7900   */\n      swap1\n      pop\n        /* \"#utility.yul\":7314:7907   */\n      swap5\n      swap4\n      pop\n      pop\n      pop\n      pop\n      jump\t// out\n        /* \"#utility.yul\":7913:8355   */\n    tag_121:\n        /* \"#utility.yul\":8062:8066   */\n      0x00\n        /* \"#utility.yul\":8100:8102   */\n      0x60\n        /* \"#utility.yul\":8089:8098   */\n      dup3\n        /* \"#utility.yul\":8085:8103   */\n      add\n        /* \"#utility.yul\":8077:8103   */\n      swap1\n      pop\n        /* \"#utility.yul\":8113:8184   */\n      tag_303\n        /* \"#utility.yul\":8181:8182   */\n      0x00\n        /* \"#utility.yul\":8170:8179   */\n      dup4\n        /* \"#utility.yul\":8166:8183   */\n      add\n        /* \"#utility.yul\":8157:8163   */\n      dup7\n        /* \"#utility.yul\":8113:8184   */\n      tag_193\n      jump\t// in\n    tag_303:\n        /* \"#utility.yul\":8194:8266   */\n      tag_304\n        /* \"#utility.yul\":8262:8264   */\n      0x20\n        /* \"#utility.yul\":8251:8260   */\n      dup4\n        /* \"#utility.yul\":8247:8265   */\n      add\n        /* \"#utility.yul\":8238:8244   */\n      dup6\n        /* \"#utility.yul\":8194:8266   */\n      tag_193\n      jump\t// in\n    tag_304:\n        /* \"#utility.yul\":8276:8348   */\n      tag_305\n        /* \"#utility.yul\":8344:8346   */\n      0x40\n        /* \"#utility.yul\":8333:8342   */\n      dup4\n        /* \"#utility.yul\":8329:8347   */\n      add\n        /* \"#utility.yul\":8320:8326   */\n      dup5\n        /* \"#utility.yul\":8276:8348   */\n      tag_185\n      jump\t// in\n    tag_305:\n        /* \"#utility.yul\":7913:8355   */\n      swap5\n      swap4\n      pop\n      pop\n      pop\n      pop\n      jump\t// out\n        /* \"#utility.yul\":8361:8451   */\n    tag_204:\n        /* \"#utility.yul\":8395:8402   */\n      0x00\n        /* \"#utility.yul\":8438:8443   */\n      dup2\n        /* \"#utility.yul\":8431:8444   */\n      iszero\n        /* \"#utility.yul\":8424:8445   */\n      iszero\n        /* \"#utility.yul\":8413:8445   */\n      swap1\n      pop\n        /* \"#utility.yul\":8361:8451   */\n      swap2\n      swap1\n      pop\n      jump\t// out\n        /* \"#utility.yul\":8457:8573   */\n    tag_205:\n        /* \"#utility.yul\":8527:8548   */\n      tag_308\n        /* \"#utility.yul\":8542:8547   */\n      dup2\n        /* \"#utility.yul\":8527:8548   */\n      tag_204\n      jump\t// in\n    tag_308:\n        /* \"#utility.yul\":8520:8525   */\n      dup2\n        /* \"#utility.yul\":8517:8549   */\n      eq\n        /* \"#utility.yul\":8507:8567   */\n      tag_309\n      jumpi\n        /* \"#utility.yul\":8563:8564   */\n      0x00\n        /* \"#utility.yul\":8560:8561   */\n      0x00\n        /* \"#utility.yul\":8553:8565   */\n      revert\n        /* \"#utility.yul\":8507:8567   */\n    tag_309:\n        /* \"#utility.yul\":8457:8573   */\n      pop\n      jump\t// out\n        /* \"#utility.yul\":8579:8716   */\n    tag_206:\n        /* \"#utility.yul\":8633:8638   */\n      0x00\n        /* \"#utility.yul\":8664:8670   */\n      dup2\n        /* \"#utility.yul\":8658:8671   */\n      mload\n        /* \"#utility.yul\":8649:8671   */\n      swap1\n      pop\n        /* \"#utility.yul\":8680:8710   */\n      tag_311\n        /* \"#utility.yul\":8704:8709   */\n      dup2\n        /* \"#utility.yul\":8680:8710   */\n      tag_205\n      jump\t// in\n    tag_311:\n        /* \"#utility.yul\":8579:8716   */\n      swap3\n      swap2\n      pop\n      pop\n      jump\t// out\n        /* \"#utility.yul\":8722:9067   */\n    tag_125:\n        /* \"#utility.yul\":8789:8795   */\n      0x00\n        /* \"#utility.yul\":8838:8840   */\n      0x20\n        /* \"#utility.yul\":8826:8835   */\n      dup3\n        /* \"#utility.yul\":8817:8824   */\n      dup5\n        /* \"#utility.yul\":8813:8836   */\n      sub\n        /* \"#utility.yul\":8809:8841   */\n      slt\n        /* \"#utility.yul\":8806:8925   */\n      iszero\n      tag_313\n      jumpi\n        /* \"#utility.yul\":8844:8923   */\n      tag_314\n      tag_180\n      jump\t// in\n    tag_314:\n        /* \"#utility.yul\":8806:8925   */\n    tag_313:\n        /* \"#utility.yul\":8964:8965   */\n      0x00\n        /* \"#utility.yul\":8989:9050   */\n      tag_315\n        /* \"#utility.yul\":9042:9049   */\n      dup5\n        /* \"#utility.yul\":9033:9039   */\n      dup3\n        /* \"#utility.yul\":9022:9031   */\n      dup6\n        /* \"#utility.yul\":9018:9040   */\n      add\n        /* \"#utility.yul\":8989:9050   */\n      tag_206\n      jump\t// in\n    tag_315:\n        /* \"#utility.yul\":8979:9050   */\n      swap2\n      pop\n        /* \"#utility.yul\":8935:9060   */\n      pop\n        /* \"#utility.yul\":8722:9067   */\n      swap3\n      swap2\n      pop\n      pop\n      jump\t// out\n        /* \"#utility.yul\":9073:9405   */\n    tag_143:\n        /* \"#utility.yul\":9194:9198   */\n      0x00\n        /* \"#utility.yul\":9232:9234   */\n      0x40\n        /* \"#utility.yul\":9221:9230   */\n      dup3\n        /* \"#utility.yul\":9217:9235   */\n      add\n        /* \"#utility.yul\":9209:9235   */\n      swap1\n      pop\n        /* \"#utility.yul\":9245:9316   */\n      tag_317\n        /* \"#utility.yul\":9313:9314   */\n      0x00\n        /* \"#utility.yul\":9302:9311   */\n      dup4\n        /* \"#utility.yul\":9298:9315   */\n      add\n        /* \"#utility.yul\":9289:9295   */\n      dup6\n        /* \"#utility.yul\":9245:9316   */\n      tag_193\n      jump\t// in\n    tag_317:\n        /* \"#utility.yul\":9326:9398   */\n      tag_318\n        /* \"#utility.yul\":9394:9396   */\n      0x20\n        /* \"#utility.yul\":9383:9392   */\n      dup4\n        /* \"#utility.yul\":9379:9397   */\n      add\n        /* \"#utility.yul\":9370:9376   */\n      dup5\n        /* \"#utility.yul\":9326:9398   */\n      tag_185\n      jump\t// in\n    tag_318:\n        /* \"#utility.yul\":9073:9405   */\n      swap4\n      swap3\n      pop\n      pop\n      pop\n      jump\t// out\n        /* \"#utility.yul\":9411:9591   */\n    tag_157:\n        /* \"#utility.yul\":9459:9536   */\n      0x4e487b7100000000000000000000000000000000000000000000000000000000\n        /* \"#utility.yul\":9456:9457   */\n      0x00\n        /* \"#utility.yul\":9449:9537   */\n      mstore\n        /* \"#utility.yul\":9556:9560   */\n      0x41\n        /* \"#utility.yul\":9553:9554   */\n      0x04\n        /* \"#utility.yul\":9546:9561   */\n      mstore\n        /* \"#utility.yul\":9580:9584   */\n      0x24\n        /* \"#utility.yul\":9577:9578   */\n      0x00\n        /* \"#utility.yul\":9570:9585   */\n      revert\n        /* \"#utility.yul\":9597:9777   */\n    tag_166:\n        /* \"#utility.yul\":9645:9722   */\n      0x4e487b7100000000000000000000000000000000000000000000000000000000\n        /* \"#utility.yul\":9642:9643   */\n      0x00\n        /* \"#utility.yul\":9635:9723   */\n      mstore\n        /* \"#utility.yul\":9742:9746   */\n      0x32\n        /* \"#utility.yul\":9739:9740   */\n      0x04\n        /* \"#utility.yul\":9732:9747   */\n      mstore\n        /* \"#utility.yul\":9766:9770   */\n      0x24\n        /* \"#utility.yul\":9763:9764   */\n      0x00\n        /* \"#utility.yul\":9756:9771   */\n      revert\n        /* \"#utility.yul\":9783:10016   */\n    tag_178:\n        /* \"#utility.yul\":9822:9825   */\n      0x00\n        /* \"#utility.yul\":9845:9869   */\n      tag_322\n        /* \"#utility.yul\":9863:9868   */\n      dup3\n        /* \"#utility.yul\":9845:9869   */\n      tag_182\n      jump\t// in\n    tag_322:\n        /* \"#utility.yul\":9836:9869   */\n      swap2\n      pop\n        /* \"#utility.yul\":9891:9957   */\n      0xffffffffffffffffffffffffffffffffffffffffffffffffffffffffffffffff\n        /* \"#utility.yul\":9884:9889   */\n      dup3\n        /* \"#utility.yul\":9881:9958   */\n      sub\n        /* \"#utility.yul\":9878:9981   */\n      tag_323\n      jumpi\n        /* \"#utility.yul\":9961:9979   */\n      tag_324\n      tag_203\n      jump\t// in\n    tag_324:\n        /* \"#utility.yul\":9878:9981   */\n    tag_323:\n        /* \"#utility.yul\":10008:10009   */\n      0x01\n        /* \"#utility.yul\":10001:10006   */\n      dup3\n        /* \"#utility.yul\":9997:10010   */\n      add\n        /* \"#utility.yul\":9990:10010   */\n      swap1\n      pop\n        /* \"#utility.yul\":9783:10016   */\n      swap2\n      swap1\n      pop\n      jump\t// out\n\n    auxdata: 0xa26469706673582212207bf4ab074f0c4133eb905cbb3be0e31af51130a1b7d99aa5ad67fc738129f6f664736f6c634300081e0033\n}\n",
				"bytecode": {
					"linkReferences": {},
					"object": "60a060405234801561000f575f5ffd5b506040516117c63803806117c6833981810160405281019061003191906101a8565b5f73ffffffffffffffffffffffffffffffffffffffff168273ffffffffffffffffffffffffffffffffffffffff1603610096576040517fe6c4247b00000000000000000000000000000000000000000000000000000000815260040160405180910390fd5b335f5f6101000a81548173ffffffffffffffffffffffffffffffffffffffff021916908373ffffffffffffffffffffffffffffffffffffffff1602179055508173ffffffffffffffffffffffffffffffffffffffff1660808173ffffffffffffffffffffffffffffffffffffffff16815250508060018190555050506101e6565b5f5ffd5b5f73ffffffffffffffffffffffffffffffffffffffff82169050919050565b5f6101448261011b565b9050919050565b6101548161013a565b811461015e575f5ffd5b50565b5f8151905061016f8161014b565b92915050565b5f819050919050565b61018781610175565b8114610191575f5ffd5b50565b5f815190506101a28161017e565b92915050565b5f5f604083850312156101be576101bd610117565b5b5f6101cb85828601610161565b92505060206101dc85828601610194565b9150509250929050565b6080516115ba61020c5f395f81816107cc015281816108ee0152610c6801526115ba5ff3fe608060405234801561000f575f5ffd5b5060043610610109575f3560e01c80638da5cb5b116100a0578063eb2dbcf61161006f578063eb2dbcf6146102a6578063f2fde38b146102d6578063f3eec42f146102f2578063f3fef3a314610322578063fe8ace851461033e57610109565b80638da5cb5b1461020a5780638f15024f14610228578063a4bfd0cc14610246578063e54566f31461027657610109565b80632671fd2b116100dc5780632671fd2b146101815780632f3666371461019f5780632f48ab7d146101bb578063616eb255146101d957610109565b8063039142761461010d5780631209b1f614610129578063159816501461014757806315b5386e14610163575b5f5ffd5b61012760048036038101906101229190611067565b61036f565b005b6101316104f8565b60405161013e91906110a1565b60405180910390f35b610161600480360381019061015c9190611067565b6104fe565b005b61016b6105c4565b60405161017891906110a1565b60405180910390f35b6101896105ca565b60405161019691906110a1565b60405180910390f35b6101b960048036038101906101b49190611067565b6105d0565b005b6101c36108ec565b6040516101d09190611134565b60405180910390f35b6101f360048036038101906101ee9190611067565b610910565b60405161020192919061114d565b60405180910390f35b610212610939565b60405161021f9190611194565b60405180910390f35b61023061095d565b60405161023d91906110a1565b60405180910390f35b610260600480360381019061025b91906111d7565b610963565b60405161026d91906112b9565b60405180910390f35b610290600480360381019061028b91906111d7565b6109f6565b60405161029d91906110a1565b60405180910390f35b6102c060048036038101906102bb9190611067565b610a0b565b6040516102cd9190611194565b60405180910390f35b6102f060048036038101906102eb91906111d7565b610a3b565b005b61030c60048036038101906103079190611067565b610b67565b60405161031991906110a1565b60405180910390f35b61033c600480360381019061033791906112d9565b610b7c565b005b61035860048036038101906103539190611067565b610d89565b60405161036692919061114d565b60405180910390f35b5f5f9054906101000a900473ffffffffffffffffffffffffffffffffffffffff1673ffffffffffffffffffffffffffffffffffffffff163373ffffffffffffffffffffffffffffffffffffffff16146103f4576040517f30cd747100000000000000000000000000000000000000000000000000000000815260040160405180910390fd5b5f810361042d576040517f8e71bef900000000000000000000000000000000000000000000000000000000815260040160405180910390fd5b600160045f82825461043f9190611344565b925050819055505f60055f60045481526020019081526020015f20905081815f01819055505f81600101819055506004547fa9bb9f177c59b93f2b7abb2dfb6ffc1518c0d3a40145c47a372f46e70d011d158360405161049f91906110a1565b60405180910390a25f600354036104f4576004546003819055506003547f92f4672ba5b2b4f28a7cee1336b7f92f4c6d73f32a8a3317187229febcb68a4b836040516104eb91906110a1565b60405180910390a25b5050565b60015481565b5f5f9054906101000a900473ffffffffffffffffffffffffffffffffffffffff1673ffffffffffffffffffffffffffffffffffffffff163373ffffffffffffffffffffffffffffffffffffffff1614610583576040517f30cd747100000000000000000000000000000000000000000000000000000000815260040160405180910390fd5b806001819055507f7429795511c1ec5ebcc0e6839095ec18f13fce25cdc7c90da9d8a016584a1dbe816040516105b991906110a1565b60405180910390a150565b60045481565b60035481565b5f8103610609576040517f8e71bef900000000000000000000000000000000000000000000000000000000815260040160405180910390fd5b610611610da9565b5f6003540361064c576040517fba6add4400000000000000000000000000000000000000000000000000000000815260040160405180910390fd5b5f60055f60035481526020019081526020015f2090505f8160010154825f01546106769190611377565b9050808311156106b2576040517f19e215bc00000000000000000000000000000000000000000000000000000000815260040160405180910390fd5b5f836001546106c191906113aa565b90505f8360010154905084846001015f8282546106de9190611344565b925050819055508460025f8282546106f69190611344565b925050819055508460065f3373ffffffffffffffffffffffffffffffffffffffff1673ffffffffffffffffffffffffffffffffffffffff1681526020019081526020015f205f8282546107499190611344565b925050819055505f61076b336003546001856107659190611344565b89610df0565b90506003543373ffffffffffffffffffffffffffffffffffffffff167f7478e1ca4690b7ad34581c0f0974fc4d6c826cb3d55af76a85334ed9537c5dd98886856040516107ba939291906113eb565b60405180910390a35f83111561089e577f000000000000000000000000000000000000000000000000000000000000000073ffffffffffffffffffffffffffffffffffffffff166323b872dd3330866040518463ffffffff1660e01b815260040161082793929190611427565b6020604051808303815f875af1158015610843573d5f5f3e3d5ffd5b505050506040513d601f19601f820116820180604052508101906108679190611491565b61089d576040517f90b8ec1800000000000000000000000000000000000000000000000000000000815260040160405180910390fd5b5b845f01548560010154036108e4576003547ffd8d96e5e049823e751e0c23004bdbb7793038835ac2cb5e6eeec672aa5c8ebc60405160405180910390a26108e3610f61565b5b505050505050565b7f000000000000000000000000000000000000000000000000000000000000000081565b5f5f5f60055f8581526020019081526020015f209050805f015481600101549250925050915091565b5f5f9054906101000a900473ffffffffffffffffffffffffffffffffffffffff1681565b60025481565b606060095f8373ffffffffffffffffffffffffffffffffffffffff1673ffffffffffffffffffffffffffffffffffffffff1681526020019081526020015f208054806020026020016040519081016040528092919081815260200182805480156109ea57602002820191905f5260205f20905b8154815260200190600101908083116109d6575b50505050509050919050565b6006602052805f5260405f205f915090505481565b6007602052805f5260405f205f915054906101000a900473ffffffffffffffffffffffffffffffffffffffff1681565b5f5f9054906101000a900473ffffffffffffffffffffffffffffffffffffffff1673ffffffffffffffffffffffffffffffffffffffff163373ffffffffffffffffffffffffffffffffffffffff1614610ac0576040517f30cd747100000000000000000000000000000000000000000000000000000000815260040160405180910390fd5b5f73ffffffffffffffffffffffffffffffffffffffff168173ffffffffffffffffffffffffffffffffffffffff1603610b25576040517fe6c4247b00000000000000000000000000000000000000000000000000000000815260040160405180910390fd5b805f5f6101000a81548173ffffffffffffffffffffffffffffffffffffffff021916908373ffffffffffffffffffffffffffffffffffffffff16021790555050565b6008602052805f5260405f205f915090505481565b5f5f9054906101000a900473ffffffffffffffffffffffffffffffffffffffff1673ffffffffffffffffffffffffffffffffffffffff163373ffffffffffffffffffffffffffffffffffffffff1614610c01576040517f30cd747100000000000000000000000000000000000000000000000000000000815260040160405180910390fd5b5f73ffffffffffffffffffffffffffffffffffffffff168273ffffffffffffffffffffffffffffffffffffffff1603610c66576040517fe6c4247b00000000000000000000000000000000000000000000000000000000815260040160405180910390fd5b7f000000000000000000000000000000000000000000000000000000000000000073ffffffffffffffffffffffffffffffffffffffff1663a9059cbb83836040518363ffffffff1660e01b8152600401610cc19291906114bc565b6020604051808303815f875af1158015610cdd573d5f5f3e3d5ffd5b505050506040513d601f19601f82011682018060405250810190610d019190611491565b610d37576040517f90b8ec1800000000000000000000000000000000000000000000000000000000815260040160405180910390fd5b8173ffffffffffffffffffffffffffffffffffffffff167f884edad9ce6fa2440d8a54cc123490eb96d2768479d49ff9c7366125a942436482604051610d7d91906110a1565b60405180910390a25050565b6005602052805f5260405f205f91509050805f0154908060010154905082565b5f60035403610dbf57610dba610f61565b610dee565b5f60055f60035481526020019081526020015f209050805f0154816001015403610dec57610deb610f61565b5b505b565b60608167ffffffffffffffff811115610e0c57610e0b6114e3565b5b604051908082528060200260200182016040528015610e3a5781602001602082028036833780820191505090505b5090505f5f90505b82811015610f58575f8185610e579190611344565b90505f81608088901b1790508760075f8381526020019081526020015f205f6101000a81548173ffffffffffffffffffffffffffffffffffffffff021916908373ffffffffffffffffffffffffffffffffffffffff1602179055508660085f8381526020019081526020015f208190555060095f8973ffffffffffffffffffffffffffffffffffffffff1673ffffffffffffffffffffffffffffffffffffffff1681526020019081526020015f2081908060018154018082558091505060019003905f5260205f20015f909190919091505580848481518110610f3d57610f3c611510565b5b60200260200101818152505050508080600101915050610e42565b50949350505050565b5f5f60035414610f7f576001600354610f7a9190611344565b610f82565b60015b90505f8190505b6004548111611024575f60055f8381526020019081526020015f2090505f815f015403610fb65750611011565b805f01548160010154101561100f5781600381905550817f92f4672ba5b2b4f28a7cee1336b7f92f4c6d73f32a8a3317187229febcb68a4b825f0154604051610fff91906110a1565b60405180910390a250505061102e565b505b808061101c9061153d565b915050610f89565b505f600381905550505b565b5f5ffd5b5f819050919050565b61104681611034565b8114611050575f5ffd5b50565b5f813590506110618161103d565b92915050565b5f6020828403121561107c5761107b611030565b5b5f61108984828501611053565b91505092915050565b61109b81611034565b82525050565b5f6020820190506110b45f830184611092565b92915050565b5f73ffffffffffffffffffffffffffffffffffffffff82169050919050565b5f819050919050565b5f6110fc6110f76110f2846110ba565b6110d9565b6110ba565b9050919050565b5f61110d826110e2565b9050919050565b5f61111e82611103565b9050919050565b61112e81611114565b82525050565b5f6020820190506111475f830184611125565b92915050565b5f6040820190506111605f830185611092565b61116d6020830184611092565b9392505050565b5f61117e826110ba565b9050919050565b61118e81611174565b82525050565b5f6020820190506111a75f830184611185565b92915050565b6111b681611174565b81146111c0575f5ffd5b50565b5f813590506111d1816111ad565b92915050565b5f602082840312156111ec576111eb611030565b5b5f6111f9848285016111c3565b91505092915050565b5f81519050919050565b5f82825260208201905092915050565b5f819050602082019050919050565b61123481611034565b82525050565b5f611245838361122b565b60208301905092915050565b5f602082019050919050565b5f61126782611202565b611271818561120c565b935061127c8361121c565b805f5b838110156112ac578151611293888261123a565b975061129e83611251565b92505060018101905061127f565b5085935050505092915050565b5f6020820190508181035f8301526112d1818461125d565b905092915050565b5f5f604083850312156112ef576112ee611030565b5b5f6112fc858286016111c3565b925050602061130d85828601611053565b9150509250929050565b7f4e487b71000000000000000000000000000000000000000000000000000000005f52601160045260245ffd5b5f61134e82611034565b915061135983611034565b925082820190508082111561137157611370611317565b5b92915050565b5f61138182611034565b915061138c83611034565b92508282039050818111156113a4576113a3611317565b5b92915050565b5f6113b482611034565b91506113bf83611034565b92508282026113cd81611034565b915082820484148315176113e4576113e3611317565b5b5092915050565b5f6060820190506113fe5f830186611092565b61140b6020830185611092565b818103604083015261141d818461125d565b9050949350505050565b5f60608201905061143a5f830186611185565b6114476020830185611185565b6114546040830184611092565b949350505050565b5f8115159050919050565b6114708161145c565b811461147a575f5ffd5b50565b5f8151905061148b81611467565b92915050565b5f602082840312156114a6576114a5611030565b5b5f6114b38482850161147d565b91505092915050565b5f6040820190506114cf5f830185611185565b6114dc6020830184611092565b9392505050565b7f4e487b71000000000000000000000000000000000000000000000000000000005f52604160045260245ffd5b7f4e487b71000000000000000000000000000000000000000000000000000000005f52603260045260245ffd5b5f61154782611034565b91507fffffffffffffffffffffffffffffffffffffffffffffffffffffffffffffffff820361157957611578611317565b5b60018201905091905056fea26469706673582212207bf4ab074f0c4133eb905cbb3be0e31af51130a1b7d99aa5ad67fc738129f6f664736f6c634300081e0033",
					"opcodes": "PUSH1 0xA0 PUSH1 0x40 MSTORE CALLVALUE DUP1 ISZERO PUSH2 0xF JUMPI PUSH0 PUSH0 REVERT JUMPDEST POP PUSH1 0x40 MLOAD PUSH2 0x17C6 CODESIZE SUB DUP1 PUSH2 0x17C6 DUP4 CODECOPY DUP2 DUP2 ADD PUSH1 0x40 MSTORE DUP2 ADD SWAP1 PUSH2 0x31 SWAP2 SWAP1 PUSH2 0x1A8 JUMP JUMPDEST PUSH0 PUSH20 0xFFFFFFFFFFFFFFFFFFFFFFFFFFFFFFFFFFFFFFFF AND DUP3 PUSH20 0xFFFFFFFFFFFFFFFFFFFFFFFFFFFFFFFFFFFFFFFF AND SUB PUSH2 0x96 JUMPI PUSH1 0x40 MLOAD PUSH32 0xE6C4247B00000000000000000000000000000000000000000000000000000000 DUP2 MSTORE PUSH1 0x4 ADD PUSH1 0x40 MLOAD DUP1 SWAP2 SUB SWAP1 REVERT JUMPDEST CALLER PUSH0 PUSH0 PUSH2 0x100 EXP DUP2 SLOAD DUP2 PUSH20 0xFFFFFFFFFFFFFFFFFFFFFFFFFFFFFFFFFFFFFFFF MUL NOT AND SWAP1 DUP4 PUSH20 0xFFFFFFFFFFFFFFFFFFFFFFFFFFFFFFFFFFFFFFFF AND MUL OR SWAP1 SSTORE POP DUP2 PUSH20 0xFFFFFFFFFFFFFFFFFFFFFFFFFFFFFFFFFFFFFFFF AND PUSH1 0x80 DUP2 PUSH20 0xFFFFFFFFFFFFFFFFFFFFFFFFFFFFFFFFFFFFFFFF AND DUP2 MSTORE POP POP DUP1 PUSH1 0x1 DUP2 SWAP1 SSTORE POP POP POP PUSH2 0x1E6 JUMP JUMPDEST PUSH0 PUSH0 REVERT JUMPDEST PUSH0 PUSH20 0xFFFFFFFFFFFFFFFFFFFFFFFFFFFFFFFFFFFFFFFF DUP3 AND SWAP1 POP SWAP2 SWAP1 POP JUMP JUMPDEST PUSH0 PUSH2 0x144 DUP3 PUSH2 0x11B JUMP JUMPDEST SWAP1 POP SWAP2 SWAP1 POP JUMP JUMPDEST PUSH2 0x154 DUP2 PUSH2 0x13A JUMP JUMPDEST DUP2 EQ PUSH2 0x15E JUMPI PUSH0 PUSH0 REVERT JUMPDEST POP JUMP JUMPDEST PUSH0 DUP2 MLOAD SWAP1 POP PUSH2 0x16F DUP2 PUSH2 0x14B JUMP JUMPDEST SWAP3 SWAP2 POP POP JUMP JUMPDEST PUSH0 DUP2 SWAP1 POP SWAP2 SWAP1 POP JUMP JUMPDEST PUSH2 0x187 DUP2 PUSH2 0x175 JUMP JUMPDEST DUP2 EQ PUSH2 0x191 JUMPI PUSH0 PUSH0 REVERT JUMPDEST POP JUMP JUMPDEST PUSH0 DUP2 MLOAD SWAP1 POP PUSH2 0x1A2 DUP2 PUSH2 0x17E JUMP JUMPDEST SWAP3 SWAP2 POP POP JUMP JUMPDEST PUSH0 PUSH0 PUSH1 0x40 DUP4 DUP6 SUB SLT ISZERO PUSH2 0x1BE JUMPI PUSH2 0x1BD PUSH2 0x117 JUMP JUMPDEST JUMPDEST PUSH0 PUSH2 0x1CB DUP6 DUP3 DUP7 ADD PUSH2 0x161 JUMP JUMPDEST SWAP3 POP POP PUSH1 0x20 PUSH2 0x1DC DUP6 DUP3 DUP7 ADD PUSH2 0x194 JUMP JUMPDEST SWAP2 POP POP SWAP3 POP SWAP3 SWAP1 POP JUMP JUMPDEST PUSH1 0x80 MLOAD PUSH2 0x15BA PUSH2 0x20C PUSH0 CODECOPY PUSH0 DUP2 DUP2 PUSH2 0x7CC ADD MSTORE DUP2 DUP2 PUSH2 0x8EE ADD MSTORE PUSH2 0xC68 ADD MSTORE PUSH2 0x15BA PUSH0 RETURN INVALID PUSH1 0x80 PUSH1 0x40 MSTORE CALLVALUE DUP1 ISZERO PUSH2 0xF JUMPI PUSH0 PUSH0 REVERT JUMPDEST POP PUSH1 0x4 CALLDATASIZE LT PUSH2 0x109 JUMPI PUSH0 CALLDATALOAD PUSH1 0xE0 SHR DUP1 PUSH4 0x8DA5CB5B GT PUSH2 0xA0 JUMPI DUP1 PUSH4 0xEB2DBCF6 GT PUSH2 0x6F JUMPI DUP1 PUSH4 0xEB2DBCF6 EQ PUSH2 0x2A6 JUMPI DUP1 PUSH4 0xF2FDE38B EQ PUSH2 0x2D6 JUMPI DUP1 PUSH4 0xF3EEC42F EQ PUSH2 0x2F2 JUMPI DUP1 PUSH4 0xF3FEF3A3 EQ PUSH2 0x322 JUMPI DUP1 PUSH4 0xFE8ACE85 EQ PUSH2 0x33E JUMPI PUSH2 0x109 JUMP JUMPDEST DUP1 PUSH4 0x8DA5CB5B EQ PUSH2 0x20A JUMPI DUP1 PUSH4 0x8F15024F EQ PUSH2 0x228 JUMPI DUP1 PUSH4 0xA4BFD0CC EQ PUSH2 0x246 JUMPI DUP1 PUSH4 0xE54566F3 EQ PUSH2 0x276 JUMPI PUSH2 0x109 JUMP JUMPDEST DUP1 PUSH4 0x2671FD2B GT PUSH2 0xDC JUMPI DUP1 PUSH4 0x2671FD2B EQ PUSH2 0x181 JUMPI DUP1 PUSH4 0x2F366637 EQ PUSH2 0x19F JUMPI DUP1 PUSH4 0x2F48AB7D EQ PUSH2 0x1BB JUMPI DUP1 PUSH4 0x616EB255 EQ PUSH2 0x1D9 JUMPI PUSH2 0x109 JUMP JUMPDEST DUP1 PUSH4 0x3914276 EQ PUSH2 0x10D JUMPI DUP1 PUSH4 0x1209B1F6 EQ PUSH2 0x129 JUMPI DUP1 PUSH4 0x15981650 EQ PUSH2 0x147 JUMPI DUP1 PUSH4 0x15B5386E EQ PUSH2 0x163 JUMPI JUMPDEST PUSH0 PUSH0 REVERT JUMPDEST PUSH2 0x127 PUSH1 0x4 DUP1 CALLDATASIZE SUB DUP2 ADD SWAP1 PUSH2 0x122 SWAP2 SWAP1 PUSH2 0x1067 JUMP JUMPDEST PUSH2 0x36F JUMP JUMPDEST STOP JUMPDEST PUSH2 0x131 PUSH2 0x4F8 JUMP JUMPDEST PUSH1 0x40 MLOAD PUSH2 0x13E SWAP2 SWAP1 PUSH2 0x10A1 JUMP JUMPDEST PUSH1 0x40 MLOAD DUP1 SWAP2 SUB SWAP1 RETURN JUMPDEST PUSH2 0x161 PUSH1 0x4 DUP1 CALLDATASIZE SUB DUP2 ADD SWAP1 PUSH2 0x15C SWAP2 SWAP1 PUSH2 0x1067 JUMP JUMPDEST PUSH2 0x4FE JUMP JUMPDEST STOP JUMPDEST PUSH2 0x16B PUSH2 0x5C4 JUMP JUMPDEST PUSH1 0x40 MLOAD PUSH2 0x178 SWAP2 SWAP1 PUSH2 0x10A1 JUMP JUMPDEST PUSH1 0x40 MLOAD DUP1 SWAP2 SUB SWAP1 RETURN JUMPDEST PUSH2 0x189 PUSH2 0x5CA JUMP JUMPDEST PUSH1 0x40 MLOAD PUSH2 0x196 SWAP2 SWAP1 PUSH2 0x10A1 JUMP JUMPDEST PUSH1 0x40 MLOAD DUP1 SWAP2 SUB SWAP1 RETURN JUMPDEST PUSH2 0x1B9 PUSH1 0x4 DUP1 CALLDATASIZE SUB DUP2 ADD SWAP1 PUSH2 0x1B4 SWAP2 SWAP1 PUSH2 0x1067 JUMP JUMPDEST PUSH2 0x5D0 JUMP JUMPDEST STOP JUMPDEST PUSH2 0x1C3 PUSH2 0x8EC JUMP JUMPDEST PUSH1 0x40 MLOAD PUSH2 0x1D0 SWAP2 SWAP1 PUSH2 0x1134 JUMP JUMPDEST PUSH1 0x40 MLOAD DUP1 SWAP2 SUB SWAP1 RETURN JUMPDEST PUSH2 0x1F3 PUSH1 0x4 DUP1 CALLDATASIZE SUB DUP2 ADD SWAP1 PUSH2 0x1EE SWAP2 SWAP1 PUSH2 0x1067 JUMP JUMPDEST PUSH2 0x910 JUMP JUMPDEST PUSH1 0x40 MLOAD PUSH2 0x201 SWAP3 SWAP2 SWAP1 PUSH2 0x114D JUMP JUMPDEST PUSH1 0x40 MLOAD DUP1 SWAP2 SUB SWAP1 RETURN JUMPDEST PUSH2 0x212 PUSH2 0x939 JUMP JUMPDEST PUSH1 0x40 MLOAD PUSH2 0x21F SWAP2 SWAP1 PUSH2 0x1194 JUMP JUMPDEST PUSH1 0x40 MLOAD DUP1 SWAP2 SUB SWAP1 RETURN JUMPDEST PUSH2 0x230 PUSH2 0x95D JUMP JUMPDEST PUSH1 0x40 MLOAD PUSH2 0x23D SWAP2 SWAP1 PUSH2 0x10A1 JUMP JUMPDEST PUSH1 0x40 MLOAD DUP1 SWAP2 SUB SWAP1 RETURN JUMPDEST PUSH2 0x260 PUSH1 0x4 DUP1 CALLDATASIZE SUB DUP2 ADD SWAP1 PUSH2 0x25B SWAP2 SWAP1 PUSH2 0x11D7 JUMP JUMPDEST PUSH2 0x963 JUMP JUMPDEST PUSH1 0x40 MLOAD PUSH2 0x26D SWAP2 SWAP1 PUSH2 0x12B9 JUMP JUMPDEST PUSH1 0x40 MLOAD DUP1 SWAP2 SUB SWAP1 RETURN JUMPDEST PUSH2 0x290 PUSH1 0x4 DUP1 CALLDATASIZE SUB DUP2 ADD SWAP1 PUSH2 0x28B SWAP2 SWAP1 PUSH2 0x11D7 JUMP JUMPDEST PUSH2 0x9F6 JUMP JUMPDEST PUSH1 0x40 MLOAD PUSH2 0x29D SWAP2 SWAP1 PUSH2 0x10A1 JUMP JUMPDEST PUSH1 0x40 MLOAD DUP1 SWAP2 SUB SWAP1 RETURN JUMPDEST PUSH2 0x2C0 PUSH1 0x4 DUP1 CALLDATASIZE SUB DUP2 ADD SWAP1 PUSH2 0x2BB SWAP2 SWAP1 PUSH2 0x1067 JUMP JUMPDEST PUSH2 0xA0B JUMP JUMPDEST PUSH1 0x40 MLOAD PUSH2 0x2CD SWAP2 SWAP1 PUSH2 0x1194 JUMP JUMPDEST PUSH1 0x40 MLOAD DUP1 SWAP2 SUB SWAP1 RETURN JUMPDEST PUSH2 0x2F0 PUSH1 0x4 DUP1 CALLDATASIZE SUB DUP2 ADD SWAP1 PUSH2 0x2EB SWAP2 SWAP1 PUSH2 0x11D7 JUMP JUMPDEST PUSH2 0xA3B JUMP JUMPDEST STOP JUMPDEST PUSH2 0x30C PUSH1 0x4 DUP1 CALLDATASIZE SUB DUP2 ADD SWAP1 PUSH2 0x307 SWAP2 SWAP1 PUSH2 0x1067 JUMP JUMPDEST PUSH2 0xB67 JUMP JUMPDEST PUSH1 0x40 MLOAD PUSH2 0x319 SWAP2 SWAP1 PUSH2 0x10A1 JUMP JUMPDEST PUSH1 0x40 MLOAD DUP1 SWAP2 SUB SWAP1 RETURN JUMPDEST PUSH2 0x33C PUSH1 0x4 DUP1 CALLDATASIZE SUB DUP2 ADD SWAP1 PUSH2 0x337 SWAP2 SWAP1 PUSH2 0x12D9 JUMP JUMPDEST PUSH2 0xB7C JUMP JUMPDEST STOP JUMPDEST PUSH2 0x358 PUSH1 0x4 DUP1 CALLDATASIZE SUB DUP2 ADD SWAP1 PUSH2 0x353 SWAP2 SWAP1 PUSH2 0x1067 JUMP JUMPDEST PUSH2 0xD89 JUMP JUMPDEST PUSH1 0x40 MLOAD PUSH2 0x366 SWAP3 SWAP2 SWAP1 PUSH2 0x114D JUMP JUMPDEST PUSH1 0x40 MLOAD DUP1 SWAP2 SUB SWAP1 RETURN JUMPDEST PUSH0 PUSH0 SWAP1 SLOAD SWAP1 PUSH2 0x100 EXP SWAP1 DIV PUSH20 0xFFFFFFFFFFFFFFFFFFFFFFFFFFFFFFFFFFFFFFFF AND PUSH20 0xFFFFFFFFFFFFFFFFFFFFFFFFFFFFFFFFFFFFFFFF AND CALLER PUSH20 0xFFFFFFFFFFFFFFFFFFFFFFFFFFFFFFFFFFFFFFFF AND EQ PUSH2 0x3F4 JUMPI PUSH1 0x40 MLOAD PUSH32 0x30CD747100000000000000000000000000000000000000000000000000000000 DUP2 MSTORE PUSH1 0x4 ADD PUSH1 0x40 MLOAD DUP1 SWAP2 SUB SWAP1 REVERT JUMPDEST PUSH0 DUP2 SUB PUSH2 0x42D JUMPI PUSH1 0x40 MLOAD PUSH32 0x8E71BEF900000000000000000000000000000000000000000000000000000000 DUP2 MSTORE PUSH1 0x4 ADD PUSH1 0x40 MLOAD DUP1 SWAP2 SUB SWAP1 REVERT JUMPDEST PUSH1 0x1 PUSH1 0x4 PUSH0 DUP3 DUP3 SLOAD PUSH2 0x43F SWAP2 SWAP1 PUSH2 0x1344 JUMP JUMPDEST SWAP3 POP POP DUP2 SWAP1 SSTORE POP PUSH0 PUSH1 0x5 PUSH0 PUSH1 0x4 SLOAD DUP2 MSTORE PUSH1 0x20 ADD SWAP1 DUP2 MSTORE PUSH1 0x20 ADD PUSH0 KECCAK256 SWAP1 POP DUP2 DUP2 PUSH0 ADD DUP2 SWAP1 SSTORE POP PUSH0 DUP2 PUSH1 0x1 ADD DUP2 SWAP1 SSTORE POP PUSH1 0x4 SLOAD PUSH32 0xA9BB9F177C59B93F2B7ABB2DFB6FFC1518C0D3A40145C47A372F46E70D011D15 DUP4 PUSH1 0x40 MLOAD PUSH2 0x49F SWAP2 SWAP1 PUSH2 0x10A1 JUMP JUMPDEST PUSH1 0x40 MLOAD DUP1 SWAP2 SUB SWAP1 LOG2 PUSH0 PUSH1 0x3 SLOAD SUB PUSH2 0x4F4 JUMPI PUSH1 0x4 SLOAD PUSH1 0x3 DUP2 SWAP1 SSTORE POP PUSH1 0x3 SLOAD PUSH32 0x92F4672BA5B2B4F28A7CEE1336B7F92F4C6D73F32A8A3317187229FEBCB68A4B DUP4 PUSH1 0x40 MLOAD PUSH2 0x4EB SWAP2 SWAP1 PUSH2 0x10A1 JUMP JUMPDEST PUSH1 0x40 MLOAD DUP1 SWAP2 SUB SWAP1 LOG2 JUMPDEST POP POP JUMP JUMPDEST PUSH1 0x1 SLOAD DUP2 JUMP JUMPDEST PUSH0 PUSH0 SWAP1 SLOAD SWAP1 PUSH2 0x100 EXP SWAP1 DIV PUSH20 0xFFFFFFFFFFFFFFFFFFFFFFFFFFFFFFFFFFFFFFFF AND PUSH20 0xFFFFFFFFFFFFFFFFFFFFFFFFFFFFFFFFFFFFFFFF AND CALLER PUSH20 0xFFFFFFFFFFFFFFFFFFFFFFFFFFFFFFFFFFFFFFFF AND EQ PUSH2 0x583 JUMPI PUSH1 0x40 MLOAD PUSH32 0x30CD747100000000000000000000000000000000000000000000000000000000 DUP2 MSTORE PUSH1 0x4 ADD PUSH1 0x40 MLOAD DUP1 SWAP2 SUB SWAP1 REVERT JUMPDEST DUP1 PUSH1 0x1 DUP2 SWAP1 SSTORE POP PUSH32 0x7429795511C1EC5EBCC0E6839095EC18F13FCE25CDC7C90DA9D8A016584A1DBE DUP2 PUSH1 0x40 MLOAD PUSH2 0x5B9 SWAP2 SWAP1 PUSH2 0x10A1 JUMP JUMPDEST PUSH1 0x40 MLOAD DUP1 SWAP2 SUB SWAP1 LOG1 POP JUMP JUMPDEST PUSH1 0x4 SLOAD DUP2 JUMP JUMPDEST PUSH1 0x3 SLOAD DUP2 JUMP JUMPDEST PUSH0 DUP2 SUB PUSH2 0x609 JUMPI PUSH1 0x40 MLOAD PUSH32 0x8E71BEF900000000000000000000000000000000000000000000000000000000 DUP2 MSTORE PUSH1 0x4 ADD PUSH1 0x40 MLOAD DUP1 SWAP2 SUB SWAP1 REVERT JUMPDEST PUSH2 0x611 PUSH2 0xDA9 JUMP JUMPDEST PUSH0 PUSH1 0x3 SLOAD SUB PUSH2 0x64C JUMPI PUSH1 0x40 MLOAD PUSH32 0xBA6ADD4400000000000000000000000000000000000000000000000000000000 DUP2 MSTORE PUSH1 0x4 ADD PUSH1 0x40 MLOAD DUP1 SWAP2 SUB SWAP1 REVERT JUMPDEST PUSH0 PUSH1 0x5 PUSH0 PUSH1 0x3 SLOAD DUP2 MSTORE PUSH1 0x20 ADD SWAP1 DUP2 MSTORE PUSH1 0x20 ADD PUSH0 KECCAK256 SWAP1 POP PUSH0 DUP2 PUSH1 0x1 ADD SLOAD DUP3 PUSH0 ADD SLOAD PUSH2 0x676 SWAP2 SWAP1 PUSH2 0x1377 JUMP JUMPDEST SWAP1 POP DUP1 DUP4 GT ISZERO PUSH2 0x6B2 JUMPI PUSH1 0x40 MLOAD PUSH32 0x19E215BC00000000000000000000000000000000000000000000000000000000 DUP2 MSTORE PUSH1 0x4 ADD PUSH1 0x40 MLOAD DUP1 SWAP2 SUB SWAP1 REVERT JUMPDEST PUSH0 DUP4 PUSH1 0x1 SLOAD PUSH2 0x6C1 SWAP2 SWAP1 PUSH2 0x13AA JUMP JUMPDEST SWAP1 POP PUSH0 DUP4 PUSH1 0x1 ADD SLOAD SWAP1 POP DUP5 DUP5 PUSH1 0x1 ADD PUSH0 DUP3 DUP3 SLOAD PUSH2 0x6DE SWAP2 SWAP1 PUSH2 0x1344 JUMP JUMPDEST SWAP3 POP POP DUP2 SWAP1 SSTORE POP DUP5 PUSH1 0x2 PUSH0 DUP3 DUP3 SLOAD PUSH2 0x6F6 SWAP2 SWAP1 PUSH2 0x1344 JUMP JUMPDEST SWAP3 POP POP DUP2 SWAP1 SSTORE POP DUP5 PUSH1 0x6 PUSH0 CALLER PUSH20 0xFFFFFFFFFFFFFFFFFFFFFFFFFFFFFFFFFFFFFFFF AND PUSH20 0xFFFFFFFFFFFFFFFFFFFFFFFFFFFFFFFFFFFFFFFF AND DUP2 MSTORE PUSH1 0x20 ADD SWAP1 DUP2 MSTORE PUSH1 0x20 ADD PUSH0 KECCAK256 PUSH0 DUP3 DUP3 SLOAD PUSH2 0x749 SWAP2 SWAP1 PUSH2 0x1344 JUMP JUMPDEST SWAP3 POP POP DUP2 SWAP1 SSTORE POP PUSH0 PUSH2 0x76B CALLER PUSH1 0x3 SLOAD PUSH1 0x1 DUP6 PUSH2 0x765 SWAP2 SWAP1 PUSH2 0x1344 JUMP JUMPDEST DUP10 PUSH2 0xDF0 JUMP JUMPDEST SWAP1 POP PUSH1 0x3 SLOAD CALLER PUSH20 0xFFFFFFFFFFFFFFFFFFFFFFFFFFFFFFFFFFFFFFFF AND PUSH32 0x7478E1CA4690B7AD34581C0F0974FC4D6C826CB3D55AF76A85334ED9537C5DD9 DUP9 DUP7 DUP6 PUSH1 0x40 MLOAD PUSH2 0x7BA SWAP4 SWAP3 SWAP2 SWAP1 PUSH2 0x13EB JUMP JUMPDEST PUSH1 0x40 MLOAD DUP1 SWAP2 SUB SWAP1 LOG3 PUSH0 DUP4 GT ISZERO PUSH2 0x89E JUMPI PUSH32 0x0 PUSH20 0xFFFFFFFFFFFFFFFFFFFFFFFFFFFFFFFFFFFFFFFF AND PUSH4 0x23B872DD CALLER ADDRESS DUP7 PUSH1 0x40 MLOAD DUP5 PUSH4 0xFFFFFFFF AND PUSH1 0xE0 SHL DUP2 MSTORE PUSH1 0x4 ADD PUSH2 0x827 SWAP4 SWAP3 SWAP2 SWAP1 PUSH2 0x1427 JUMP JUMPDEST PUSH1 0x20 PUSH1 0x40 MLOAD DUP1 DUP4 SUB DUP2 PUSH0 DUP8 GAS CALL ISZERO DUP1 ISZERO PUSH2 0x843 JUMPI RETURNDATASIZE PUSH0 PUSH0 RETURNDATACOPY RETURNDATASIZE PUSH0 REVERT JUMPDEST POP POP POP POP PUSH1 0x40 MLOAD RETURNDATASIZE PUSH1 0x1F NOT PUSH1 0x1F DUP3 ADD AND DUP3 ADD DUP1 PUSH1 0x40 MSTORE POP DUP2 ADD SWAP1 PUSH2 0x867 SWAP2 SWAP1 PUSH2 0x1491 JUMP JUMPDEST PUSH2 0x89D JUMPI PUSH1 0x40 MLOAD PUSH32 0x90B8EC1800000000000000000000000000000000000000000000000000000000 DUP2 MSTORE PUSH1 0x4 ADD PUSH1 0x40 MLOAD DUP1 SWAP2 SUB SWAP1 REVERT JUMPDEST JUMPDEST DUP5 PUSH0 ADD SLOAD DUP6 PUSH1 0x1 ADD SLOAD SUB PUSH2 0x8E4 JUMPI PUSH1 0x3 SLOAD PUSH32 0xFD8D96E5E049823E751E0C23004BDBB7793038835AC2CB5E6EEEC672AA5C8EBC PUSH1 0x40 MLOAD PUSH1 0x40 MLOAD DUP1 SWAP2 SUB SWAP1 LOG2 PUSH2 0x8E3 PUSH2 0xF61 JUMP JUMPDEST JUMPDEST POP POP POP POP POP POP JUMP JUMPDEST PUSH32 0x0 DUP2 JUMP JUMPDEST PUSH0 PUSH0 PUSH0 PUSH1 0x5 PUSH0 DUP6 DUP2 MSTORE PUSH1 0x20 ADD SWAP1 DUP2 MSTORE PUSH1 0x20 ADD PUSH0 KECCAK256 SWAP1 POP DUP1 PUSH0 ADD SLOAD DUP2 PUSH1 0x1 ADD SLOAD SWAP3 POP SWAP3 POP POP SWAP2 POP SWAP2 JUMP JUMPDEST PUSH0 PUSH0 SWAP1 SLOAD SWAP1 PUSH2 0x100 EXP SWAP1 DIV PUSH20 0xFFFFFFFFFFFFFFFFFFFFFFFFFFFFFFFFFFFFFFFF AND DUP2 JUMP JUMPDEST PUSH1 0x2 SLOAD DUP2 JUMP JUMPDEST PUSH1 0x60 PUSH1 0x9 PUSH0 DUP4 PUSH20 0xFFFFFFFFFFFFFFFFFFFFFFFFFFFFFFFFFFFFFFFF AND PUSH20 0xFFFFFFFFFFFFFFFFFFFFFFFFFFFFFFFFFFFFFFFF AND DUP2 MSTORE PUSH1 0x20 ADD SWAP1 DUP2 MSTORE PUSH1 0x20 ADD PUSH0 KECCAK256 DUP1 SLOAD DUP1 PUSH1 0x20 MUL PUSH1 0x20 ADD PUSH1 0x40 MLOAD SWAP1 DUP2 ADD PUSH1 0x40 MSTORE DUP1 SWAP3 SWAP2 SWAP1 DUP2 DUP2 MSTORE PUSH1 0x20 ADD DUP3 DUP1 SLOAD DUP1 ISZERO PUSH2 0x9EA JUMPI PUSH1 0x20 MUL DUP3 ADD SWAP2 SWAP1 PUSH0 MSTORE PUSH1 0x20 PUSH0 KECCAK256 SWAP1 JUMPDEST DUP2 SLOAD DUP2 MSTORE PUSH1 0x20 ADD SWAP1 PUSH1 0x1 ADD SWAP1 DUP1 DUP4 GT PUSH2 0x9D6 JUMPI JUMPDEST POP POP POP POP POP SWAP1 POP SWAP2 SWAP1 POP JUMP JUMPDEST PUSH1 0x6 PUSH1 0x20 MSTORE DUP1 PUSH0 MSTORE PUSH1 0x40 PUSH0 KECCAK256 PUSH0 SWAP2 POP SWAP1 POP SLOAD DUP2 JUMP JUMPDEST PUSH1 0x7 PUSH1 0x20 MSTORE DUP1 PUSH0 MSTORE PUSH1 0x40 PUSH0 KECCAK256 PUSH0 SWAP2 POP SLOAD SWAP1 PUSH2 0x100 EXP SWAP1 DIV PUSH20 0xFFFFFFFFFFFFFFFFFFFFFFFFFFFFFFFFFFFFFFFF AND DUP2 JUMP JUMPDEST PUSH0 PUSH0 SWAP1 SLOAD SWAP1 PUSH2 0x100 EXP SWAP1 DIV PUSH20 0xFFFFFFFFFFFFFFFFFFFFFFFFFFFFFFFFFFFFFFFF AND PUSH20 0xFFFFFFFFFFFFFFFFFFFFFFFFFFFFFFFFFFFFFFFF AND CALLER PUSH20 0xFFFFFFFFFFFFFFFFFFFFFFFFFFFFFFFFFFFFFFFF AND EQ PUSH2 0xAC0 JUMPI PUSH1 0x40 MLOAD PUSH32 0x30CD747100000000000000000000000000000000000000000000000000000000 DUP2 MSTORE PUSH1 0x4 ADD PUSH1 0x40 MLOAD DUP1 SWAP2 SUB SWAP1 REVERT JUMPDEST PUSH0 PUSH20 0xFFFFFFFFFFFFFFFFFFFFFFFFFFFFFFFFFFFFFFFF AND DUP2 PUSH20 0xFFFFFFFFFFFFFFFFFFFFFFFFFFFFFFFFFFFFFFFF AND SUB PUSH2 0xB25 JUMPI PUSH1 0x40 MLOAD PUSH32 0xE6C4247B00000000000000000000000000000000000000000000000000000000 DUP2 MSTORE PUSH1 0x4 ADD PUSH1 0x40 MLOAD DUP1 SWAP2 SUB SWAP1 REVERT JUMPDEST DUP1 PUSH0 PUSH0 PUSH2 0x100 EXP DUP2 SLOAD DUP2 PUSH20 0xFFFFFFFFFFFFFFFFFFFFFFFFFFFFFFFFFFFFFFFF MUL NOT AND SWAP1 DUP4 PUSH20 0xFFFFFFFFFFFFFFFFFFFFFFFFFFFFFFFFFFFFFFFF AND MUL OR SWAP1 SSTORE POP POP JUMP JUMPDEST PUSH1 0x8 PUSH1 0x20 MSTORE DUP1 PUSH0 MSTORE PUSH1 0x40 PUSH0 KECCAK256 PUSH0 SWAP2 POP SWAP1 POP SLOAD DUP2 JUMP JUMPDEST PUSH0 PUSH0 SWAP1 SLOAD SWAP1 PUSH2 0x100 EXP SWAP1 DIV PUSH20 0xFFFFFFFFFFFFFFFFFFFFFFFFFFFFFFFFFFFFFFFF AND PUSH20 0xFFFFFFFFFFFFFFFFFFFFFFFFFFFFFFFFFFFFFFFF AND CALLER PUSH20 0xFFFFFFFFFFFFFFFFFFFFFFFFFFFFFFFFFFFFFFFF AND EQ PUSH2 0xC01 JUMPI PUSH1 0x40 MLOAD PUSH32 0x30CD747100000000000000000000000000000000000000000000000000000000 DUP2 MSTORE PUSH1 0x4 ADD PUSH1 0x40 MLOAD DUP1 SWAP2 SUB SWAP1 REVERT JUMPDEST PUSH0 PUSH20 0xFFFFFFFFFFFFFFFFFFFFFFFFFFFFFFFFFFFFFFFF AND DUP3 PUSH20 0xFFFFFFFFFFFFFFFFFFFFFFFFFFFFFFFFFFFFFFFF AND SUB PUSH2 0xC66 JUMPI PUSH1 0x40 MLOAD PUSH32 0xE6C4247B00000000000000000000000000000000000000000000000000000000 DUP2 MSTORE PUSH1 0x4 ADD PUSH1 0x40 MLOAD DUP1 SWAP2 SUB SWAP1 REVERT JUMPDEST PUSH32 0x0 PUSH20 0xFFFFFFFFFFFFFFFFFFFFFFFFFFFFFFFFFFFFFFFF AND PUSH4 0xA9059CBB DUP4 DUP4 PUSH1 0x40 MLOAD DUP4 PUSH4 0xFFFFFFFF AND PUSH1 0xE0 SHL DUP2 MSTORE PUSH1 0x4 ADD PUSH2 0xCC1 SWAP3 SWAP2 SWAP1 PUSH2 0x14BC JUMP JUMPDEST PUSH1 0x20 PUSH1 0x40 MLOAD DUP1 DUP4 SUB DUP2 PUSH0 DUP8 GAS CALL ISZERO DUP1 ISZERO PUSH2 0xCDD JUMPI RETURNDATASIZE PUSH0 PUSH0 RETURNDATACOPY RETURNDATASIZE PUSH0 REVERT JUMPDEST POP POP POP POP PUSH1 0x40 MLOAD RETURNDATASIZE PUSH1 0x1F NOT PUSH1 0x1F DUP3 ADD AND DUP3 ADD DUP1 PUSH1 0x40 MSTORE POP DUP2 ADD SWAP1 PUSH2 0xD01 SWAP2 SWAP1 PUSH2 0x1491 JUMP JUMPDEST PUSH2 0xD37 JUMPI PUSH1 0x40 MLOAD PUSH32 0x90B8EC1800000000000000000000000000000000000000000000000000000000 DUP2 MSTORE PUSH1 0x4 ADD PUSH1 0x40 MLOAD DUP1 SWAP2 SUB SWAP1 REVERT JUMPDEST DUP2 PUSH20 0xFFFFFFFFFFFFFFFFFFFFFFFFFFFFFFFFFFFFFFFF AND PUSH32 0x884EDAD9CE6FA2440D8A54CC123490EB96D2768479D49FF9C7366125A9424364 DUP3 PUSH1 0x40 MLOAD PUSH2 0xD7D SWAP2 SWAP1 PUSH2 0x10A1 JUMP JUMPDEST PUSH1 0x40 MLOAD DUP1 SWAP2 SUB SWAP1 LOG2 POP POP JUMP JUMPDEST PUSH1 0x5 PUSH1 0x20 MSTORE DUP1 PUSH0 MSTORE PUSH1 0x40 PUSH0 KECCAK256 PUSH0 SWAP2 POP SWAP1 POP DUP1 PUSH0 ADD SLOAD SWAP1 DUP1 PUSH1 0x1 ADD SLOAD SWAP1 POP DUP3 JUMP JUMPDEST PUSH0 PUSH1 0x3 SLOAD SUB PUSH2 0xDBF JUMPI PUSH2 0xDBA PUSH2 0xF61 JUMP JUMPDEST PUSH2 0xDEE JUMP JUMPDEST PUSH0 PUSH1 0x5 PUSH0 PUSH1 0x3 SLOAD DUP2 MSTORE PUSH1 0x20 ADD SWAP1 DUP2 MSTORE PUSH1 0x20 ADD PUSH0 KECCAK256 SWAP1 POP DUP1 PUSH0 ADD SLOAD DUP2 PUSH1 0x1 ADD SLOAD SUB PUSH2 0xDEC JUMPI PUSH2 0xDEB PUSH2 0xF61 JUMP JUMPDEST JUMPDEST POP JUMPDEST JUMP JUMPDEST PUSH1 0x60 DUP2 PUSH8 0xFFFFFFFFFFFFFFFF DUP2 GT ISZERO PUSH2 0xE0C JUMPI PUSH2 0xE0B PUSH2 0x14E3 JUMP JUMPDEST JUMPDEST PUSH1 0x40 MLOAD SWAP1 DUP1 DUP3 MSTORE DUP1 PUSH1 0x20 MUL PUSH1 0x20 ADD DUP3 ADD PUSH1 0x40 MSTORE DUP1 ISZERO PUSH2 0xE3A JUMPI DUP2 PUSH1 0x20 ADD PUSH1 0x20 DUP3 MUL DUP1 CALLDATASIZE DUP4 CALLDATACOPY DUP1 DUP3 ADD SWAP2 POP POP SWAP1 POP JUMPDEST POP SWAP1 POP PUSH0 PUSH0 SWAP1 POP JUMPDEST DUP3 DUP2 LT ISZERO PUSH2 0xF58 JUMPI PUSH0 DUP2 DUP6 PUSH2 0xE57 SWAP2 SWAP1 PUSH2 0x1344 JUMP JUMPDEST SWAP1 POP PUSH0 DUP2 PUSH1 0x80 DUP9 SWAP1 SHL OR SWAP1 POP DUP8 PUSH1 0x7 PUSH0 DUP4 DUP2 MSTORE PUSH1 0x20 ADD SWAP1 DUP2 MSTORE PUSH1 0x20 ADD PUSH0 KECCAK256 PUSH0 PUSH2 0x100 EXP DUP2 SLOAD DUP2 PUSH20 0xFFFFFFFFFFFFFFFFFFFFFFFFFFFFFFFFFFFFFFFF MUL NOT AND SWAP1 DUP4 PUSH20 0xFFFFFFFFFFFFFFFFFFFFFFFFFFFFFFFFFFFFFFFF AND MUL OR SWAP1 SSTORE POP DUP7 PUSH1 0x8 PUSH0 DUP4 DUP2 MSTORE PUSH1 0x20 ADD SWAP1 DUP2 MSTORE PUSH1 0x20 ADD PUSH0 KECCAK256 DUP2 SWAP1 SSTORE POP PUSH1 0x9 PUSH0 DUP10 PUSH20 0xFFFFFFFFFFFFFFFFFFFFFFFFFFFFFFFFFFFFFFFF AND PUSH20 0xFFFFFFFFFFFFFFFFFFFFFFFFFFFFFFFFFFFFFFFF AND DUP2 MSTORE PUSH1 0x20 ADD SWAP1 DUP2 MSTORE PUSH1 0x20 ADD PUSH0 KECCAK256 DUP2 SWAP1 DUP1 PUSH1 0x1 DUP2 SLOAD ADD DUP1 DUP3 SSTORE DUP1 SWAP2 POP POP PUSH1 0x1 SWAP1 SUB SWAP1 PUSH0 MSTORE PUSH1 0x20 PUSH0 KECCAK256 ADD PUSH0 SWAP1 SWAP2 SWAP1 SWAP2 SWAP1 SWAP2 POP SSTORE DUP1 DUP5 DUP5 DUP2 MLOAD DUP2 LT PUSH2 0xF3D JUMPI PUSH2 0xF3C PUSH2 0x1510 JUMP JUMPDEST JUMPDEST PUSH1 0x20 MUL PUSH1 0x20 ADD ADD DUP2 DUP2 MSTORE POP POP POP POP DUP1 DUP1 PUSH1 0x1 ADD SWAP2 POP POP PUSH2 0xE42 JUMP JUMPDEST POP SWAP5 SWAP4 POP POP POP POP JUMP JUMPDEST PUSH0 PUSH0 PUSH1 0x3 SLOAD EQ PUSH2 0xF7F JUMPI PUSH1 0x1 PUSH1 0x3 SLOAD PUSH2 0xF7A SWAP2 SWAP1 PUSH2 0x1344 JUMP JUMPDEST PUSH2 0xF82 JUMP JUMPDEST PUSH1 0x1 JUMPDEST SWAP1 POP PUSH0 DUP2 SWAP1 POP JUMPDEST PUSH1 0x4 SLOAD DUP2 GT PUSH2 0x1024 JUMPI PUSH0 PUSH1 0x5 PUSH0 DUP4 DUP2 MSTORE PUSH1 0x20 ADD SWAP1 DUP2 MSTORE PUSH1 0x20 ADD PUSH0 KECCAK256 SWAP1 POP PUSH0 DUP2 PUSH0 ADD SLOAD SUB PUSH2 0xFB6 JUMPI POP PUSH2 0x1011 JUMP JUMPDEST DUP1 PUSH0 ADD SLOAD DUP2 PUSH1 0x1 ADD SLOAD LT ISZERO PUSH2 0x100F JUMPI DUP2 PUSH1 0x3 DUP2 SWAP1 SSTORE POP DUP2 PUSH32 0x92F4672BA5B2B4F28A7CEE1336B7F92F4C6D73F32A8A3317187229FEBCB68A4B DUP3 PUSH0 ADD SLOAD PUSH1 0x40 MLOAD PUSH2 0xFFF SWAP2 SWAP1 PUSH2 0x10A1 JUMP JUMPDEST PUSH1 0x40 MLOAD DUP1 SWAP2 SUB SWAP1 LOG2 POP POP POP PUSH2 0x102E JUMP JUMPDEST POP JUMPDEST DUP1 DUP1 PUSH2 0x101C SWAP1 PUSH2 0x153D JUMP JUMPDEST SWAP2 POP POP PUSH2 0xF89 JUMP JUMPDEST POP PUSH0 PUSH1 0x3 DUP2 SWAP1 SSTORE POP POP JUMPDEST JUMP JUMPDEST PUSH0 PUSH0 REVERT JUMPDEST PUSH0 DUP2 SWAP1 POP SWAP2 SWAP1 POP JUMP JUMPDEST PUSH2 0x1046 DUP2 PUSH2 0x1034 JUMP JUMPDEST DUP2 EQ PUSH2 0x1050 JUMPI PUSH0 PUSH0 REVERT JUMPDEST POP JUMP JUMPDEST PUSH0 DUP2 CALLDATALOAD SWAP1 POP PUSH2 0x1061 DUP2 PUSH2 0x103D JUMP JUMPDEST SWAP3 SWAP2 POP POP JUMP JUMPDEST PUSH0 PUSH1 0x20 DUP3 DUP5 SUB SLT ISZERO PUSH2 0x107C JUMPI PUSH2 0x107B PUSH2 0x1030 JUMP JUMPDEST JUMPDEST PUSH0 PUSH2 0x1089 DUP5 DUP3 DUP6 ADD PUSH2 0x1053 JUMP JUMPDEST SWAP2 POP POP SWAP3 SWAP2 POP POP JUMP JUMPDEST PUSH2 0x109B DUP2 PUSH2 0x1034 JUMP JUMPDEST DUP3 MSTORE POP POP JUMP JUMPDEST PUSH0 PUSH1 0x20 DUP3 ADD SWAP1 POP PUSH2 0x10B4 PUSH0 DUP4 ADD DUP5 PUSH2 0x1092 JUMP JUMPDEST SWAP3 SWAP2 POP POP JUMP JUMPDEST PUSH0 PUSH20 0xFFFFFFFFFFFFFFFFFFFFFFFFFFFFFFFFFFFFFFFF DUP3 AND SWAP1 POP SWAP2 SWAP1 POP JUMP JUMPDEST PUSH0 DUP2 SWAP1 POP SWAP2 SWAP1 POP JUMP JUMPDEST PUSH0 PUSH2 0x10FC PUSH2 0x10F7 PUSH2 0x10F2 DUP5 PUSH2 0x10BA JUMP JUMPDEST PUSH2 0x10D9 JUMP JUMPDEST PUSH2 0x10BA JUMP JUMPDEST SWAP1 POP SWAP2 SWAP1 POP JUMP JUMPDEST PUSH0 PUSH2 0x110D DUP3 PUSH2 0x10E2 JUMP JUMPDEST SWAP1 POP SWAP2 SWAP1 POP JUMP JUMPDEST PUSH0 PUSH2 0x111E DUP3 PUSH2 0x1103 JUMP JUMPDEST SWAP1 POP SWAP2 SWAP1 POP JUMP JUMPDEST PUSH2 0x112E DUP2 PUSH2 0x1114 JUMP JUMPDEST DUP3 MSTORE POP POP JUMP JUMPDEST PUSH0 PUSH1 0x20 DUP3 ADD SWAP1 POP PUSH2 0x1147 PUSH0 DUP4 ADD DUP5 PUSH2 0x1125 JUMP JUMPDEST SWAP3 SWAP2 POP POP JUMP JUMPDEST PUSH0 PUSH1 0x40 DUP3 ADD SWAP1 POP PUSH2 0x1160 PUSH0 DUP4 ADD DUP6 PUSH2 0x1092 JUMP JUMPDEST PUSH2 0x116D PUSH1 0x20 DUP4 ADD DUP5 PUSH2 0x1092 JUMP JUMPDEST SWAP4 SWAP3 POP POP POP JUMP JUMPDEST PUSH0 PUSH2 0x117E DUP3 PUSH2 0x10BA JUMP JUMPDEST SWAP1 POP SWAP2 SWAP1 POP JUMP JUMPDEST PUSH2 0x118E DUP2 PUSH2 0x1174 JUMP JUMPDEST DUP3 MSTORE POP POP JUMP JUMPDEST PUSH0 PUSH1 0x20 DUP3 ADD SWAP1 POP PUSH2 0x11A7 PUSH0 DUP4 ADD DUP5 PUSH2 0x1185 JUMP JUMPDEST SWAP3 SWAP2 POP POP JUMP JUMPDEST PUSH2 0x11B6 DUP2 PUSH2 0x1174 JUMP JUMPDEST DUP2 EQ PUSH2 0x11C0 JUMPI PUSH0 PUSH0 REVERT JUMPDEST POP JUMP JUMPDEST PUSH0 DUP2 CALLDATALOAD SWAP1 POP PUSH2 0x11D1 DUP2 PUSH2 0x11AD JUMP JUMPDEST SWAP3 SWAP2 POP POP JUMP JUMPDEST PUSH0 PUSH1 0x20 DUP3 DUP5 SUB SLT ISZERO PUSH2 0x11EC JUMPI PUSH2 0x11EB PUSH2 0x1030 JUMP JUMPDEST JUMPDEST PUSH0 PUSH2 0x11F9 DUP5 DUP3 DUP6 ADD PUSH2 0x11C3 JUMP JUMPDEST SWAP2 POP POP SWAP3 SWAP2 POP POP JUMP JUMPDEST PUSH0 DUP2 MLOAD SWAP1 POP SWAP2 SWAP1 POP JUMP JUMPDEST PUSH0 DUP3 DUP3 MSTORE PUSH1 0x20 DUP3 ADD SWAP1 POP SWAP3 SWAP2 POP POP JUMP JUMPDEST PUSH0 DUP2 SWAP1 POP PUSH1 0x20 DUP3 ADD SWAP1 POP SWAP2 SWAP1 POP JUMP JUMPDEST PUSH2 0x1234 DUP2 PUSH2 0x1034 JUMP JUMPDEST DUP3 MSTORE POP POP JUMP JUMPDEST PUSH0 PUSH2 0x1245 DUP4 DUP4 PUSH2 0x122B JUMP JUMPDEST PUSH1 0x20 DUP4 ADD SWAP1 POP SWAP3 SWAP2 POP POP JUMP JUMPDEST PUSH0 PUSH1 0x20 DUP3 ADD SWAP1 POP SWAP2 SWAP1 POP JUMP JUMPDEST PUSH0 PUSH2 0x1267 DUP3 PUSH2 0x1202 JUMP JUMPDEST PUSH2 0x1271 DUP2 DUP6 PUSH2 0x120C JUMP JUMPDEST SWAP4 POP PUSH2 0x127C DUP4 PUSH2 0x121C JUMP JUMPDEST DUP1 PUSH0 JUMPDEST DUP4 DUP2 LT ISZERO PUSH2 0x12AC JUMPI DUP2 MLOAD PUSH2 0x1293 DUP9 DUP3 PUSH2 0x123A JUMP JUMPDEST SWAP8 POP PUSH2 0x129E DUP4 PUSH2 0x1251 JUMP JUMPDEST SWAP3 POP POP PUSH1 0x1 DUP2 ADD SWAP1 POP PUSH2 0x127F JUMP JUMPDEST POP DUP6 SWAP4 POP POP POP POP SWAP3 SWAP2 POP POP JUMP JUMPDEST PUSH0 PUSH1 0x20 DUP3 ADD SWAP1 POP DUP2 DUP2 SUB PUSH0 DUP4 ADD MSTORE PUSH2 0x12D1 DUP2 DUP5 PUSH2 0x125D JUMP JUMPDEST SWAP1 POP SWAP3 SWAP2 POP POP JUMP JUMPDEST PUSH0 PUSH0 PUSH1 0x40 DUP4 DUP6 SUB SLT ISZERO PUSH2 0x12EF JUMPI PUSH2 0x12EE PUSH2 0x1030 JUMP JUMPDEST JUMPDEST PUSH0 PUSH2 0x12FC DUP6 DUP3 DUP7 ADD PUSH2 0x11C3 JUMP JUMPDEST SWAP3 POP POP PUSH1 0x20 PUSH2 0x130D DUP6 DUP3 DUP7 ADD PUSH2 0x1053 JUMP JUMPDEST SWAP2 POP POP SWAP3 POP SWAP3 SWAP1 POP JUMP JUMPDEST PUSH32 0x4E487B7100000000000000000000000000000000000000000000000000000000 PUSH0 MSTORE PUSH1 0x11 PUSH1 0x4 MSTORE PUSH1 0x24 PUSH0 REVERT JUMPDEST PUSH0 PUSH2 0x134E DUP3 PUSH2 0x1034 JUMP JUMPDEST SWAP2 POP PUSH2 0x1359 DUP4 PUSH2 0x1034 JUMP JUMPDEST SWAP3 POP DUP3 DUP3 ADD SWAP1 POP DUP1 DUP3 GT ISZERO PUSH2 0x1371 JUMPI PUSH2 0x1370 PUSH2 0x1317 JUMP JUMPDEST JUMPDEST SWAP3 SWAP2 POP POP JUMP JUMPDEST PUSH0 PUSH2 0x1381 DUP3 PUSH2 0x1034 JUMP JUMPDEST SWAP2 POP PUSH2 0x138C DUP4 PUSH2 0x1034 JUMP JUMPDEST SWAP3 POP DUP3 DUP3 SUB SWAP1 POP DUP2 DUP2 GT ISZERO PUSH2 0x13A4 JUMPI PUSH2 0x13A3 PUSH2 0x1317 JUMP JUMPDEST JUMPDEST SWAP3 SWAP2 POP POP JUMP JUMPDEST PUSH0 PUSH2 0x13B4 DUP3 PUSH2 0x1034 JUMP JUMPDEST SWAP2 POP PUSH2 0x13BF DUP4 PUSH2 0x1034 JUMP JUMPDEST SWAP3 POP DUP3 DUP3 MUL PUSH2 0x13CD DUP2 PUSH2 0x1034 JUMP JUMPDEST SWAP2 POP DUP3 DUP3 DIV DUP5 EQ DUP4 ISZERO OR PUSH2 0x13E4 JUMPI PUSH2 0x13E3 PUSH2 0x1317 JUMP JUMPDEST JUMPDEST POP SWAP3 SWAP2 POP POP JUMP JUMPDEST PUSH0 PUSH1 0x60 DUP3 ADD SWAP1 POP PUSH2 0x13FE PUSH0 DUP4 ADD DUP7 PUSH2 0x1092 JUMP JUMPDEST PUSH2 0x140B PUSH1 0x20 DUP4 ADD DUP6 PUSH2 0x1092 JUMP JUMPDEST DUP2 DUP2 SUB PUSH1 0x40 DUP4 ADD MSTORE PUSH2 0x141D DUP2 DUP5 PUSH2 0x125D JUMP JUMPDEST SWAP1 POP SWAP5 SWAP4 POP POP POP POP JUMP JUMPDEST PUSH0 PUSH1 0x60 DUP3 ADD SWAP1 POP PUSH2 0x143A PUSH0 DUP4 ADD DUP7 PUSH2 0x1185 JUMP JUMPDEST PUSH2 0x1447 PUSH1 0x20 DUP4 ADD DUP6 PUSH2 0x1185 JUMP JUMPDEST PUSH2 0x1454 PUSH1 0x40 DUP4 ADD DUP5 PUSH2 0x1092 JUMP JUMPDEST SWAP5 SWAP4 POP POP POP POP JUMP JUMPDEST PUSH0 DUP2 ISZERO ISZERO SWAP1 POP SWAP2 SWAP1 POP JUMP JUMPDEST PUSH2 0x1470 DUP2 PUSH2 0x145C JUMP JUMPDEST DUP2 EQ PUSH2 0x147A JUMPI PUSH0 PUSH0 REVERT JUMPDEST POP JUMP JUMPDEST PUSH0 DUP2 MLOAD SWAP1 POP PUSH2 0x148B DUP2 PUSH2 0x1467 JUMP JUMPDEST SWAP3 SWAP2 POP POP JUMP JUMPDEST PUSH0 PUSH1 0x20 DUP3 DUP5 SUB SLT ISZERO PUSH2 0x14A6 JUMPI PUSH2 0x14A5 PUSH2 0x1030 JUMP JUMPDEST JUMPDEST PUSH0 PUSH2 0x14B3 DUP5 DUP3 DUP6 ADD PUSH2 0x147D JUMP JUMPDEST SWAP2 POP POP SWAP3 SWAP2 POP POP JUMP JUMPDEST PUSH0 PUSH1 0x40 DUP3 ADD SWAP1 POP PUSH2 0x14CF PUSH0 DUP4 ADD DUP6 PUSH2 0x1185 JUMP JUMPDEST PUSH2 0x14DC PUSH1 0x20 DUP4 ADD DUP5 PUSH2 0x1092 JUMP JUMPDEST SWAP4 SWAP3 POP POP POP JUMP JUMPDEST PUSH32 0x4E487B7100000000000000000000000000000000000000000000000000000000 PUSH0 MSTORE PUSH1 0x41 PUSH1 0x4 MSTORE PUSH1 0x24 PUSH0 REVERT JUMPDEST PUSH32 0x4E487B7100000000000000000000000000000000000000000000000000000000 PUSH0 MSTORE PUSH1 0x32 PUSH1 0x4 MSTORE PUSH1 0x24 PUSH0 REVERT JUMPDEST PUSH0 PUSH2 0x1547 DUP3 PUSH2 0x1034 JUMP JUMPDEST SWAP2 POP PUSH32 0xFFFFFFFFFFFFFFFFFFFFFFFFFFFFFFFFFFFFFFFFFFFFFFFFFFFFFFFFFFFFFFFF DUP3 SUB PUSH2 0x1579 JUMPI PUSH2 0x1578 PUSH2 0x1317 JUMP JUMPDEST JUMPDEST PUSH1 0x1 DUP3 ADD SWAP1 POP SWAP2 SWAP1 POP JUMP INVALID LOG2 PUSH5 0x6970667358 0x22 SLT KECCAK256 PUSH28 0xF4AB074F0C4133EB905CBB3BE0E31AF51130A1B7D99AA5AD67FC7381 0x29 0xF6 0xF6 PUSH5 0x736F6C6343 STOP ADDMOD 0x1E STOP CALLER "
				},
				"gasEstimates": {
					"creation": {
						"codeDepositCost": "1112400",
						"executionCost": "infinite",
						"totalCost": "infinite"
					},
					"external": {
						"activeSeriesId()": "2448",
						"buyTickets(uint256)": "infinite",
						"getOwnedTicketIds(address)": "infinite",
						"getSeriesInfo(uint256)": "infinite",
						"owner()": "2530",
						"queueSeries(uint256)": "infinite",
						"seriesInfo(uint256)": "infinite",
						"setTicketPrice(uint256)": "infinite",
						"ticketBalances(address)": "2891",
						"ticketOwners(uint256)": "2849",
						"ticketPrice()": "2471",
						"ticketSeries(uint256)": "infinite",
						"ticketsSold()": "2470",
						"totalSeriesCount()": "2515",
						"transferOwnership(address)": "26960",
						"usdt()": "infinite",
						"withdraw(address,uint256)": "infinite"
					},
					"internal": {
						"_advanceSeries()": "infinite",
						"_ensureActiveSeries()": "infinite",
						"_generateTicketSeries(address,uint256,uint256,uint256)": "infinite"
					}
				},
				"methodIdentifiers": {
					"activeSeriesId()": "2671fd2b",
					"buyTickets(uint256)": "2f366637",
					"getOwnedTicketIds(address)": "a4bfd0cc",
					"getSeriesInfo(uint256)": "616eb255",
					"owner()": "8da5cb5b",
					"queueSeries(uint256)": "03914276",
					"seriesInfo(uint256)": "fe8ace85",
					"setTicketPrice(uint256)": "15981650",
					"ticketBalances(address)": "e54566f3",
					"ticketOwners(uint256)": "eb2dbcf6",
					"ticketPrice()": "1209b1f6",
					"ticketSeries(uint256)": "f3eec42f",
					"ticketsSold()": "8f15024f",
					"totalSeriesCount()": "15b5386e",
					"transferOwnership(address)": "f2fde38b",
					"usdt()": "2f48ab7d",
					"withdraw(address,uint256)": "f3fef3a3"
				}
			},
			"storageLayout": {
				"storage": [
					{
						"astId": 63,
						"contract": "Lottery.sol:Lottery",
						"label": "owner",
						"offset": 0,
						"slot": "0",
						"type": "t_address"
					},
					{
						"astId": 68,
						"contract": "Lottery.sol:Lottery",
						"label": "ticketPrice",
						"offset": 0,
						"slot": "1",
						"type": "t_uint256"
					},
					{
						"astId": 70,
						"contract": "Lottery.sol:Lottery",
						"label": "ticketsSold",
						"offset": 0,
						"slot": "2",
						"type": "t_uint256"
					},
					{
						"astId": 72,
						"contract": "Lottery.sol:Lottery",
						"label": "activeSeriesId",
						"offset": 0,
						"slot": "3",
						"type": "t_uint256"
					},
					{
						"astId": 74,
						"contract": "Lottery.sol:Lottery",
						"label": "totalSeriesCount",
						"offset": 0,
						"slot": "4",
						"type": "t_uint256"
					},
					{
						"astId": 79,
						"contract": "Lottery.sol:Lottery",
						"label": "seriesInfo",
						"offset": 0,
						"slot": "5",
						"type": "t_mapping(t_uint256,t_struct(Series)61_storage)"
					},
					{
						"astId": 83,
						"contract": "Lottery.sol:Lottery",
						"label": "ticketBalances",
						"offset": 0,
						"slot": "6",
						"type": "t_mapping(t_address,t_uint256)"
					},
					{
						"astId": 87,
						"contract": "Lottery.sol:Lottery",
						"label": "ticketOwners",
						"offset": 0,
						"slot": "7",
						"type": "t_mapping(t_uint256,t_address)"
					},
					{
						"astId": 91,
						"contract": "Lottery.sol:Lottery",
						"label": "ticketSeries",
						"offset": 0,
						"slot": "8",
						"type": "t_mapping(t_uint256,t_uint256)"
					},
					{
						"astId": 96,
						"contract": "Lottery.sol:Lottery",
						"label": "ownedTicketIds",
						"offset": 0,
						"slot": "9",
						"type": "t_mapping(t_address,t_array(t_uint256)dyn_storage)"
					}
				],
				"types": {
					"t_address": {
						"encoding": "inplace",
						"label": "address",
						"numberOfBytes": "20"
					},
					"t_array(t_uint256)dyn_storage": {
						"base": "t_uint256",
						"encoding": "dynamic_array",
						"label": "uint256[]",
						"numberOfBytes": "32"
					},
					"t_mapping(t_address,t_array(t_uint256)dyn_storage)": {
						"encoding": "mapping",
						"key": "t_address",
						"label": "mapping(address => uint256[])",
						"numberOfBytes": "32",
						"value": "t_array(t_uint256)dyn_storage"
					},
					"t_mapping(t_address,t_uint256)": {
						"encoding": "mapping",
						"key": "t_address",
						"label": "mapping(address => uint256)",
						"numberOfBytes": "32",
						"value": "t_uint256"
					},
					"t_mapping(t_uint256,t_address)": {
						"encoding": "mapping",
						"key": "t_uint256",
						"label": "mapping(uint256 => address)",
						"numberOfBytes": "32",
						"value": "t_address"
					},
					"t_mapping(t_uint256,t_struct(Series)61_storage)": {
						"encoding": "mapping",
						"key": "t_uint256",
						"label": "mapping(uint256 => struct Lottery.Series)",
						"numberOfBytes": "32",
						"value": "t_struct(Series)61_storage"
					},
					"t_mapping(t_uint256,t_uint256)": {
						"encoding": "mapping",
						"key": "t_uint256",
						"label": "mapping(uint256 => uint256)",
						"numberOfBytes": "32",
						"value": "t_uint256"
					},
					"t_struct(Series)61_storage": {
						"encoding": "inplace",
						"label": "struct Lottery.Series",
						"members": [
							{
								"astId": 58,
								"contract": "Lottery.sol:Lottery",
								"label": "totalTickets",
								"offset": 0,
								"slot": "0",
								"type": "t_uint256"
							},
							{
								"astId": 60,
								"contract": "Lottery.sol:Lottery",
								"label": "ticketsSold",
								"offset": 0,
								"slot": "1",
								"type": "t_uint256"
							}
						],
						"numberOfBytes": "64"
					},
					"t_uint256": {
						"encoding": "inplace",
						"label": "uint256",
						"numberOfBytes": "32"
					}
				}
			},
			"userdoc": {
				"errors": {
					"InvalidAddress()": [
						{
							"notice": "----------------------------------------------------------------------- Errors -----------------------------------------------------------------------"
						}
					]
				},
				"events": {
					"TicketPriceUpdated(uint256)": {
						"notice": "----------------------------------------------------------------------- Events -----------------------------------------------------------------------"
					}
				},
				"kind": "user",
				"methods": {
					"buyTickets(uint256)": {
						"notice": "----------------------------------------------------------------------- Public actions -----------------------------------------------------------------------"
					},
					"constructor": {
						"notice": "----------------------------------------------------------------------- Constructor -----------------------------------------------------------------------"
					},
					"setTicketPrice(uint256)": {
						"notice": "----------------------------------------------------------------------- Owner actions -----------------------------------------------------------------------"
					}
				},
				"notice": "Minimal lottery contract that sells tickets priced in USDT on BNB Testnet.",
				"version": 1
			}
		}
	}
}