{
	"Lottery.sol": {
		"Lottery": {
			"abi": [
				{
					"inputs": [
						{
							"internalType": "address",
							"name": "usdtAddress",
							"type": "address"
						}
					],
					"stateMutability": "nonpayable",
					"type": "constructor"
				},
				{
					"inputs": [
						{
							"internalType": "uint256",
							"name": "seriesId",
							"type": "uint256"
						}
					],
					"name": "DrawAlreadyExecuted",
					"type": "error"
				},
				{
					"inputs": [
						{
							"internalType": "uint256",
							"name": "seriesId",
							"type": "uint256"
						}
					],
					"name": "DrawNotExecuted",
					"type": "error"
				},
				{
					"inputs": [],
					"name": "InsufficientTickets",
					"type": "error"
				},
				{
					"inputs": [
						{
							"internalType": "uint256",
							"name": "seriesId",
							"type": "uint256"
						}
					],
					"name": "InsufficientWinners",
					"type": "error"
				},
				{
					"inputs": [],
					"name": "InvalidAddress",
					"type": "error"
				},
				{
					"inputs": [
						{
							"internalType": "uint256",
							"name": "seriesId",
							"type": "uint256"
						}
					],
					"name": "InvalidSeriesId",
					"type": "error"
				},
				{
					"inputs": [],
					"name": "InvalidTicketCount",
					"type": "error"
				},
				{
					"inputs": [],
					"name": "InvalidTicketNumber",
					"type": "error"
				},
				{
					"inputs": [
						{
							"internalType": "uint256",
							"name": "seriesId",
							"type": "uint256"
						}
					],
					"name": "NotEnoughTicketsSold",
					"type": "error"
				},
				{
					"inputs": [],
					"name": "NotOwner",
					"type": "error"
				},
				{
					"inputs": [
						{
							"internalType": "uint256",
							"name": "seriesId",
							"type": "uint256"
						}
					],
					"name": "RewardsAlreadyDistributed",
					"type": "error"
				},
				{
					"inputs": [
						{
							"internalType": "uint256",
							"name": "seriesId",
							"type": "uint256"
						}
					],
					"name": "SeriesNotCompleted",
					"type": "error"
				},
				{
					"inputs": [
						{
							"internalType": "uint256",
							"name": "seriesId",
							"type": "uint256"
						}
					],
					"name": "SeriesNotReadyForDraw",
					"type": "error"
				},
				{
					"inputs": [
						{
							"internalType": "uint256",
							"name": "ticketNumber",
							"type": "uint256"
						}
					],
					"name": "TicketAlreadySold",
					"type": "error"
				},
				{
					"inputs": [],
					"name": "TransferFailed",
					"type": "error"
				},
				{
					"anonymous": false,
					"inputs": [
						{
							"indexed": true,
							"internalType": "uint256",
							"name": "seriesId",
							"type": "uint256"
						},
						{
							"indexed": false,
							"internalType": "uint256[]",
							"name": "winningTicketNumbers",
							"type": "uint256[]"
						},
						{
							"indexed": false,
							"internalType": "uint256",
							"name": "randomSeed",
							"type": "uint256"
						}
					],
					"name": "DrawExecuted",
					"type": "event"
				},
				{
					"anonymous": false,
					"inputs": [
						{
							"indexed": false,
							"internalType": "uint256",
							"name": "newReward",
							"type": "uint256"
						}
					],
					"name": "RewardUpdated",
					"type": "event"
				},
				{
					"anonymous": false,
					"inputs": [
						{
							"indexed": true,
							"internalType": "uint256",
							"name": "seriesId",
							"type": "uint256"
						},
						{
							"indexed": false,
							"internalType": "address[]",
							"name": "winners",
							"type": "address[]"
						},
						{
							"indexed": false,
							"internalType": "uint256",
							"name": "rewardPerWinner",
							"type": "uint256"
						},
						{
							"indexed": false,
							"internalType": "uint256",
							"name": "totalRewardAmount",
							"type": "uint256"
						}
					],
					"name": "RewardsDistributed",
					"type": "event"
				},
				{
					"anonymous": false,
					"inputs": [
						{
							"indexed": true,
							"internalType": "uint256",
							"name": "seriesId",
							"type": "uint256"
						}
					],
					"name": "SeriesCompleted",
					"type": "event"
				},
				{
					"anonymous": false,
					"inputs": [
						{
							"indexed": true,
							"internalType": "uint256",
							"name": "seriesId",
							"type": "uint256"
						},
						{
							"indexed": false,
							"internalType": "uint256",
							"name": "totalTickets",
							"type": "uint256"
						}
					],
					"name": "SeriesConfigured",
					"type": "event"
				},
				{
					"anonymous": false,
					"inputs": [
						{
							"indexed": false,
							"internalType": "uint256",
							"name": "newPrice",
							"type": "uint256"
						}
					],
					"name": "TicketPriceUpdated",
					"type": "event"
				},
				{
					"anonymous": false,
					"inputs": [
						{
							"indexed": true,
							"internalType": "address",
							"name": "buyer",
							"type": "address"
						},
						{
							"indexed": false,
							"internalType": "uint256",
							"name": "count",
							"type": "uint256"
						},
						{
							"indexed": false,
							"internalType": "uint256",
							"name": "totalCost",
							"type": "uint256"
						},
						{
							"indexed": false,
							"internalType": "uint256[]",
							"name": "ticketIds",
							"type": "uint256[]"
						},
						{
							"indexed": true,
							"internalType": "uint256",
							"name": "seriesId",
							"type": "uint256"
						}
					],
					"name": "TicketPurchased",
					"type": "event"
				},
				{
					"anonymous": false,
					"inputs": [
						{
							"indexed": true,
							"internalType": "address",
							"name": "to",
							"type": "address"
						},
						{
							"indexed": false,
							"internalType": "uint256",
							"name": "amount",
							"type": "uint256"
						}
					],
					"name": "Withdraw",
					"type": "event"
				},
				{
					"inputs": [],
					"name": "DRAW_THRESHOLD",
					"outputs": [
						{
							"internalType": "uint256",
							"name": "",
							"type": "uint256"
						}
					],
					"stateMutability": "view",
					"type": "function"
				},
				{
					"inputs": [],
					"name": "TICKETS_PER_SERIES",
					"outputs": [
						{
							"internalType": "uint256",
							"name": "",
							"type": "uint256"
						}
					],
					"stateMutability": "view",
					"type": "function"
				},
				{
					"inputs": [],
					"name": "WINNING_TICKETS_COUNT",
					"outputs": [
						{
							"internalType": "uint256",
							"name": "",
							"type": "uint256"
						}
					],
					"stateMutability": "view",
					"type": "function"
				},
				{
					"inputs": [
						{
							"internalType": "uint256",
							"name": "seriesId",
							"type": "uint256"
						},
						{
							"internalType": "uint256",
							"name": "count",
							"type": "uint256"
						}
					],
					"name": "buyTickets",
					"outputs": [],
					"stateMutability": "nonpayable",
					"type": "function"
				},
				{
					"inputs": [
						{
							"internalType": "uint256",
							"name": "seriesId",
							"type": "uint256"
						},
						{
							"internalType": "uint256[]",
							"name": "ticketNumbers",
							"type": "uint256[]"
						}
					],
					"name": "buyTicketsAt",
					"outputs": [],
					"stateMutability": "nonpayable",
					"type": "function"
				},
				{
					"inputs": [
						{
							"internalType": "uint256",
							"name": "seriesId",
							"type": "uint256"
						}
					],
					"name": "distributeRewards",
					"outputs": [],
					"stateMutability": "nonpayable",
					"type": "function"
				},
				{
					"inputs": [
						{
							"internalType": "uint256",
							"name": "seriesId",
							"type": "uint256"
						}
					],
					"name": "executeDraw",
					"outputs": [],
					"stateMutability": "nonpayable",
					"type": "function"
				},
				{
					"inputs": [],
					"name": "generateSeries",
					"outputs": [],
					"stateMutability": "nonpayable",
					"type": "function"
				},
				{
					"inputs": [
						{
							"internalType": "address",
							"name": "account",
							"type": "address"
						}
					],
					"name": "getOwnedTicketIds",
					"outputs": [
						{
							"internalType": "uint256[]",
							"name": "",
							"type": "uint256[]"
						}
					],
					"stateMutability": "view",
					"type": "function"
				},
				{
					"inputs": [
						{
							"internalType": "uint256",
							"name": "seriesId",
							"type": "uint256"
						}
					],
					"name": "getSeriesInfo",
					"outputs": [
						{
							"internalType": "uint256",
							"name": "totalTickets",
							"type": "uint256"
						},
						{
							"internalType": "uint256",
							"name": "soldCount",
							"type": "uint256"
						},
						{
							"internalType": "bool",
							"name": "drawExecuted",
							"type": "bool"
						},
						{
							"internalType": "bool",
							"name": "readyForDraw",
							"type": "bool"
						},
						{
							"internalType": "uint256[]",
							"name": "winningTicketNumbers",
							"type": "uint256[]"
						}
					],
					"stateMutability": "view",
					"type": "function"
				},
				{
					"inputs": [],
					"name": "owner",
					"outputs": [
						{
							"internalType": "address",
							"name": "",
							"type": "address"
						}
					],
					"stateMutability": "view",
					"type": "function"
				},
				{
					"inputs": [],
					"name": "rewardPerUser",
					"outputs": [
						{
							"internalType": "uint256",
							"name": "",
							"type": "uint256"
						}
					],
					"stateMutability": "view",
					"type": "function"
				},
				{
					"inputs": [
						{
							"internalType": "uint256",
							"name": "",
							"type": "uint256"
						}
					],
					"name": "rewardsDistributed",
					"outputs": [
						{
							"internalType": "bool",
							"name": "",
							"type": "bool"
						}
					],
					"stateMutability": "view",
					"type": "function"
				},
				{
					"inputs": [
						{
							"internalType": "uint256",
							"name": "",
							"type": "uint256"
						}
					],
					"name": "seriesInfo",
					"outputs": [
						{
							"internalType": "uint256",
							"name": "totalTickets",
							"type": "uint256"
						},
						{
							"internalType": "uint256",
							"name": "ticketsSold",
							"type": "uint256"
						},
						{
							"internalType": "bool",
							"name": "drawExecuted",
							"type": "bool"
						},
						{
							"internalType": "uint256",
							"name": "drawRandomSeed",
							"type": "uint256"
						}
					],
					"stateMutability": "view",
					"type": "function"
				},
				{
					"inputs": [
						{
							"internalType": "uint256",
							"name": "newReward",
							"type": "uint256"
						}
					],
					"name": "setReward",
					"outputs": [],
					"stateMutability": "nonpayable",
					"type": "function"
				},
				{
					"inputs": [
						{
							"internalType": "uint256",
							"name": "newTicketPrice",
							"type": "uint256"
						}
					],
					"name": "setTicketPrice",
					"outputs": [],
					"stateMutability": "nonpayable",
					"type": "function"
				},
				{
					"inputs": [
						{
							"internalType": "address",
							"name": "",
							"type": "address"
						}
					],
					"name": "ticketBalances",
					"outputs": [
						{
							"internalType": "uint256",
							"name": "",
							"type": "uint256"
						}
					],
					"stateMutability": "view",
					"type": "function"
				},
				{
					"inputs": [
						{
							"internalType": "uint256",
							"name": "",
							"type": "uint256"
						}
					],
					"name": "ticketOwners",
					"outputs": [
						{
							"internalType": "address",
							"name": "",
							"type": "address"
						}
					],
					"stateMutability": "view",
					"type": "function"
				},
				{
					"inputs": [],
					"name": "ticketPrice",
					"outputs": [
						{
							"internalType": "uint256",
							"name": "",
							"type": "uint256"
						}
					],
					"stateMutability": "view",
					"type": "function"
				},
				{
					"inputs": [
						{
							"internalType": "uint256",
							"name": "",
							"type": "uint256"
						}
					],
					"name": "ticketSeries",
					"outputs": [
						{
							"internalType": "uint256",
							"name": "",
							"type": "uint256"
						}
					],
					"stateMutability": "view",
					"type": "function"
				},
				{
					"inputs": [],
					"name": "ticketsSold",
					"outputs": [
						{
							"internalType": "uint256",
							"name": "",
							"type": "uint256"
						}
					],
					"stateMutability": "view",
					"type": "function"
				},
				{
					"inputs": [],
					"name": "totalSeriesCount",
					"outputs": [
						{
							"internalType": "uint256",
							"name": "",
							"type": "uint256"
						}
					],
					"stateMutability": "view",
					"type": "function"
				},
				{
					"inputs": [
						{
							"internalType": "address",
							"name": "to",
							"type": "address"
						},
						{
							"internalType": "uint256",
							"name": "amount",
							"type": "uint256"
						}
					],
					"name": "transferFunds",
					"outputs": [],
					"stateMutability": "nonpayable",
					"type": "function"
				},
				{
					"inputs": [
						{
							"internalType": "address",
							"name": "newOwner",
							"type": "address"
						}
					],
					"name": "transferOwnership",
					"outputs": [],
					"stateMutability": "nonpayable",
					"type": "function"
				},
				{
					"inputs": [],
					"name": "usdt",
					"outputs": [
						{
							"internalType": "contract IERC20",
							"name": "",
							"type": "address"
						}
					],
					"stateMutability": "view",
					"type": "function"
				}
			],
			"devdoc": {
				"kind": "dev",
				"methods": {
					"buyTickets(uint256,uint256)": {
						"params": {
							"count": "Number of tickets to buy",
							"seriesId": "The series ID to buy tickets from"
						}
					},
					"buyTicketsAt(uint256,uint256[])": {
						"params": {
							"seriesId": "The series ID to buy tickets from",
							"ticketNumbers": "Array of specific ticket numbers to buy (1-100)"
						}
					},
					"distributeRewards(uint256)": {
						"params": {
							"seriesId": "The series ID to distribute rewards for"
						}
					},
					"executeDraw(uint256)": {
						"params": {
							"seriesId": "The series ID to draw for"
						}
					}
				},
				"title": "Nebula Lottery",
				"version": 1
			},
			"evm": {
				"assembly": "    /* \"Lottery.sol\":171:18459  contract Lottery {... */\n  mstore(0x40, 0xa0)\n    /* \"Lottery.sol\":2701:2702  1 */\n  0x01\n    /* \"Lottery.sol\":2670:2702  uint256 public rewardPerUser = 1 */\n  0x04\n  sstore\n    /* \"Lottery.sol\":3491:3698  constructor(address usdtAddress) {... */\n  callvalue\n  dup1\n  iszero\n  tag_1\n  jumpi\n  0x00\n  dup1\n  revert\ntag_1:\n  pop\n  mload(0x40)\n  sub(codesize, bytecodeSize)\n  dup1\n  bytecodeSize\n  dup4\n  codecopy\n  dup2\n  dup2\n  add\n  0x40\n  mstore\n  dup2\n  add\n  swap1\n  tag_2\n  swap2\n  swap1\n  tag_3\n  jump\t// in\ntag_2:\n    /* \"Lottery.sol\":3561:3562  0 */\n  0x00\n    /* \"Lottery.sol\":3538:3563  usdtAddress == address(0) */\n  0xffffffffffffffffffffffffffffffffffffffff\n  and\n    /* \"Lottery.sol\":3538:3549  usdtAddress */\n  dup2\n    /* \"Lottery.sol\":3538:3563  usdtAddress == address(0) */\n  0xffffffffffffffffffffffffffffffffffffffff\n  and\n  sub\n    /* \"Lottery.sol\":3534:3588  if (usdtAddress == address(0)) revert InvalidAddress() */\n  tag_6\n  jumpi\n    /* \"Lottery.sol\":3572:3588  InvalidAddress() */\n  mload(0x40)\n  0xe6c4247b00000000000000000000000000000000000000000000000000000000\n  dup2\n  mstore\n  0x04\n  add\n  mload(0x40)\n  dup1\n  swap2\n  sub\n  swap1\n  revert\n    /* \"Lottery.sol\":3534:3588  if (usdtAddress == address(0)) revert InvalidAddress() */\ntag_6:\n    /* \"Lottery.sol\":3606:3616  msg.sender */\n  caller\n    /* \"Lottery.sol\":3598:3603  owner */\n  0x00\n  dup1\n    /* \"Lottery.sol\":3598:3616  owner = msg.sender */\n  0x0100\n  exp\n  dup2\n  sload\n  dup2\n  0xffffffffffffffffffffffffffffffffffffffff\n  mul\n  not\n  and\n  swap1\n  dup4\n  0xffffffffffffffffffffffffffffffffffffffff\n  and\n  mul\n  or\n  swap1\n  sstore\n  pop\n    /* \"Lottery.sol\":3640:3651  usdtAddress */\n  dup1\n    /* \"Lottery.sol\":3626:3652  usdt = IERC20(usdtAddress) */\n  0xffffffffffffffffffffffffffffffffffffffff\n  and\n  0x80\n  dup2\n  0xffffffffffffffffffffffffffffffffffffffff\n  and\n  dup2\n  mstore\n  pop\n  pop\n    /* \"Lottery.sol\":3676:3691  0.11 * 10 ** 18 */\n  0x0186cc6acd4b0000\n    /* \"Lottery.sol\":3662:3673  ticketPrice */\n  0x01\n    /* \"Lottery.sol\":3662:3691  ticketPrice = 0.11 * 10 ** 18 */\n  dup2\n  swap1\n  sstore\n  pop\n    /* \"Lottery.sol\":3491:3698  constructor(address usdtAddress) {... */\n  pop\n    /* \"Lottery.sol\":171:18459  contract Lottery {... */\n  jump(tag_7)\n    /* \"#utility.yul\":88:205   */\ntag_9:\n    /* \"#utility.yul\":197:198   */\n  0x00\n    /* \"#utility.yul\":194:195   */\n  dup1\n    /* \"#utility.yul\":187:199   */\n  revert\n    /* \"#utility.yul\":334:460   */\ntag_11:\n    /* \"#utility.yul\":371:378   */\n  0x00\n    /* \"#utility.yul\":411:453   */\n  0xffffffffffffffffffffffffffffffffffffffff\n    /* \"#utility.yul\":404:409   */\n  dup3\n    /* \"#utility.yul\":400:454   */\n  and\n    /* \"#utility.yul\":389:454   */\n  swap1\n  pop\n    /* \"#utility.yul\":334:460   */\n  swap2\n  swap1\n  pop\n  jump\t// out\n    /* \"#utility.yul\":466:562   */\ntag_12:\n    /* \"#utility.yul\":503:510   */\n  0x00\n    /* \"#utility.yul\":532:556   */\n  tag_21\n    /* \"#utility.yul\":550:555   */\n  dup3\n    /* \"#utility.yul\":532:556   */\n  tag_11\n  jump\t// in\ntag_21:\n    /* \"#utility.yul\":521:556   */\n  swap1\n  pop\n    /* \"#utility.yul\":466:562   */\n  swap2\n  swap1\n  pop\n  jump\t// out\n    /* \"#utility.yul\":568:690   */\ntag_13:\n    /* \"#utility.yul\":641:665   */\n  tag_23\n    /* \"#utility.yul\":659:664   */\n  dup2\n    /* \"#utility.yul\":641:665   */\n  tag_12\n  jump\t// in\ntag_23:\n    /* \"#utility.yul\":634:639   */\n  dup2\n    /* \"#utility.yul\":631:666   */\n  eq\n    /* \"#utility.yul\":621:684   */\n  tag_24\n  jumpi\n    /* \"#utility.yul\":680:681   */\n  0x00\n    /* \"#utility.yul\":677:678   */\n  dup1\n    /* \"#utility.yul\":670:682   */\n  revert\n    /* \"#utility.yul\":621:684   */\ntag_24:\n    /* \"#utility.yul\":568:690   */\n  pop\n  jump\t// out\n    /* \"#utility.yul\":696:839   */\ntag_14:\n    /* \"#utility.yul\":753:758   */\n  0x00\n    /* \"#utility.yul\":784:790   */\n  dup2\n    /* \"#utility.yul\":778:791   */\n  mload\n    /* \"#utility.yul\":769:791   */\n  swap1\n  pop\n    /* \"#utility.yul\":800:833   */\n  tag_26\n    /* \"#utility.yul\":827:832   */\n  dup2\n    /* \"#utility.yul\":800:833   */\n  tag_13\n  jump\t// in\ntag_26:\n    /* \"#utility.yul\":696:839   */\n  swap3\n  swap2\n  pop\n  pop\n  jump\t// out\n    /* \"#utility.yul\":845:1196   */\ntag_3:\n    /* \"#utility.yul\":915:921   */\n  0x00\n    /* \"#utility.yul\":964:966   */\n  0x20\n    /* \"#utility.yul\":952:961   */\n  dup3\n    /* \"#utility.yul\":943:950   */\n  dup5\n    /* \"#utility.yul\":939:962   */\n  sub\n    /* \"#utility.yul\":935:967   */\n  slt\n    /* \"#utility.yul\":932:1051   */\n  iszero\n  tag_28\n  jumpi\n    /* \"#utility.yul\":970:1049   */\n  tag_29\n  tag_9\n  jump\t// in\ntag_29:\n    /* \"#utility.yul\":932:1051   */\ntag_28:\n    /* \"#utility.yul\":1090:1091   */\n  0x00\n    /* \"#utility.yul\":1115:1179   */\n  tag_30\n    /* \"#utility.yul\":1171:1178   */\n  dup5\n    /* \"#utility.yul\":1162:1168   */\n  dup3\n    /* \"#utility.yul\":1151:1160   */\n  dup6\n    /* \"#utility.yul\":1147:1169   */\n  add\n    /* \"#utility.yul\":1115:1179   */\n  tag_14\n  jump\t// in\ntag_30:\n    /* \"#utility.yul\":1105:1179   */\n  swap2\n  pop\n    /* \"#utility.yul\":1061:1189   */\n  pop\n    /* \"#utility.yul\":845:1196   */\n  swap3\n  swap2\n  pop\n  pop\n  jump\t// out\n    /* \"Lottery.sol\":171:18459  contract Lottery {... */\ntag_7:\n  mload(0x80)\n  codecopy(0x00, dataOffset(sub_0), dataSize(sub_0))\n  0x00\n  assignImmutable(\"0x6fadbaf86d2aa9c9e34a85df385a2c9afa9509e09756634e72bbcf94a5ceb213\")\n  return(0x00, dataSize(sub_0))\nstop\n\nsub_0: assembly {\n        /* \"Lottery.sol\":171:18459  contract Lottery {... */\n      mstore(0x40, 0x80)\n      callvalue\n      dup1\n      iszero\n      tag_1\n      jumpi\n      0x00\n      dup1\n      revert\n    tag_1:\n      pop\n      jumpi(tag_2, lt(calldatasize, 0x04))\n      shr(0xe0, calldataload(0x00))\n      dup1\n      0x8da5cb5b\n      gt\n      tag_28\n      jumpi\n      dup1\n      0xcdadc666\n      gt\n      tag_29\n      jumpi\n      dup1\n      0xf2fde38b\n      gt\n      tag_30\n      jumpi\n      dup1\n      0xf2fde38b\n      eq\n      tag_24\n      jumpi\n      dup1\n      0xf3eec42f\n      eq\n      tag_25\n      jumpi\n      dup1\n      0xf4c2af93\n      eq\n      tag_26\n      jumpi\n      dup1\n      0xfe8ace85\n      eq\n      tag_27\n      jumpi\n      jump(tag_2)\n    tag_30:\n      dup1\n      0xcdadc666\n      eq\n      tag_21\n      jumpi\n      dup1\n      0xe54566f3\n      eq\n      tag_22\n      jumpi\n      dup1\n      0xeb2dbcf6\n      eq\n      tag_23\n      jumpi\n      jump(tag_2)\n    tag_29:\n      dup1\n      0x8da5cb5b\n      eq\n      tag_15\n      jumpi\n      dup1\n      0x8ef7fe56\n      eq\n      tag_16\n      jumpi\n      dup1\n      0x8f15024f\n      eq\n      tag_17\n      jumpi\n      dup1\n      0x990dc9db\n      eq\n      tag_18\n      jumpi\n      dup1\n      0xa3b5fcd8\n      eq\n      tag_19\n      jumpi\n      dup1\n      0xa4bfd0cc\n      eq\n      tag_20\n      jumpi\n      jump(tag_2)\n    tag_28:\n      dup1\n      0x59974e38\n      gt\n      tag_31\n      jumpi\n      dup1\n      0x59974e38\n      eq\n      tag_9\n      jumpi\n      dup1\n      0x616eb255\n      eq\n      tag_10\n      jumpi\n      dup1\n      0x63375e16\n      eq\n      tag_11\n      jumpi\n      dup1\n      0x75d2bf60\n      eq\n      tag_12\n      jumpi\n      dup1\n      0x8627df46\n      eq\n      tag_13\n      jumpi\n      dup1\n      0x8861d532\n      eq\n      tag_14\n      jumpi\n      jump(tag_2)\n    tag_31:\n      dup1\n      0x1209b1f6\n      eq\n      tag_3\n      jumpi\n      dup1\n      0x15981650\n      eq\n      tag_4\n      jumpi\n      dup1\n      0x15b5386e\n      eq\n      tag_5\n      jumpi\n      dup1\n      0x293be456\n      eq\n      tag_6\n      jumpi\n      dup1\n      0x2f48ab7d\n      eq\n      tag_7\n      jumpi\n      dup1\n      0x30b48213\n      eq\n      tag_8\n      jumpi\n    tag_2:\n      0x00\n      dup1\n      revert\n        /* \"Lottery.sol\":2569:2595  uint256 public ticketPrice */\n    tag_3:\n      tag_32\n      tag_33\n      jump\t// in\n    tag_32:\n      mload(0x40)\n      tag_34\n      swap2\n      swap1\n      tag_35\n      jump\t// in\n    tag_34:\n      mload(0x40)\n      dup1\n      swap2\n      sub\n      swap1\n      return\n        /* \"Lottery.sol\":3887:4048  function setTicketPrice(uint256 newTicketPrice) external onlyOwner {... */\n    tag_4:\n      tag_36\n      0x04\n      dup1\n      calldatasize\n      sub\n      dup2\n      add\n      swap1\n      tag_37\n      swap2\n      swap1\n      tag_38\n      jump\t// in\n    tag_37:\n      tag_39\n      jump\t// in\n    tag_36:\n      stop\n        /* \"Lottery.sol\":2633:2664  uint256 public totalSeriesCount */\n    tag_5:\n      tag_40\n      tag_41\n      jump\t// in\n    tag_40:\n      mload(0x40)\n      tag_42\n      swap2\n      swap1\n      tag_35\n      jump\t// in\n    tag_42:\n      mload(0x40)\n      dup1\n      swap2\n      sub\n      swap1\n      return\n        /* \"Lottery.sol\":4054:4190  function setReward(uint256 newReward) external onlyOwner {... */\n    tag_6:\n      tag_43\n      0x04\n      dup1\n      calldatasize\n      sub\n      dup2\n      add\n      swap1\n      tag_44\n      swap2\n      swap1\n      tag_38\n      jump\t// in\n    tag_44:\n      tag_45\n      jump\t// in\n    tag_43:\n      stop\n        /* \"Lottery.sol\":2535:2563  IERC20 public immutable usdt */\n    tag_7:\n      tag_46\n      tag_47\n      jump\t// in\n    tag_46:\n      mload(0x40)\n      tag_48\n      swap2\n      swap1\n      tag_49\n      jump\t// in\n    tag_48:\n      mload(0x40)\n      dup1\n      swap2\n      sub\n      swap1\n      return\n        /* \"Lottery.sol\":4653:4999  function generateSeries() external onlyOwner {... */\n    tag_8:\n      tag_50\n      tag_51\n      jump\t// in\n    tag_50:\n      stop\n        /* \"Lottery.sol\":6819:9673  function distributeRewards(uint256 seriesId) external onlyOwner {... */\n    tag_9:\n      tag_52\n      0x04\n      dup1\n      calldatasize\n      sub\n      dup2\n      add\n      swap1\n      tag_53\n      swap2\n      swap1\n      tag_38\n      jump\t// in\n    tag_53:\n      tag_54\n      jump\t// in\n    tag_52:\n      stop\n        /* \"Lottery.sol\":12196:12898  function getSeriesInfo(... */\n    tag_10:\n      tag_55\n      0x04\n      dup1\n      calldatasize\n      sub\n      dup2\n      add\n      swap1\n      tag_56\n      swap2\n      swap1\n      tag_38\n      jump\t// in\n    tag_56:\n      tag_57\n      jump\t// in\n    tag_55:\n      mload(0x40)\n      tag_58\n      swap6\n      swap5\n      swap4\n      swap3\n      swap2\n      swap1\n      tag_59\n      jump\t// in\n    tag_58:\n      mload(0x40)\n      dup1\n      swap2\n      sub\n      swap1\n      return\n        /* \"Lottery.sol\":2150:2193  uint256 public constant DRAW_THRESHOLD = 90 */\n    tag_11:\n      tag_60\n      tag_61\n      jump\t// in\n    tag_60:\n      mload(0x40)\n      tag_62\n      swap2\n      swap1\n      tag_35\n      jump\t// in\n    tag_62:\n      mload(0x40)\n      dup1\n      swap2\n      sub\n      swap1\n      return\n        /* \"Lottery.sol\":5191:6671  function executeDraw(uint256 seriesId) external onlyOwner {... */\n    tag_12:\n      tag_63\n      0x04\n      dup1\n      calldatasize\n      sub\n      dup2\n      add\n      swap1\n      tag_64\n      swap2\n      swap1\n      tag_38\n      jump\t// in\n    tag_64:\n      tag_65\n      jump\t// in\n    tag_63:\n      stop\n        /* \"Lottery.sol\":10046:10945  function buyTickets(uint256 seriesId, uint256 count) external {... */\n    tag_13:\n      tag_66\n      0x04\n      dup1\n      calldatasize\n      sub\n      dup2\n      add\n      swap1\n      tag_67\n      swap2\n      swap1\n      tag_68\n      jump\t// in\n    tag_67:\n      tag_69\n      jump\t// in\n    tag_66:\n      stop\n        /* \"Lottery.sol\":2670:2702  uint256 public rewardPerUser = 1 */\n    tag_14:\n      tag_70\n      tag_71\n      jump\t// in\n    tag_70:\n      mload(0x40)\n      tag_72\n      swap2\n      swap1\n      tag_35\n      jump\t// in\n    tag_72:\n      mload(0x40)\n      dup1\n      swap2\n      sub\n      swap1\n      return\n        /* \"Lottery.sol\":2509:2529  address public owner */\n    tag_15:\n      tag_73\n      tag_74\n      jump\t// in\n    tag_73:\n      mload(0x40)\n      tag_75\n      swap2\n      swap1\n      tag_76\n      jump\t// in\n    tag_75:\n      mload(0x40)\n      dup1\n      swap2\n      sub\n      swap1\n      return\n        /* \"Lottery.sol\":2221:2271  uint256 public constant WINNING_TICKETS_COUNT = 10 */\n    tag_16:\n      tag_77\n      tag_78\n      jump\t// in\n    tag_77:\n      mload(0x40)\n      tag_79\n      swap2\n      swap1\n      tag_35\n      jump\t// in\n    tag_79:\n      mload(0x40)\n      dup1\n      swap2\n      sub\n      swap1\n      return\n        /* \"Lottery.sol\":2601:2627  uint256 public ticketsSold */\n    tag_17:\n      tag_80\n      tag_81\n      jump\t// in\n    tag_80:\n      mload(0x40)\n      tag_82\n      swap2\n      swap1\n      tag_35\n      jump\t// in\n    tag_82:\n      mload(0x40)\n      dup1\n      swap2\n      sub\n      swap1\n      return\n        /* \"Lottery.sol\":4360:4592  function transferFunds(address to, uint256 amount) external onlyOwner {... */\n    tag_18:\n      tag_83\n      0x04\n      dup1\n      calldatasize\n      sub\n      dup2\n      add\n      swap1\n      tag_84\n      swap2\n      swap1\n      tag_85\n      jump\t// in\n    tag_84:\n      tag_86\n      jump\t// in\n    tag_83:\n      stop\n        /* \"Lottery.sol\":2977:3027  mapping(uint256 => bool) public rewardsDistributed */\n    tag_19:\n      tag_87\n      0x04\n      dup1\n      calldatasize\n      sub\n      dup2\n      add\n      swap1\n      tag_88\n      swap2\n      swap1\n      tag_38\n      jump\t// in\n    tag_88:\n      tag_89\n      jump\t// in\n    tag_87:\n      mload(0x40)\n      tag_90\n      swap2\n      swap1\n      tag_91\n      jump\t// in\n    tag_90:\n      mload(0x40)\n      dup1\n      swap2\n      sub\n      swap1\n      return\n        /* \"Lottery.sol\":12044:12190  function getOwnedTicketIds(... */\n    tag_20:\n      tag_92\n      0x04\n      dup1\n      calldatasize\n      sub\n      dup2\n      add\n      swap1\n      tag_93\n      swap2\n      swap1\n      tag_94\n      jump\t// in\n    tag_93:\n      tag_95\n      jump\t// in\n    tag_92:\n      mload(0x40)\n      tag_96\n      swap2\n      swap1\n      tag_97\n      jump\t// in\n    tag_96:\n      mload(0x40)\n      dup1\n      swap2\n      sub\n      swap1\n      return\n        /* \"Lottery.sol\":11144:12038  function buyTicketsAt(... */\n    tag_21:\n      tag_98\n      0x04\n      dup1\n      calldatasize\n      sub\n      dup2\n      add\n      swap1\n      tag_99\n      swap2\n      swap1\n      tag_100\n      jump\t// in\n    tag_99:\n      tag_101\n      jump\t// in\n    tag_98:\n      stop\n        /* \"Lottery.sol\":2758:2807  mapping(address => uint256) public ticketBalances */\n    tag_22:\n      tag_102\n      0x04\n      dup1\n      calldatasize\n      sub\n      dup2\n      add\n      swap1\n      tag_103\n      swap2\n      swap1\n      tag_94\n      jump\t// in\n    tag_103:\n      tag_104\n      jump\t// in\n    tag_102:\n      mload(0x40)\n      tag_105\n      swap2\n      swap1\n      tag_35\n      jump\t// in\n    tag_105:\n      mload(0x40)\n      dup1\n      swap2\n      sub\n      swap1\n      return\n        /* \"Lottery.sol\":2813:2860  mapping(uint256 => address) public ticketOwners */\n    tag_23:\n      tag_106\n      0x04\n      dup1\n      calldatasize\n      sub\n      dup2\n      add\n      swap1\n      tag_107\n      swap2\n      swap1\n      tag_38\n      jump\t// in\n    tag_107:\n      tag_108\n      jump\t// in\n    tag_106:\n      mload(0x40)\n      tag_109\n      swap2\n      swap1\n      tag_76\n      jump\t// in\n    tag_109:\n      mload(0x40)\n      dup1\n      swap2\n      sub\n      swap1\n      return\n        /* \"Lottery.sol\":4196:4354  function transferOwnership(address newOwner) external onlyOwner {... */\n    tag_24:\n      tag_110\n      0x04\n      dup1\n      calldatasize\n      sub\n      dup2\n      add\n      swap1\n      tag_111\n      swap2\n      swap1\n      tag_94\n      jump\t// in\n    tag_111:\n      tag_112\n      jump\t// in\n    tag_110:\n      stop\n        /* \"Lottery.sol\":2866:2913  mapping(uint256 => uint256) public ticketSeries */\n    tag_25:\n      tag_113\n      0x04\n      dup1\n      calldatasize\n      sub\n      dup2\n      add\n      swap1\n      tag_114\n      swap2\n      swap1\n      tag_38\n      jump\t// in\n    tag_114:\n      tag_115\n      jump\t// in\n    tag_113:\n      mload(0x40)\n      tag_116\n      swap2\n      swap1\n      tag_35\n      jump\t// in\n    tag_116:\n      mload(0x40)\n      dup1\n      swap2\n      sub\n      swap1\n      return\n        /* \"Lottery.sol\":2096:2144  uint256 public constant TICKETS_PER_SERIES = 100 */\n    tag_26:\n      tag_117\n      tag_118\n      jump\t// in\n    tag_117:\n      mload(0x40)\n      tag_119\n      swap2\n      swap1\n      tag_35\n      jump\t// in\n    tag_119:\n      mload(0x40)\n      dup1\n      swap2\n      sub\n      swap1\n      return\n        /* \"Lottery.sol\":2708:2752  mapping(uint256 => Series) public seriesInfo */\n    tag_27:\n      tag_120\n      0x04\n      dup1\n      calldatasize\n      sub\n      dup2\n      add\n      swap1\n      tag_121\n      swap2\n      swap1\n      tag_38\n      jump\t// in\n    tag_121:\n      tag_122\n      jump\t// in\n    tag_120:\n      mload(0x40)\n      tag_123\n      swap5\n      swap4\n      swap3\n      swap2\n      swap1\n      tag_124\n      jump\t// in\n    tag_123:\n      mload(0x40)\n      dup1\n      swap2\n      sub\n      swap1\n      return\n        /* \"Lottery.sol\":2569:2595  uint256 public ticketPrice */\n    tag_33:\n      sload(0x01)\n      dup2\n      jump\t// out\n        /* \"Lottery.sol\":3887:4048  function setTicketPrice(uint256 newTicketPrice) external onlyOwner {... */\n    tag_39:\n        /* \"Lottery.sol\":3262:3267  owner */\n      0x00\n      dup1\n      sload\n      swap1\n      0x0100\n      exp\n      swap1\n      div\n      0xffffffffffffffffffffffffffffffffffffffff\n      and\n        /* \"Lottery.sol\":3248:3267  msg.sender != owner */\n      0xffffffffffffffffffffffffffffffffffffffff\n      and\n        /* \"Lottery.sol\":3248:3258  msg.sender */\n      caller\n        /* \"Lottery.sol\":3248:3267  msg.sender != owner */\n      0xffffffffffffffffffffffffffffffffffffffff\n      and\n      eq\n        /* \"Lottery.sol\":3244:3286  if (msg.sender != owner) revert NotOwner() */\n      tag_126\n      jumpi\n        /* \"Lottery.sol\":3276:3286  NotOwner() */\n      mload(0x40)\n      0x30cd747100000000000000000000000000000000000000000000000000000000\n      dup2\n      mstore\n      0x04\n      add\n      mload(0x40)\n      dup1\n      swap2\n      sub\n      swap1\n      revert\n        /* \"Lottery.sol\":3244:3286  if (msg.sender != owner) revert NotOwner() */\n    tag_126:\n        /* \"Lottery.sol\":3978:3992  newTicketPrice */\n      dup1\n        /* \"Lottery.sol\":3964:3975  ticketPrice */\n      0x01\n        /* \"Lottery.sol\":3964:3992  ticketPrice = newTicketPrice */\n      dup2\n      swap1\n      sstore\n      pop\n        /* \"Lottery.sol\":4007:4041  TicketPriceUpdated(newTicketPrice) */\n      0x7429795511c1ec5ebcc0e6839095ec18f13fce25cdc7c90da9d8a016584a1dbe\n        /* \"Lottery.sol\":4026:4040  newTicketPrice */\n      dup2\n        /* \"Lottery.sol\":4007:4041  TicketPriceUpdated(newTicketPrice) */\n      mload(0x40)\n      tag_128\n      swap2\n      swap1\n      tag_35\n      jump\t// in\n    tag_128:\n      mload(0x40)\n      dup1\n      swap2\n      sub\n      swap1\n      log1\n        /* \"Lottery.sol\":3887:4048  function setTicketPrice(uint256 newTicketPrice) external onlyOwner {... */\n      pop\n      jump\t// out\n        /* \"Lottery.sol\":2633:2664  uint256 public totalSeriesCount */\n    tag_41:\n      sload(0x03)\n      dup2\n      jump\t// out\n        /* \"Lottery.sol\":4054:4190  function setReward(uint256 newReward) external onlyOwner {... */\n    tag_45:\n        /* \"Lottery.sol\":3262:3267  owner */\n      0x00\n      dup1\n      sload\n      swap1\n      0x0100\n      exp\n      swap1\n      div\n      0xffffffffffffffffffffffffffffffffffffffff\n      and\n        /* \"Lottery.sol\":3248:3267  msg.sender != owner */\n      0xffffffffffffffffffffffffffffffffffffffff\n      and\n        /* \"Lottery.sol\":3248:3258  msg.sender */\n      caller\n        /* \"Lottery.sol\":3248:3267  msg.sender != owner */\n      0xffffffffffffffffffffffffffffffffffffffff\n      and\n      eq\n        /* \"Lottery.sol\":3244:3286  if (msg.sender != owner) revert NotOwner() */\n      tag_130\n      jumpi\n        /* \"Lottery.sol\":3276:3286  NotOwner() */\n      mload(0x40)\n      0x30cd747100000000000000000000000000000000000000000000000000000000\n      dup2\n      mstore\n      0x04\n      add\n      mload(0x40)\n      dup1\n      swap2\n      sub\n      swap1\n      revert\n        /* \"Lottery.sol\":3244:3286  if (msg.sender != owner) revert NotOwner() */\n    tag_130:\n        /* \"Lottery.sol\":4135:4144  newReward */\n      dup1\n        /* \"Lottery.sol\":4121:4132  ticketPrice */\n      0x01\n        /* \"Lottery.sol\":4121:4144  ticketPrice = newReward */\n      dup2\n      swap1\n      sstore\n      pop\n        /* \"Lottery.sol\":4159:4183  RewardUpdated(newReward) */\n      0xcb94909754d27c309adf4167150f1f7aa04de40b6a0e6bb98b2ae80a2bf438f6\n        /* \"Lottery.sol\":4173:4182  newReward */\n      dup2\n        /* \"Lottery.sol\":4159:4183  RewardUpdated(newReward) */\n      mload(0x40)\n      tag_132\n      swap2\n      swap1\n      tag_35\n      jump\t// in\n    tag_132:\n      mload(0x40)\n      dup1\n      swap2\n      sub\n      swap1\n      log1\n        /* \"Lottery.sol\":4054:4190  function setReward(uint256 newReward) external onlyOwner {... */\n      pop\n      jump\t// out\n        /* \"Lottery.sol\":2535:2563  IERC20 public immutable usdt */\n    tag_47:\n      immutable(\"0x6fadbaf86d2aa9c9e34a85df385a2c9afa9509e09756634e72bbcf94a5ceb213\")\n      dup2\n      jump\t// out\n        /* \"Lottery.sol\":4653:4999  function generateSeries() external onlyOwner {... */\n    tag_51:\n        /* \"Lottery.sol\":3262:3267  owner */\n      0x00\n      dup1\n      sload\n      swap1\n      0x0100\n      exp\n      swap1\n      div\n      0xffffffffffffffffffffffffffffffffffffffff\n      and\n        /* \"Lottery.sol\":3248:3267  msg.sender != owner */\n      0xffffffffffffffffffffffffffffffffffffffff\n      and\n        /* \"Lottery.sol\":3248:3258  msg.sender */\n      caller\n        /* \"Lottery.sol\":3248:3267  msg.sender != owner */\n      0xffffffffffffffffffffffffffffffffffffffff\n      and\n      eq\n        /* \"Lottery.sol\":3244:3286  if (msg.sender != owner) revert NotOwner() */\n      tag_134\n      jumpi\n        /* \"Lottery.sol\":3276:3286  NotOwner() */\n      mload(0x40)\n      0x30cd747100000000000000000000000000000000000000000000000000000000\n      dup2\n      mstore\n      0x04\n      add\n      mload(0x40)\n      dup1\n      swap2\n      sub\n      swap1\n      revert\n        /* \"Lottery.sol\":3244:3286  if (msg.sender != owner) revert NotOwner() */\n    tag_134:\n        /* \"Lottery.sol\":4728:4729  1 */\n      0x01\n        /* \"Lottery.sol\":4708:4724  totalSeriesCount */\n      0x03\n      0x00\n        /* \"Lottery.sol\":4708:4729  totalSeriesCount += 1 */\n      dup3\n      dup3\n      sload\n      tag_136\n      swap2\n      swap1\n      tag_137\n      jump\t// in\n    tag_136:\n      swap3\n      pop\n      pop\n      dup2\n      swap1\n      sstore\n      pop\n        /* \"Lottery.sol\":4739:4763  Series storage newSeries */\n      0x00\n        /* \"Lottery.sol\":4766:4776  seriesInfo */\n      0x05\n        /* \"Lottery.sol\":4766:4794  seriesInfo[totalSeriesCount] */\n      0x00\n        /* \"Lottery.sol\":4777:4793  totalSeriesCount */\n      sload(0x03)\n        /* \"Lottery.sol\":4766:4794  seriesInfo[totalSeriesCount] */\n      dup2\n      mstore\n      0x20\n      add\n      swap1\n      dup2\n      mstore\n      0x20\n      add\n      0x00\n      keccak256\n        /* \"Lottery.sol\":4739:4794  Series storage newSeries = seriesInfo[totalSeriesCount] */\n      swap1\n      pop\n        /* \"Lottery.sol\":2141:2144  100 */\n      0x64\n        /* \"Lottery.sol\":4804:4813  newSeries */\n      dup2\n        /* \"Lottery.sol\":4804:4826  newSeries.totalTickets */\n      0x00\n      add\n        /* \"Lottery.sol\":4804:4847  newSeries.totalTickets = TICKETS_PER_SERIES */\n      dup2\n      swap1\n      sstore\n      pop\n        /* \"Lottery.sol\":4881:4882  0 */\n      0x00\n        /* \"Lottery.sol\":4857:4866  newSeries */\n      dup2\n        /* \"Lottery.sol\":4857:4878  newSeries.ticketsSold */\n      0x01\n      add\n        /* \"Lottery.sol\":4857:4882  newSeries.ticketsSold = 0 */\n      dup2\n      swap1\n      sstore\n      pop\n        /* \"Lottery.sol\":4917:4922  false */\n      0x00\n        /* \"Lottery.sol\":4892:4901  newSeries */\n      dup2\n        /* \"Lottery.sol\":4892:4914  newSeries.drawExecuted */\n      0x03\n      add\n      0x00\n        /* \"Lottery.sol\":4892:4922  newSeries.drawExecuted = false */\n      0x0100\n      exp\n      dup2\n      sload\n      dup2\n      0xff\n      mul\n      not\n      and\n      swap1\n      dup4\n      iszero\n      iszero\n      mul\n      or\n      swap1\n      sstore\n      pop\n        /* \"Lottery.sol\":4955:4971  totalSeriesCount */\n      sload(0x03)\n        /* \"Lottery.sol\":4938:4992  SeriesConfigured(totalSeriesCount, TICKETS_PER_SERIES) */\n      0xa9bb9f177c59b93f2b7abb2dfb6ffc1518c0d3a40145c47a372f46e70d011d15\n        /* \"Lottery.sol\":2141:2144  100 */\n      0x64\n        /* \"Lottery.sol\":4938:4992  SeriesConfigured(totalSeriesCount, TICKETS_PER_SERIES) */\n      mload(0x40)\n      tag_138\n      swap2\n      swap1\n      tag_35\n      jump\t// in\n    tag_138:\n      mload(0x40)\n      dup1\n      swap2\n      sub\n      swap1\n      log2\n        /* \"Lottery.sol\":4698:4999  {... */\n      pop\n        /* \"Lottery.sol\":4653:4999  function generateSeries() external onlyOwner {... */\n      jump\t// out\n        /* \"Lottery.sol\":6819:9673  function distributeRewards(uint256 seriesId) external onlyOwner {... */\n    tag_54:\n        /* \"Lottery.sol\":3262:3267  owner */\n      0x00\n      dup1\n      sload\n      swap1\n      0x0100\n      exp\n      swap1\n      div\n      0xffffffffffffffffffffffffffffffffffffffff\n      and\n        /* \"Lottery.sol\":3248:3267  msg.sender != owner */\n      0xffffffffffffffffffffffffffffffffffffffff\n      and\n        /* \"Lottery.sol\":3248:3258  msg.sender */\n      caller\n        /* \"Lottery.sol\":3248:3267  msg.sender != owner */\n      0xffffffffffffffffffffffffffffffffffffffff\n      and\n      eq\n        /* \"Lottery.sol\":3244:3286  if (msg.sender != owner) revert NotOwner() */\n      tag_140\n      jumpi\n        /* \"Lottery.sol\":3276:3286  NotOwner() */\n      mload(0x40)\n      0x30cd747100000000000000000000000000000000000000000000000000000000\n      dup2\n      mstore\n      0x04\n      add\n      mload(0x40)\n      dup1\n      swap2\n      sub\n      swap1\n      revert\n        /* \"Lottery.sol\":3244:3286  if (msg.sender != owner) revert NotOwner() */\n    tag_140:\n        /* \"Lottery.sol\":6943:6944  0 */\n      0x00\n        /* \"Lottery.sol\":6931:6939  seriesId */\n      dup2\n        /* \"Lottery.sol\":6931:6944  seriesId == 0 */\n      eq\n        /* \"Lottery.sol\":6931:6975  seriesId == 0 || seriesId > totalSeriesCount */\n      dup1\n      tag_142\n      jumpi\n      pop\n        /* \"Lottery.sol\":6959:6975  totalSeriesCount */\n      sload(0x03)\n        /* \"Lottery.sol\":6948:6956  seriesId */\n      dup2\n        /* \"Lottery.sol\":6948:6975  seriesId > totalSeriesCount */\n      gt\n        /* \"Lottery.sol\":6931:6975  seriesId == 0 || seriesId > totalSeriesCount */\n    tag_142:\n        /* \"Lottery.sol\":6927:7021  if (seriesId == 0 || seriesId > totalSeriesCount)... */\n      iszero\n      tag_143\n      jumpi\n        /* \"Lottery.sol\":7012:7020  seriesId */\n      dup1\n        /* \"Lottery.sol\":6996:7021  InvalidSeriesId(seriesId) */\n      mload(0x40)\n      0xc68e534300000000000000000000000000000000000000000000000000000000\n      dup2\n      mstore\n      0x04\n      add\n      tag_144\n      swap2\n      swap1\n      tag_35\n      jump\t// in\n    tag_144:\n      mload(0x40)\n      dup1\n      swap2\n      sub\n      swap1\n      revert\n        /* \"Lottery.sol\":6927:7021  if (seriesId == 0 || seriesId > totalSeriesCount)... */\n    tag_143:\n        /* \"Lottery.sol\":7032:7060  Series storage currentSeries */\n      0x00\n        /* \"Lottery.sol\":7063:7073  seriesInfo */\n      0x05\n        /* \"Lottery.sol\":7063:7083  seriesInfo[seriesId] */\n      0x00\n        /* \"Lottery.sol\":7074:7082  seriesId */\n      dup4\n        /* \"Lottery.sol\":7063:7083  seriesInfo[seriesId] */\n      dup2\n      mstore\n      0x20\n      add\n      swap1\n      dup2\n      mstore\n      0x20\n      add\n      0x00\n      keccak256\n        /* \"Lottery.sol\":7032:7083  Series storage currentSeries = seriesInfo[seriesId] */\n      swap1\n      pop\n        /* \"Lottery.sol\":7142:7155  currentSeries */\n      dup1\n        /* \"Lottery.sol\":7142:7168  currentSeries.drawExecuted */\n      0x03\n      add\n      0x00\n      swap1\n      sload\n      swap1\n      0x0100\n      exp\n      swap1\n      div\n      0xff\n      and\n        /* \"Lottery.sol\":7137:7202  if (!currentSeries.drawExecuted) revert DrawNotExecuted(seriesId) */\n      tag_145\n      jumpi\n        /* \"Lottery.sol\":7193:7201  seriesId */\n      dup2\n        /* \"Lottery.sol\":7177:7202  DrawNotExecuted(seriesId) */\n      mload(0x40)\n      0x5277eacd00000000000000000000000000000000000000000000000000000000\n      dup2\n      mstore\n      0x04\n      add\n      tag_146\n      swap2\n      swap1\n      tag_35\n      jump\t// in\n    tag_146:\n      mload(0x40)\n      dup1\n      swap2\n      sub\n      swap1\n      revert\n        /* \"Lottery.sol\":7137:7202  if (!currentSeries.drawExecuted) revert DrawNotExecuted(seriesId) */\n    tag_145:\n        /* \"Lottery.sol\":7274:7292  rewardsDistributed */\n      0x0a\n        /* \"Lottery.sol\":7274:7302  rewardsDistributed[seriesId] */\n      0x00\n        /* \"Lottery.sol\":7293:7301  seriesId */\n      dup4\n        /* \"Lottery.sol\":7274:7302  rewardsDistributed[seriesId] */\n      dup2\n      mstore\n      0x20\n      add\n      swap1\n      dup2\n      mstore\n      0x20\n      add\n      0x00\n      keccak256\n      0x00\n      swap1\n      sload\n      swap1\n      0x0100\n      exp\n      swap1\n      div\n      0xff\n      and\n        /* \"Lottery.sol\":7270:7358  if (rewardsDistributed[seriesId])... */\n      iszero\n      tag_147\n      jumpi\n        /* \"Lottery.sol\":7349:7357  seriesId */\n      dup2\n        /* \"Lottery.sol\":7323:7358  RewardsAlreadyDistributed(seriesId) */\n      mload(0x40)\n      0x6fabcdec00000000000000000000000000000000000000000000000000000000\n      dup2\n      mstore\n      0x04\n      add\n      tag_148\n      swap2\n      swap1\n      tag_35\n      jump\t// in\n    tag_148:\n      mload(0x40)\n      dup1\n      swap2\n      sub\n      swap1\n      revert\n        /* \"Lottery.sol\":7270:7358  if (rewardsDistributed[seriesId])... */\n    tag_147:\n        /* \"Lottery.sol\":7424:7448  address[] memory winners */\n      0x00\n        /* \"Lottery.sol\":2269:2271  10 */\n      0x0a\n        /* \"Lottery.sol\":7451:7487  new address[](WINNING_TICKETS_COUNT) */\n      0xffffffffffffffff\n      dup2\n      gt\n      iszero\n      tag_149\n      jumpi\n      tag_150\n      tag_151\n      jump\t// in\n    tag_150:\n    tag_149:\n      mload(0x40)\n      swap1\n      dup1\n      dup3\n      mstore\n      dup1\n      0x20\n      mul\n      0x20\n      add\n      dup3\n      add\n      0x40\n      mstore\n      dup1\n      iszero\n      tag_152\n      jumpi\n      dup2\n      0x20\n      add\n      0x20\n      dup3\n      mul\n      dup1\n      calldatasize\n      dup4\n      calldatacopy\n      dup1\n      dup3\n      add\n      swap2\n      pop\n      pop\n      swap1\n      pop\n    tag_152:\n      pop\n        /* \"Lottery.sol\":7424:7487  address[] memory winners = new address[](WINNING_TICKETS_COUNT) */\n      swap1\n      pop\n        /* \"Lottery.sol\":7497:7517  uint256 winnersCount */\n      0x00\n        /* \"Lottery.sol\":7592:7601  uint256 i */\n      dup1\n        /* \"Lottery.sol\":7574:8059  for (... */\n    tag_153:\n        /* \"Lottery.sol\":7623:7636  currentSeries */\n      dup4\n        /* \"Lottery.sol\":7623:7657  currentSeries.winningTicketNumbers */\n      0x02\n      add\n        /* \"Lottery.sol\":7623:7664  currentSeries.winningTicketNumbers.length */\n      dup1\n      sload\n      swap1\n      pop\n        /* \"Lottery.sol\":7619:7620  i */\n      dup2\n        /* \"Lottery.sol\":7619:7664  i < currentSeries.winningTicketNumbers.length */\n      lt\n        /* \"Lottery.sol\":7574:8059  for (... */\n      iszero\n      tag_154\n      jumpi\n        /* \"Lottery.sol\":7706:7733  uint256 winningTicketNumber */\n      0x00\n        /* \"Lottery.sol\":7736:7749  currentSeries */\n      dup5\n        /* \"Lottery.sol\":7736:7770  currentSeries.winningTicketNumbers */\n      0x02\n      add\n        /* \"Lottery.sol\":7771:7772  i */\n      dup3\n        /* \"Lottery.sol\":7736:7773  currentSeries.winningTicketNumbers[i] */\n      dup2\n      sload\n      dup2\n      lt\n      tag_156\n      jumpi\n      tag_157\n      tag_158\n      jump\t// in\n    tag_157:\n    tag_156:\n      swap1\n      0x00\n      mstore\n      keccak256(0x00, 0x20)\n      add\n      sload\n        /* \"Lottery.sol\":7706:7773  uint256 winningTicketNumber = currentSeries.winningTicketNumbers[i] */\n      swap1\n      pop\n        /* \"Lottery.sol\":7787:7803  uint256 ticketId */\n      0x00\n        /* \"Lottery.sol\":7826:7845  winningTicketNumber */\n      dup2\n        /* \"Lottery.sol\":7819:7822  128 */\n      0x80\n        /* \"Lottery.sol\":7807:7815  seriesId */\n      dup9\n        /* \"Lottery.sol\":7807:7822  seriesId << 128 */\n      swap1\n      shl\n        /* \"Lottery.sol\":7806:7845  (seriesId << 128) | winningTicketNumber */\n      or\n        /* \"Lottery.sol\":7787:7845  uint256 ticketId = (seriesId << 128) | winningTicketNumber */\n      swap1\n      pop\n        /* \"Lottery.sol\":7859:7878  address ticketOwner */\n      0x00\n        /* \"Lottery.sol\":7881:7893  ticketOwners */\n      0x07\n        /* \"Lottery.sol\":7881:7903  ticketOwners[ticketId] */\n      0x00\n        /* \"Lottery.sol\":7894:7902  ticketId */\n      dup4\n        /* \"Lottery.sol\":7881:7903  ticketOwners[ticketId] */\n      dup2\n      mstore\n      0x20\n      add\n      swap1\n      dup2\n      mstore\n      0x20\n      add\n      0x00\n      keccak256\n      0x00\n      swap1\n      sload\n      swap1\n      0x0100\n      exp\n      swap1\n      div\n      0xffffffffffffffffffffffffffffffffffffffff\n      and\n        /* \"Lottery.sol\":7859:7903  address ticketOwner = ticketOwners[ticketId] */\n      swap1\n      pop\n        /* \"Lottery.sol\":7945:7946  0 */\n      0x00\n        /* \"Lottery.sol\":7922:7947  ticketOwner != address(0) */\n      0xffffffffffffffffffffffffffffffffffffffff\n      and\n        /* \"Lottery.sol\":7922:7933  ticketOwner */\n      dup2\n        /* \"Lottery.sol\":7922:7947  ticketOwner != address(0) */\n      0xffffffffffffffffffffffffffffffffffffffff\n      and\n      eq\n        /* \"Lottery.sol\":7918:8049  if (ticketOwner != address(0)) {... */\n      tag_160\n      jumpi\n        /* \"Lottery.sol\":7991:8002  ticketOwner */\n      dup1\n        /* \"Lottery.sol\":7967:7974  winners */\n      dup7\n        /* \"Lottery.sol\":7975:7987  winnersCount */\n      dup7\n        /* \"Lottery.sol\":7967:7988  winners[winnersCount] */\n      dup2\n      mload\n      dup2\n      lt\n      tag_161\n      jumpi\n      tag_162\n      tag_158\n      jump\t// in\n    tag_162:\n    tag_161:\n      0x20\n      mul\n      0x20\n      add\n      add\n        /* \"Lottery.sol\":7967:8002  winners[winnersCount] = ticketOwner */\n      swap1\n      0xffffffffffffffffffffffffffffffffffffffff\n      and\n      swap1\n      dup2\n      0xffffffffffffffffffffffffffffffffffffffff\n      and\n      dup2\n      mstore\n      pop\n      pop\n        /* \"Lottery.sol\":8020:8034  winnersCount++ */\n      dup5\n      dup1\n      tag_163\n      swap1\n      tag_164\n      jump\t// in\n    tag_163:\n      swap6\n      pop\n      pop\n        /* \"Lottery.sol\":7918:8049  if (ticketOwner != address(0)) {... */\n    tag_160:\n        /* \"Lottery.sol\":7692:8059  {... */\n      pop\n      pop\n      pop\n        /* \"Lottery.sol\":7678:7681  i++ */\n      dup1\n      dup1\n      0x01\n      add\n      swap2\n      pop\n      pop\n        /* \"Lottery.sol\":7574:8059  for (... */\n      jump(tag_153)\n    tag_154:\n      pop\n        /* \"Lottery.sol\":8089:8090  0 */\n      0x00\n        /* \"Lottery.sol\":8073:8085  winnersCount */\n      dup2\n        /* \"Lottery.sol\":8073:8090  winnersCount == 0 */\n      sub\n        /* \"Lottery.sol\":8069:8128  if (winnersCount == 0) revert InsufficientWinners(seriesId) */\n      tag_165\n      jumpi\n        /* \"Lottery.sol\":8119:8127  seriesId */\n      dup4\n        /* \"Lottery.sol\":8099:8128  InsufficientWinners(seriesId) */\n      mload(0x40)\n      0xf0fc51cc00000000000000000000000000000000000000000000000000000000\n      dup2\n      mstore\n      0x04\n      add\n      tag_166\n      swap2\n      swap1\n      tag_35\n      jump\t// in\n    tag_166:\n      mload(0x40)\n      dup1\n      swap2\n      sub\n      swap1\n      revert\n        /* \"Lottery.sol\":8069:8128  if (winnersCount == 0) revert InsufficientWinners(seriesId) */\n    tag_165:\n        /* \"Lottery.sol\":8218:8241  uint256 totalRewardPool */\n      0x00\n        /* \"Lottery.sol\":8272:8283  ticketPrice */\n      sload(0x01)\n        /* \"Lottery.sol\":8244:8257  currentSeries */\n      dup5\n        /* \"Lottery.sol\":8244:8269  currentSeries.ticketsSold */\n      0x01\n      add\n      sload\n        /* \"Lottery.sol\":8244:8283  currentSeries.ticketsSold * ticketPrice */\n      tag_167\n      swap2\n      swap1\n      tag_168\n      jump\t// in\n    tag_167:\n        /* \"Lottery.sol\":8218:8283  uint256 totalRewardPool = currentSeries.ticketsSold * ticketPrice */\n      swap1\n      pop\n        /* \"Lottery.sol\":8386:8409  uint256 rewardPerWinner */\n      0x00\n        /* \"Lottery.sol\":8428:8436  10 ** 18 */\n      0x0de0b6b3a7640000\n        /* \"Lottery.sol\":8412:8425  rewardPerUser */\n      sload(0x04)\n        /* \"Lottery.sol\":8412:8436  rewardPerUser * 10 ** 18 */\n      tag_169\n      swap2\n      swap1\n      tag_168\n      jump\t// in\n    tag_169:\n        /* \"Lottery.sol\":8386:8436  uint256 rewardPerWinner = rewardPerUser * 10 ** 18 */\n      swap1\n      pop\n        /* \"Lottery.sol\":8520:8543  uint256 contractBalance */\n      0x00\n        /* \"Lottery.sol\":8546:8550  usdt */\n      immutable(\"0x6fadbaf86d2aa9c9e34a85df385a2c9afa9509e09756634e72bbcf94a5ceb213\")\n        /* \"Lottery.sol\":8546:8560  usdt.balanceOf */\n      0xffffffffffffffffffffffffffffffffffffffff\n      and\n      0x70a08231\n        /* \"Lottery.sol\":8569:8573  this */\n      address\n        /* \"Lottery.sol\":8546:8575  usdt.balanceOf(address(this)) */\n      mload(0x40)\n      dup3\n      0xffffffff\n      and\n      0xe0\n      shl\n      dup2\n      mstore\n      0x04\n      add\n      tag_170\n      swap2\n      swap1\n      tag_76\n      jump\t// in\n    tag_170:\n      0x20\n      mload(0x40)\n      dup1\n      dup4\n      sub\n      dup2\n      dup7\n      gas\n      staticcall\n      iszero\n      dup1\n      iszero\n      tag_172\n      jumpi\n      returndatasize\n      0x00\n      dup1\n      returndatacopy\n      revert(0x00, returndatasize)\n    tag_172:\n      pop\n      pop\n      pop\n      pop\n      mload(0x40)\n      returndatasize\n      not(0x1f)\n      0x1f\n      dup3\n      add\n      and\n      dup3\n      add\n      dup1\n      0x40\n      mstore\n      pop\n      dup2\n      add\n      swap1\n      tag_173\n      swap2\n      swap1\n      tag_174\n      jump\t// in\n    tag_173:\n        /* \"Lottery.sol\":8520:8575  uint256 contractBalance = usdt.balanceOf(address(this)) */\n      swap1\n      pop\n        /* \"Lottery.sol\":8607:8622  totalRewardPool */\n      dup3\n        /* \"Lottery.sol\":8589:8604  contractBalance */\n      dup2\n        /* \"Lottery.sol\":8589:8622  contractBalance < totalRewardPool */\n      lt\n        /* \"Lottery.sol\":8585:8813  if (contractBalance < totalRewardPool) {... */\n      iszero\n      tag_175\n      jumpi\n        /* \"Lottery.sol\":8716:8731  contractBalance */\n      dup1\n        /* \"Lottery.sol\":8698:8731  totalRewardPool = contractBalance */\n      swap3\n      pop\n        /* \"Lottery.sol\":2269:2271  10 */\n      0x0a\n        /* \"Lottery.sol\":8763:8778  totalRewardPool */\n      dup4\n        /* \"Lottery.sol\":8763:8802  totalRewardPool / WINNING_TICKETS_COUNT */\n      tag_176\n      swap2\n      swap1\n      tag_177\n      jump\t// in\n    tag_176:\n        /* \"Lottery.sol\":8745:8802  rewardPerWinner = totalRewardPool / WINNING_TICKETS_COUNT */\n      swap2\n      pop\n        /* \"Lottery.sol\":8585:8813  if (contractBalance < totalRewardPool) {... */\n    tag_175:\n        /* \"Lottery.sol\":8936:8945  uint256 i */\n      0x00\n        /* \"Lottery.sol\":8931:9196  for (uint256 i = 0; i < winnersCount; i++) {... */\n    tag_178:\n        /* \"Lottery.sol\":8955:8967  winnersCount */\n      dup5\n        /* \"Lottery.sol\":8951:8952  i */\n      dup2\n        /* \"Lottery.sol\":8951:8967  i < winnersCount */\n      lt\n        /* \"Lottery.sol\":8931:9196  for (uint256 i = 0; i < winnersCount; i++) {... */\n      iszero\n      tag_179\n      jumpi\n        /* \"Lottery.sol\":9014:9015  0 */\n      0x00\n        /* \"Lottery.sol\":8992:9016  winners[i] != address(0) */\n      0xffffffffffffffffffffffffffffffffffffffff\n      and\n        /* \"Lottery.sol\":8992:8999  winners */\n      dup7\n        /* \"Lottery.sol\":9000:9001  i */\n      dup3\n        /* \"Lottery.sol\":8992:9002  winners[i] */\n      dup2\n      mload\n      dup2\n      lt\n      tag_181\n      jumpi\n      tag_182\n      tag_158\n      jump\t// in\n    tag_182:\n    tag_181:\n      0x20\n      mul\n      0x20\n      add\n      add\n      mload\n        /* \"Lottery.sol\":8992:9016  winners[i] != address(0) */\n      0xffffffffffffffffffffffffffffffffffffffff\n      and\n      eq\n      iszero\n        /* \"Lottery.sol\":8992:9039  winners[i] != address(0) && rewardPerWinner > 0 */\n      dup1\n      iszero\n      tag_183\n      jumpi\n      pop\n        /* \"Lottery.sol\":9038:9039  0 */\n      0x00\n        /* \"Lottery.sol\":9020:9035  rewardPerWinner */\n      dup4\n        /* \"Lottery.sol\":9020:9039  rewardPerWinner > 0 */\n      gt\n        /* \"Lottery.sol\":8992:9039  winners[i] != address(0) && rewardPerWinner > 0 */\n    tag_183:\n        /* \"Lottery.sol\":8988:9186  if (winners[i] != address(0) && rewardPerWinner > 0) {... */\n      iszero\n      tag_184\n      jumpi\n        /* \"Lottery.sol\":9064:9068  usdt */\n      immutable(\"0x6fadbaf86d2aa9c9e34a85df385a2c9afa9509e09756634e72bbcf94a5ceb213\")\n        /* \"Lottery.sol\":9064:9077  usdt.transfer */\n      0xffffffffffffffffffffffffffffffffffffffff\n      and\n      0xa9059cbb\n        /* \"Lottery.sol\":9078:9085  winners */\n      dup8\n        /* \"Lottery.sol\":9086:9087  i */\n      dup4\n        /* \"Lottery.sol\":9078:9088  winners[i] */\n      dup2\n      mload\n      dup2\n      lt\n      tag_185\n      jumpi\n      tag_186\n      tag_158\n      jump\t// in\n    tag_186:\n    tag_185:\n      0x20\n      mul\n      0x20\n      add\n      add\n      mload\n        /* \"Lottery.sol\":9090:9105  rewardPerWinner */\n      dup6\n        /* \"Lottery.sol\":9064:9106  usdt.transfer(winners[i], rewardPerWinner) */\n      mload(0x40)\n      dup4\n      0xffffffff\n      and\n      0xe0\n      shl\n      dup2\n      mstore\n      0x04\n      add\n      tag_187\n      swap3\n      swap2\n      swap1\n      tag_188\n      jump\t// in\n    tag_187:\n      0x20\n      mload(0x40)\n      dup1\n      dup4\n      sub\n      dup2\n      0x00\n      dup8\n      gas\n      call\n      iszero\n      dup1\n      iszero\n      tag_190\n      jumpi\n      returndatasize\n      0x00\n      dup1\n      returndatacopy\n      revert(0x00, returndatasize)\n    tag_190:\n      pop\n      pop\n      pop\n      pop\n      mload(0x40)\n      returndatasize\n      not(0x1f)\n      0x1f\n      dup3\n      add\n      and\n      dup3\n      add\n      dup1\n      0x40\n      mstore\n      pop\n      dup2\n      add\n      swap1\n      tag_191\n      swap2\n      swap1\n      tag_192\n      jump\t// in\n    tag_191:\n        /* \"Lottery.sol\":9059:9172  if (!usdt.transfer(winners[i], rewardPerWinner)) {... */\n      tag_193\n      jumpi\n        /* \"Lottery.sol\":9137:9153  TransferFailed() */\n      mload(0x40)\n      0x90b8ec1800000000000000000000000000000000000000000000000000000000\n      dup2\n      mstore\n      0x04\n      add\n      mload(0x40)\n      dup1\n      swap2\n      sub\n      swap1\n      revert\n        /* \"Lottery.sol\":9059:9172  if (!usdt.transfer(winners[i], rewardPerWinner)) {... */\n    tag_193:\n        /* \"Lottery.sol\":8988:9186  if (winners[i] != address(0) && rewardPerWinner > 0) {... */\n    tag_184:\n        /* \"Lottery.sol\":8969:8972  i++ */\n      dup1\n      dup1\n      0x01\n      add\n      swap2\n      pop\n      pop\n        /* \"Lottery.sol\":8931:9196  for (uint256 i = 0; i < winnersCount; i++) {... */\n      jump(tag_178)\n    tag_179:\n      pop\n        /* \"Lottery.sol\":9276:9280  true */\n      0x01\n        /* \"Lottery.sol\":9245:9263  rewardsDistributed */\n      0x0a\n        /* \"Lottery.sol\":9245:9273  rewardsDistributed[seriesId] */\n      0x00\n        /* \"Lottery.sol\":9264:9272  seriesId */\n      dup10\n        /* \"Lottery.sol\":9245:9273  rewardsDistributed[seriesId] */\n      dup2\n      mstore\n      0x20\n      add\n      swap1\n      dup2\n      mstore\n      0x20\n      add\n      0x00\n      keccak256\n      0x00\n        /* \"Lottery.sol\":9245:9280  rewardsDistributed[seriesId] = true */\n      0x0100\n      exp\n      dup2\n      sload\n      dup2\n      0xff\n      mul\n      not\n      and\n      swap1\n      dup4\n      iszero\n      iszero\n      mul\n      or\n      swap1\n      sstore\n      pop\n        /* \"Lottery.sol\":9369:9399  address[] memory uniqueWinners */\n      0x00\n        /* \"Lottery.sol\":9402:9478  _getUniqueAddresses(... */\n      tag_194\n        /* \"Lottery.sol\":9435:9442  winners */\n      dup7\n        /* \"Lottery.sol\":9456:9468  winnersCount */\n      dup7\n        /* \"Lottery.sol\":9402:9421  _getUniqueAddresses */\n      tag_195\n        /* \"Lottery.sol\":9402:9478  _getUniqueAddresses(... */\n      jump\t// in\n    tag_194:\n        /* \"Lottery.sol\":9369:9478  address[] memory uniqueWinners = _getUniqueAddresses(... */\n      swap1\n      pop\n        /* \"Lottery.sol\":9548:9556  seriesId */\n      dup8\n        /* \"Lottery.sol\":9516:9666  RewardsDistributed(... */\n      0x304b0f51aff1fa2e109dcc4743e16c2985ead88eee868723e54df3013f3b721f\n        /* \"Lottery.sol\":9570:9583  uniqueWinners */\n      dup3\n        /* \"Lottery.sol\":9597:9612  rewardPerWinner */\n      dup6\n        /* \"Lottery.sol\":9644:9656  winnersCount */\n      dup9\n        /* \"Lottery.sol\":9626:9641  rewardPerWinner */\n      dup8\n        /* \"Lottery.sol\":9626:9656  rewardPerWinner * winnersCount */\n      tag_196\n      swap2\n      swap1\n      tag_168\n      jump\t// in\n    tag_196:\n        /* \"Lottery.sol\":9516:9666  RewardsDistributed(... */\n      mload(0x40)\n      tag_197\n      swap4\n      swap3\n      swap2\n      swap1\n      tag_198\n      jump\t// in\n    tag_197:\n      mload(0x40)\n      dup1\n      swap2\n      sub\n      swap1\n      log2\n        /* \"Lottery.sol\":6883:9673  {... */\n      pop\n      pop\n      pop\n      pop\n      pop\n      pop\n      pop\n        /* \"Lottery.sol\":6819:9673  function distributeRewards(uint256 seriesId) external onlyOwner {... */\n      pop\n      jump\t// out\n        /* \"Lottery.sol\":12196:12898  function getSeriesInfo(... */\n    tag_57:\n        /* \"Lottery.sol\":12311:12331  uint256 totalTickets */\n      0x00\n        /* \"Lottery.sol\":12345:12362  uint256 soldCount */\n      dup1\n        /* \"Lottery.sol\":12376:12393  bool drawExecuted */\n      0x00\n        /* \"Lottery.sol\":12407:12424  bool readyForDraw */\n      dup1\n        /* \"Lottery.sol\":12438:12475  uint256[] memory winningTicketNumbers */\n      0x60\n        /* \"Lottery.sol\":12500:12528  Series storage currentSeries */\n      0x00\n        /* \"Lottery.sol\":12531:12541  seriesInfo */\n      0x05\n        /* \"Lottery.sol\":12531:12551  seriesInfo[seriesId] */\n      0x00\n        /* \"Lottery.sol\":12542:12550  seriesId */\n      dup9\n        /* \"Lottery.sol\":12531:12551  seriesInfo[seriesId] */\n      dup2\n      mstore\n      0x20\n      add\n      swap1\n      dup2\n      mstore\n      0x20\n      add\n      0x00\n      keccak256\n        /* \"Lottery.sol\":12500:12551  Series storage currentSeries = seriesInfo[seriesId] */\n      swap1\n      pop\n        /* \"Lottery.sol\":12561:12580  bool isReadyForDraw */\n      0x00\n        /* \"Lottery.sol\":2191:2193  90 */\n      0x5a\n        /* \"Lottery.sol\":12583:12596  currentSeries */\n      dup3\n        /* \"Lottery.sol\":12583:12608  currentSeries.ticketsSold */\n      0x01\n      add\n      sload\n        /* \"Lottery.sol\":12583:12626  currentSeries.ticketsSold >= DRAW_THRESHOLD */\n      lt\n      iszero\n        /* \"Lottery.sol\":12583:12669  currentSeries.ticketsSold >= DRAW_THRESHOLD &&... */\n      dup1\n      iszero\n      tag_200\n      jumpi\n      pop\n        /* \"Lottery.sol\":12643:12656  currentSeries */\n      dup2\n        /* \"Lottery.sol\":12643:12669  currentSeries.drawExecuted */\n      0x03\n      add\n      0x00\n      swap1\n      sload\n      swap1\n      0x0100\n      exp\n      swap1\n      div\n      0xff\n      and\n        /* \"Lottery.sol\":12642:12669  !currentSeries.drawExecuted */\n      iszero\n        /* \"Lottery.sol\":12583:12669  currentSeries.ticketsSold >= DRAW_THRESHOLD &&... */\n    tag_200:\n        /* \"Lottery.sol\":12561:12669  bool isReadyForDraw = currentSeries.ticketsSold >= DRAW_THRESHOLD &&... */\n      swap1\n      pop\n        /* \"Lottery.sol\":12700:12713  currentSeries */\n      dup2\n        /* \"Lottery.sol\":12700:12726  currentSeries.totalTickets */\n      0x00\n      add\n      sload\n        /* \"Lottery.sol\":12740:12753  currentSeries */\n      dup3\n        /* \"Lottery.sol\":12740:12765  currentSeries.ticketsSold */\n      0x01\n      add\n      sload\n        /* \"Lottery.sol\":12779:12792  currentSeries */\n      dup4\n        /* \"Lottery.sol\":12779:12805  currentSeries.drawExecuted */\n      0x03\n      add\n      0x00\n      swap1\n      sload\n      swap1\n      0x0100\n      exp\n      swap1\n      div\n      0xff\n      and\n        /* \"Lottery.sol\":12819:12833  isReadyForDraw */\n      dup4\n        /* \"Lottery.sol\":12847:12860  currentSeries */\n      dup6\n        /* \"Lottery.sol\":12847:12881  currentSeries.winningTicketNumbers */\n      0x02\n      add\n        /* \"Lottery.sol\":12679:12891  return (... */\n      dup1\n      dup1\n      sload\n      dup1\n      0x20\n      mul\n      0x20\n      add\n      mload(0x40)\n      swap1\n      dup2\n      add\n      0x40\n      mstore\n      dup1\n      swap3\n      swap2\n      swap1\n      dup2\n      dup2\n      mstore\n      0x20\n      add\n      dup3\n      dup1\n      sload\n      dup1\n      iszero\n      tag_201\n      jumpi\n      0x20\n      mul\n      dup3\n      add\n      swap2\n      swap1\n      0x00\n      mstore\n      keccak256(0x00, 0x20)\n      swap1\n    tag_202:\n      dup2\n      sload\n      dup2\n      mstore\n      0x20\n      add\n      swap1\n      0x01\n      add\n      swap1\n      dup1\n      dup4\n      gt\n      tag_202\n      jumpi\n    tag_201:\n      pop\n      pop\n      pop\n      pop\n      pop\n      swap1\n      pop\n      swap7\n      pop\n      swap7\n      pop\n      swap7\n      pop\n      swap7\n      pop\n      swap7\n      pop\n      pop\n      pop\n        /* \"Lottery.sol\":12196:12898  function getSeriesInfo(... */\n      swap2\n      swap4\n      swap6\n      swap1\n      swap3\n      swap5\n      pop\n      jump\t// out\n        /* \"Lottery.sol\":2150:2193  uint256 public constant DRAW_THRESHOLD = 90 */\n    tag_61:\n        /* \"Lottery.sol\":2191:2193  90 */\n      0x5a\n        /* \"Lottery.sol\":2150:2193  uint256 public constant DRAW_THRESHOLD = 90 */\n      dup2\n      jump\t// out\n        /* \"Lottery.sol\":5191:6671  function executeDraw(uint256 seriesId) external onlyOwner {... */\n    tag_65:\n        /* \"Lottery.sol\":3262:3267  owner */\n      0x00\n      dup1\n      sload\n      swap1\n      0x0100\n      exp\n      swap1\n      div\n      0xffffffffffffffffffffffffffffffffffffffff\n      and\n        /* \"Lottery.sol\":3248:3267  msg.sender != owner */\n      0xffffffffffffffffffffffffffffffffffffffff\n      and\n        /* \"Lottery.sol\":3248:3258  msg.sender */\n      caller\n        /* \"Lottery.sol\":3248:3267  msg.sender != owner */\n      0xffffffffffffffffffffffffffffffffffffffff\n      and\n      eq\n        /* \"Lottery.sol\":3244:3286  if (msg.sender != owner) revert NotOwner() */\n      tag_204\n      jumpi\n        /* \"Lottery.sol\":3276:3286  NotOwner() */\n      mload(0x40)\n      0x30cd747100000000000000000000000000000000000000000000000000000000\n      dup2\n      mstore\n      0x04\n      add\n      mload(0x40)\n      dup1\n      swap2\n      sub\n      swap1\n      revert\n        /* \"Lottery.sol\":3244:3286  if (msg.sender != owner) revert NotOwner() */\n    tag_204:\n        /* \"Lottery.sol\":5309:5310  0 */\n      0x00\n        /* \"Lottery.sol\":5297:5305  seriesId */\n      dup2\n        /* \"Lottery.sol\":5297:5310  seriesId == 0 */\n      eq\n        /* \"Lottery.sol\":5297:5341  seriesId == 0 || seriesId > totalSeriesCount */\n      dup1\n      tag_206\n      jumpi\n      pop\n        /* \"Lottery.sol\":5325:5341  totalSeriesCount */\n      sload(0x03)\n        /* \"Lottery.sol\":5314:5322  seriesId */\n      dup2\n        /* \"Lottery.sol\":5314:5341  seriesId > totalSeriesCount */\n      gt\n        /* \"Lottery.sol\":5297:5341  seriesId == 0 || seriesId > totalSeriesCount */\n    tag_206:\n        /* \"Lottery.sol\":5293:5387  if (seriesId == 0 || seriesId > totalSeriesCount)... */\n      iszero\n      tag_207\n      jumpi\n        /* \"Lottery.sol\":5378:5386  seriesId */\n      dup1\n        /* \"Lottery.sol\":5362:5387  InvalidSeriesId(seriesId) */\n      mload(0x40)\n      0xc68e534300000000000000000000000000000000000000000000000000000000\n      dup2\n      mstore\n      0x04\n      add\n      tag_208\n      swap2\n      swap1\n      tag_35\n      jump\t// in\n    tag_208:\n      mload(0x40)\n      dup1\n      swap2\n      sub\n      swap1\n      revert\n        /* \"Lottery.sol\":5293:5387  if (seriesId == 0 || seriesId > totalSeriesCount)... */\n    tag_207:\n        /* \"Lottery.sol\":5398:5426  Series storage currentSeries */\n      0x00\n        /* \"Lottery.sol\":5429:5439  seriesInfo */\n      0x05\n        /* \"Lottery.sol\":5429:5449  seriesInfo[seriesId] */\n      0x00\n        /* \"Lottery.sol\":5440:5448  seriesId */\n      dup4\n        /* \"Lottery.sol\":5429:5449  seriesInfo[seriesId] */\n      dup2\n      mstore\n      0x20\n      add\n      swap1\n      dup2\n      mstore\n      0x20\n      add\n      0x00\n      keccak256\n        /* \"Lottery.sol\":5398:5449  Series storage currentSeries = seriesInfo[seriesId] */\n      swap1\n      pop\n        /* \"Lottery.sol\":2191:2193  90 */\n      0x5a\n        /* \"Lottery.sol\":5520:5533  currentSeries */\n      dup2\n        /* \"Lottery.sol\":5520:5545  currentSeries.ticketsSold */\n      0x01\n      add\n      sload\n        /* \"Lottery.sol\":5520:5562  currentSeries.ticketsSold < DRAW_THRESHOLD */\n      lt\n        /* \"Lottery.sol\":5516:5613  if (currentSeries.ticketsSold < DRAW_THRESHOLD)... */\n      iszero\n      tag_209\n      jumpi\n        /* \"Lottery.sol\":5604:5612  seriesId */\n      dup2\n        /* \"Lottery.sol\":5583:5613  NotEnoughTicketsSold(seriesId) */\n      mload(0x40)\n      0x5337fa1c00000000000000000000000000000000000000000000000000000000\n      dup2\n      mstore\n      0x04\n      add\n      tag_210\n      swap2\n      swap1\n      tag_35\n      jump\t// in\n    tag_210:\n      mload(0x40)\n      dup1\n      swap2\n      sub\n      swap1\n      revert\n        /* \"Lottery.sol\":5516:5613  if (currentSeries.ticketsSold < DRAW_THRESHOLD)... */\n    tag_209:\n        /* \"Lottery.sol\":5678:5691  currentSeries */\n      dup1\n        /* \"Lottery.sol\":5678:5704  currentSeries.drawExecuted */\n      0x03\n      add\n      0x00\n      swap1\n      sload\n      swap1\n      0x0100\n      exp\n      swap1\n      div\n      0xff\n      and\n        /* \"Lottery.sol\":5674:5742  if (currentSeries.drawExecuted) revert DrawAlreadyExecuted(seriesId) */\n      iszero\n      tag_211\n      jumpi\n        /* \"Lottery.sol\":5733:5741  seriesId */\n      dup2\n        /* \"Lottery.sol\":5713:5742  DrawAlreadyExecuted(seriesId) */\n      mload(0x40)\n      0x6b83bfbb00000000000000000000000000000000000000000000000000000000\n      dup2\n      mstore\n      0x04\n      add\n      tag_212\n      swap2\n      swap1\n      tag_35\n      jump\t// in\n    tag_212:\n      mload(0x40)\n      dup1\n      swap2\n      sub\n      swap1\n      revert\n        /* \"Lottery.sol\":5674:5742  if (currentSeries.drawExecuted) revert DrawAlreadyExecuted(seriesId) */\n    tag_211:\n        /* \"Lottery.sol\":5871:5889  uint256 randomSeed */\n      0x00\n        /* \"Lottery.sol\":6003:6004  1 */\n      0x01\n        /* \"Lottery.sol\":5988:6000  block.number */\n      number\n        /* \"Lottery.sol\":5988:6004  block.number - 1 */\n      tag_213\n      swap2\n      swap1\n      tag_214\n      jump\t// in\n    tag_213:\n        /* \"Lottery.sol\":5978:6005  blockhash(block.number - 1) */\n      blockhash\n        /* \"Lottery.sol\":6027:6042  block.timestamp */\n      timestamp\n        /* \"Lottery.sol\":6064:6080  block.prevrandao */\n      prevrandao\n        /* \"Lottery.sol\":6102:6112  msg.sender */\n      caller\n        /* \"Lottery.sol\":6134:6142  seriesId */\n      dup7\n        /* \"Lottery.sol\":6164:6177  currentSeries */\n      dup7\n        /* \"Lottery.sol\":6164:6189  currentSeries.ticketsSold */\n      0x01\n      add\n      sload\n        /* \"Lottery.sol\":5940:6207  abi.encodePacked(... */\n      add(0x20, mload(0x40))\n      tag_215\n      swap7\n      swap6\n      swap5\n      swap4\n      swap3\n      swap2\n      swap1\n      tag_216\n      jump\t// in\n    tag_215:\n      mload(0x40)\n      0x20\n      dup2\n      dup4\n      sub\n      sub\n      dup2\n      mstore\n      swap1\n      0x40\n      mstore\n        /* \"Lottery.sol\":5913:6221  keccak256(... */\n      dup1\n      mload\n      swap1\n      0x20\n      add\n      keccak256\n        /* \"Lottery.sol\":5892:6231  uint256(... */\n      0x00\n      shr\n        /* \"Lottery.sol\":5871:6231  uint256 randomSeed = uint256(... */\n      swap1\n      pop\n        /* \"Lottery.sol\":6273:6283  randomSeed */\n      dup1\n        /* \"Lottery.sol\":6242:6255  currentSeries */\n      dup3\n        /* \"Lottery.sol\":6242:6270  currentSeries.drawRandomSeed */\n      0x04\n      add\n        /* \"Lottery.sol\":6242:6283  currentSeries.drawRandomSeed = randomSeed */\n      dup2\n      swap1\n      sstore\n      pop\n        /* \"Lottery.sol\":6364:6395  uint256[] memory winningNumbers */\n      0x00\n        /* \"Lottery.sol\":6398:6494  _generateWinningNumbers(... */\n      tag_217\n        /* \"Lottery.sol\":6435:6445  randomSeed */\n      dup3\n        /* \"Lottery.sol\":6459:6472  currentSeries */\n      dup5\n        /* \"Lottery.sol\":6459:6484  currentSeries.ticketsSold */\n      0x01\n      add\n      sload\n        /* \"Lottery.sol\":6398:6421  _generateWinningNumbers */\n      tag_218\n        /* \"Lottery.sol\":6398:6494  _generateWinningNumbers(... */\n      jump\t// in\n    tag_217:\n        /* \"Lottery.sol\":6364:6494  uint256[] memory winningNumbers = _generateWinningNumbers(... */\n      swap1\n      pop\n        /* \"Lottery.sol\":6541:6555  winningNumbers */\n      dup1\n        /* \"Lottery.sol\":6504:6517  currentSeries */\n      dup4\n        /* \"Lottery.sol\":6504:6538  currentSeries.winningTicketNumbers */\n      0x02\n      add\n        /* \"Lottery.sol\":6504:6555  currentSeries.winningTicketNumbers = winningNumbers */\n      swap1\n      dup1\n      mload\n      swap1\n      0x20\n      add\n      swap1\n      tag_219\n      swap3\n      swap2\n      swap1\n      tag_220\n      jump\t// in\n    tag_219:\n      pop\n        /* \"Lottery.sol\":6594:6598  true */\n      0x01\n        /* \"Lottery.sol\":6565:6578  currentSeries */\n      dup4\n        /* \"Lottery.sol\":6565:6591  currentSeries.drawExecuted */\n      0x03\n      add\n      0x00\n        /* \"Lottery.sol\":6565:6598  currentSeries.drawExecuted = true */\n      0x0100\n      exp\n      dup2\n      sload\n      dup2\n      0xff\n      mul\n      not\n      and\n      swap1\n      dup4\n      iszero\n      iszero\n      mul\n      or\n      swap1\n      sstore\n      pop\n        /* \"Lottery.sol\":6627:6635  seriesId */\n      dup4\n        /* \"Lottery.sol\":6614:6664  DrawExecuted(seriesId, winningNumbers, randomSeed) */\n      0xb9b63d02dbcb30a774c4322c8b5f9afd79edf26b84fa733c10d1d940a1f357a9\n        /* \"Lottery.sol\":6637:6651  winningNumbers */\n      dup3\n        /* \"Lottery.sol\":6653:6663  randomSeed */\n      dup5\n        /* \"Lottery.sol\":6614:6664  DrawExecuted(seriesId, winningNumbers, randomSeed) */\n      mload(0x40)\n      tag_221\n      swap3\n      swap2\n      swap1\n      tag_222\n      jump\t// in\n    tag_221:\n      mload(0x40)\n      dup1\n      swap2\n      sub\n      swap1\n      log2\n        /* \"Lottery.sol\":5249:6671  {... */\n      pop\n      pop\n      pop\n        /* \"Lottery.sol\":5191:6671  function executeDraw(uint256 seriesId) external onlyOwner {... */\n      pop\n      jump\t// out\n        /* \"Lottery.sol\":10046:10945  function buyTickets(uint256 seriesId, uint256 count) external {... */\n    tag_69:\n        /* \"Lottery.sol\":10131:10132  0 */\n      0x00\n        /* \"Lottery.sol\":10122:10127  count */\n      dup2\n        /* \"Lottery.sol\":10122:10132  count == 0 */\n      sub\n        /* \"Lottery.sol\":10118:10161  if (count == 0) revert InvalidTicketCount() */\n      tag_224\n      jumpi\n        /* \"Lottery.sol\":10141:10161  InvalidTicketCount() */\n      mload(0x40)\n      0x8e71bef900000000000000000000000000000000000000000000000000000000\n      dup2\n      mstore\n      0x04\n      add\n      mload(0x40)\n      dup1\n      swap2\n      sub\n      swap1\n      revert\n        /* \"Lottery.sol\":10118:10161  if (count == 0) revert InvalidTicketCount() */\n    tag_224:\n        /* \"Lottery.sol\":10187:10188  0 */\n      0x00\n        /* \"Lottery.sol\":10175:10183  seriesId */\n      dup3\n        /* \"Lottery.sol\":10175:10188  seriesId == 0 */\n      eq\n        /* \"Lottery.sol\":10175:10219  seriesId == 0 || seriesId > totalSeriesCount */\n      dup1\n      tag_225\n      jumpi\n      pop\n        /* \"Lottery.sol\":10203:10219  totalSeriesCount */\n      sload(0x03)\n        /* \"Lottery.sol\":10192:10200  seriesId */\n      dup3\n        /* \"Lottery.sol\":10192:10219  seriesId > totalSeriesCount */\n      gt\n        /* \"Lottery.sol\":10175:10219  seriesId == 0 || seriesId > totalSeriesCount */\n    tag_225:\n        /* \"Lottery.sol\":10171:10265  if (seriesId == 0 || seriesId > totalSeriesCount)... */\n      iszero\n      tag_226\n      jumpi\n        /* \"Lottery.sol\":10256:10264  seriesId */\n      dup2\n        /* \"Lottery.sol\":10240:10265  InvalidSeriesId(seriesId) */\n      mload(0x40)\n      0xc68e534300000000000000000000000000000000000000000000000000000000\n      dup2\n      mstore\n      0x04\n      add\n      tag_227\n      swap2\n      swap1\n      tag_35\n      jump\t// in\n    tag_227:\n      mload(0x40)\n      dup1\n      swap2\n      sub\n      swap1\n      revert\n        /* \"Lottery.sol\":10171:10265  if (seriesId == 0 || seriesId > totalSeriesCount)... */\n    tag_226:\n        /* \"Lottery.sol\":10276:10304  Series storage currentSeries */\n      0x00\n        /* \"Lottery.sol\":10307:10317  seriesInfo */\n      0x05\n        /* \"Lottery.sol\":10307:10327  seriesInfo[seriesId] */\n      0x00\n        /* \"Lottery.sol\":10318:10326  seriesId */\n      dup5\n        /* \"Lottery.sol\":10307:10327  seriesInfo[seriesId] */\n      dup2\n      mstore\n      0x20\n      add\n      swap1\n      dup2\n      mstore\n      0x20\n      add\n      0x00\n      keccak256\n        /* \"Lottery.sol\":10276:10327  Series storage currentSeries = seriesInfo[seriesId] */\n      swap1\n      pop\n        /* \"Lottery.sol\":10408:10421  currentSeries */\n      dup1\n        /* \"Lottery.sol\":10408:10434  currentSeries.drawExecuted */\n      0x03\n      add\n      0x00\n      swap1\n      sload\n      swap1\n      0x0100\n      exp\n      swap1\n      div\n      0xff\n      and\n        /* \"Lottery.sol\":10404:10471  if (currentSeries.drawExecuted) revert SeriesNotCompleted(seriesId) */\n      iszero\n      tag_228\n      jumpi\n        /* \"Lottery.sol\":10462:10470  seriesId */\n      dup3\n        /* \"Lottery.sol\":10443:10471  SeriesNotCompleted(seriesId) */\n      mload(0x40)\n      0x127a8a7200000000000000000000000000000000000000000000000000000000\n      dup2\n      mstore\n      0x04\n      add\n      tag_229\n      swap2\n      swap1\n      tag_35\n      jump\t// in\n    tag_229:\n      mload(0x40)\n      dup1\n      swap2\n      sub\n      swap1\n      revert\n        /* \"Lottery.sol\":10404:10471  if (currentSeries.drawExecuted) revert SeriesNotCompleted(seriesId) */\n    tag_228:\n        /* \"Lottery.sol\":10482:10499  uint256 remaining */\n      0x00\n        /* \"Lottery.sol\":10543:10556  currentSeries */\n      dup2\n        /* \"Lottery.sol\":10543:10568  currentSeries.ticketsSold */\n      0x01\n      add\n      sload\n        /* \"Lottery.sol\":10502:10515  currentSeries */\n      dup3\n        /* \"Lottery.sol\":10502:10528  currentSeries.totalTickets */\n      0x00\n      add\n      sload\n        /* \"Lottery.sol\":10502:10568  currentSeries.totalTickets -... */\n      tag_230\n      swap2\n      swap1\n      tag_214\n      jump\t// in\n    tag_230:\n        /* \"Lottery.sol\":10482:10568  uint256 remaining = currentSeries.totalTickets -... */\n      swap1\n      pop\n        /* \"Lottery.sol\":10590:10599  remaining */\n      dup1\n        /* \"Lottery.sol\":10582:10587  count */\n      dup4\n        /* \"Lottery.sol\":10582:10599  count > remaining */\n      gt\n        /* \"Lottery.sol\":10578:10629  if (count > remaining) revert InsufficientTickets() */\n      iszero\n      tag_231\n      jumpi\n        /* \"Lottery.sol\":10608:10629  InsufficientTickets() */\n      mload(0x40)\n      0x19e215bc00000000000000000000000000000000000000000000000000000000\n      dup2\n      mstore\n      0x04\n      add\n      mload(0x40)\n      dup1\n      swap2\n      sub\n      swap1\n      revert\n        /* \"Lottery.sol\":10578:10629  if (count > remaining) revert InsufficientTickets() */\n    tag_231:\n        /* \"Lottery.sol\":10640:10670  uint256[] memory ticketNumbers */\n      0x00\n        /* \"Lottery.sol\":10687:10692  count */\n      dup4\n        /* \"Lottery.sol\":10673:10693  new uint256[](count) */\n      0xffffffffffffffff\n      dup2\n      gt\n      iszero\n      tag_232\n      jumpi\n      tag_233\n      tag_151\n      jump\t// in\n    tag_233:\n    tag_232:\n      mload(0x40)\n      swap1\n      dup1\n      dup3\n      mstore\n      dup1\n      0x20\n      mul\n      0x20\n      add\n      dup3\n      add\n      0x40\n      mstore\n      dup1\n      iszero\n      tag_234\n      jumpi\n      dup2\n      0x20\n      add\n      0x20\n      dup3\n      mul\n      dup1\n      calldatasize\n      dup4\n      calldatacopy\n      dup1\n      dup3\n      add\n      swap2\n      pop\n      pop\n      swap1\n      pop\n    tag_234:\n      pop\n        /* \"Lottery.sol\":10640:10693  uint256[] memory ticketNumbers = new uint256[](count) */\n      swap1\n      pop\n        /* \"Lottery.sol\":10703:10722  uint256 startNumber */\n      0x00\n        /* \"Lottery.sol\":10753:10754  1 */\n      0x01\n        /* \"Lottery.sol\":10725:10738  currentSeries */\n      dup5\n        /* \"Lottery.sol\":10725:10750  currentSeries.ticketsSold */\n      0x01\n      add\n      sload\n        /* \"Lottery.sol\":10725:10754  currentSeries.ticketsSold + 1 */\n      tag_235\n      swap2\n      swap1\n      tag_137\n      jump\t// in\n    tag_235:\n        /* \"Lottery.sol\":10703:10754  uint256 startNumber = currentSeries.ticketsSold + 1 */\n      swap1\n      pop\n        /* \"Lottery.sol\":10769:10778  uint256 i */\n      0x00\n        /* \"Lottery.sol\":10764:10859  for (uint256 i = 0; i < count; i++) {... */\n    tag_236:\n        /* \"Lottery.sol\":10788:10793  count */\n      dup6\n        /* \"Lottery.sol\":10784:10785  i */\n      dup2\n        /* \"Lottery.sol\":10784:10793  i < count */\n      lt\n        /* \"Lottery.sol\":10764:10859  for (uint256 i = 0; i < count; i++) {... */\n      iszero\n      tag_237\n      jumpi\n        /* \"Lottery.sol\":10847:10848  i */\n      dup1\n        /* \"Lottery.sol\":10833:10844  startNumber */\n      dup3\n        /* \"Lottery.sol\":10833:10848  startNumber + i */\n      tag_239\n      swap2\n      swap1\n      tag_137\n      jump\t// in\n    tag_239:\n        /* \"Lottery.sol\":10814:10827  ticketNumbers */\n      dup4\n        /* \"Lottery.sol\":10828:10829  i */\n      dup3\n        /* \"Lottery.sol\":10814:10830  ticketNumbers[i] */\n      dup2\n      mload\n      dup2\n      lt\n      tag_240\n      jumpi\n      tag_241\n      tag_158\n      jump\t// in\n    tag_241:\n    tag_240:\n      0x20\n      mul\n      0x20\n      add\n      add\n        /* \"Lottery.sol\":10814:10848  ticketNumbers[i] = startNumber + i */\n      dup2\n      dup2\n      mstore\n      pop\n      pop\n        /* \"Lottery.sol\":10795:10798  i++ */\n      dup1\n      dup1\n      0x01\n      add\n      swap2\n      pop\n      pop\n        /* \"Lottery.sol\":10764:10859  for (uint256 i = 0; i < count; i++) {... */\n      jump(tag_236)\n    tag_237:\n      pop\n        /* \"Lottery.sol\":10869:10938  _completePurchase(msg.sender, seriesId, currentSeries, ticketNumbers) */\n      tag_242\n        /* \"Lottery.sol\":10887:10897  msg.sender */\n      caller\n        /* \"Lottery.sol\":10899:10907  seriesId */\n      dup8\n        /* \"Lottery.sol\":10909:10922  currentSeries */\n      dup7\n        /* \"Lottery.sol\":10924:10937  ticketNumbers */\n      dup6\n        /* \"Lottery.sol\":10869:10886  _completePurchase */\n      tag_243\n        /* \"Lottery.sol\":10869:10938  _completePurchase(msg.sender, seriesId, currentSeries, ticketNumbers) */\n      jump\t// in\n    tag_242:\n        /* \"Lottery.sol\":10108:10945  {... */\n      pop\n      pop\n      pop\n      pop\n        /* \"Lottery.sol\":10046:10945  function buyTickets(uint256 seriesId, uint256 count) external {... */\n      pop\n      pop\n      jump\t// out\n        /* \"Lottery.sol\":2670:2702  uint256 public rewardPerUser = 1 */\n    tag_71:\n      sload(0x04)\n      dup2\n      jump\t// out\n        /* \"Lottery.sol\":2509:2529  address public owner */\n    tag_74:\n      0x00\n      dup1\n      sload\n      swap1\n      0x0100\n      exp\n      swap1\n      div\n      0xffffffffffffffffffffffffffffffffffffffff\n      and\n      dup2\n      jump\t// out\n        /* \"Lottery.sol\":2221:2271  uint256 public constant WINNING_TICKETS_COUNT = 10 */\n    tag_78:\n        /* \"Lottery.sol\":2269:2271  10 */\n      0x0a\n        /* \"Lottery.sol\":2221:2271  uint256 public constant WINNING_TICKETS_COUNT = 10 */\n      dup2\n      jump\t// out\n        /* \"Lottery.sol\":2601:2627  uint256 public ticketsSold */\n    tag_81:\n      sload(0x02)\n      dup2\n      jump\t// out\n        /* \"Lottery.sol\":4360:4592  function transferFunds(address to, uint256 amount) external onlyOwner {... */\n    tag_86:\n        /* \"Lottery.sol\":3262:3267  owner */\n      0x00\n      dup1\n      sload\n      swap1\n      0x0100\n      exp\n      swap1\n      div\n      0xffffffffffffffffffffffffffffffffffffffff\n      and\n        /* \"Lottery.sol\":3248:3267  msg.sender != owner */\n      0xffffffffffffffffffffffffffffffffffffffff\n      and\n        /* \"Lottery.sol\":3248:3258  msg.sender */\n      caller\n        /* \"Lottery.sol\":3248:3267  msg.sender != owner */\n      0xffffffffffffffffffffffffffffffffffffffff\n      and\n      eq\n        /* \"Lottery.sol\":3244:3286  if (msg.sender != owner) revert NotOwner() */\n      tag_245\n      jumpi\n        /* \"Lottery.sol\":3276:3286  NotOwner() */\n      mload(0x40)\n      0x30cd747100000000000000000000000000000000000000000000000000000000\n      dup2\n      mstore\n      0x04\n      add\n      mload(0x40)\n      dup1\n      swap2\n      sub\n      swap1\n      revert\n        /* \"Lottery.sol\":3244:3286  if (msg.sender != owner) revert NotOwner() */\n    tag_245:\n        /* \"Lottery.sol\":4458:4459  0 */\n      0x00\n        /* \"Lottery.sol\":4444:4460  to == address(0) */\n      0xffffffffffffffffffffffffffffffffffffffff\n      and\n        /* \"Lottery.sol\":4444:4446  to */\n      dup3\n        /* \"Lottery.sol\":4444:4460  to == address(0) */\n      0xffffffffffffffffffffffffffffffffffffffff\n      and\n      sub\n        /* \"Lottery.sol\":4440:4485  if (to == address(0)) revert InvalidAddress() */\n      tag_247\n      jumpi\n        /* \"Lottery.sol\":4469:4485  InvalidAddress() */\n      mload(0x40)\n      0xe6c4247b00000000000000000000000000000000000000000000000000000000\n      dup2\n      mstore\n      0x04\n      add\n      mload(0x40)\n      dup1\n      swap2\n      sub\n      swap1\n      revert\n        /* \"Lottery.sol\":4440:4485  if (to == address(0)) revert InvalidAddress() */\n    tag_247:\n        /* \"Lottery.sol\":4500:4504  usdt */\n      immutable(\"0x6fadbaf86d2aa9c9e34a85df385a2c9afa9509e09756634e72bbcf94a5ceb213\")\n        /* \"Lottery.sol\":4500:4513  usdt.transfer */\n      0xffffffffffffffffffffffffffffffffffffffff\n      and\n      0xa9059cbb\n        /* \"Lottery.sol\":4514:4516  to */\n      dup4\n        /* \"Lottery.sol\":4518:4524  amount */\n      dup4\n        /* \"Lottery.sol\":4500:4525  usdt.transfer(to, amount) */\n      mload(0x40)\n      dup4\n      0xffffffff\n      and\n      0xe0\n      shl\n      dup2\n      mstore\n      0x04\n      add\n      tag_248\n      swap3\n      swap2\n      swap1\n      tag_188\n      jump\t// in\n    tag_248:\n      0x20\n      mload(0x40)\n      dup1\n      dup4\n      sub\n      dup2\n      0x00\n      dup8\n      gas\n      call\n      iszero\n      dup1\n      iszero\n      tag_250\n      jumpi\n      returndatasize\n      0x00\n      dup1\n      returndatacopy\n      revert(0x00, returndatasize)\n    tag_250:\n      pop\n      pop\n      pop\n      pop\n      mload(0x40)\n      returndatasize\n      not(0x1f)\n      0x1f\n      dup3\n      add\n      and\n      dup3\n      add\n      dup1\n      0x40\n      mstore\n      pop\n      dup2\n      add\n      swap1\n      tag_251\n      swap2\n      swap1\n      tag_192\n      jump\t// in\n    tag_251:\n        /* \"Lottery.sol\":4495:4550  if (!usdt.transfer(to, amount)) revert TransferFailed() */\n      tag_252\n      jumpi\n        /* \"Lottery.sol\":4534:4550  TransferFailed() */\n      mload(0x40)\n      0x90b8ec1800000000000000000000000000000000000000000000000000000000\n      dup2\n      mstore\n      0x04\n      add\n      mload(0x40)\n      dup1\n      swap2\n      sub\n      swap1\n      revert\n        /* \"Lottery.sol\":4495:4550  if (!usdt.transfer(to, amount)) revert TransferFailed() */\n    tag_252:\n        /* \"Lottery.sol\":4574:4576  to */\n      dup2\n        /* \"Lottery.sol\":4565:4585  Withdraw(to, amount) */\n      0xffffffffffffffffffffffffffffffffffffffff\n      and\n      0x884edad9ce6fa2440d8a54cc123490eb96d2768479d49ff9c7366125a9424364\n        /* \"Lottery.sol\":4578:4584  amount */\n      dup3\n        /* \"Lottery.sol\":4565:4585  Withdraw(to, amount) */\n      mload(0x40)\n      tag_253\n      swap2\n      swap1\n      tag_35\n      jump\t// in\n    tag_253:\n      mload(0x40)\n      dup1\n      swap2\n      sub\n      swap1\n      log2\n        /* \"Lottery.sol\":4360:4592  function transferFunds(address to, uint256 amount) external onlyOwner {... */\n      pop\n      pop\n      jump\t// out\n        /* \"Lottery.sol\":2977:3027  mapping(uint256 => bool) public rewardsDistributed */\n    tag_89:\n      mstore(0x20, 0x0a)\n      dup1\n      0x00\n      mstore\n      keccak256(0x00, 0x40)\n      0x00\n      swap2\n      pop\n      sload\n      swap1\n      0x0100\n      exp\n      swap1\n      div\n      0xff\n      and\n      dup2\n      jump\t// out\n        /* \"Lottery.sol\":12044:12190  function getOwnedTicketIds(... */\n    tag_95:\n        /* \"Lottery.sol\":12125:12141  uint256[] memory */\n      0x60\n        /* \"Lottery.sol\":12160:12174  ownedTicketIds */\n      0x09\n        /* \"Lottery.sol\":12160:12183  ownedTicketIds[account] */\n      0x00\n        /* \"Lottery.sol\":12175:12182  account */\n      dup4\n        /* \"Lottery.sol\":12160:12183  ownedTicketIds[account] */\n      0xffffffffffffffffffffffffffffffffffffffff\n      and\n      0xffffffffffffffffffffffffffffffffffffffff\n      and\n      dup2\n      mstore\n      0x20\n      add\n      swap1\n      dup2\n      mstore\n      0x20\n      add\n      0x00\n      keccak256\n        /* \"Lottery.sol\":12153:12183  return ownedTicketIds[account] */\n      dup1\n      sload\n      dup1\n      0x20\n      mul\n      0x20\n      add\n      mload(0x40)\n      swap1\n      dup2\n      add\n      0x40\n      mstore\n      dup1\n      swap3\n      swap2\n      swap1\n      dup2\n      dup2\n      mstore\n      0x20\n      add\n      dup3\n      dup1\n      sload\n      dup1\n      iszero\n      tag_255\n      jumpi\n      0x20\n      mul\n      dup3\n      add\n      swap2\n      swap1\n      0x00\n      mstore\n      keccak256(0x00, 0x20)\n      swap1\n    tag_256:\n      dup2\n      sload\n      dup2\n      mstore\n      0x20\n      add\n      swap1\n      0x01\n      add\n      swap1\n      dup1\n      dup4\n      gt\n      tag_256\n      jumpi\n    tag_255:\n      pop\n      pop\n      pop\n      pop\n      pop\n      swap1\n      pop\n        /* \"Lottery.sol\":12044:12190  function getOwnedTicketIds(... */\n      swap2\n      swap1\n      pop\n      jump\t// out\n        /* \"Lottery.sol\":11144:12038  function buyTicketsAt(... */\n    tag_101:\n        /* \"Lottery.sol\":11259:11272  uint256 count */\n      0x00\n        /* \"Lottery.sol\":11275:11288  ticketNumbers */\n      dup3\n      dup3\n        /* \"Lottery.sol\":11275:11295  ticketNumbers.length */\n      swap1\n      pop\n        /* \"Lottery.sol\":11259:11295  uint256 count = ticketNumbers.length */\n      swap1\n      pop\n        /* \"Lottery.sol\":11318:11319  0 */\n      0x00\n        /* \"Lottery.sol\":11309:11314  count */\n      dup2\n        /* \"Lottery.sol\":11309:11319  count == 0 */\n      sub\n        /* \"Lottery.sol\":11305:11348  if (count == 0) revert InvalidTicketCount() */\n      tag_258\n      jumpi\n        /* \"Lottery.sol\":11328:11348  InvalidTicketCount() */\n      mload(0x40)\n      0x8e71bef900000000000000000000000000000000000000000000000000000000\n      dup2\n      mstore\n      0x04\n      add\n      mload(0x40)\n      dup1\n      swap2\n      sub\n      swap1\n      revert\n        /* \"Lottery.sol\":11305:11348  if (count == 0) revert InvalidTicketCount() */\n    tag_258:\n        /* \"Lottery.sol\":11374:11375  0 */\n      0x00\n        /* \"Lottery.sol\":11362:11370  seriesId */\n      dup5\n        /* \"Lottery.sol\":11362:11375  seriesId == 0 */\n      eq\n        /* \"Lottery.sol\":11362:11406  seriesId == 0 || seriesId > totalSeriesCount */\n      dup1\n      tag_259\n      jumpi\n      pop\n        /* \"Lottery.sol\":11390:11406  totalSeriesCount */\n      sload(0x03)\n        /* \"Lottery.sol\":11379:11387  seriesId */\n      dup5\n        /* \"Lottery.sol\":11379:11406  seriesId > totalSeriesCount */\n      gt\n        /* \"Lottery.sol\":11362:11406  seriesId == 0 || seriesId > totalSeriesCount */\n    tag_259:\n        /* \"Lottery.sol\":11358:11452  if (seriesId == 0 || seriesId > totalSeriesCount)... */\n      iszero\n      tag_260\n      jumpi\n        /* \"Lottery.sol\":11443:11451  seriesId */\n      dup4\n        /* \"Lottery.sol\":11427:11452  InvalidSeriesId(seriesId) */\n      mload(0x40)\n      0xc68e534300000000000000000000000000000000000000000000000000000000\n      dup2\n      mstore\n      0x04\n      add\n      tag_261\n      swap2\n      swap1\n      tag_35\n      jump\t// in\n    tag_261:\n      mload(0x40)\n      dup1\n      swap2\n      sub\n      swap1\n      revert\n        /* \"Lottery.sol\":11358:11452  if (seriesId == 0 || seriesId > totalSeriesCount)... */\n    tag_260:\n        /* \"Lottery.sol\":11463:11491  Series storage currentSeries */\n      0x00\n        /* \"Lottery.sol\":11494:11504  seriesInfo */\n      0x05\n        /* \"Lottery.sol\":11494:11514  seriesInfo[seriesId] */\n      0x00\n        /* \"Lottery.sol\":11505:11513  seriesId */\n      dup7\n        /* \"Lottery.sol\":11494:11514  seriesInfo[seriesId] */\n      dup2\n      mstore\n      0x20\n      add\n      swap1\n      dup2\n      mstore\n      0x20\n      add\n      0x00\n      keccak256\n        /* \"Lottery.sol\":11463:11514  Series storage currentSeries = seriesInfo[seriesId] */\n      swap1\n      pop\n        /* \"Lottery.sol\":11595:11608  currentSeries */\n      dup1\n        /* \"Lottery.sol\":11595:11621  currentSeries.drawExecuted */\n      0x03\n      add\n      0x00\n      swap1\n      sload\n      swap1\n      0x0100\n      exp\n      swap1\n      div\n      0xff\n      and\n        /* \"Lottery.sol\":11591:11658  if (currentSeries.drawExecuted) revert SeriesNotCompleted(seriesId) */\n      iszero\n      tag_262\n      jumpi\n        /* \"Lottery.sol\":11649:11657  seriesId */\n      dup5\n        /* \"Lottery.sol\":11630:11658  SeriesNotCompleted(seriesId) */\n      mload(0x40)\n      0x127a8a7200000000000000000000000000000000000000000000000000000000\n      dup2\n      mstore\n      0x04\n      add\n      tag_263\n      swap2\n      swap1\n      tag_35\n      jump\t// in\n    tag_263:\n      mload(0x40)\n      dup1\n      swap2\n      sub\n      swap1\n      revert\n        /* \"Lottery.sol\":11591:11658  if (currentSeries.drawExecuted) revert SeriesNotCompleted(seriesId) */\n    tag_262:\n        /* \"Lottery.sol\":11669:11686  uint256 remaining */\n      0x00\n        /* \"Lottery.sol\":11730:11743  currentSeries */\n      dup2\n        /* \"Lottery.sol\":11730:11755  currentSeries.ticketsSold */\n      0x01\n      add\n      sload\n        /* \"Lottery.sol\":11689:11702  currentSeries */\n      dup3\n        /* \"Lottery.sol\":11689:11715  currentSeries.totalTickets */\n      0x00\n      add\n      sload\n        /* \"Lottery.sol\":11689:11755  currentSeries.totalTickets -... */\n      tag_264\n      swap2\n      swap1\n      tag_214\n      jump\t// in\n    tag_264:\n        /* \"Lottery.sol\":11669:11755  uint256 remaining = currentSeries.totalTickets -... */\n      swap1\n      pop\n        /* \"Lottery.sol\":11777:11786  remaining */\n      dup1\n        /* \"Lottery.sol\":11769:11774  count */\n      dup4\n        /* \"Lottery.sol\":11769:11786  count > remaining */\n      gt\n        /* \"Lottery.sol\":11765:11816  if (count > remaining) revert InsufficientTickets() */\n      iszero\n      tag_265\n      jumpi\n        /* \"Lottery.sol\":11795:11816  InsufficientTickets() */\n      mload(0x40)\n      0x19e215bc00000000000000000000000000000000000000000000000000000000\n      dup2\n      mstore\n      0x04\n      add\n      mload(0x40)\n      dup1\n      swap2\n      sub\n      swap1\n      revert\n        /* \"Lottery.sol\":11765:11816  if (count > remaining) revert InsufficientTickets() */\n    tag_265:\n        /* \"Lottery.sol\":11827:11853  uint256[] memory sanitized */\n      0x00\n        /* \"Lottery.sol\":11856:11955  _validateTicketNumbers(... */\n      tag_266\n        /* \"Lottery.sol\":11892:11905  ticketNumbers */\n      dup7\n      dup7\n        /* \"Lottery.sol\":11919:11932  currentSeries */\n      dup6\n        /* \"Lottery.sol\":11919:11945  currentSeries.totalTickets */\n      0x00\n      add\n      sload\n        /* \"Lottery.sol\":11856:11878  _validateTicketNumbers */\n      tag_267\n        /* \"Lottery.sol\":11856:11955  _validateTicketNumbers(... */\n      jump\t// in\n    tag_266:\n        /* \"Lottery.sol\":11827:11955  uint256[] memory sanitized = _validateTicketNumbers(... */\n      swap1\n      pop\n        /* \"Lottery.sol\":11966:12031  _completePurchase(msg.sender, seriesId, currentSeries, sanitized) */\n      tag_268\n        /* \"Lottery.sol\":11984:11994  msg.sender */\n      caller\n        /* \"Lottery.sol\":11996:12004  seriesId */\n      dup9\n        /* \"Lottery.sol\":12006:12019  currentSeries */\n      dup6\n        /* \"Lottery.sol\":12021:12030  sanitized */\n      dup5\n        /* \"Lottery.sol\":11966:11983  _completePurchase */\n      tag_243\n        /* \"Lottery.sol\":11966:12031  _completePurchase(msg.sender, seriesId, currentSeries, sanitized) */\n      jump\t// in\n    tag_268:\n        /* \"Lottery.sol\":11249:12038  {... */\n      pop\n      pop\n      pop\n      pop\n        /* \"Lottery.sol\":11144:12038  function buyTicketsAt(... */\n      pop\n      pop\n      pop\n      jump\t// out\n        /* \"Lottery.sol\":2758:2807  mapping(address => uint256) public ticketBalances */\n    tag_104:\n      mstore(0x20, 0x06)\n      dup1\n      0x00\n      mstore\n      keccak256(0x00, 0x40)\n      0x00\n      swap2\n      pop\n      swap1\n      pop\n      sload\n      dup2\n      jump\t// out\n        /* \"Lottery.sol\":2813:2860  mapping(uint256 => address) public ticketOwners */\n    tag_108:\n      mstore(0x20, 0x07)\n      dup1\n      0x00\n      mstore\n      keccak256(0x00, 0x40)\n      0x00\n      swap2\n      pop\n      sload\n      swap1\n      0x0100\n      exp\n      swap1\n      div\n      0xffffffffffffffffffffffffffffffffffffffff\n      and\n      dup2\n      jump\t// out\n        /* \"Lottery.sol\":4196:4354  function transferOwnership(address newOwner) external onlyOwner {... */\n    tag_112:\n        /* \"Lottery.sol\":3262:3267  owner */\n      0x00\n      dup1\n      sload\n      swap1\n      0x0100\n      exp\n      swap1\n      div\n      0xffffffffffffffffffffffffffffffffffffffff\n      and\n        /* \"Lottery.sol\":3248:3267  msg.sender != owner */\n      0xffffffffffffffffffffffffffffffffffffffff\n      and\n        /* \"Lottery.sol\":3248:3258  msg.sender */\n      caller\n        /* \"Lottery.sol\":3248:3267  msg.sender != owner */\n      0xffffffffffffffffffffffffffffffffffffffff\n      and\n      eq\n        /* \"Lottery.sol\":3244:3286  if (msg.sender != owner) revert NotOwner() */\n      tag_270\n      jumpi\n        /* \"Lottery.sol\":3276:3286  NotOwner() */\n      mload(0x40)\n      0x30cd747100000000000000000000000000000000000000000000000000000000\n      dup2\n      mstore\n      0x04\n      add\n      mload(0x40)\n      dup1\n      swap2\n      sub\n      swap1\n      revert\n        /* \"Lottery.sol\":3244:3286  if (msg.sender != owner) revert NotOwner() */\n    tag_270:\n        /* \"Lottery.sol\":4294:4295  0 */\n      0x00\n        /* \"Lottery.sol\":4274:4296  newOwner == address(0) */\n      0xffffffffffffffffffffffffffffffffffffffff\n      and\n        /* \"Lottery.sol\":4274:4282  newOwner */\n      dup2\n        /* \"Lottery.sol\":4274:4296  newOwner == address(0) */\n      0xffffffffffffffffffffffffffffffffffffffff\n      and\n      sub\n        /* \"Lottery.sol\":4270:4321  if (newOwner == address(0)) revert InvalidAddress() */\n      tag_272\n      jumpi\n        /* \"Lottery.sol\":4305:4321  InvalidAddress() */\n      mload(0x40)\n      0xe6c4247b00000000000000000000000000000000000000000000000000000000\n      dup2\n      mstore\n      0x04\n      add\n      mload(0x40)\n      dup1\n      swap2\n      sub\n      swap1\n      revert\n        /* \"Lottery.sol\":4270:4321  if (newOwner == address(0)) revert InvalidAddress() */\n    tag_272:\n        /* \"Lottery.sol\":4339:4347  newOwner */\n      dup1\n        /* \"Lottery.sol\":4331:4336  owner */\n      0x00\n      dup1\n        /* \"Lottery.sol\":4331:4347  owner = newOwner */\n      0x0100\n      exp\n      dup2\n      sload\n      dup2\n      0xffffffffffffffffffffffffffffffffffffffff\n      mul\n      not\n      and\n      swap1\n      dup4\n      0xffffffffffffffffffffffffffffffffffffffff\n      and\n      mul\n      or\n      swap1\n      sstore\n      pop\n        /* \"Lottery.sol\":4196:4354  function transferOwnership(address newOwner) external onlyOwner {... */\n      pop\n      jump\t// out\n        /* \"Lottery.sol\":2866:2913  mapping(uint256 => uint256) public ticketSeries */\n    tag_115:\n      mstore(0x20, 0x08)\n      dup1\n      0x00\n      mstore\n      keccak256(0x00, 0x40)\n      0x00\n      swap2\n      pop\n      swap1\n      pop\n      sload\n      dup2\n      jump\t// out\n        /* \"Lottery.sol\":2096:2144  uint256 public constant TICKETS_PER_SERIES = 100 */\n    tag_118:\n        /* \"Lottery.sol\":2141:2144  100 */\n      0x64\n        /* \"Lottery.sol\":2096:2144  uint256 public constant TICKETS_PER_SERIES = 100 */\n      dup2\n      jump\t// out\n        /* \"Lottery.sol\":2708:2752  mapping(uint256 => Series) public seriesInfo */\n    tag_122:\n      mstore(0x20, 0x05)\n      dup1\n      0x00\n      mstore\n      keccak256(0x00, 0x40)\n      0x00\n      swap2\n      pop\n      swap1\n      pop\n      dup1\n      0x00\n      add\n      sload\n      swap1\n      dup1\n      0x01\n      add\n      sload\n      swap1\n      dup1\n      0x03\n      add\n      0x00\n      swap1\n      sload\n      swap1\n      0x0100\n      exp\n      swap1\n      div\n      0xff\n      and\n      swap1\n      dup1\n      0x04\n      add\n      sload\n      swap1\n      pop\n      dup5\n      jump\t// out\n        /* \"Lottery.sol\":17599:18457  function _getUniqueAddresses(... */\n    tag_195:\n        /* \"Lottery.sol\":17717:17733  address[] memory */\n      0x60\n        /* \"Lottery.sol\":17745:17766  address[] memory temp */\n      0x00\n        /* \"Lottery.sol\":17783:17789  length */\n      dup3\n        /* \"Lottery.sol\":17769:17790  new address[](length) */\n      0xffffffffffffffff\n      dup2\n      gt\n      iszero\n      tag_274\n      jumpi\n      tag_275\n      tag_151\n      jump\t// in\n    tag_275:\n    tag_274:\n      mload(0x40)\n      swap1\n      dup1\n      dup3\n      mstore\n      dup1\n      0x20\n      mul\n      0x20\n      add\n      dup3\n      add\n      0x40\n      mstore\n      dup1\n      iszero\n      tag_276\n      jumpi\n      dup2\n      0x20\n      add\n      0x20\n      dup3\n      mul\n      dup1\n      calldatasize\n      dup4\n      calldatacopy\n      dup1\n      dup3\n      add\n      swap2\n      pop\n      pop\n      swap1\n      pop\n    tag_276:\n      pop\n        /* \"Lottery.sol\":17745:17790  address[] memory temp = new address[](length) */\n      swap1\n      pop\n        /* \"Lottery.sol\":17800:17819  uint256 uniqueCount */\n      0x00\n        /* \"Lottery.sol\":17839:17848  uint256 i */\n      dup1\n        /* \"Lottery.sol\":17834:18269  for (uint256 i = 0; i < length; i++) {... */\n    tag_277:\n        /* \"Lottery.sol\":17858:17864  length */\n      dup5\n        /* \"Lottery.sol\":17854:17855  i */\n      dup2\n        /* \"Lottery.sol\":17854:17864  i < length */\n      lt\n        /* \"Lottery.sol\":17834:18269  for (uint256 i = 0; i < length; i++) {... */\n      iszero\n      tag_278\n      jumpi\n        /* \"Lottery.sol\":17885:17898  bool isUnique */\n      0x00\n        /* \"Lottery.sol\":17901:17905  true */\n      0x01\n        /* \"Lottery.sol\":17885:17905  bool isUnique = true */\n      swap1\n      pop\n        /* \"Lottery.sol\":17924:17933  uint256 j */\n      0x00\n        /* \"Lottery.sol\":17919:18106  for (uint256 j = 0; j < uniqueCount; j++) {... */\n    tag_280:\n        /* \"Lottery.sol\":17943:17954  uniqueCount */\n      dup4\n        /* \"Lottery.sol\":17939:17940  j */\n      dup2\n        /* \"Lottery.sol\":17939:17954  j < uniqueCount */\n      lt\n        /* \"Lottery.sol\":17919:18106  for (uint256 j = 0; j < uniqueCount; j++) {... */\n      iszero\n      tag_281\n      jumpi\n        /* \"Lottery.sol\":17994:18003  addresses */\n      dup8\n        /* \"Lottery.sol\":18004:18005  i */\n      dup4\n        /* \"Lottery.sol\":17994:18006  addresses[i] */\n      dup2\n      mload\n      dup2\n      lt\n      tag_283\n      jumpi\n      tag_284\n      tag_158\n      jump\t// in\n    tag_284:\n    tag_283:\n      0x20\n      mul\n      0x20\n      add\n      add\n      mload\n        /* \"Lottery.sol\":17983:18006  temp[j] == addresses[i] */\n      0xffffffffffffffffffffffffffffffffffffffff\n      and\n        /* \"Lottery.sol\":17983:17987  temp */\n      dup6\n        /* \"Lottery.sol\":17988:17989  j */\n      dup3\n        /* \"Lottery.sol\":17983:17990  temp[j] */\n      dup2\n      mload\n      dup2\n      lt\n      tag_285\n      jumpi\n      tag_286\n      tag_158\n      jump\t// in\n    tag_286:\n    tag_285:\n      0x20\n      mul\n      0x20\n      add\n      add\n      mload\n        /* \"Lottery.sol\":17983:18006  temp[j] == addresses[i] */\n      0xffffffffffffffffffffffffffffffffffffffff\n      and\n      sub\n        /* \"Lottery.sol\":17979:18092  if (temp[j] == addresses[i]) {... */\n      tag_287\n      jumpi\n        /* \"Lottery.sol\":18041:18046  false */\n      0x00\n        /* \"Lottery.sol\":18030:18046  isUnique = false */\n      swap2\n      pop\n        /* \"Lottery.sol\":18068:18073  break */\n      jump(tag_281)\n        /* \"Lottery.sol\":17979:18092  if (temp[j] == addresses[i]) {... */\n    tag_287:\n        /* \"Lottery.sol\":17956:17959  j++ */\n      dup1\n      dup1\n      0x01\n      add\n      swap2\n      pop\n      pop\n        /* \"Lottery.sol\":17919:18106  for (uint256 j = 0; j < uniqueCount; j++) {... */\n      jump(tag_280)\n    tag_281:\n      pop\n        /* \"Lottery.sol\":18123:18131  isUnique */\n      dup1\n        /* \"Lottery.sol\":18123:18161  isUnique && addresses[i] != address(0) */\n      dup1\n      iszero\n      tag_288\n      jumpi\n      pop\n        /* \"Lottery.sol\":18159:18160  0 */\n      0x00\n        /* \"Lottery.sol\":18135:18161  addresses[i] != address(0) */\n      0xffffffffffffffffffffffffffffffffffffffff\n      and\n        /* \"Lottery.sol\":18135:18144  addresses */\n      dup8\n        /* \"Lottery.sol\":18145:18146  i */\n      dup4\n        /* \"Lottery.sol\":18135:18147  addresses[i] */\n      dup2\n      mload\n      dup2\n      lt\n      tag_289\n      jumpi\n      tag_290\n      tag_158\n      jump\t// in\n    tag_290:\n    tag_289:\n      0x20\n      mul\n      0x20\n      add\n      add\n      mload\n        /* \"Lottery.sol\":18135:18161  addresses[i] != address(0) */\n      0xffffffffffffffffffffffffffffffffffffffff\n      and\n      eq\n      iszero\n        /* \"Lottery.sol\":18123:18161  isUnique && addresses[i] != address(0) */\n    tag_288:\n        /* \"Lottery.sol\":18119:18259  if (isUnique && addresses[i] != address(0)) {... */\n      iszero\n      tag_291\n      jumpi\n        /* \"Lottery.sol\":18201:18210  addresses */\n      dup7\n        /* \"Lottery.sol\":18211:18212  i */\n      dup3\n        /* \"Lottery.sol\":18201:18213  addresses[i] */\n      dup2\n      mload\n      dup2\n      lt\n      tag_292\n      jumpi\n      tag_293\n      tag_158\n      jump\t// in\n    tag_293:\n    tag_292:\n      0x20\n      mul\n      0x20\n      add\n      add\n      mload\n        /* \"Lottery.sol\":18181:18185  temp */\n      dup5\n        /* \"Lottery.sol\":18186:18197  uniqueCount */\n      dup5\n        /* \"Lottery.sol\":18181:18198  temp[uniqueCount] */\n      dup2\n      mload\n      dup2\n      lt\n      tag_294\n      jumpi\n      tag_295\n      tag_158\n      jump\t// in\n    tag_295:\n    tag_294:\n      0x20\n      mul\n      0x20\n      add\n      add\n        /* \"Lottery.sol\":18181:18213  temp[uniqueCount] = addresses[i] */\n      swap1\n      0xffffffffffffffffffffffffffffffffffffffff\n      and\n      swap1\n      dup2\n      0xffffffffffffffffffffffffffffffffffffffff\n      and\n      dup2\n      mstore\n      pop\n      pop\n        /* \"Lottery.sol\":18231:18244  uniqueCount++ */\n      dup3\n      dup1\n      tag_296\n      swap1\n      tag_164\n      jump\t// in\n    tag_296:\n      swap4\n      pop\n      pop\n        /* \"Lottery.sol\":18119:18259  if (isUnique && addresses[i] != address(0)) {... */\n    tag_291:\n        /* \"Lottery.sol\":17871:18269  {... */\n      pop\n        /* \"Lottery.sol\":17866:17869  i++ */\n      dup1\n      dup1\n      0x01\n      add\n      swap2\n      pop\n      pop\n        /* \"Lottery.sol\":17834:18269  for (uint256 i = 0; i < length; i++) {... */\n      jump(tag_277)\n    tag_278:\n      pop\n        /* \"Lottery.sol\":18279:18302  address[] memory unique */\n      0x00\n        /* \"Lottery.sol\":18319:18330  uniqueCount */\n      dup2\n        /* \"Lottery.sol\":18305:18331  new address[](uniqueCount) */\n      0xffffffffffffffff\n      dup2\n      gt\n      iszero\n      tag_297\n      jumpi\n      tag_298\n      tag_151\n      jump\t// in\n    tag_298:\n    tag_297:\n      mload(0x40)\n      swap1\n      dup1\n      dup3\n      mstore\n      dup1\n      0x20\n      mul\n      0x20\n      add\n      dup3\n      add\n      0x40\n      mstore\n      dup1\n      iszero\n      tag_299\n      jumpi\n      dup2\n      0x20\n      add\n      0x20\n      dup3\n      mul\n      dup1\n      calldatasize\n      dup4\n      calldatacopy\n      dup1\n      dup3\n      add\n      swap2\n      pop\n      pop\n      swap1\n      pop\n    tag_299:\n      pop\n        /* \"Lottery.sol\":18279:18331  address[] memory unique = new address[](uniqueCount) */\n      swap1\n      pop\n        /* \"Lottery.sol\":18346:18355  uint256 i */\n      0x00\n        /* \"Lottery.sol\":18341:18427  for (uint256 i = 0; i < uniqueCount; i++) {... */\n    tag_300:\n        /* \"Lottery.sol\":18365:18376  uniqueCount */\n      dup3\n        /* \"Lottery.sol\":18361:18362  i */\n      dup2\n        /* \"Lottery.sol\":18361:18376  i < uniqueCount */\n      lt\n        /* \"Lottery.sol\":18341:18427  for (uint256 i = 0; i < uniqueCount; i++) {... */\n      iszero\n      tag_301\n      jumpi\n        /* \"Lottery.sol\":18409:18413  temp */\n      dup4\n        /* \"Lottery.sol\":18414:18415  i */\n      dup2\n        /* \"Lottery.sol\":18409:18416  temp[i] */\n      dup2\n      mload\n      dup2\n      lt\n      tag_303\n      jumpi\n      tag_304\n      tag_158\n      jump\t// in\n    tag_304:\n    tag_303:\n      0x20\n      mul\n      0x20\n      add\n      add\n      mload\n        /* \"Lottery.sol\":18397:18403  unique */\n      dup3\n        /* \"Lottery.sol\":18404:18405  i */\n      dup3\n        /* \"Lottery.sol\":18397:18406  unique[i] */\n      dup2\n      mload\n      dup2\n      lt\n      tag_305\n      jumpi\n      tag_306\n      tag_158\n      jump\t// in\n    tag_306:\n    tag_305:\n      0x20\n      mul\n      0x20\n      add\n      add\n        /* \"Lottery.sol\":18397:18416  unique[i] = temp[i] */\n      swap1\n      0xffffffffffffffffffffffffffffffffffffffff\n      and\n      swap1\n      dup2\n      0xffffffffffffffffffffffffffffffffffffffff\n      and\n      dup2\n      mstore\n      pop\n      pop\n        /* \"Lottery.sol\":18378:18381  i++ */\n      dup1\n      dup1\n      0x01\n      add\n      swap2\n      pop\n      pop\n        /* \"Lottery.sol\":18341:18427  for (uint256 i = 0; i < uniqueCount; i++) {... */\n      jump(tag_300)\n    tag_301:\n      pop\n        /* \"Lottery.sol\":18444:18450  unique */\n      dup1\n        /* \"Lottery.sol\":18437:18450  return unique */\n      swap4\n      pop\n      pop\n      pop\n      pop\n        /* \"Lottery.sol\":17599:18457  function _getUniqueAddresses(... */\n      swap3\n      swap2\n      pop\n      pop\n      jump\t// out\n        /* \"Lottery.sol\":15693:17542  function _generateWinningNumbers(... */\n    tag_218:\n        /* \"Lottery.sol\":15810:15826  uint256[] memory */\n      0x60\n        /* \"Lottery.sol\":15838:15869  uint256[] memory winningNumbers */\n      0x00\n        /* \"Lottery.sol\":2269:2271  10 */\n      0x0a\n        /* \"Lottery.sol\":15872:15908  new uint256[](WINNING_TICKETS_COUNT) */\n      0xffffffffffffffff\n      dup2\n      gt\n      iszero\n      tag_308\n      jumpi\n      tag_309\n      tag_151\n      jump\t// in\n    tag_309:\n    tag_308:\n      mload(0x40)\n      swap1\n      dup1\n      dup3\n      mstore\n      dup1\n      0x20\n      mul\n      0x20\n      add\n      dup3\n      add\n      0x40\n      mstore\n      dup1\n      iszero\n      tag_310\n      jumpi\n      dup2\n      0x20\n      add\n      0x20\n      dup3\n      mul\n      dup1\n      calldatasize\n      dup4\n      calldatacopy\n      dup1\n      dup3\n      add\n      swap2\n      pop\n      pop\n      swap1\n      pop\n    tag_310:\n      pop\n        /* \"Lottery.sol\":15838:15908  uint256[] memory winningNumbers = new uint256[](WINNING_TICKETS_COUNT) */\n      swap1\n      pop\n        /* \"Lottery.sol\":15918:15939  bool[101] memory used */\n      tag_311\n      tag_312\n      jump\t// in\n    tag_311:\n        /* \"Lottery.sol\":15993:16006  uint256 count */\n      0x00\n        /* \"Lottery.sol\":16020:16032  uint256 seed */\n      dup1\n        /* \"Lottery.sol\":16035:16045  randomSeed */\n      dup7\n        /* \"Lottery.sol\":16020:16045  uint256 seed = randomSeed */\n      swap1\n      pop\n        /* \"Lottery.sol\":16130:17504  while (count < WINNING_TICKETS_COUNT) {... */\n    tag_313:\n        /* \"Lottery.sol\":2269:2271  10 */\n      0x0a\n        /* \"Lottery.sol\":16137:16142  count */\n      dup3\n        /* \"Lottery.sol\":16137:16166  count < WINNING_TICKETS_COUNT */\n      lt\n        /* \"Lottery.sol\":16130:17504  while (count < WINNING_TICKETS_COUNT) {... */\n      iszero\n      tag_314\n      jumpi\n        /* \"Lottery.sol\":16273:16277  seed */\n      dup1\n        /* \"Lottery.sol\":16279:16284  count */\n      dup3\n        /* \"Lottery.sol\":16256:16285  abi.encodePacked(seed, count) */\n      add(0x20, mload(0x40))\n      tag_315\n      swap3\n      swap2\n      swap1\n      tag_316\n      jump\t// in\n    tag_315:\n      mload(0x40)\n      0x20\n      dup2\n      dup4\n      sub\n      sub\n      dup2\n      mstore\n      swap1\n      0x40\n      mstore\n        /* \"Lottery.sol\":16246:16286  keccak256(abi.encodePacked(seed, count)) */\n      dup1\n      mload\n      swap1\n      0x20\n      add\n      keccak256\n        /* \"Lottery.sol\":16238:16287  uint256(keccak256(abi.encodePacked(seed, count))) */\n      0x00\n      shr\n        /* \"Lottery.sol\":16231:16287  seed = uint256(keccak256(abi.encodePacked(seed, count))) */\n      swap1\n      pop\n        /* \"Lottery.sol\":16301:16321  uint256 ticketNumber */\n      0x00\n        /* \"Lottery.sol\":16354:16355  1 */\n      0x01\n        /* \"Lottery.sol\":2141:2144  100 */\n      0x64\n        /* \"Lottery.sol\":16325:16329  seed */\n      dup4\n        /* \"Lottery.sol\":16325:16350  seed % TICKETS_PER_SERIES */\n      tag_317\n      swap2\n      swap1\n      tag_318\n      jump\t// in\n    tag_317:\n        /* \"Lottery.sol\":16324:16355  (seed % TICKETS_PER_SERIES) + 1 */\n      tag_319\n      swap2\n      swap1\n      tag_137\n      jump\t// in\n    tag_319:\n        /* \"Lottery.sol\":16301:16355  uint256 ticketNumber = (seed % TICKETS_PER_SERIES) + 1 */\n      swap1\n      pop\n        /* \"Lottery.sol\":16436:16440  used */\n      dup4\n        /* \"Lottery.sol\":16441:16453  ticketNumber */\n      dup2\n        /* \"Lottery.sol\":16436:16454  used[ticketNumber] */\n      0x65\n      dup2\n      lt\n      tag_320\n      jumpi\n      tag_321\n      tag_158\n      jump\t// in\n    tag_321:\n    tag_320:\n      0x20\n      mul\n      add\n      mload\n        /* \"Lottery.sol\":16431:16593  if (!used[ticketNumber]) {... */\n      tag_322\n      jumpi\n        /* \"Lottery.sol\":16495:16499  true */\n      0x01\n        /* \"Lottery.sol\":16474:16478  used */\n      dup5\n        /* \"Lottery.sol\":16479:16491  ticketNumber */\n      dup3\n        /* \"Lottery.sol\":16474:16492  used[ticketNumber] */\n      0x65\n      dup2\n      lt\n      tag_323\n      jumpi\n      tag_324\n      tag_158\n      jump\t// in\n    tag_324:\n    tag_323:\n      0x20\n      mul\n      add\n        /* \"Lottery.sol\":16474:16499  used[ticketNumber] = true */\n      swap1\n      iszero\n      iszero\n      swap1\n      dup2\n      iszero\n      iszero\n      dup2\n      mstore\n      pop\n      pop\n        /* \"Lottery.sol\":16541:16553  ticketNumber */\n      dup1\n        /* \"Lottery.sol\":16517:16531  winningNumbers */\n      dup6\n        /* \"Lottery.sol\":16532:16537  count */\n      dup5\n        /* \"Lottery.sol\":16517:16538  winningNumbers[count] */\n      dup2\n      mload\n      dup2\n      lt\n      tag_325\n      jumpi\n      tag_326\n      tag_158\n      jump\t// in\n    tag_326:\n    tag_325:\n      0x20\n      mul\n      0x20\n      add\n      add\n        /* \"Lottery.sol\":16517:16553  winningNumbers[count] = ticketNumber */\n      dup2\n      dup2\n      mstore\n      pop\n      pop\n        /* \"Lottery.sol\":16571:16578  count++ */\n      dup3\n      dup1\n      tag_327\n      swap1\n      tag_164\n      jump\t// in\n    tag_327:\n      swap4\n      pop\n      pop\n        /* \"Lottery.sol\":16431:16593  if (!used[ticketNumber]) {... */\n    tag_322:\n        /* \"Lottery.sol\":2269:2271  10 */\n      0x0a\n        /* \"Lottery.sol\":16784:16789  count */\n      dup4\n        /* \"Lottery.sol\":16784:16813  count < WINNING_TICKETS_COUNT */\n      lt\n        /* \"Lottery.sol\":16780:17494  if (count < WINNING_TICKETS_COUNT) {... */\n      iszero\n      tag_328\n      jumpi\n        /* \"Lottery.sol\":16833:16849  uint256 attempts */\n      0x00\n        /* \"Lottery.sol\":16871:17480  while (used[ticketNumber] && attempts < 200) {... */\n    tag_329:\n        /* \"Lottery.sol\":16878:16882  used */\n      dup5\n        /* \"Lottery.sol\":16883:16895  ticketNumber */\n      dup3\n        /* \"Lottery.sol\":16878:16896  used[ticketNumber] */\n      0x65\n      dup2\n      lt\n      tag_331\n      jumpi\n      tag_332\n      tag_158\n      jump\t// in\n    tag_332:\n    tag_331:\n      0x20\n      mul\n      add\n      mload\n        /* \"Lottery.sol\":16878:16914  used[ticketNumber] && attempts < 200 */\n      dup1\n      iszero\n      tag_333\n      jumpi\n      pop\n        /* \"Lottery.sol\":16911:16914  200 */\n      0xc8\n        /* \"Lottery.sol\":16900:16908  attempts */\n      dup2\n        /* \"Lottery.sol\":16900:16914  attempts < 200 */\n      lt\n        /* \"Lottery.sol\":16878:16914  used[ticketNumber] && attempts < 200 */\n    tag_333:\n        /* \"Lottery.sol\":16871:17480  while (used[ticketNumber] && attempts < 200) {... */\n      iszero\n      tag_330\n      jumpi\n        /* \"Lottery.sol\":17034:17038  seed */\n      dup3\n        /* \"Lottery.sol\":17040:17045  count */\n      dup5\n        /* \"Lottery.sol\":17047:17055  attempts */\n      dup3\n        /* \"Lottery.sol\":17057:17066  soldCount */\n      dup11\n        /* \"Lottery.sol\":17017:17067  abi.encodePacked(seed, count, attempts, soldCount) */\n      add(0x20, mload(0x40))\n      tag_334\n      swap5\n      swap4\n      swap3\n      swap2\n      swap1\n      tag_335\n      jump\t// in\n    tag_334:\n      mload(0x40)\n      0x20\n      dup2\n      dup4\n      sub\n      sub\n      dup2\n      mstore\n      swap1\n      0x40\n      mstore\n        /* \"Lottery.sol\":16978:17093  keccak256(... */\n      dup1\n      mload\n      swap1\n      0x20\n      add\n      keccak256\n        /* \"Lottery.sol\":16945:17115  uint256(... */\n      0x00\n      shr\n        /* \"Lottery.sol\":16938:17115  seed = uint256(... */\n      swap3\n      pop\n        /* \"Lottery.sol\":17182:17183  1 */\n      0x01\n        /* \"Lottery.sol\":2141:2144  100 */\n      0x64\n        /* \"Lottery.sol\":17153:17157  seed */\n      dup5\n        /* \"Lottery.sol\":17153:17178  seed % TICKETS_PER_SERIES */\n      tag_336\n      swap2\n      swap1\n      tag_318\n      jump\t// in\n    tag_336:\n        /* \"Lottery.sol\":17152:17183  (seed % TICKETS_PER_SERIES) + 1 */\n      tag_337\n      swap2\n      swap1\n      tag_137\n      jump\t// in\n    tag_337:\n        /* \"Lottery.sol\":17137:17183  ticketNumber = (seed % TICKETS_PER_SERIES) + 1 */\n      swap2\n      pop\n        /* \"Lottery.sol\":17210:17214  used */\n      dup5\n        /* \"Lottery.sol\":17215:17227  ticketNumber */\n      dup3\n        /* \"Lottery.sol\":17210:17228  used[ticketNumber] */\n      0x65\n      dup2\n      lt\n      tag_338\n      jumpi\n      tag_339\n      tag_158\n      jump\t// in\n    tag_339:\n    tag_338:\n      0x20\n      mul\n      add\n      mload\n        /* \"Lottery.sol\":17205:17430  if (!used[ticketNumber]) {... */\n      tag_340\n      jumpi\n        /* \"Lottery.sol\":17277:17281  true */\n      0x01\n        /* \"Lottery.sol\":17256:17260  used */\n      dup6\n        /* \"Lottery.sol\":17261:17273  ticketNumber */\n      dup4\n        /* \"Lottery.sol\":17256:17274  used[ticketNumber] */\n      0x65\n      dup2\n      lt\n      tag_341\n      jumpi\n      tag_342\n      tag_158\n      jump\t// in\n    tag_342:\n    tag_341:\n      0x20\n      mul\n      add\n        /* \"Lottery.sol\":17256:17281  used[ticketNumber] = true */\n      swap1\n      iszero\n      iszero\n      swap1\n      dup2\n      iszero\n      iszero\n      dup2\n      mstore\n      pop\n      pop\n        /* \"Lottery.sol\":17331:17343  ticketNumber */\n      dup2\n        /* \"Lottery.sol\":17307:17321  winningNumbers */\n      dup7\n        /* \"Lottery.sol\":17322:17327  count */\n      dup6\n        /* \"Lottery.sol\":17307:17328  winningNumbers[count] */\n      dup2\n      mload\n      dup2\n      lt\n      tag_343\n      jumpi\n      tag_344\n      tag_158\n      jump\t// in\n    tag_344:\n    tag_343:\n      0x20\n      mul\n      0x20\n      add\n      add\n        /* \"Lottery.sol\":17307:17343  winningNumbers[count] = ticketNumber */\n      dup2\n      dup2\n      mstore\n      pop\n      pop\n        /* \"Lottery.sol\":17369:17376  count++ */\n      dup4\n      dup1\n      tag_345\n      swap1\n      tag_164\n      jump\t// in\n    tag_345:\n      swap5\n      pop\n      pop\n        /* \"Lottery.sol\":17402:17407  break */\n      jump(tag_330)\n        /* \"Lottery.sol\":17205:17430  if (!used[ticketNumber]) {... */\n    tag_340:\n        /* \"Lottery.sol\":17451:17461  attempts++ */\n      dup1\n      dup1\n      tag_346\n      swap1\n      tag_164\n      jump\t// in\n    tag_346:\n      swap2\n      pop\n      pop\n        /* \"Lottery.sol\":16871:17480  while (used[ticketNumber] && attempts < 200) {... */\n      jump(tag_329)\n    tag_330:\n        /* \"Lottery.sol\":16815:17494  {... */\n      pop\n        /* \"Lottery.sol\":16780:17494  if (count < WINNING_TICKETS_COUNT) {... */\n    tag_328:\n        /* \"Lottery.sol\":16168:17504  {... */\n      pop\n        /* \"Lottery.sol\":16130:17504  while (count < WINNING_TICKETS_COUNT) {... */\n      jump(tag_313)\n    tag_314:\n        /* \"Lottery.sol\":17521:17535  winningNumbers */\n      dup4\n        /* \"Lottery.sol\":17514:17535  return winningNumbers */\n      swap5\n      pop\n      pop\n      pop\n      pop\n      pop\n        /* \"Lottery.sol\":15693:17542  function _generateWinningNumbers(... */\n      swap3\n      swap2\n      pop\n      pop\n      jump\t// out\n        /* \"Lottery.sol\":13090:13979  function _completePurchase(... */\n    tag_243:\n        /* \"Lottery.sol\":13262:13275  uint256 count */\n      0x00\n        /* \"Lottery.sol\":13278:13291  ticketNumbers */\n      dup2\n        /* \"Lottery.sol\":13278:13298  ticketNumbers.length */\n      mload\n        /* \"Lottery.sol\":13262:13298  uint256 count = ticketNumbers.length */\n      swap1\n      pop\n        /* \"Lottery.sol\":13308:13325  uint256 totalCost */\n      0x00\n        /* \"Lottery.sol\":13342:13347  count */\n      dup2\n        /* \"Lottery.sol\":13328:13339  ticketPrice */\n      sload(0x01)\n        /* \"Lottery.sol\":13328:13347  ticketPrice * count */\n      tag_348\n      swap2\n      swap1\n      tag_168\n      jump\t// in\n    tag_348:\n        /* \"Lottery.sol\":13308:13347  uint256 totalCost = ticketPrice * count */\n      swap1\n      pop\n        /* \"Lottery.sol\":13357:13383  uint256[] memory ticketIds */\n      0x00\n        /* \"Lottery.sol\":13386:13509  _mintTickets(... */\n      tag_349\n        /* \"Lottery.sol\":13412:13417  buyer */\n      dup8\n        /* \"Lottery.sol\":13431:13439  seriesId */\n      dup8\n        /* \"Lottery.sol\":13453:13459  series */\n      dup8\n        /* \"Lottery.sol\":13453:13472  series.totalTickets */\n      0x00\n      add\n      sload\n        /* \"Lottery.sol\":13486:13499  ticketNumbers */\n      dup8\n        /* \"Lottery.sol\":13386:13398  _mintTickets */\n      tag_350\n        /* \"Lottery.sol\":13386:13509  _mintTickets(... */\n      jump\t// in\n    tag_349:\n        /* \"Lottery.sol\":13357:13509  uint256[] memory ticketIds = _mintTickets(... */\n      swap1\n      pop\n        /* \"Lottery.sol\":13542:13547  count */\n      dup3\n        /* \"Lottery.sol\":13520:13526  series */\n      dup6\n        /* \"Lottery.sol\":13520:13538  series.ticketsSold */\n      0x01\n      add\n      0x00\n        /* \"Lottery.sol\":13520:13547  series.ticketsSold += count */\n      dup3\n      dup3\n      sload\n      tag_351\n      swap2\n      swap1\n      tag_137\n      jump\t// in\n    tag_351:\n      swap3\n      pop\n      pop\n      dup2\n      swap1\n      sstore\n      pop\n        /* \"Lottery.sol\":13572:13577  count */\n      dup3\n        /* \"Lottery.sol\":13557:13568  ticketsSold */\n      0x02\n      0x00\n        /* \"Lottery.sol\":13557:13577  ticketsSold += count */\n      dup3\n      dup3\n      sload\n      tag_352\n      swap2\n      swap1\n      tag_137\n      jump\t// in\n    tag_352:\n      swap3\n      pop\n      pop\n      dup2\n      swap1\n      sstore\n      pop\n        /* \"Lottery.sol\":13612:13617  count */\n      dup3\n        /* \"Lottery.sol\":13587:13601  ticketBalances */\n      0x06\n        /* \"Lottery.sol\":13587:13608  ticketBalances[buyer] */\n      0x00\n        /* \"Lottery.sol\":13602:13607  buyer */\n      dup10\n        /* \"Lottery.sol\":13587:13608  ticketBalances[buyer] */\n      0xffffffffffffffffffffffffffffffffffffffff\n      and\n      0xffffffffffffffffffffffffffffffffffffffff\n      and\n      dup2\n      mstore\n      0x20\n      add\n      swap1\n      dup2\n      mstore\n      0x20\n      add\n      0x00\n      keccak256\n      0x00\n        /* \"Lottery.sol\":13587:13617  ticketBalances[buyer] += count */\n      dup3\n      dup3\n      sload\n      tag_353\n      swap2\n      swap1\n      tag_137\n      jump\t// in\n    tag_353:\n      swap3\n      pop\n      pop\n      dup2\n      swap1\n      sstore\n      pop\n        /* \"Lottery.sol\":13685:13693  seriesId */\n      dup6\n        /* \"Lottery.sol\":13649:13654  buyer */\n      dup8\n        /* \"Lottery.sol\":13633:13694  TicketPurchased(buyer, count, totalCost, ticketIds, seriesId) */\n      0xffffffffffffffffffffffffffffffffffffffff\n      and\n      0x7478e1ca4690b7ad34581c0f0974fc4d6c826cb3d55af76a85334ed9537c5dd9\n        /* \"Lottery.sol\":13656:13661  count */\n      dup6\n        /* \"Lottery.sol\":13663:13672  totalCost */\n      dup6\n        /* \"Lottery.sol\":13674:13683  ticketIds */\n      dup6\n        /* \"Lottery.sol\":13633:13694  TicketPurchased(buyer, count, totalCost, ticketIds, seriesId) */\n      mload(0x40)\n      tag_354\n      swap4\n      swap3\n      swap2\n      swap1\n      tag_355\n      jump\t// in\n    tag_354:\n      mload(0x40)\n      dup1\n      swap2\n      sub\n      swap1\n      log3\n        /* \"Lottery.sol\":13721:13722  0 */\n      0x00\n        /* \"Lottery.sol\":13709:13718  totalCost */\n      dup3\n        /* \"Lottery.sol\":13709:13722  totalCost > 0 */\n      gt\n        /* \"Lottery.sol\":13705:13861  if (totalCost > 0) {... */\n      iszero\n      tag_356\n      jumpi\n        /* \"Lottery.sol\":13743:13747  usdt */\n      immutable(\"0x6fadbaf86d2aa9c9e34a85df385a2c9afa9509e09756634e72bbcf94a5ceb213\")\n        /* \"Lottery.sol\":13743:13760  usdt.transferFrom */\n      0xffffffffffffffffffffffffffffffffffffffff\n      and\n      0x23b872dd\n        /* \"Lottery.sol\":13761:13766  buyer */\n      dup9\n        /* \"Lottery.sol\":13776:13780  this */\n      address\n        /* \"Lottery.sol\":13783:13792  totalCost */\n      dup6\n        /* \"Lottery.sol\":13743:13793  usdt.transferFrom(buyer, address(this), totalCost) */\n      mload(0x40)\n      dup5\n      0xffffffff\n      and\n      0xe0\n      shl\n      dup2\n      mstore\n      0x04\n      add\n      tag_357\n      swap4\n      swap3\n      swap2\n      swap1\n      tag_358\n      jump\t// in\n    tag_357:\n      0x20\n      mload(0x40)\n      dup1\n      dup4\n      sub\n      dup2\n      0x00\n      dup8\n      gas\n      call\n      iszero\n      dup1\n      iszero\n      tag_360\n      jumpi\n      returndatasize\n      0x00\n      dup1\n      returndatacopy\n      revert(0x00, returndatasize)\n    tag_360:\n      pop\n      pop\n      pop\n      pop\n      mload(0x40)\n      returndatasize\n      not(0x1f)\n      0x1f\n      dup3\n      add\n      and\n      dup3\n      add\n      dup1\n      0x40\n      mstore\n      pop\n      dup2\n      add\n      swap1\n      tag_361\n      swap2\n      swap1\n      tag_192\n      jump\t// in\n    tag_361:\n        /* \"Lottery.sol\":13738:13851  if (!usdt.transferFrom(buyer, address(this), totalCost)) {... */\n      tag_362\n      jumpi\n        /* \"Lottery.sol\":13820:13836  TransferFailed() */\n      mload(0x40)\n      0x90b8ec1800000000000000000000000000000000000000000000000000000000\n      dup2\n      mstore\n      0x04\n      add\n      mload(0x40)\n      dup1\n      swap2\n      sub\n      swap1\n      revert\n        /* \"Lottery.sol\":13738:13851  if (!usdt.transferFrom(buyer, address(this), totalCost)) {... */\n    tag_362:\n        /* \"Lottery.sol\":13705:13861  if (totalCost > 0) {... */\n    tag_356:\n        /* \"Lottery.sol\":13897:13903  series */\n      dup5\n        /* \"Lottery.sol\":13897:13916  series.totalTickets */\n      0x00\n      add\n      sload\n        /* \"Lottery.sol\":13875:13881  series */\n      dup6\n        /* \"Lottery.sol\":13875:13893  series.ticketsSold */\n      0x01\n      add\n      sload\n        /* \"Lottery.sol\":13875:13916  series.ticketsSold == series.totalTickets */\n      sub\n        /* \"Lottery.sol\":13871:13973  if (series.ticketsSold == series.totalTickets) {... */\n      tag_363\n      jumpi\n        /* \"Lottery.sol\":13953:13961  seriesId */\n      dup6\n        /* \"Lottery.sol\":13937:13962  SeriesCompleted(seriesId) */\n      0xfd8d96e5e049823e751e0c23004bdbb7793038835ac2cb5e6eeec672aa5c8ebc\n      mload(0x40)\n      mload(0x40)\n      dup1\n      swap2\n      sub\n      swap1\n      log2\n        /* \"Lottery.sol\":13871:13973  if (series.ticketsSold == series.totalTickets) {... */\n    tag_363:\n        /* \"Lottery.sol\":13252:13979  {... */\n      pop\n      pop\n      pop\n        /* \"Lottery.sol\":13090:13979  function _completePurchase(... */\n      pop\n      pop\n      pop\n      pop\n      jump\t// out\n        /* \"Lottery.sol\":13985:14503  function _validateTicketNumbers(... */\n    tag_267:\n        /* \"Lottery.sol\":14118:14144  uint256[] memory sanitized */\n      0x60\n        /* \"Lottery.sol\":14156:14169  uint256 count */\n      0x00\n        /* \"Lottery.sol\":14172:14185  ticketNumbers */\n      dup5\n      dup5\n        /* \"Lottery.sol\":14172:14192  ticketNumbers.length */\n      swap1\n      pop\n        /* \"Lottery.sol\":14156:14192  uint256 count = ticketNumbers.length */\n      swap1\n      pop\n        /* \"Lottery.sol\":14228:14233  count */\n      dup1\n        /* \"Lottery.sol\":14214:14234  new uint256[](count) */\n      0xffffffffffffffff\n      dup2\n      gt\n      iszero\n      tag_365\n      jumpi\n      tag_366\n      tag_151\n      jump\t// in\n    tag_366:\n    tag_365:\n      mload(0x40)\n      swap1\n      dup1\n      dup3\n      mstore\n      dup1\n      0x20\n      mul\n      0x20\n      add\n      dup3\n      add\n      0x40\n      mstore\n      dup1\n      iszero\n      tag_367\n      jumpi\n      dup2\n      0x20\n      add\n      0x20\n      dup3\n      mul\n      dup1\n      calldatasize\n      dup4\n      calldatacopy\n      dup1\n      dup3\n      add\n      swap2\n      pop\n      pop\n      swap1\n      pop\n    tag_367:\n      pop\n        /* \"Lottery.sol\":14202:14234  sanitized = new uint256[](count) */\n      swap2\n      pop\n        /* \"Lottery.sol\":14249:14258  uint256 i */\n      0x00\n        /* \"Lottery.sol\":14244:14497  for (uint256 i = 0; i < count; i++) {... */\n    tag_368:\n        /* \"Lottery.sol\":14268:14273  count */\n      dup2\n        /* \"Lottery.sol\":14264:14265  i */\n      dup2\n        /* \"Lottery.sol\":14264:14273  i < count */\n      lt\n        /* \"Lottery.sol\":14244:14497  for (uint256 i = 0; i < count; i++) {... */\n      iszero\n      tag_369\n      jumpi\n        /* \"Lottery.sol\":14294:14314  uint256 ticketNumber */\n      0x00\n        /* \"Lottery.sol\":14317:14330  ticketNumbers */\n      dup7\n      dup7\n        /* \"Lottery.sol\":14331:14332  i */\n      dup4\n        /* \"Lottery.sol\":14317:14333  ticketNumbers[i] */\n      dup2\n      dup2\n      lt\n      tag_371\n      jumpi\n      tag_372\n      tag_158\n      jump\t// in\n    tag_372:\n    tag_371:\n      swap1\n      pop\n      0x20\n      mul\n      add\n      calldataload\n        /* \"Lottery.sol\":14294:14333  uint256 ticketNumber = ticketNumbers[i] */\n      swap1\n      pop\n        /* \"Lottery.sol\":14367:14368  0 */\n      0x00\n        /* \"Lottery.sol\":14351:14363  ticketNumber */\n      dup2\n        /* \"Lottery.sol\":14351:14368  ticketNumber == 0 */\n      eq\n        /* \"Lottery.sol\":14351:14399  ticketNumber == 0 || ticketNumber > totalTickets */\n      dup1\n      tag_373\n      jumpi\n      pop\n        /* \"Lottery.sol\":14387:14399  totalTickets */\n      dup5\n        /* \"Lottery.sol\":14372:14384  ticketNumber */\n      dup2\n        /* \"Lottery.sol\":14372:14399  ticketNumber > totalTickets */\n      gt\n        /* \"Lottery.sol\":14351:14399  ticketNumber == 0 || ticketNumber > totalTickets */\n    tag_373:\n        /* \"Lottery.sol\":14347:14445  if (ticketNumber == 0 || ticketNumber > totalTickets)... */\n      iszero\n      tag_374\n      jumpi\n        /* \"Lottery.sol\":14424:14445  InvalidTicketNumber() */\n      mload(0x40)\n      0xaeaddff100000000000000000000000000000000000000000000000000000000\n      dup2\n      mstore\n      0x04\n      add\n      mload(0x40)\n      dup1\n      swap2\n      sub\n      swap1\n      revert\n        /* \"Lottery.sol\":14347:14445  if (ticketNumber == 0 || ticketNumber > totalTickets)... */\n    tag_374:\n        /* \"Lottery.sol\":14474:14486  ticketNumber */\n      dup1\n        /* \"Lottery.sol\":14459:14468  sanitized */\n      dup5\n        /* \"Lottery.sol\":14469:14470  i */\n      dup4\n        /* \"Lottery.sol\":14459:14471  sanitized[i] */\n      dup2\n      mload\n      dup2\n      lt\n      tag_375\n      jumpi\n      tag_376\n      tag_158\n      jump\t// in\n    tag_376:\n    tag_375:\n      0x20\n      mul\n      0x20\n      add\n      add\n        /* \"Lottery.sol\":14459:14486  sanitized[i] = ticketNumber */\n      dup2\n      dup2\n      mstore\n      pop\n      pop\n        /* \"Lottery.sol\":14280:14497  {... */\n      pop\n        /* \"Lottery.sol\":14275:14278  i++ */\n      dup1\n      dup1\n      0x01\n      add\n      swap2\n      pop\n      pop\n        /* \"Lottery.sol\":14244:14497  for (uint256 i = 0; i < count; i++) {... */\n      jump(tag_368)\n    tag_369:\n      pop\n        /* \"Lottery.sol\":14146:14503  {... */\n      pop\n        /* \"Lottery.sol\":13985:14503  function _validateTicketNumbers(... */\n      swap4\n      swap3\n      pop\n      pop\n      pop\n      jump\t// out\n        /* \"Lottery.sol\":14509:15447  function _mintTickets(... */\n    tag_350:\n        /* \"Lottery.sol\":14682:14708  uint256[] memory ticketIds */\n      0x60\n        /* \"Lottery.sol\":14720:14733  uint256 count */\n      0x00\n        /* \"Lottery.sol\":14736:14749  ticketNumbers */\n      dup3\n        /* \"Lottery.sol\":14736:14756  ticketNumbers.length */\n      mload\n        /* \"Lottery.sol\":14720:14756  uint256 count = ticketNumbers.length */\n      swap1\n      pop\n        /* \"Lottery.sol\":14792:14797  count */\n      dup1\n        /* \"Lottery.sol\":14778:14798  new uint256[](count) */\n      0xffffffffffffffff\n      dup2\n      gt\n      iszero\n      tag_378\n      jumpi\n      tag_379\n      tag_151\n      jump\t// in\n    tag_379:\n    tag_378:\n      mload(0x40)\n      swap1\n      dup1\n      dup3\n      mstore\n      dup1\n      0x20\n      mul\n      0x20\n      add\n      dup3\n      add\n      0x40\n      mstore\n      dup1\n      iszero\n      tag_380\n      jumpi\n      dup2\n      0x20\n      add\n      0x20\n      dup3\n      mul\n      dup1\n      calldatasize\n      dup4\n      calldatacopy\n      dup1\n      dup3\n      add\n      swap2\n      pop\n      pop\n      swap1\n      pop\n    tag_380:\n      pop\n        /* \"Lottery.sol\":14766:14798  ticketIds = new uint256[](count) */\n      swap2\n      pop\n        /* \"Lottery.sol\":14813:14822  uint256 i */\n      0x00\n        /* \"Lottery.sol\":14808:15441  for (uint256 i = 0; i < count; i++) {... */\n    tag_381:\n        /* \"Lottery.sol\":14832:14837  count */\n      dup2\n        /* \"Lottery.sol\":14828:14829  i */\n      dup2\n        /* \"Lottery.sol\":14828:14837  i < count */\n      lt\n        /* \"Lottery.sol\":14808:15441  for (uint256 i = 0; i < count; i++) {... */\n      iszero\n      tag_382\n      jumpi\n        /* \"Lottery.sol\":14858:14878  uint256 ticketNumber */\n      0x00\n        /* \"Lottery.sol\":14881:14894  ticketNumbers */\n      dup5\n        /* \"Lottery.sol\":14895:14896  i */\n      dup3\n        /* \"Lottery.sol\":14881:14897  ticketNumbers[i] */\n      dup2\n      mload\n      dup2\n      lt\n      tag_384\n      jumpi\n      tag_385\n      tag_158\n      jump\t// in\n    tag_385:\n    tag_384:\n      0x20\n      mul\n      0x20\n      add\n      add\n      mload\n        /* \"Lottery.sol\":14858:14897  uint256 ticketNumber = ticketNumbers[i] */\n      swap1\n      pop\n        /* \"Lottery.sol\":14931:14932  0 */\n      0x00\n        /* \"Lottery.sol\":14915:14927  ticketNumber */\n      dup2\n        /* \"Lottery.sol\":14915:14932  ticketNumber == 0 */\n      eq\n        /* \"Lottery.sol\":14915:14971  ticketNumber == 0 || ticketNumber > totalTicketsInSeries */\n      dup1\n      tag_386\n      jumpi\n      pop\n        /* \"Lottery.sol\":14951:14971  totalTicketsInSeries */\n      dup6\n        /* \"Lottery.sol\":14936:14948  ticketNumber */\n      dup2\n        /* \"Lottery.sol\":14936:14971  ticketNumber > totalTicketsInSeries */\n      gt\n        /* \"Lottery.sol\":14915:14971  ticketNumber == 0 || ticketNumber > totalTicketsInSeries */\n    tag_386:\n        /* \"Lottery.sol\":14911:15017  if (ticketNumber == 0 || ticketNumber > totalTicketsInSeries)... */\n      iszero\n      tag_387\n      jumpi\n        /* \"Lottery.sol\":14996:15017  InvalidTicketNumber() */\n      mload(0x40)\n      0xaeaddff100000000000000000000000000000000000000000000000000000000\n      dup2\n      mstore\n      0x04\n      add\n      mload(0x40)\n      dup1\n      swap2\n      sub\n      swap1\n      revert\n        /* \"Lottery.sol\":14911:15017  if (ticketNumber == 0 || ticketNumber > totalTicketsInSeries)... */\n    tag_387:\n        /* \"Lottery.sol\":15032:15055  uint256 currentTicketId */\n      0x00\n        /* \"Lottery.sol\":15078:15090  ticketNumber */\n      dup2\n        /* \"Lottery.sol\":15071:15074  128 */\n      0x80\n        /* \"Lottery.sol\":15059:15067  seriesId */\n      dup10\n        /* \"Lottery.sol\":15059:15074  seriesId << 128 */\n      swap1\n      shl\n        /* \"Lottery.sol\":15058:15090  (seriesId << 128) | ticketNumber */\n      or\n        /* \"Lottery.sol\":15032:15090  uint256 currentTicketId = (seriesId << 128) | ticketNumber */\n      swap1\n      pop\n        /* \"Lottery.sol\":15149:15150  0 */\n      0x00\n        /* \"Lottery.sol\":15108:15151  ticketOwners[currentTicketId] != address(0) */\n      0xffffffffffffffffffffffffffffffffffffffff\n      and\n        /* \"Lottery.sol\":15108:15120  ticketOwners */\n      0x07\n        /* \"Lottery.sol\":15108:15137  ticketOwners[currentTicketId] */\n      0x00\n        /* \"Lottery.sol\":15121:15136  currentTicketId */\n      dup4\n        /* \"Lottery.sol\":15108:15137  ticketOwners[currentTicketId] */\n      dup2\n      mstore\n      0x20\n      add\n      swap1\n      dup2\n      mstore\n      0x20\n      add\n      0x00\n      keccak256\n      0x00\n      swap1\n      sload\n      swap1\n      0x0100\n      exp\n      swap1\n      div\n      0xffffffffffffffffffffffffffffffffffffffff\n      and\n        /* \"Lottery.sol\":15108:15151  ticketOwners[currentTicketId] != address(0) */\n      0xffffffffffffffffffffffffffffffffffffffff\n      and\n      eq\n        /* \"Lottery.sol\":15104:15224  if (ticketOwners[currentTicketId] != address(0)) {... */\n      tag_388\n      jumpi\n        /* \"Lottery.sol\":15196:15208  ticketNumber */\n      dup2\n        /* \"Lottery.sol\":15178:15209  TicketAlreadySold(ticketNumber) */\n      mload(0x40)\n      0x8605b53e00000000000000000000000000000000000000000000000000000000\n      dup2\n      mstore\n      0x04\n      add\n      tag_389\n      swap2\n      swap1\n      tag_35\n      jump\t// in\n    tag_389:\n      mload(0x40)\n      dup1\n      swap2\n      sub\n      swap1\n      revert\n        /* \"Lottery.sol\":15104:15224  if (ticketOwners[currentTicketId] != address(0)) {... */\n    tag_388:\n        /* \"Lottery.sol\":15270:15275  buyer */\n      dup9\n        /* \"Lottery.sol\":15238:15250  ticketOwners */\n      0x07\n        /* \"Lottery.sol\":15238:15267  ticketOwners[currentTicketId] */\n      0x00\n        /* \"Lottery.sol\":15251:15266  currentTicketId */\n      dup4\n        /* \"Lottery.sol\":15238:15267  ticketOwners[currentTicketId] */\n      dup2\n      mstore\n      0x20\n      add\n      swap1\n      dup2\n      mstore\n      0x20\n      add\n      0x00\n      keccak256\n      0x00\n        /* \"Lottery.sol\":15238:15275  ticketOwners[currentTicketId] = buyer */\n      0x0100\n      exp\n      dup2\n      sload\n      dup2\n      0xffffffffffffffffffffffffffffffffffffffff\n      mul\n      not\n      and\n      swap1\n      dup4\n      0xffffffffffffffffffffffffffffffffffffffff\n      and\n      mul\n      or\n      swap1\n      sstore\n      pop\n        /* \"Lottery.sol\":15321:15329  seriesId */\n      dup8\n        /* \"Lottery.sol\":15289:15301  ticketSeries */\n      0x08\n        /* \"Lottery.sol\":15289:15318  ticketSeries[currentTicketId] */\n      0x00\n        /* \"Lottery.sol\":15302:15317  currentTicketId */\n      dup4\n        /* \"Lottery.sol\":15289:15318  ticketSeries[currentTicketId] */\n      dup2\n      mstore\n      0x20\n      add\n      swap1\n      dup2\n      mstore\n      0x20\n      add\n      0x00\n      keccak256\n        /* \"Lottery.sol\":15289:15329  ticketSeries[currentTicketId] = seriesId */\n      dup2\n      swap1\n      sstore\n      pop\n        /* \"Lottery.sol\":15343:15357  ownedTicketIds */\n      0x09\n        /* \"Lottery.sol\":15343:15364  ownedTicketIds[buyer] */\n      0x00\n        /* \"Lottery.sol\":15358:15363  buyer */\n      dup11\n        /* \"Lottery.sol\":15343:15364  ownedTicketIds[buyer] */\n      0xffffffffffffffffffffffffffffffffffffffff\n      and\n      0xffffffffffffffffffffffffffffffffffffffff\n      and\n      dup2\n      mstore\n      0x20\n      add\n      swap1\n      dup2\n      mstore\n      0x20\n      add\n      0x00\n      keccak256\n        /* \"Lottery.sol\":15370:15385  currentTicketId */\n      dup2\n        /* \"Lottery.sol\":15343:15386  ownedTicketIds[buyer].push(currentTicketId) */\n      swap1\n      dup1\n      0x01\n      dup2\n      sload\n      add\n      dup1\n      dup3\n      sstore\n      dup1\n      swap2\n      pop\n      pop\n      0x01\n      swap1\n      sub\n      swap1\n      0x00\n      mstore\n      keccak256(0x00, 0x20)\n      add\n      0x00\n      swap1\n      swap2\n      swap1\n      swap2\n      swap1\n      swap2\n      pop\n      sstore\n        /* \"Lottery.sol\":15415:15430  currentTicketId */\n      dup1\n        /* \"Lottery.sol\":15400:15409  ticketIds */\n      dup6\n        /* \"Lottery.sol\":15410:15411  i */\n      dup5\n        /* \"Lottery.sol\":15400:15412  ticketIds[i] */\n      dup2\n      mload\n      dup2\n      lt\n      tag_391\n      jumpi\n      tag_392\n      tag_158\n      jump\t// in\n    tag_392:\n    tag_391:\n      0x20\n      mul\n      0x20\n      add\n      add\n        /* \"Lottery.sol\":15400:15430  ticketIds[i] = currentTicketId */\n      dup2\n      dup2\n      mstore\n      pop\n      pop\n        /* \"Lottery.sol\":14844:15441  {... */\n      pop\n      pop\n        /* \"Lottery.sol\":14839:14842  i++ */\n      dup1\n      dup1\n      0x01\n      add\n      swap2\n      pop\n      pop\n        /* \"Lottery.sol\":14808:15441  for (uint256 i = 0; i < count; i++) {... */\n      jump(tag_381)\n    tag_382:\n      pop\n        /* \"Lottery.sol\":14710:15447  {... */\n      pop\n        /* \"Lottery.sol\":14509:15447  function _mintTickets(... */\n      swap5\n      swap4\n      pop\n      pop\n      pop\n      pop\n      jump\t// out\n    tag_220:\n      dup3\n      dup1\n      sload\n      dup3\n      dup3\n      sstore\n      swap1\n      0x00\n      mstore\n      keccak256(0x00, 0x20)\n      swap1\n      dup2\n      add\n      swap3\n      dup3\n      iszero\n      tag_393\n      jumpi\n      swap2\n      0x20\n      mul\n      dup3\n      add\n    tag_394:\n      dup3\n      dup2\n      gt\n      iszero\n      tag_395\n      jumpi\n      dup3\n      mload\n      dup3\n      sstore\n      swap2\n      0x20\n      add\n      swap2\n      swap1\n      0x01\n      add\n      swap1\n      jump(tag_394)\n    tag_395:\n    tag_393:\n      pop\n      swap1\n      pop\n      tag_396\n      swap2\n      swap1\n      tag_397\n      jump\t// in\n    tag_396:\n      pop\n      swap1\n      jump\t// out\n    tag_312:\n      mload(0x40)\n      dup1\n      0x0ca0\n      add\n      0x40\n      mstore\n      dup1\n      0x65\n      swap1\n      0x20\n      dup3\n      mul\n      dup1\n      calldatasize\n      dup4\n      calldatacopy\n      dup1\n      dup3\n      add\n      swap2\n      pop\n      pop\n      swap1\n      pop\n      pop\n      swap1\n      jump\t// out\n    tag_397:\n    tag_398:\n      dup1\n      dup3\n      gt\n      iszero\n      tag_399\n      jumpi\n      0x00\n      dup2\n      0x00\n      swap1\n      sstore\n      pop\n      0x01\n      add\n      jump(tag_398)\n    tag_399:\n      pop\n      swap1\n      jump\t// out\n        /* \"#utility.yul\":7:84   */\n    tag_400:\n        /* \"#utility.yul\":44:51   */\n      0x00\n        /* \"#utility.yul\":73:78   */\n      dup2\n        /* \"#utility.yul\":62:78   */\n      swap1\n      pop\n        /* \"#utility.yul\":7:84   */\n      swap2\n      swap1\n      pop\n      jump\t// out\n        /* \"#utility.yul\":90:208   */\n    tag_401:\n        /* \"#utility.yul\":177:201   */\n      tag_454\n        /* \"#utility.yul\":195:200   */\n      dup2\n        /* \"#utility.yul\":177:201   */\n      tag_400\n      jump\t// in\n    tag_454:\n        /* \"#utility.yul\":172:175   */\n      dup3\n        /* \"#utility.yul\":165:202   */\n      mstore\n        /* \"#utility.yul\":90:208   */\n      pop\n      pop\n      jump\t// out\n        /* \"#utility.yul\":214:436   */\n    tag_35:\n        /* \"#utility.yul\":307:311   */\n      0x00\n        /* \"#utility.yul\":345:347   */\n      0x20\n        /* \"#utility.yul\":334:343   */\n      dup3\n        /* \"#utility.yul\":330:348   */\n      add\n        /* \"#utility.yul\":322:348   */\n      swap1\n      pop\n        /* \"#utility.yul\":358:429   */\n      tag_456\n        /* \"#utility.yul\":426:427   */\n      0x00\n        /* \"#utility.yul\":415:424   */\n      dup4\n        /* \"#utility.yul\":411:428   */\n      add\n        /* \"#utility.yul\":402:408   */\n      dup5\n        /* \"#utility.yul\":358:429   */\n      tag_401\n      jump\t// in\n    tag_456:\n        /* \"#utility.yul\":214:436   */\n      swap3\n      swap2\n      pop\n      pop\n      jump\t// out\n        /* \"#utility.yul\":523:640   */\n    tag_403:\n        /* \"#utility.yul\":632:633   */\n      0x00\n        /* \"#utility.yul\":629:630   */\n      dup1\n        /* \"#utility.yul\":622:634   */\n      revert\n        /* \"#utility.yul\":646:763   */\n    tag_404:\n        /* \"#utility.yul\":755:756   */\n      0x00\n        /* \"#utility.yul\":752:753   */\n      dup1\n        /* \"#utility.yul\":745:757   */\n      revert\n        /* \"#utility.yul\":769:891   */\n    tag_405:\n        /* \"#utility.yul\":842:866   */\n      tag_461\n        /* \"#utility.yul\":860:865   */\n      dup2\n        /* \"#utility.yul\":842:866   */\n      tag_400\n      jump\t// in\n    tag_461:\n        /* \"#utility.yul\":835:840   */\n      dup2\n        /* \"#utility.yul\":832:867   */\n      eq\n        /* \"#utility.yul\":822:885   */\n      tag_462\n      jumpi\n        /* \"#utility.yul\":881:882   */\n      0x00\n        /* \"#utility.yul\":878:879   */\n      dup1\n        /* \"#utility.yul\":871:883   */\n      revert\n        /* \"#utility.yul\":822:885   */\n    tag_462:\n        /* \"#utility.yul\":769:891   */\n      pop\n      jump\t// out\n        /* \"#utility.yul\":897:1036   */\n    tag_406:\n        /* \"#utility.yul\":943:948   */\n      0x00\n        /* \"#utility.yul\":981:987   */\n      dup2\n        /* \"#utility.yul\":968:988   */\n      calldataload\n        /* \"#utility.yul\":959:988   */\n      swap1\n      pop\n        /* \"#utility.yul\":997:1030   */\n      tag_464\n        /* \"#utility.yul\":1024:1029   */\n      dup2\n        /* \"#utility.yul\":997:1030   */\n      tag_405\n      jump\t// in\n    tag_464:\n        /* \"#utility.yul\":897:1036   */\n      swap3\n      swap2\n      pop\n      pop\n      jump\t// out\n        /* \"#utility.yul\":1042:1371   */\n    tag_38:\n        /* \"#utility.yul\":1101:1107   */\n      0x00\n        /* \"#utility.yul\":1150:1152   */\n      0x20\n        /* \"#utility.yul\":1138:1147   */\n      dup3\n        /* \"#utility.yul\":1129:1136   */\n      dup5\n        /* \"#utility.yul\":1125:1148   */\n      sub\n        /* \"#utility.yul\":1121:1153   */\n      slt\n        /* \"#utility.yul\":1118:1237   */\n      iszero\n      tag_466\n      jumpi\n        /* \"#utility.yul\":1156:1235   */\n      tag_467\n      tag_403\n      jump\t// in\n    tag_467:\n        /* \"#utility.yul\":1118:1237   */\n    tag_466:\n        /* \"#utility.yul\":1276:1277   */\n      0x00\n        /* \"#utility.yul\":1301:1354   */\n      tag_468\n        /* \"#utility.yul\":1346:1353   */\n      dup5\n        /* \"#utility.yul\":1337:1343   */\n      dup3\n        /* \"#utility.yul\":1326:1335   */\n      dup6\n        /* \"#utility.yul\":1322:1344   */\n      add\n        /* \"#utility.yul\":1301:1354   */\n      tag_406\n      jump\t// in\n    tag_468:\n        /* \"#utility.yul\":1291:1354   */\n      swap2\n      pop\n        /* \"#utility.yul\":1247:1364   */\n      pop\n        /* \"#utility.yul\":1042:1371   */\n      swap3\n      swap2\n      pop\n      pop\n      jump\t// out\n        /* \"#utility.yul\":1377:1503   */\n    tag_407:\n        /* \"#utility.yul\":1414:1421   */\n      0x00\n        /* \"#utility.yul\":1454:1496   */\n      0xffffffffffffffffffffffffffffffffffffffff\n        /* \"#utility.yul\":1447:1452   */\n      dup3\n        /* \"#utility.yul\":1443:1497   */\n      and\n        /* \"#utility.yul\":1432:1497   */\n      swap1\n      pop\n        /* \"#utility.yul\":1377:1503   */\n      swap2\n      swap1\n      pop\n      jump\t// out\n        /* \"#utility.yul\":1509:1569   */\n    tag_408:\n        /* \"#utility.yul\":1537:1540   */\n      0x00\n        /* \"#utility.yul\":1558:1563   */\n      dup2\n        /* \"#utility.yul\":1551:1563   */\n      swap1\n      pop\n        /* \"#utility.yul\":1509:1569   */\n      swap2\n      swap1\n      pop\n      jump\t// out\n        /* \"#utility.yul\":1575:1717   */\n    tag_409:\n        /* \"#utility.yul\":1625:1634   */\n      0x00\n        /* \"#utility.yul\":1658:1711   */\n      tag_472\n        /* \"#utility.yul\":1676:1710   */\n      tag_473\n        /* \"#utility.yul\":1685:1709   */\n      tag_474\n        /* \"#utility.yul\":1703:1708   */\n      dup5\n        /* \"#utility.yul\":1685:1709   */\n      tag_407\n      jump\t// in\n    tag_474:\n        /* \"#utility.yul\":1676:1710   */\n      tag_408\n      jump\t// in\n    tag_473:\n        /* \"#utility.yul\":1658:1711   */\n      tag_407\n      jump\t// in\n    tag_472:\n        /* \"#utility.yul\":1645:1711   */\n      swap1\n      pop\n        /* \"#utility.yul\":1575:1717   */\n      swap2\n      swap1\n      pop\n      jump\t// out\n        /* \"#utility.yul\":1723:1849   */\n    tag_410:\n        /* \"#utility.yul\":1773:1782   */\n      0x00\n        /* \"#utility.yul\":1806:1843   */\n      tag_476\n        /* \"#utility.yul\":1837:1842   */\n      dup3\n        /* \"#utility.yul\":1806:1843   */\n      tag_409\n      jump\t// in\n    tag_476:\n        /* \"#utility.yul\":1793:1843   */\n      swap1\n      pop\n        /* \"#utility.yul\":1723:1849   */\n      swap2\n      swap1\n      pop\n      jump\t// out\n        /* \"#utility.yul\":1855:1996   */\n    tag_411:\n        /* \"#utility.yul\":1920:1929   */\n      0x00\n        /* \"#utility.yul\":1953:1990   */\n      tag_478\n        /* \"#utility.yul\":1984:1989   */\n      dup3\n        /* \"#utility.yul\":1953:1990   */\n      tag_410\n      jump\t// in\n    tag_478:\n        /* \"#utility.yul\":1940:1990   */\n      swap1\n      pop\n        /* \"#utility.yul\":1855:1996   */\n      swap2\n      swap1\n      pop\n      jump\t// out\n        /* \"#utility.yul\":2002:2163   */\n    tag_412:\n        /* \"#utility.yul\":2104:2156   */\n      tag_480\n        /* \"#utility.yul\":2150:2155   */\n      dup2\n        /* \"#utility.yul\":2104:2156   */\n      tag_411\n      jump\t// in\n    tag_480:\n        /* \"#utility.yul\":2099:2102   */\n      dup3\n        /* \"#utility.yul\":2092:2157   */\n      mstore\n        /* \"#utility.yul\":2002:2163   */\n      pop\n      pop\n      jump\t// out\n        /* \"#utility.yul\":2169:2421   */\n    tag_49:\n        /* \"#utility.yul\":2277:2281   */\n      0x00\n        /* \"#utility.yul\":2315:2317   */\n      0x20\n        /* \"#utility.yul\":2304:2313   */\n      dup3\n        /* \"#utility.yul\":2300:2318   */\n      add\n        /* \"#utility.yul\":2292:2318   */\n      swap1\n      pop\n        /* \"#utility.yul\":2328:2414   */\n      tag_482\n        /* \"#utility.yul\":2411:2412   */\n      0x00\n        /* \"#utility.yul\":2400:2409   */\n      dup4\n        /* \"#utility.yul\":2396:2413   */\n      add\n        /* \"#utility.yul\":2387:2393   */\n      dup5\n        /* \"#utility.yul\":2328:2414   */\n      tag_412\n      jump\t// in\n    tag_482:\n        /* \"#utility.yul\":2169:2421   */\n      swap3\n      swap2\n      pop\n      pop\n      jump\t// out\n        /* \"#utility.yul\":2427:2517   */\n    tag_413:\n        /* \"#utility.yul\":2461:2468   */\n      0x00\n        /* \"#utility.yul\":2504:2509   */\n      dup2\n        /* \"#utility.yul\":2497:2510   */\n      iszero\n        /* \"#utility.yul\":2490:2511   */\n      iszero\n        /* \"#utility.yul\":2479:2511   */\n      swap1\n      pop\n        /* \"#utility.yul\":2427:2517   */\n      swap2\n      swap1\n      pop\n      jump\t// out\n        /* \"#utility.yul\":2523:2632   */\n    tag_414:\n        /* \"#utility.yul\":2604:2625   */\n      tag_485\n        /* \"#utility.yul\":2619:2624   */\n      dup2\n        /* \"#utility.yul\":2604:2625   */\n      tag_413\n      jump\t// in\n    tag_485:\n        /* \"#utility.yul\":2599:2602   */\n      dup3\n        /* \"#utility.yul\":2592:2626   */\n      mstore\n        /* \"#utility.yul\":2523:2632   */\n      pop\n      pop\n      jump\t// out\n        /* \"#utility.yul\":2638:2752   */\n    tag_415:\n        /* \"#utility.yul\":2705:2711   */\n      0x00\n        /* \"#utility.yul\":2739:2744   */\n      dup2\n        /* \"#utility.yul\":2733:2745   */\n      mload\n        /* \"#utility.yul\":2723:2745   */\n      swap1\n      pop\n        /* \"#utility.yul\":2638:2752   */\n      swap2\n      swap1\n      pop\n      jump\t// out\n        /* \"#utility.yul\":2758:2942   */\n    tag_416:\n        /* \"#utility.yul\":2857:2868   */\n      0x00\n        /* \"#utility.yul\":2891:2897   */\n      dup3\n        /* \"#utility.yul\":2886:2889   */\n      dup3\n        /* \"#utility.yul\":2879:2898   */\n      mstore\n        /* \"#utility.yul\":2931:2935   */\n      0x20\n        /* \"#utility.yul\":2926:2929   */\n      dup3\n        /* \"#utility.yul\":2922:2936   */\n      add\n        /* \"#utility.yul\":2907:2936   */\n      swap1\n      pop\n        /* \"#utility.yul\":2758:2942   */\n      swap3\n      swap2\n      pop\n      pop\n      jump\t// out\n        /* \"#utility.yul\":2948:3080   */\n    tag_417:\n        /* \"#utility.yul\":3015:3019   */\n      0x00\n        /* \"#utility.yul\":3038:3041   */\n      dup2\n        /* \"#utility.yul\":3030:3041   */\n      swap1\n      pop\n        /* \"#utility.yul\":3068:3072   */\n      0x20\n        /* \"#utility.yul\":3063:3066   */\n      dup3\n        /* \"#utility.yul\":3059:3073   */\n      add\n        /* \"#utility.yul\":3051:3073   */\n      swap1\n      pop\n        /* \"#utility.yul\":2948:3080   */\n      swap2\n      swap1\n      pop\n      jump\t// out\n        /* \"#utility.yul\":3086:3194   */\n    tag_418:\n        /* \"#utility.yul\":3163:3187   */\n      tag_490\n        /* \"#utility.yul\":3181:3186   */\n      dup2\n        /* \"#utility.yul\":3163:3187   */\n      tag_400\n      jump\t// in\n    tag_490:\n        /* \"#utility.yul\":3158:3161   */\n      dup3\n        /* \"#utility.yul\":3151:3188   */\n      mstore\n        /* \"#utility.yul\":3086:3194   */\n      pop\n      pop\n      jump\t// out\n        /* \"#utility.yul\":3200:3379   */\n    tag_419:\n        /* \"#utility.yul\":3269:3279   */\n      0x00\n        /* \"#utility.yul\":3290:3336   */\n      tag_492\n        /* \"#utility.yul\":3332:3335   */\n      dup4\n        /* \"#utility.yul\":3324:3330   */\n      dup4\n        /* \"#utility.yul\":3290:3336   */\n      tag_418\n      jump\t// in\n    tag_492:\n        /* \"#utility.yul\":3368:3372   */\n      0x20\n        /* \"#utility.yul\":3363:3366   */\n      dup4\n        /* \"#utility.yul\":3359:3373   */\n      add\n        /* \"#utility.yul\":3345:3373   */\n      swap1\n      pop\n        /* \"#utility.yul\":3200:3379   */\n      swap3\n      swap2\n      pop\n      pop\n      jump\t// out\n        /* \"#utility.yul\":3385:3498   */\n    tag_420:\n        /* \"#utility.yul\":3455:3459   */\n      0x00\n        /* \"#utility.yul\":3487:3491   */\n      0x20\n        /* \"#utility.yul\":3482:3485   */\n      dup3\n        /* \"#utility.yul\":3478:3492   */\n      add\n        /* \"#utility.yul\":3470:3492   */\n      swap1\n      pop\n        /* \"#utility.yul\":3385:3498   */\n      swap2\n      swap1\n      pop\n      jump\t// out\n        /* \"#utility.yul\":3534:4266   */\n    tag_421:\n        /* \"#utility.yul\":3653:3656   */\n      0x00\n        /* \"#utility.yul\":3682:3736   */\n      tag_495\n        /* \"#utility.yul\":3730:3735   */\n      dup3\n        /* \"#utility.yul\":3682:3736   */\n      tag_415\n      jump\t// in\n    tag_495:\n        /* \"#utility.yul\":3752:3838   */\n      tag_496\n        /* \"#utility.yul\":3831:3837   */\n      dup2\n        /* \"#utility.yul\":3826:3829   */\n      dup6\n        /* \"#utility.yul\":3752:3838   */\n      tag_416\n      jump\t// in\n    tag_496:\n        /* \"#utility.yul\":3745:3838   */\n      swap4\n      pop\n        /* \"#utility.yul\":3862:3918   */\n      tag_497\n        /* \"#utility.yul\":3912:3917   */\n      dup4\n        /* \"#utility.yul\":3862:3918   */\n      tag_417\n      jump\t// in\n    tag_497:\n        /* \"#utility.yul\":3941:3948   */\n      dup1\n        /* \"#utility.yul\":3972:3973   */\n      0x00\n        /* \"#utility.yul\":3957:4241   */\n    tag_498:\n        /* \"#utility.yul\":3982:3988   */\n      dup4\n        /* \"#utility.yul\":3979:3980   */\n      dup2\n        /* \"#utility.yul\":3976:3989   */\n      lt\n        /* \"#utility.yul\":3957:4241   */\n      iszero\n      tag_500\n      jumpi\n        /* \"#utility.yul\":4058:4064   */\n      dup2\n        /* \"#utility.yul\":4052:4065   */\n      mload\n        /* \"#utility.yul\":4085:4148   */\n      tag_501\n        /* \"#utility.yul\":4144:4147   */\n      dup9\n        /* \"#utility.yul\":4129:4142   */\n      dup3\n        /* \"#utility.yul\":4085:4148   */\n      tag_419\n      jump\t// in\n    tag_501:\n        /* \"#utility.yul\":4078:4148   */\n      swap8\n      pop\n        /* \"#utility.yul\":4171:4231   */\n      tag_502\n        /* \"#utility.yul\":4224:4230   */\n      dup4\n        /* \"#utility.yul\":4171:4231   */\n      tag_420\n      jump\t// in\n    tag_502:\n        /* \"#utility.yul\":4161:4231   */\n      swap3\n      pop\n        /* \"#utility.yul\":4017:4241   */\n      pop\n        /* \"#utility.yul\":4004:4005   */\n      0x01\n        /* \"#utility.yul\":4001:4002   */\n      dup2\n        /* \"#utility.yul\":3997:4006   */\n      add\n        /* \"#utility.yul\":3992:4006   */\n      swap1\n      pop\n        /* \"#utility.yul\":3957:4241   */\n      jump(tag_498)\n    tag_500:\n        /* \"#utility.yul\":3961:3975   */\n      pop\n        /* \"#utility.yul\":4257:4260   */\n      dup6\n        /* \"#utility.yul\":4250:4260   */\n      swap4\n      pop\n        /* \"#utility.yul\":3658:4266   */\n      pop\n      pop\n      pop\n        /* \"#utility.yul\":3534:4266   */\n      swap3\n      swap2\n      pop\n      pop\n      jump\t// out\n        /* \"#utility.yul\":4272:5063   */\n    tag_59:\n        /* \"#utility.yul\":4515:4519   */\n      0x00\n        /* \"#utility.yul\":4553:4556   */\n      0xa0\n        /* \"#utility.yul\":4542:4551   */\n      dup3\n        /* \"#utility.yul\":4538:4557   */\n      add\n        /* \"#utility.yul\":4530:4557   */\n      swap1\n      pop\n        /* \"#utility.yul\":4567:4638   */\n      tag_504\n        /* \"#utility.yul\":4635:4636   */\n      0x00\n        /* \"#utility.yul\":4624:4633   */\n      dup4\n        /* \"#utility.yul\":4620:4637   */\n      add\n        /* \"#utility.yul\":4611:4617   */\n      dup9\n        /* \"#utility.yul\":4567:4638   */\n      tag_401\n      jump\t// in\n    tag_504:\n        /* \"#utility.yul\":4648:4720   */\n      tag_505\n        /* \"#utility.yul\":4716:4718   */\n      0x20\n        /* \"#utility.yul\":4705:4714   */\n      dup4\n        /* \"#utility.yul\":4701:4719   */\n      add\n        /* \"#utility.yul\":4692:4698   */\n      dup8\n        /* \"#utility.yul\":4648:4720   */\n      tag_401\n      jump\t// in\n    tag_505:\n        /* \"#utility.yul\":4730:4796   */\n      tag_506\n        /* \"#utility.yul\":4792:4794   */\n      0x40\n        /* \"#utility.yul\":4781:4790   */\n      dup4\n        /* \"#utility.yul\":4777:4795   */\n      add\n        /* \"#utility.yul\":4768:4774   */\n      dup7\n        /* \"#utility.yul\":4730:4796   */\n      tag_414\n      jump\t// in\n    tag_506:\n        /* \"#utility.yul\":4806:4872   */\n      tag_507\n        /* \"#utility.yul\":4868:4870   */\n      0x60\n        /* \"#utility.yul\":4857:4866   */\n      dup4\n        /* \"#utility.yul\":4853:4871   */\n      add\n        /* \"#utility.yul\":4844:4850   */\n      dup6\n        /* \"#utility.yul\":4806:4872   */\n      tag_414\n      jump\t// in\n    tag_507:\n        /* \"#utility.yul\":4920:4929   */\n      dup2\n        /* \"#utility.yul\":4914:4918   */\n      dup2\n        /* \"#utility.yul\":4910:4930   */\n      sub\n        /* \"#utility.yul\":4904:4907   */\n      0x80\n        /* \"#utility.yul\":4893:4902   */\n      dup4\n        /* \"#utility.yul\":4889:4908   */\n      add\n        /* \"#utility.yul\":4882:4931   */\n      mstore\n        /* \"#utility.yul\":4948:5056   */\n      tag_508\n        /* \"#utility.yul\":5051:5055   */\n      dup2\n        /* \"#utility.yul\":5042:5048   */\n      dup5\n        /* \"#utility.yul\":4948:5056   */\n      tag_421\n      jump\t// in\n    tag_508:\n        /* \"#utility.yul\":4940:5056   */\n      swap1\n      pop\n        /* \"#utility.yul\":4272:5063   */\n      swap7\n      swap6\n      pop\n      pop\n      pop\n      pop\n      pop\n      pop\n      jump\t// out\n        /* \"#utility.yul\":5069:5543   */\n    tag_68:\n        /* \"#utility.yul\":5137:5143   */\n      0x00\n        /* \"#utility.yul\":5145:5151   */\n      dup1\n        /* \"#utility.yul\":5194:5196   */\n      0x40\n        /* \"#utility.yul\":5182:5191   */\n      dup4\n        /* \"#utility.yul\":5173:5180   */\n      dup6\n        /* \"#utility.yul\":5169:5192   */\n      sub\n        /* \"#utility.yul\":5165:5197   */\n      slt\n        /* \"#utility.yul\":5162:5281   */\n      iszero\n      tag_510\n      jumpi\n        /* \"#utility.yul\":5200:5279   */\n      tag_511\n      tag_403\n      jump\t// in\n    tag_511:\n        /* \"#utility.yul\":5162:5281   */\n    tag_510:\n        /* \"#utility.yul\":5320:5321   */\n      0x00\n        /* \"#utility.yul\":5345:5398   */\n      tag_512\n        /* \"#utility.yul\":5390:5397   */\n      dup6\n        /* \"#utility.yul\":5381:5387   */\n      dup3\n        /* \"#utility.yul\":5370:5379   */\n      dup7\n        /* \"#utility.yul\":5366:5388   */\n      add\n        /* \"#utility.yul\":5345:5398   */\n      tag_406\n      jump\t// in\n    tag_512:\n        /* \"#utility.yul\":5335:5398   */\n      swap3\n      pop\n        /* \"#utility.yul\":5291:5408   */\n      pop\n        /* \"#utility.yul\":5447:5449   */\n      0x20\n        /* \"#utility.yul\":5473:5526   */\n      tag_513\n        /* \"#utility.yul\":5518:5525   */\n      dup6\n        /* \"#utility.yul\":5509:5515   */\n      dup3\n        /* \"#utility.yul\":5498:5507   */\n      dup7\n        /* \"#utility.yul\":5494:5516   */\n      add\n        /* \"#utility.yul\":5473:5526   */\n      tag_406\n      jump\t// in\n    tag_513:\n        /* \"#utility.yul\":5463:5526   */\n      swap2\n      pop\n        /* \"#utility.yul\":5418:5536   */\n      pop\n        /* \"#utility.yul\":5069:5543   */\n      swap3\n      pop\n      swap3\n      swap1\n      pop\n      jump\t// out\n        /* \"#utility.yul\":5549:5645   */\n    tag_422:\n        /* \"#utility.yul\":5586:5593   */\n      0x00\n        /* \"#utility.yul\":5615:5639   */\n      tag_515\n        /* \"#utility.yul\":5633:5638   */\n      dup3\n        /* \"#utility.yul\":5615:5639   */\n      tag_407\n      jump\t// in\n    tag_515:\n        /* \"#utility.yul\":5604:5639   */\n      swap1\n      pop\n        /* \"#utility.yul\":5549:5645   */\n      swap2\n      swap1\n      pop\n      jump\t// out\n        /* \"#utility.yul\":5651:5769   */\n    tag_423:\n        /* \"#utility.yul\":5738:5762   */\n      tag_517\n        /* \"#utility.yul\":5756:5761   */\n      dup2\n        /* \"#utility.yul\":5738:5762   */\n      tag_422\n      jump\t// in\n    tag_517:\n        /* \"#utility.yul\":5733:5736   */\n      dup3\n        /* \"#utility.yul\":5726:5763   */\n      mstore\n        /* \"#utility.yul\":5651:5769   */\n      pop\n      pop\n      jump\t// out\n        /* \"#utility.yul\":5775:5997   */\n    tag_76:\n        /* \"#utility.yul\":5868:5872   */\n      0x00\n        /* \"#utility.yul\":5906:5908   */\n      0x20\n        /* \"#utility.yul\":5895:5904   */\n      dup3\n        /* \"#utility.yul\":5891:5909   */\n      add\n        /* \"#utility.yul\":5883:5909   */\n      swap1\n      pop\n        /* \"#utility.yul\":5919:5990   */\n      tag_519\n        /* \"#utility.yul\":5987:5988   */\n      0x00\n        /* \"#utility.yul\":5976:5985   */\n      dup4\n        /* \"#utility.yul\":5972:5989   */\n      add\n        /* \"#utility.yul\":5963:5969   */\n      dup5\n        /* \"#utility.yul\":5919:5990   */\n      tag_423\n      jump\t// in\n    tag_519:\n        /* \"#utility.yul\":5775:5997   */\n      swap3\n      swap2\n      pop\n      pop\n      jump\t// out\n        /* \"#utility.yul\":6003:6125   */\n    tag_424:\n        /* \"#utility.yul\":6076:6100   */\n      tag_521\n        /* \"#utility.yul\":6094:6099   */\n      dup2\n        /* \"#utility.yul\":6076:6100   */\n      tag_422\n      jump\t// in\n    tag_521:\n        /* \"#utility.yul\":6069:6074   */\n      dup2\n        /* \"#utility.yul\":6066:6101   */\n      eq\n        /* \"#utility.yul\":6056:6119   */\n      tag_522\n      jumpi\n        /* \"#utility.yul\":6115:6116   */\n      0x00\n        /* \"#utility.yul\":6112:6113   */\n      dup1\n        /* \"#utility.yul\":6105:6117   */\n      revert\n        /* \"#utility.yul\":6056:6119   */\n    tag_522:\n        /* \"#utility.yul\":6003:6125   */\n      pop\n      jump\t// out\n        /* \"#utility.yul\":6131:6270   */\n    tag_425:\n        /* \"#utility.yul\":6177:6182   */\n      0x00\n        /* \"#utility.yul\":6215:6221   */\n      dup2\n        /* \"#utility.yul\":6202:6222   */\n      calldataload\n        /* \"#utility.yul\":6193:6222   */\n      swap1\n      pop\n        /* \"#utility.yul\":6231:6264   */\n      tag_524\n        /* \"#utility.yul\":6258:6263   */\n      dup2\n        /* \"#utility.yul\":6231:6264   */\n      tag_424\n      jump\t// in\n    tag_524:\n        /* \"#utility.yul\":6131:6270   */\n      swap3\n      swap2\n      pop\n      pop\n      jump\t// out\n        /* \"#utility.yul\":6276:6750   */\n    tag_85:\n        /* \"#utility.yul\":6344:6350   */\n      0x00\n        /* \"#utility.yul\":6352:6358   */\n      dup1\n        /* \"#utility.yul\":6401:6403   */\n      0x40\n        /* \"#utility.yul\":6389:6398   */\n      dup4\n        /* \"#utility.yul\":6380:6387   */\n      dup6\n        /* \"#utility.yul\":6376:6399   */\n      sub\n        /* \"#utility.yul\":6372:6404   */\n      slt\n        /* \"#utility.yul\":6369:6488   */\n      iszero\n      tag_526\n      jumpi\n        /* \"#utility.yul\":6407:6486   */\n      tag_527\n      tag_403\n      jump\t// in\n    tag_527:\n        /* \"#utility.yul\":6369:6488   */\n    tag_526:\n        /* \"#utility.yul\":6527:6528   */\n      0x00\n        /* \"#utility.yul\":6552:6605   */\n      tag_528\n        /* \"#utility.yul\":6597:6604   */\n      dup6\n        /* \"#utility.yul\":6588:6594   */\n      dup3\n        /* \"#utility.yul\":6577:6586   */\n      dup7\n        /* \"#utility.yul\":6573:6595   */\n      add\n        /* \"#utility.yul\":6552:6605   */\n      tag_425\n      jump\t// in\n    tag_528:\n        /* \"#utility.yul\":6542:6605   */\n      swap3\n      pop\n        /* \"#utility.yul\":6498:6615   */\n      pop\n        /* \"#utility.yul\":6654:6656   */\n      0x20\n        /* \"#utility.yul\":6680:6733   */\n      tag_529\n        /* \"#utility.yul\":6725:6732   */\n      dup6\n        /* \"#utility.yul\":6716:6722   */\n      dup3\n        /* \"#utility.yul\":6705:6714   */\n      dup7\n        /* \"#utility.yul\":6701:6723   */\n      add\n        /* \"#utility.yul\":6680:6733   */\n      tag_406\n      jump\t// in\n    tag_529:\n        /* \"#utility.yul\":6670:6733   */\n      swap2\n      pop\n        /* \"#utility.yul\":6625:6743   */\n      pop\n        /* \"#utility.yul\":6276:6750   */\n      swap3\n      pop\n      swap3\n      swap1\n      pop\n      jump\t// out\n        /* \"#utility.yul\":6756:6966   */\n    tag_91:\n        /* \"#utility.yul\":6843:6847   */\n      0x00\n        /* \"#utility.yul\":6881:6883   */\n      0x20\n        /* \"#utility.yul\":6870:6879   */\n      dup3\n        /* \"#utility.yul\":6866:6884   */\n      add\n        /* \"#utility.yul\":6858:6884   */\n      swap1\n      pop\n        /* \"#utility.yul\":6894:6959   */\n      tag_531\n        /* \"#utility.yul\":6956:6957   */\n      0x00\n        /* \"#utility.yul\":6945:6954   */\n      dup4\n        /* \"#utility.yul\":6941:6958   */\n      add\n        /* \"#utility.yul\":6932:6938   */\n      dup5\n        /* \"#utility.yul\":6894:6959   */\n      tag_414\n      jump\t// in\n    tag_531:\n        /* \"#utility.yul\":6756:6966   */\n      swap3\n      swap2\n      pop\n      pop\n      jump\t// out\n        /* \"#utility.yul\":6972:7301   */\n    tag_94:\n        /* \"#utility.yul\":7031:7037   */\n      0x00\n        /* \"#utility.yul\":7080:7082   */\n      0x20\n        /* \"#utility.yul\":7068:7077   */\n      dup3\n        /* \"#utility.yul\":7059:7066   */\n      dup5\n        /* \"#utility.yul\":7055:7078   */\n      sub\n        /* \"#utility.yul\":7051:7083   */\n      slt\n        /* \"#utility.yul\":7048:7167   */\n      iszero\n      tag_533\n      jumpi\n        /* \"#utility.yul\":7086:7165   */\n      tag_534\n      tag_403\n      jump\t// in\n    tag_534:\n        /* \"#utility.yul\":7048:7167   */\n    tag_533:\n        /* \"#utility.yul\":7206:7207   */\n      0x00\n        /* \"#utility.yul\":7231:7284   */\n      tag_535\n        /* \"#utility.yul\":7276:7283   */\n      dup5\n        /* \"#utility.yul\":7267:7273   */\n      dup3\n        /* \"#utility.yul\":7256:7265   */\n      dup6\n        /* \"#utility.yul\":7252:7274   */\n      add\n        /* \"#utility.yul\":7231:7284   */\n      tag_425\n      jump\t// in\n    tag_535:\n        /* \"#utility.yul\":7221:7284   */\n      swap2\n      pop\n        /* \"#utility.yul\":7177:7294   */\n      pop\n        /* \"#utility.yul\":6972:7301   */\n      swap3\n      swap2\n      pop\n      pop\n      jump\t// out\n        /* \"#utility.yul\":7307:7680   */\n    tag_97:\n        /* \"#utility.yul\":7450:7454   */\n      0x00\n        /* \"#utility.yul\":7488:7490   */\n      0x20\n        /* \"#utility.yul\":7477:7486   */\n      dup3\n        /* \"#utility.yul\":7473:7491   */\n      add\n        /* \"#utility.yul\":7465:7491   */\n      swap1\n      pop\n        /* \"#utility.yul\":7537:7546   */\n      dup2\n        /* \"#utility.yul\":7531:7535   */\n      dup2\n        /* \"#utility.yul\":7527:7547   */\n      sub\n        /* \"#utility.yul\":7523:7524   */\n      0x00\n        /* \"#utility.yul\":7512:7521   */\n      dup4\n        /* \"#utility.yul\":7508:7525   */\n      add\n        /* \"#utility.yul\":7501:7548   */\n      mstore\n        /* \"#utility.yul\":7565:7673   */\n      tag_537\n        /* \"#utility.yul\":7668:7672   */\n      dup2\n        /* \"#utility.yul\":7659:7665   */\n      dup5\n        /* \"#utility.yul\":7565:7673   */\n      tag_421\n      jump\t// in\n    tag_537:\n        /* \"#utility.yul\":7557:7673   */\n      swap1\n      pop\n        /* \"#utility.yul\":7307:7680   */\n      swap3\n      swap2\n      pop\n      pop\n      jump\t// out\n        /* \"#utility.yul\":7686:7803   */\n    tag_426:\n        /* \"#utility.yul\":7795:7796   */\n      0x00\n        /* \"#utility.yul\":7792:7793   */\n      dup1\n        /* \"#utility.yul\":7785:7797   */\n      revert\n        /* \"#utility.yul\":7809:7926   */\n    tag_427:\n        /* \"#utility.yul\":7918:7919   */\n      0x00\n        /* \"#utility.yul\":7915:7916   */\n      dup1\n        /* \"#utility.yul\":7908:7920   */\n      revert\n        /* \"#utility.yul\":7932:8049   */\n    tag_428:\n        /* \"#utility.yul\":8041:8042   */\n      0x00\n        /* \"#utility.yul\":8038:8039   */\n      dup1\n        /* \"#utility.yul\":8031:8043   */\n      revert\n        /* \"#utility.yul\":8072:8640   */\n    tag_429:\n        /* \"#utility.yul\":8145:8153   */\n      0x00\n        /* \"#utility.yul\":8155:8161   */\n      dup1\n        /* \"#utility.yul\":8205:8208   */\n      dup4\n        /* \"#utility.yul\":8198:8202   */\n      0x1f\n        /* \"#utility.yul\":8190:8196   */\n      dup5\n        /* \"#utility.yul\":8186:8203   */\n      add\n        /* \"#utility.yul\":8182:8209   */\n      slt\n        /* \"#utility.yul\":8172:8294   */\n      tag_542\n      jumpi\n        /* \"#utility.yul\":8213:8292   */\n      tag_543\n      tag_426\n      jump\t// in\n    tag_543:\n        /* \"#utility.yul\":8172:8294   */\n    tag_542:\n        /* \"#utility.yul\":8326:8332   */\n      dup3\n        /* \"#utility.yul\":8313:8333   */\n      calldataload\n        /* \"#utility.yul\":8303:8333   */\n      swap1\n      pop\n        /* \"#utility.yul\":8356:8374   */\n      0xffffffffffffffff\n        /* \"#utility.yul\":8348:8354   */\n      dup2\n        /* \"#utility.yul\":8345:8375   */\n      gt\n        /* \"#utility.yul\":8342:8459   */\n      iszero\n      tag_544\n      jumpi\n        /* \"#utility.yul\":8378:8457   */\n      tag_545\n      tag_427\n      jump\t// in\n    tag_545:\n        /* \"#utility.yul\":8342:8459   */\n    tag_544:\n        /* \"#utility.yul\":8492:8496   */\n      0x20\n        /* \"#utility.yul\":8484:8490   */\n      dup4\n        /* \"#utility.yul\":8480:8497   */\n      add\n        /* \"#utility.yul\":8468:8497   */\n      swap2\n      pop\n        /* \"#utility.yul\":8546:8549   */\n      dup4\n        /* \"#utility.yul\":8538:8542   */\n      0x20\n        /* \"#utility.yul\":8530:8536   */\n      dup3\n        /* \"#utility.yul\":8526:8543   */\n      mul\n        /* \"#utility.yul\":8516:8524   */\n      dup4\n        /* \"#utility.yul\":8512:8544   */\n      add\n        /* \"#utility.yul\":8509:8550   */\n      gt\n        /* \"#utility.yul\":8506:8634   */\n      iszero\n      tag_546\n      jumpi\n        /* \"#utility.yul\":8553:8632   */\n      tag_547\n      tag_428\n      jump\t// in\n    tag_547:\n        /* \"#utility.yul\":8506:8634   */\n    tag_546:\n        /* \"#utility.yul\":8072:8640   */\n      swap3\n      pop\n      swap3\n      swap1\n      pop\n      jump\t// out\n        /* \"#utility.yul\":8646:9350   */\n    tag_100:\n        /* \"#utility.yul\":8741:8747   */\n      0x00\n        /* \"#utility.yul\":8749:8755   */\n      dup1\n        /* \"#utility.yul\":8757:8763   */\n      0x00\n        /* \"#utility.yul\":8806:8808   */\n      0x40\n        /* \"#utility.yul\":8794:8803   */\n      dup5\n        /* \"#utility.yul\":8785:8792   */\n      dup7\n        /* \"#utility.yul\":8781:8804   */\n      sub\n        /* \"#utility.yul\":8777:8809   */\n      slt\n        /* \"#utility.yul\":8774:8893   */\n      iszero\n      tag_549\n      jumpi\n        /* \"#utility.yul\":8812:8891   */\n      tag_550\n      tag_403\n      jump\t// in\n    tag_550:\n        /* \"#utility.yul\":8774:8893   */\n    tag_549:\n        /* \"#utility.yul\":8932:8933   */\n      0x00\n        /* \"#utility.yul\":8957:9010   */\n      tag_551\n        /* \"#utility.yul\":9002:9009   */\n      dup7\n        /* \"#utility.yul\":8993:8999   */\n      dup3\n        /* \"#utility.yul\":8982:8991   */\n      dup8\n        /* \"#utility.yul\":8978:9000   */\n      add\n        /* \"#utility.yul\":8957:9010   */\n      tag_406\n      jump\t// in\n    tag_551:\n        /* \"#utility.yul\":8947:9010   */\n      swap4\n      pop\n        /* \"#utility.yul\":8903:9020   */\n      pop\n        /* \"#utility.yul\":9087:9089   */\n      0x20\n        /* \"#utility.yul\":9076:9085   */\n      dup5\n        /* \"#utility.yul\":9072:9090   */\n      add\n        /* \"#utility.yul\":9059:9091   */\n      calldataload\n        /* \"#utility.yul\":9118:9136   */\n      0xffffffffffffffff\n        /* \"#utility.yul\":9110:9116   */\n      dup2\n        /* \"#utility.yul\":9107:9137   */\n      gt\n        /* \"#utility.yul\":9104:9221   */\n      iszero\n      tag_552\n      jumpi\n        /* \"#utility.yul\":9140:9219   */\n      tag_553\n      tag_404\n      jump\t// in\n    tag_553:\n        /* \"#utility.yul\":9104:9221   */\n    tag_552:\n        /* \"#utility.yul\":9253:9333   */\n      tag_554\n        /* \"#utility.yul\":9325:9332   */\n      dup7\n        /* \"#utility.yul\":9316:9322   */\n      dup3\n        /* \"#utility.yul\":9305:9314   */\n      dup8\n        /* \"#utility.yul\":9301:9323   */\n      add\n        /* \"#utility.yul\":9253:9333   */\n      tag_429\n      jump\t// in\n    tag_554:\n        /* \"#utility.yul\":9235:9333   */\n      swap3\n      pop\n      swap3\n      pop\n        /* \"#utility.yul\":9030:9343   */\n      pop\n        /* \"#utility.yul\":8646:9350   */\n      swap3\n      pop\n      swap3\n      pop\n      swap3\n      jump\t// out\n        /* \"#utility.yul\":9356:9897   */\n    tag_124:\n        /* \"#utility.yul\":9527:9531   */\n      0x00\n        /* \"#utility.yul\":9565:9568   */\n      0x80\n        /* \"#utility.yul\":9554:9563   */\n      dup3\n        /* \"#utility.yul\":9550:9569   */\n      add\n        /* \"#utility.yul\":9542:9569   */\n      swap1\n      pop\n        /* \"#utility.yul\":9579:9650   */\n      tag_556\n        /* \"#utility.yul\":9647:9648   */\n      0x00\n        /* \"#utility.yul\":9636:9645   */\n      dup4\n        /* \"#utility.yul\":9632:9649   */\n      add\n        /* \"#utility.yul\":9623:9629   */\n      dup8\n        /* \"#utility.yul\":9579:9650   */\n      tag_401\n      jump\t// in\n    tag_556:\n        /* \"#utility.yul\":9660:9732   */\n      tag_557\n        /* \"#utility.yul\":9728:9730   */\n      0x20\n        /* \"#utility.yul\":9717:9726   */\n      dup4\n        /* \"#utility.yul\":9713:9731   */\n      add\n        /* \"#utility.yul\":9704:9710   */\n      dup7\n        /* \"#utility.yul\":9660:9732   */\n      tag_401\n      jump\t// in\n    tag_557:\n        /* \"#utility.yul\":9742:9808   */\n      tag_558\n        /* \"#utility.yul\":9804:9806   */\n      0x40\n        /* \"#utility.yul\":9793:9802   */\n      dup4\n        /* \"#utility.yul\":9789:9807   */\n      add\n        /* \"#utility.yul\":9780:9786   */\n      dup6\n        /* \"#utility.yul\":9742:9808   */\n      tag_414\n      jump\t// in\n    tag_558:\n        /* \"#utility.yul\":9818:9890   */\n      tag_559\n        /* \"#utility.yul\":9886:9888   */\n      0x60\n        /* \"#utility.yul\":9875:9884   */\n      dup4\n        /* \"#utility.yul\":9871:9889   */\n      add\n        /* \"#utility.yul\":9862:9868   */\n      dup5\n        /* \"#utility.yul\":9818:9890   */\n      tag_401\n      jump\t// in\n    tag_559:\n        /* \"#utility.yul\":9356:9897   */\n      swap6\n      swap5\n      pop\n      pop\n      pop\n      pop\n      pop\n      jump\t// out\n        /* \"#utility.yul\":9903:10083   */\n    tag_430:\n        /* \"#utility.yul\":9951:10028   */\n      0x4e487b7100000000000000000000000000000000000000000000000000000000\n        /* \"#utility.yul\":9948:9949   */\n      0x00\n        /* \"#utility.yul\":9941:10029   */\n      mstore\n        /* \"#utility.yul\":10048:10052   */\n      0x11\n        /* \"#utility.yul\":10045:10046   */\n      0x04\n        /* \"#utility.yul\":10038:10053   */\n      mstore\n        /* \"#utility.yul\":10072:10076   */\n      0x24\n        /* \"#utility.yul\":10069:10070   */\n      0x00\n        /* \"#utility.yul\":10062:10077   */\n      revert\n        /* \"#utility.yul\":10089:10280   */\n    tag_137:\n        /* \"#utility.yul\":10129:10132   */\n      0x00\n        /* \"#utility.yul\":10148:10168   */\n      tag_562\n        /* \"#utility.yul\":10166:10167   */\n      dup3\n        /* \"#utility.yul\":10148:10168   */\n      tag_400\n      jump\t// in\n    tag_562:\n        /* \"#utility.yul\":10143:10168   */\n      swap2\n      pop\n        /* \"#utility.yul\":10182:10202   */\n      tag_563\n        /* \"#utility.yul\":10200:10201   */\n      dup4\n        /* \"#utility.yul\":10182:10202   */\n      tag_400\n      jump\t// in\n    tag_563:\n        /* \"#utility.yul\":10177:10202   */\n      swap3\n      pop\n        /* \"#utility.yul\":10225:10226   */\n      dup3\n        /* \"#utility.yul\":10222:10223   */\n      dup3\n        /* \"#utility.yul\":10218:10227   */\n      add\n        /* \"#utility.yul\":10211:10227   */\n      swap1\n      pop\n        /* \"#utility.yul\":10246:10249   */\n      dup1\n        /* \"#utility.yul\":10243:10244   */\n      dup3\n        /* \"#utility.yul\":10240:10250   */\n      gt\n        /* \"#utility.yul\":10237:10273   */\n      iszero\n      tag_564\n      jumpi\n        /* \"#utility.yul\":10253:10271   */\n      tag_565\n      tag_430\n      jump\t// in\n    tag_565:\n        /* \"#utility.yul\":10237:10273   */\n    tag_564:\n        /* \"#utility.yul\":10089:10280   */\n      swap3\n      swap2\n      pop\n      pop\n      jump\t// out\n        /* \"#utility.yul\":10286:10466   */\n    tag_151:\n        /* \"#utility.yul\":10334:10411   */\n      0x4e487b7100000000000000000000000000000000000000000000000000000000\n        /* \"#utility.yul\":10331:10332   */\n      0x00\n        /* \"#utility.yul\":10324:10412   */\n      mstore\n        /* \"#utility.yul\":10431:10435   */\n      0x41\n        /* \"#utility.yul\":10428:10429   */\n      0x04\n        /* \"#utility.yul\":10421:10436   */\n      mstore\n        /* \"#utility.yul\":10455:10459   */\n      0x24\n        /* \"#utility.yul\":10452:10453   */\n      0x00\n        /* \"#utility.yul\":10445:10460   */\n      revert\n        /* \"#utility.yul\":10472:10652   */\n    tag_158:\n        /* \"#utility.yul\":10520:10597   */\n      0x4e487b7100000000000000000000000000000000000000000000000000000000\n        /* \"#utility.yul\":10517:10518   */\n      0x00\n        /* \"#utility.yul\":10510:10598   */\n      mstore\n        /* \"#utility.yul\":10617:10621   */\n      0x32\n        /* \"#utility.yul\":10614:10615   */\n      0x04\n        /* \"#utility.yul\":10607:10622   */\n      mstore\n        /* \"#utility.yul\":10641:10645   */\n      0x24\n        /* \"#utility.yul\":10638:10639   */\n      0x00\n        /* \"#utility.yul\":10631:10646   */\n      revert\n        /* \"#utility.yul\":10658:10891   */\n    tag_164:\n        /* \"#utility.yul\":10697:10700   */\n      0x00\n        /* \"#utility.yul\":10720:10744   */\n      tag_569\n        /* \"#utility.yul\":10738:10743   */\n      dup3\n        /* \"#utility.yul\":10720:10744   */\n      tag_400\n      jump\t// in\n    tag_569:\n        /* \"#utility.yul\":10711:10744   */\n      swap2\n      pop\n        /* \"#utility.yul\":10766:10832   */\n      0xffffffffffffffffffffffffffffffffffffffffffffffffffffffffffffffff\n        /* \"#utility.yul\":10759:10764   */\n      dup3\n        /* \"#utility.yul\":10756:10833   */\n      sub\n        /* \"#utility.yul\":10753:10856   */\n      tag_570\n      jumpi\n        /* \"#utility.yul\":10836:10854   */\n      tag_571\n      tag_430\n      jump\t// in\n    tag_571:\n        /* \"#utility.yul\":10753:10856   */\n    tag_570:\n        /* \"#utility.yul\":10883:10884   */\n      0x01\n        /* \"#utility.yul\":10876:10881   */\n      dup3\n        /* \"#utility.yul\":10872:10885   */\n      add\n        /* \"#utility.yul\":10865:10885   */\n      swap1\n      pop\n        /* \"#utility.yul\":10658:10891   */\n      swap2\n      swap1\n      pop\n      jump\t// out\n        /* \"#utility.yul\":10897:11307   */\n    tag_168:\n        /* \"#utility.yul\":10937:10944   */\n      0x00\n        /* \"#utility.yul\":10960:10980   */\n      tag_573\n        /* \"#utility.yul\":10978:10979   */\n      dup3\n        /* \"#utility.yul\":10960:10980   */\n      tag_400\n      jump\t// in\n    tag_573:\n        /* \"#utility.yul\":10955:10980   */\n      swap2\n      pop\n        /* \"#utility.yul\":10994:11014   */\n      tag_574\n        /* \"#utility.yul\":11012:11013   */\n      dup4\n        /* \"#utility.yul\":10994:11014   */\n      tag_400\n      jump\t// in\n    tag_574:\n        /* \"#utility.yul\":10989:11014   */\n      swap3\n      pop\n        /* \"#utility.yul\":11049:11050   */\n      dup3\n        /* \"#utility.yul\":11046:11047   */\n      dup3\n        /* \"#utility.yul\":11042:11051   */\n      mul\n        /* \"#utility.yul\":11071:11101   */\n      tag_575\n        /* \"#utility.yul\":11089:11100   */\n      dup2\n        /* \"#utility.yul\":11071:11101   */\n      tag_400\n      jump\t// in\n    tag_575:\n        /* \"#utility.yul\":11060:11101   */\n      swap2\n      pop\n        /* \"#utility.yul\":11250:11251   */\n      dup3\n        /* \"#utility.yul\":11241:11248   */\n      dup3\n        /* \"#utility.yul\":11237:11252   */\n      div\n        /* \"#utility.yul\":11234:11235   */\n      dup5\n        /* \"#utility.yul\":11231:11253   */\n      eq\n        /* \"#utility.yul\":11211:11212   */\n      dup4\n        /* \"#utility.yul\":11204:11213   */\n      iszero\n        /* \"#utility.yul\":11184:11267   */\n      or\n        /* \"#utility.yul\":11161:11300   */\n      tag_576\n      jumpi\n        /* \"#utility.yul\":11280:11298   */\n      tag_577\n      tag_430\n      jump\t// in\n    tag_577:\n        /* \"#utility.yul\":11161:11300   */\n    tag_576:\n        /* \"#utility.yul\":10945:11307   */\n      pop\n        /* \"#utility.yul\":10897:11307   */\n      swap3\n      swap2\n      pop\n      pop\n      jump\t// out\n        /* \"#utility.yul\":11313:11456   */\n    tag_431:\n        /* \"#utility.yul\":11370:11375   */\n      0x00\n        /* \"#utility.yul\":11401:11407   */\n      dup2\n        /* \"#utility.yul\":11395:11408   */\n      mload\n        /* \"#utility.yul\":11386:11408   */\n      swap1\n      pop\n        /* \"#utility.yul\":11417:11450   */\n      tag_579\n        /* \"#utility.yul\":11444:11449   */\n      dup2\n        /* \"#utility.yul\":11417:11450   */\n      tag_405\n      jump\t// in\n    tag_579:\n        /* \"#utility.yul\":11313:11456   */\n      swap3\n      swap2\n      pop\n      pop\n      jump\t// out\n        /* \"#utility.yul\":11462:11813   */\n    tag_174:\n        /* \"#utility.yul\":11532:11538   */\n      0x00\n        /* \"#utility.yul\":11581:11583   */\n      0x20\n        /* \"#utility.yul\":11569:11578   */\n      dup3\n        /* \"#utility.yul\":11560:11567   */\n      dup5\n        /* \"#utility.yul\":11556:11579   */\n      sub\n        /* \"#utility.yul\":11552:11584   */\n      slt\n        /* \"#utility.yul\":11549:11668   */\n      iszero\n      tag_581\n      jumpi\n        /* \"#utility.yul\":11587:11666   */\n      tag_582\n      tag_403\n      jump\t// in\n    tag_582:\n        /* \"#utility.yul\":11549:11668   */\n    tag_581:\n        /* \"#utility.yul\":11707:11708   */\n      0x00\n        /* \"#utility.yul\":11732:11796   */\n      tag_583\n        /* \"#utility.yul\":11788:11795   */\n      dup5\n        /* \"#utility.yul\":11779:11785   */\n      dup3\n        /* \"#utility.yul\":11768:11777   */\n      dup6\n        /* \"#utility.yul\":11764:11786   */\n      add\n        /* \"#utility.yul\":11732:11796   */\n      tag_431\n      jump\t// in\n    tag_583:\n        /* \"#utility.yul\":11722:11796   */\n      swap2\n      pop\n        /* \"#utility.yul\":11678:11806   */\n      pop\n        /* \"#utility.yul\":11462:11813   */\n      swap3\n      swap2\n      pop\n      pop\n      jump\t// out\n        /* \"#utility.yul\":11819:11999   */\n    tag_432:\n        /* \"#utility.yul\":11867:11944   */\n      0x4e487b7100000000000000000000000000000000000000000000000000000000\n        /* \"#utility.yul\":11864:11865   */\n      0x00\n        /* \"#utility.yul\":11857:11945   */\n      mstore\n        /* \"#utility.yul\":11964:11968   */\n      0x12\n        /* \"#utility.yul\":11961:11962   */\n      0x04\n        /* \"#utility.yul\":11954:11969   */\n      mstore\n        /* \"#utility.yul\":11988:11992   */\n      0x24\n        /* \"#utility.yul\":11985:11986   */\n      0x00\n        /* \"#utility.yul\":11978:11993   */\n      revert\n        /* \"#utility.yul\":12005:12190   */\n    tag_177:\n        /* \"#utility.yul\":12045:12046   */\n      0x00\n        /* \"#utility.yul\":12062:12082   */\n      tag_586\n        /* \"#utility.yul\":12080:12081   */\n      dup3\n        /* \"#utility.yul\":12062:12082   */\n      tag_400\n      jump\t// in\n    tag_586:\n        /* \"#utility.yul\":12057:12082   */\n      swap2\n      pop\n        /* \"#utility.yul\":12096:12116   */\n      tag_587\n        /* \"#utility.yul\":12114:12115   */\n      dup4\n        /* \"#utility.yul\":12096:12116   */\n      tag_400\n      jump\t// in\n    tag_587:\n        /* \"#utility.yul\":12091:12116   */\n      swap3\n      pop\n        /* \"#utility.yul\":12135:12136   */\n      dup3\n        /* \"#utility.yul\":12125:12160   */\n      tag_588\n      jumpi\n        /* \"#utility.yul\":12140:12158   */\n      tag_589\n      tag_432\n      jump\t// in\n    tag_589:\n        /* \"#utility.yul\":12125:12160   */\n    tag_588:\n        /* \"#utility.yul\":12182:12183   */\n      dup3\n        /* \"#utility.yul\":12179:12180   */\n      dup3\n        /* \"#utility.yul\":12175:12184   */\n      div\n        /* \"#utility.yul\":12170:12184   */\n      swap1\n      pop\n        /* \"#utility.yul\":12005:12190   */\n      swap3\n      swap2\n      pop\n      pop\n      jump\t// out\n        /* \"#utility.yul\":12196:12528   */\n    tag_188:\n        /* \"#utility.yul\":12317:12321   */\n      0x00\n        /* \"#utility.yul\":12355:12357   */\n      0x40\n        /* \"#utility.yul\":12344:12353   */\n      dup3\n        /* \"#utility.yul\":12340:12358   */\n      add\n        /* \"#utility.yul\":12332:12358   */\n      swap1\n      pop\n        /* \"#utility.yul\":12368:12439   */\n      tag_591\n        /* \"#utility.yul\":12436:12437   */\n      0x00\n        /* \"#utility.yul\":12425:12434   */\n      dup4\n        /* \"#utility.yul\":12421:12438   */\n      add\n        /* \"#utility.yul\":12412:12418   */\n      dup6\n        /* \"#utility.yul\":12368:12439   */\n      tag_423\n      jump\t// in\n    tag_591:\n        /* \"#utility.yul\":12449:12521   */\n      tag_592\n        /* \"#utility.yul\":12517:12519   */\n      0x20\n        /* \"#utility.yul\":12506:12515   */\n      dup4\n        /* \"#utility.yul\":12502:12520   */\n      add\n        /* \"#utility.yul\":12493:12499   */\n      dup5\n        /* \"#utility.yul\":12449:12521   */\n      tag_401\n      jump\t// in\n    tag_592:\n        /* \"#utility.yul\":12196:12528   */\n      swap4\n      swap3\n      pop\n      pop\n      pop\n      jump\t// out\n        /* \"#utility.yul\":12534:12650   */\n    tag_433:\n        /* \"#utility.yul\":12604:12625   */\n      tag_594\n        /* \"#utility.yul\":12619:12624   */\n      dup2\n        /* \"#utility.yul\":12604:12625   */\n      tag_413\n      jump\t// in\n    tag_594:\n        /* \"#utility.yul\":12597:12602   */\n      dup2\n        /* \"#utility.yul\":12594:12626   */\n      eq\n        /* \"#utility.yul\":12584:12644   */\n      tag_595\n      jumpi\n        /* \"#utility.yul\":12640:12641   */\n      0x00\n        /* \"#utility.yul\":12637:12638   */\n      dup1\n        /* \"#utility.yul\":12630:12642   */\n      revert\n        /* \"#utility.yul\":12584:12644   */\n    tag_595:\n        /* \"#utility.yul\":12534:12650   */\n      pop\n      jump\t// out\n        /* \"#utility.yul\":12656:12793   */\n    tag_434:\n        /* \"#utility.yul\":12710:12715   */\n      0x00\n        /* \"#utility.yul\":12741:12747   */\n      dup2\n        /* \"#utility.yul\":12735:12748   */\n      mload\n        /* \"#utility.yul\":12726:12748   */\n      swap1\n      pop\n        /* \"#utility.yul\":12757:12787   */\n      tag_597\n        /* \"#utility.yul\":12781:12786   */\n      dup2\n        /* \"#utility.yul\":12757:12787   */\n      tag_433\n      jump\t// in\n    tag_597:\n        /* \"#utility.yul\":12656:12793   */\n      swap3\n      swap2\n      pop\n      pop\n      jump\t// out\n        /* \"#utility.yul\":12799:13144   */\n    tag_192:\n        /* \"#utility.yul\":12866:12872   */\n      0x00\n        /* \"#utility.yul\":12915:12917   */\n      0x20\n        /* \"#utility.yul\":12903:12912   */\n      dup3\n        /* \"#utility.yul\":12894:12901   */\n      dup5\n        /* \"#utility.yul\":12890:12913   */\n      sub\n        /* \"#utility.yul\":12886:12918   */\n      slt\n        /* \"#utility.yul\":12883:13002   */\n      iszero\n      tag_599\n      jumpi\n        /* \"#utility.yul\":12921:13000   */\n      tag_600\n      tag_403\n      jump\t// in\n    tag_600:\n        /* \"#utility.yul\":12883:13002   */\n    tag_599:\n        /* \"#utility.yul\":13041:13042   */\n      0x00\n        /* \"#utility.yul\":13066:13127   */\n      tag_601\n        /* \"#utility.yul\":13119:13126   */\n      dup5\n        /* \"#utility.yul\":13110:13116   */\n      dup3\n        /* \"#utility.yul\":13099:13108   */\n      dup6\n        /* \"#utility.yul\":13095:13117   */\n      add\n        /* \"#utility.yul\":13066:13127   */\n      tag_434\n      jump\t// in\n    tag_601:\n        /* \"#utility.yul\":13056:13127   */\n      swap2\n      pop\n        /* \"#utility.yul\":13012:13137   */\n      pop\n        /* \"#utility.yul\":12799:13144   */\n      swap3\n      swap2\n      pop\n      pop\n      jump\t// out\n        /* \"#utility.yul\":13150:13264   */\n    tag_435:\n        /* \"#utility.yul\":13217:13223   */\n      0x00\n        /* \"#utility.yul\":13251:13256   */\n      dup2\n        /* \"#utility.yul\":13245:13257   */\n      mload\n        /* \"#utility.yul\":13235:13257   */\n      swap1\n      pop\n        /* \"#utility.yul\":13150:13264   */\n      swap2\n      swap1\n      pop\n      jump\t// out\n        /* \"#utility.yul\":13270:13454   */\n    tag_436:\n        /* \"#utility.yul\":13369:13380   */\n      0x00\n        /* \"#utility.yul\":13403:13409   */\n      dup3\n        /* \"#utility.yul\":13398:13401   */\n      dup3\n        /* \"#utility.yul\":13391:13410   */\n      mstore\n        /* \"#utility.yul\":13443:13447   */\n      0x20\n        /* \"#utility.yul\":13438:13441   */\n      dup3\n        /* \"#utility.yul\":13434:13448   */\n      add\n        /* \"#utility.yul\":13419:13448   */\n      swap1\n      pop\n        /* \"#utility.yul\":13270:13454   */\n      swap3\n      swap2\n      pop\n      pop\n      jump\t// out\n        /* \"#utility.yul\":13460:13592   */\n    tag_437:\n        /* \"#utility.yul\":13527:13531   */\n      0x00\n        /* \"#utility.yul\":13550:13553   */\n      dup2\n        /* \"#utility.yul\":13542:13553   */\n      swap1\n      pop\n        /* \"#utility.yul\":13580:13584   */\n      0x20\n        /* \"#utility.yul\":13575:13578   */\n      dup3\n        /* \"#utility.yul\":13571:13585   */\n      add\n        /* \"#utility.yul\":13563:13585   */\n      swap1\n      pop\n        /* \"#utility.yul\":13460:13592   */\n      swap2\n      swap1\n      pop\n      jump\t// out\n        /* \"#utility.yul\":13598:13706   */\n    tag_438:\n        /* \"#utility.yul\":13675:13699   */\n      tag_606\n        /* \"#utility.yul\":13693:13698   */\n      dup2\n        /* \"#utility.yul\":13675:13699   */\n      tag_422\n      jump\t// in\n    tag_606:\n        /* \"#utility.yul\":13670:13673   */\n      dup3\n        /* \"#utility.yul\":13663:13700   */\n      mstore\n        /* \"#utility.yul\":13598:13706   */\n      pop\n      pop\n      jump\t// out\n        /* \"#utility.yul\":13712:13891   */\n    tag_439:\n        /* \"#utility.yul\":13781:13791   */\n      0x00\n        /* \"#utility.yul\":13802:13848   */\n      tag_608\n        /* \"#utility.yul\":13844:13847   */\n      dup4\n        /* \"#utility.yul\":13836:13842   */\n      dup4\n        /* \"#utility.yul\":13802:13848   */\n      tag_438\n      jump\t// in\n    tag_608:\n        /* \"#utility.yul\":13880:13884   */\n      0x20\n        /* \"#utility.yul\":13875:13878   */\n      dup4\n        /* \"#utility.yul\":13871:13885   */\n      add\n        /* \"#utility.yul\":13857:13885   */\n      swap1\n      pop\n        /* \"#utility.yul\":13712:13891   */\n      swap3\n      swap2\n      pop\n      pop\n      jump\t// out\n        /* \"#utility.yul\":13897:14010   */\n    tag_440:\n        /* \"#utility.yul\":13967:13971   */\n      0x00\n        /* \"#utility.yul\":13999:14003   */\n      0x20\n        /* \"#utility.yul\":13994:13997   */\n      dup3\n        /* \"#utility.yul\":13990:14004   */\n      add\n        /* \"#utility.yul\":13982:14004   */\n      swap1\n      pop\n        /* \"#utility.yul\":13897:14010   */\n      swap2\n      swap1\n      pop\n      jump\t// out\n        /* \"#utility.yul\":14046:14778   */\n    tag_441:\n        /* \"#utility.yul\":14165:14168   */\n      0x00\n        /* \"#utility.yul\":14194:14248   */\n      tag_611\n        /* \"#utility.yul\":14242:14247   */\n      dup3\n        /* \"#utility.yul\":14194:14248   */\n      tag_435\n      jump\t// in\n    tag_611:\n        /* \"#utility.yul\":14264:14350   */\n      tag_612\n        /* \"#utility.yul\":14343:14349   */\n      dup2\n        /* \"#utility.yul\":14338:14341   */\n      dup6\n        /* \"#utility.yul\":14264:14350   */\n      tag_436\n      jump\t// in\n    tag_612:\n        /* \"#utility.yul\":14257:14350   */\n      swap4\n      pop\n        /* \"#utility.yul\":14374:14430   */\n      tag_613\n        /* \"#utility.yul\":14424:14429   */\n      dup4\n        /* \"#utility.yul\":14374:14430   */\n      tag_437\n      jump\t// in\n    tag_613:\n        /* \"#utility.yul\":14453:14460   */\n      dup1\n        /* \"#utility.yul\":14484:14485   */\n      0x00\n        /* \"#utility.yul\":14469:14753   */\n    tag_614:\n        /* \"#utility.yul\":14494:14500   */\n      dup4\n        /* \"#utility.yul\":14491:14492   */\n      dup2\n        /* \"#utility.yul\":14488:14501   */\n      lt\n        /* \"#utility.yul\":14469:14753   */\n      iszero\n      tag_616\n      jumpi\n        /* \"#utility.yul\":14570:14576   */\n      dup2\n        /* \"#utility.yul\":14564:14577   */\n      mload\n        /* \"#utility.yul\":14597:14660   */\n      tag_617\n        /* \"#utility.yul\":14656:14659   */\n      dup9\n        /* \"#utility.yul\":14641:14654   */\n      dup3\n        /* \"#utility.yul\":14597:14660   */\n      tag_439\n      jump\t// in\n    tag_617:\n        /* \"#utility.yul\":14590:14660   */\n      swap8\n      pop\n        /* \"#utility.yul\":14683:14743   */\n      tag_618\n        /* \"#utility.yul\":14736:14742   */\n      dup4\n        /* \"#utility.yul\":14683:14743   */\n      tag_440\n      jump\t// in\n    tag_618:\n        /* \"#utility.yul\":14673:14743   */\n      swap3\n      pop\n        /* \"#utility.yul\":14529:14753   */\n      pop\n        /* \"#utility.yul\":14516:14517   */\n      0x01\n        /* \"#utility.yul\":14513:14514   */\n      dup2\n        /* \"#utility.yul\":14509:14518   */\n      add\n        /* \"#utility.yul\":14504:14518   */\n      swap1\n      pop\n        /* \"#utility.yul\":14469:14753   */\n      jump(tag_614)\n    tag_616:\n        /* \"#utility.yul\":14473:14487   */\n      pop\n        /* \"#utility.yul\":14769:14772   */\n      dup6\n        /* \"#utility.yul\":14762:14772   */\n      swap4\n      pop\n        /* \"#utility.yul\":14170:14778   */\n      pop\n      pop\n      pop\n        /* \"#utility.yul\":14046:14778   */\n      swap3\n      swap2\n      pop\n      pop\n      jump\t// out\n        /* \"#utility.yul\":14784:15377   */\n    tag_198:\n        /* \"#utility.yul\":14983:14987   */\n      0x00\n        /* \"#utility.yul\":15021:15023   */\n      0x60\n        /* \"#utility.yul\":15010:15019   */\n      dup3\n        /* \"#utility.yul\":15006:15024   */\n      add\n        /* \"#utility.yul\":14998:15024   */\n      swap1\n      pop\n        /* \"#utility.yul\":15070:15079   */\n      dup2\n        /* \"#utility.yul\":15064:15068   */\n      dup2\n        /* \"#utility.yul\":15060:15080   */\n      sub\n        /* \"#utility.yul\":15056:15057   */\n      0x00\n        /* \"#utility.yul\":15045:15054   */\n      dup4\n        /* \"#utility.yul\":15041:15058   */\n      add\n        /* \"#utility.yul\":15034:15081   */\n      mstore\n        /* \"#utility.yul\":15098:15206   */\n      tag_620\n        /* \"#utility.yul\":15201:15205   */\n      dup2\n        /* \"#utility.yul\":15192:15198   */\n      dup7\n        /* \"#utility.yul\":15098:15206   */\n      tag_441\n      jump\t// in\n    tag_620:\n        /* \"#utility.yul\":15090:15206   */\n      swap1\n      pop\n        /* \"#utility.yul\":15216:15288   */\n      tag_621\n        /* \"#utility.yul\":15284:15286   */\n      0x20\n        /* \"#utility.yul\":15273:15282   */\n      dup4\n        /* \"#utility.yul\":15269:15287   */\n      add\n        /* \"#utility.yul\":15260:15266   */\n      dup6\n        /* \"#utility.yul\":15216:15288   */\n      tag_401\n      jump\t// in\n    tag_621:\n        /* \"#utility.yul\":15298:15370   */\n      tag_622\n        /* \"#utility.yul\":15366:15368   */\n      0x40\n        /* \"#utility.yul\":15355:15364   */\n      dup4\n        /* \"#utility.yul\":15351:15369   */\n      add\n        /* \"#utility.yul\":15342:15348   */\n      dup5\n        /* \"#utility.yul\":15298:15370   */\n      tag_401\n      jump\t// in\n    tag_622:\n        /* \"#utility.yul\":14784:15377   */\n      swap5\n      swap4\n      pop\n      pop\n      pop\n      pop\n      jump\t// out\n        /* \"#utility.yul\":15383:15577   */\n    tag_214:\n        /* \"#utility.yul\":15423:15427   */\n      0x00\n        /* \"#utility.yul\":15443:15463   */\n      tag_624\n        /* \"#utility.yul\":15461:15462   */\n      dup3\n        /* \"#utility.yul\":15443:15463   */\n      tag_400\n      jump\t// in\n    tag_624:\n        /* \"#utility.yul\":15438:15463   */\n      swap2\n      pop\n        /* \"#utility.yul\":15477:15497   */\n      tag_625\n        /* \"#utility.yul\":15495:15496   */\n      dup4\n        /* \"#utility.yul\":15477:15497   */\n      tag_400\n      jump\t// in\n    tag_625:\n        /* \"#utility.yul\":15472:15497   */\n      swap3\n      pop\n        /* \"#utility.yul\":15521:15522   */\n      dup3\n        /* \"#utility.yul\":15518:15519   */\n      dup3\n        /* \"#utility.yul\":15514:15523   */\n      sub\n        /* \"#utility.yul\":15506:15523   */\n      swap1\n      pop\n        /* \"#utility.yul\":15545:15546   */\n      dup2\n        /* \"#utility.yul\":15539:15543   */\n      dup2\n        /* \"#utility.yul\":15536:15547   */\n      gt\n        /* \"#utility.yul\":15533:15570   */\n      iszero\n      tag_626\n      jumpi\n        /* \"#utility.yul\":15550:15568   */\n      tag_627\n      tag_430\n      jump\t// in\n    tag_627:\n        /* \"#utility.yul\":15533:15570   */\n    tag_626:\n        /* \"#utility.yul\":15383:15577   */\n      swap3\n      swap2\n      pop\n      pop\n      jump\t// out\n        /* \"#utility.yul\":15583:15660   */\n    tag_442:\n        /* \"#utility.yul\":15620:15627   */\n      0x00\n        /* \"#utility.yul\":15649:15654   */\n      dup2\n        /* \"#utility.yul\":15638:15654   */\n      swap1\n      pop\n        /* \"#utility.yul\":15583:15660   */\n      swap2\n      swap1\n      pop\n      jump\t// out\n        /* \"#utility.yul\":15666:15745   */\n    tag_443:\n        /* \"#utility.yul\":15705:15712   */\n      0x00\n        /* \"#utility.yul\":15734:15739   */\n      dup2\n        /* \"#utility.yul\":15723:15739   */\n      swap1\n      pop\n        /* \"#utility.yul\":15666:15745   */\n      swap2\n      swap1\n      pop\n      jump\t// out\n        /* \"#utility.yul\":15751:15908   */\n    tag_444:\n        /* \"#utility.yul\":15856:15901   */\n      tag_631\n        /* \"#utility.yul\":15876:15900   */\n      tag_632\n        /* \"#utility.yul\":15894:15899   */\n      dup3\n        /* \"#utility.yul\":15876:15900   */\n      tag_442\n      jump\t// in\n    tag_632:\n        /* \"#utility.yul\":15856:15901   */\n      tag_443\n      jump\t// in\n    tag_631:\n        /* \"#utility.yul\":15851:15854   */\n      dup3\n        /* \"#utility.yul\":15844:15902   */\n      mstore\n        /* \"#utility.yul\":15751:15908   */\n      pop\n      pop\n      jump\t// out\n        /* \"#utility.yul\":15914:15993   */\n    tag_445:\n        /* \"#utility.yul\":15953:15960   */\n      0x00\n        /* \"#utility.yul\":15982:15987   */\n      dup2\n        /* \"#utility.yul\":15971:15987   */\n      swap1\n      pop\n        /* \"#utility.yul\":15914:15993   */\n      swap2\n      swap1\n      pop\n      jump\t// out\n        /* \"#utility.yul\":15999:16156   */\n    tag_446:\n        /* \"#utility.yul\":16104:16149   */\n      tag_635\n        /* \"#utility.yul\":16124:16148   */\n      tag_636\n        /* \"#utility.yul\":16142:16147   */\n      dup3\n        /* \"#utility.yul\":16124:16148   */\n      tag_400\n      jump\t// in\n    tag_636:\n        /* \"#utility.yul\":16104:16149   */\n      tag_445\n      jump\t// in\n    tag_635:\n        /* \"#utility.yul\":16099:16102   */\n      dup3\n        /* \"#utility.yul\":16092:16150   */\n      mstore\n        /* \"#utility.yul\":15999:16156   */\n      pop\n      pop\n      jump\t// out\n        /* \"#utility.yul\":16162:16256   */\n    tag_447:\n        /* \"#utility.yul\":16195:16203   */\n      0x00\n        /* \"#utility.yul\":16243:16248   */\n      dup2\n        /* \"#utility.yul\":16239:16241   */\n      0x60\n        /* \"#utility.yul\":16235:16249   */\n      shl\n        /* \"#utility.yul\":16214:16249   */\n      swap1\n      pop\n        /* \"#utility.yul\":16162:16256   */\n      swap2\n      swap1\n      pop\n      jump\t// out\n        /* \"#utility.yul\":16262:16356   */\n    tag_448:\n        /* \"#utility.yul\":16301:16308   */\n      0x00\n        /* \"#utility.yul\":16330:16350   */\n      tag_639\n        /* \"#utility.yul\":16344:16349   */\n      dup3\n        /* \"#utility.yul\":16330:16350   */\n      tag_447\n      jump\t// in\n    tag_639:\n        /* \"#utility.yul\":16319:16350   */\n      swap1\n      pop\n        /* \"#utility.yul\":16262:16356   */\n      swap2\n      swap1\n      pop\n      jump\t// out\n        /* \"#utility.yul\":16362:16462   */\n    tag_449:\n        /* \"#utility.yul\":16401:16408   */\n      0x00\n        /* \"#utility.yul\":16430:16456   */\n      tag_641\n        /* \"#utility.yul\":16450:16455   */\n      dup3\n        /* \"#utility.yul\":16430:16456   */\n      tag_448\n      jump\t// in\n    tag_641:\n        /* \"#utility.yul\":16419:16456   */\n      swap1\n      pop\n        /* \"#utility.yul\":16362:16462   */\n      swap2\n      swap1\n      pop\n      jump\t// out\n        /* \"#utility.yul\":16468:16625   */\n    tag_450:\n        /* \"#utility.yul\":16573:16618   */\n      tag_643\n        /* \"#utility.yul\":16593:16617   */\n      tag_644\n        /* \"#utility.yul\":16611:16616   */\n      dup3\n        /* \"#utility.yul\":16593:16617   */\n      tag_422\n      jump\t// in\n    tag_644:\n        /* \"#utility.yul\":16573:16618   */\n      tag_449\n      jump\t// in\n    tag_643:\n        /* \"#utility.yul\":16568:16571   */\n      dup3\n        /* \"#utility.yul\":16561:16619   */\n      mstore\n        /* \"#utility.yul\":16468:16625   */\n      pop\n      pop\n      jump\t// out\n        /* \"#utility.yul\":16631:17592   */\n    tag_216:\n        /* \"#utility.yul\":16883:16886   */\n      0x00\n        /* \"#utility.yul\":16898:16973   */\n      tag_646\n        /* \"#utility.yul\":16969:16972   */\n      dup3\n        /* \"#utility.yul\":16960:16966   */\n      dup10\n        /* \"#utility.yul\":16898:16973   */\n      tag_444\n      jump\t// in\n    tag_646:\n        /* \"#utility.yul\":16998:17000   */\n      0x20\n        /* \"#utility.yul\":16993:16996   */\n      dup3\n        /* \"#utility.yul\":16989:17001   */\n      add\n        /* \"#utility.yul\":16982:17001   */\n      swap2\n      pop\n        /* \"#utility.yul\":17011:17086   */\n      tag_647\n        /* \"#utility.yul\":17082:17085   */\n      dup3\n        /* \"#utility.yul\":17073:17079   */\n      dup9\n        /* \"#utility.yul\":17011:17086   */\n      tag_446\n      jump\t// in\n    tag_647:\n        /* \"#utility.yul\":17111:17113   */\n      0x20\n        /* \"#utility.yul\":17106:17109   */\n      dup3\n        /* \"#utility.yul\":17102:17114   */\n      add\n        /* \"#utility.yul\":17095:17114   */\n      swap2\n      pop\n        /* \"#utility.yul\":17124:17199   */\n      tag_648\n        /* \"#utility.yul\":17195:17198   */\n      dup3\n        /* \"#utility.yul\":17186:17192   */\n      dup8\n        /* \"#utility.yul\":17124:17199   */\n      tag_446\n      jump\t// in\n    tag_648:\n        /* \"#utility.yul\":17224:17226   */\n      0x20\n        /* \"#utility.yul\":17219:17222   */\n      dup3\n        /* \"#utility.yul\":17215:17227   */\n      add\n        /* \"#utility.yul\":17208:17227   */\n      swap2\n      pop\n        /* \"#utility.yul\":17237:17312   */\n      tag_649\n        /* \"#utility.yul\":17308:17311   */\n      dup3\n        /* \"#utility.yul\":17299:17305   */\n      dup7\n        /* \"#utility.yul\":17237:17312   */\n      tag_450\n      jump\t// in\n    tag_649:\n        /* \"#utility.yul\":17337:17339   */\n      0x14\n        /* \"#utility.yul\":17332:17335   */\n      dup3\n        /* \"#utility.yul\":17328:17340   */\n      add\n        /* \"#utility.yul\":17321:17340   */\n      swap2\n      pop\n        /* \"#utility.yul\":17350:17425   */\n      tag_650\n        /* \"#utility.yul\":17421:17424   */\n      dup3\n        /* \"#utility.yul\":17412:17418   */\n      dup6\n        /* \"#utility.yul\":17350:17425   */\n      tag_446\n      jump\t// in\n    tag_650:\n        /* \"#utility.yul\":17450:17452   */\n      0x20\n        /* \"#utility.yul\":17445:17448   */\n      dup3\n        /* \"#utility.yul\":17441:17453   */\n      add\n        /* \"#utility.yul\":17434:17453   */\n      swap2\n      pop\n        /* \"#utility.yul\":17463:17538   */\n      tag_651\n        /* \"#utility.yul\":17534:17537   */\n      dup3\n        /* \"#utility.yul\":17525:17531   */\n      dup5\n        /* \"#utility.yul\":17463:17538   */\n      tag_446\n      jump\t// in\n    tag_651:\n        /* \"#utility.yul\":17563:17565   */\n      0x20\n        /* \"#utility.yul\":17558:17561   */\n      dup3\n        /* \"#utility.yul\":17554:17566   */\n      add\n        /* \"#utility.yul\":17547:17566   */\n      swap2\n      pop\n        /* \"#utility.yul\":17583:17586   */\n      dup2\n        /* \"#utility.yul\":17576:17586   */\n      swap1\n      pop\n        /* \"#utility.yul\":16631:17592   */\n      swap8\n      swap7\n      pop\n      pop\n      pop\n      pop\n      pop\n      pop\n      pop\n      jump\t// out\n        /* \"#utility.yul\":17598:18081   */\n    tag_222:\n        /* \"#utility.yul\":17769:17773   */\n      0x00\n        /* \"#utility.yul\":17807:17809   */\n      0x40\n        /* \"#utility.yul\":17796:17805   */\n      dup3\n        /* \"#utility.yul\":17792:17810   */\n      add\n        /* \"#utility.yul\":17784:17810   */\n      swap1\n      pop\n        /* \"#utility.yul\":17856:17865   */\n      dup2\n        /* \"#utility.yul\":17850:17854   */\n      dup2\n        /* \"#utility.yul\":17846:17866   */\n      sub\n        /* \"#utility.yul\":17842:17843   */\n      0x00\n        /* \"#utility.yul\":17831:17840   */\n      dup4\n        /* \"#utility.yul\":17827:17844   */\n      add\n        /* \"#utility.yul\":17820:17867   */\n      mstore\n        /* \"#utility.yul\":17884:17992   */\n      tag_653\n        /* \"#utility.yul\":17987:17991   */\n      dup2\n        /* \"#utility.yul\":17978:17984   */\n      dup6\n        /* \"#utility.yul\":17884:17992   */\n      tag_421\n      jump\t// in\n    tag_653:\n        /* \"#utility.yul\":17876:17992   */\n      swap1\n      pop\n        /* \"#utility.yul\":18002:18074   */\n      tag_654\n        /* \"#utility.yul\":18070:18072   */\n      0x20\n        /* \"#utility.yul\":18059:18068   */\n      dup4\n        /* \"#utility.yul\":18055:18073   */\n      add\n        /* \"#utility.yul\":18046:18052   */\n      dup5\n        /* \"#utility.yul\":18002:18074   */\n      tag_401\n      jump\t// in\n    tag_654:\n        /* \"#utility.yul\":17598:18081   */\n      swap4\n      swap3\n      pop\n      pop\n      pop\n      jump\t// out\n        /* \"#utility.yul\":18087:18484   */\n    tag_316:\n        /* \"#utility.yul\":18227:18230   */\n      0x00\n        /* \"#utility.yul\":18242:18317   */\n      tag_656\n        /* \"#utility.yul\":18313:18316   */\n      dup3\n        /* \"#utility.yul\":18304:18310   */\n      dup6\n        /* \"#utility.yul\":18242:18317   */\n      tag_446\n      jump\t// in\n    tag_656:\n        /* \"#utility.yul\":18342:18344   */\n      0x20\n        /* \"#utility.yul\":18337:18340   */\n      dup3\n        /* \"#utility.yul\":18333:18345   */\n      add\n        /* \"#utility.yul\":18326:18345   */\n      swap2\n      pop\n        /* \"#utility.yul\":18355:18430   */\n      tag_657\n        /* \"#utility.yul\":18426:18429   */\n      dup3\n        /* \"#utility.yul\":18417:18423   */\n      dup5\n        /* \"#utility.yul\":18355:18430   */\n      tag_446\n      jump\t// in\n    tag_657:\n        /* \"#utility.yul\":18455:18457   */\n      0x20\n        /* \"#utility.yul\":18450:18453   */\n      dup3\n        /* \"#utility.yul\":18446:18458   */\n      add\n        /* \"#utility.yul\":18439:18458   */\n      swap2\n      pop\n        /* \"#utility.yul\":18475:18478   */\n      dup2\n        /* \"#utility.yul\":18468:18478   */\n      swap1\n      pop\n        /* \"#utility.yul\":18087:18484   */\n      swap4\n      swap3\n      pop\n      pop\n      pop\n      jump\t// out\n        /* \"#utility.yul\":18490:18666   */\n    tag_318:\n        /* \"#utility.yul\":18522:18523   */\n      0x00\n        /* \"#utility.yul\":18539:18559   */\n      tag_659\n        /* \"#utility.yul\":18557:18558   */\n      dup3\n        /* \"#utility.yul\":18539:18559   */\n      tag_400\n      jump\t// in\n    tag_659:\n        /* \"#utility.yul\":18534:18559   */\n      swap2\n      pop\n        /* \"#utility.yul\":18573:18593   */\n      tag_660\n        /* \"#utility.yul\":18591:18592   */\n      dup4\n        /* \"#utility.yul\":18573:18593   */\n      tag_400\n      jump\t// in\n    tag_660:\n        /* \"#utility.yul\":18568:18593   */\n      swap3\n      pop\n        /* \"#utility.yul\":18612:18613   */\n      dup3\n        /* \"#utility.yul\":18602:18637   */\n      tag_661\n      jumpi\n        /* \"#utility.yul\":18617:18635   */\n      tag_662\n      tag_432\n      jump\t// in\n    tag_662:\n        /* \"#utility.yul\":18602:18637   */\n    tag_661:\n        /* \"#utility.yul\":18658:18659   */\n      dup3\n        /* \"#utility.yul\":18655:18656   */\n      dup3\n        /* \"#utility.yul\":18651:18660   */\n      mod\n        /* \"#utility.yul\":18646:18660   */\n      swap1\n      pop\n        /* \"#utility.yul\":18490:18666   */\n      swap3\n      swap2\n      pop\n      pop\n      jump\t// out\n        /* \"#utility.yul\":18672:19351   */\n    tag_335:\n        /* \"#utility.yul\":18868:18871   */\n      0x00\n        /* \"#utility.yul\":18883:18958   */\n      tag_664\n        /* \"#utility.yul\":18954:18957   */\n      dup3\n        /* \"#utility.yul\":18945:18951   */\n      dup8\n        /* \"#utility.yul\":18883:18958   */\n      tag_446\n      jump\t// in\n    tag_664:\n        /* \"#utility.yul\":18983:18985   */\n      0x20\n        /* \"#utility.yul\":18978:18981   */\n      dup3\n        /* \"#utility.yul\":18974:18986   */\n      add\n        /* \"#utility.yul\":18967:18986   */\n      swap2\n      pop\n        /* \"#utility.yul\":18996:19071   */\n      tag_665\n        /* \"#utility.yul\":19067:19070   */\n      dup3\n        /* \"#utility.yul\":19058:19064   */\n      dup7\n        /* \"#utility.yul\":18996:19071   */\n      tag_446\n      jump\t// in\n    tag_665:\n        /* \"#utility.yul\":19096:19098   */\n      0x20\n        /* \"#utility.yul\":19091:19094   */\n      dup3\n        /* \"#utility.yul\":19087:19099   */\n      add\n        /* \"#utility.yul\":19080:19099   */\n      swap2\n      pop\n        /* \"#utility.yul\":19109:19184   */\n      tag_666\n        /* \"#utility.yul\":19180:19183   */\n      dup3\n        /* \"#utility.yul\":19171:19177   */\n      dup6\n        /* \"#utility.yul\":19109:19184   */\n      tag_446\n      jump\t// in\n    tag_666:\n        /* \"#utility.yul\":19209:19211   */\n      0x20\n        /* \"#utility.yul\":19204:19207   */\n      dup3\n        /* \"#utility.yul\":19200:19212   */\n      add\n        /* \"#utility.yul\":19193:19212   */\n      swap2\n      pop\n        /* \"#utility.yul\":19222:19297   */\n      tag_667\n        /* \"#utility.yul\":19293:19296   */\n      dup3\n        /* \"#utility.yul\":19284:19290   */\n      dup5\n        /* \"#utility.yul\":19222:19297   */\n      tag_446\n      jump\t// in\n    tag_667:\n        /* \"#utility.yul\":19322:19324   */\n      0x20\n        /* \"#utility.yul\":19317:19320   */\n      dup3\n        /* \"#utility.yul\":19313:19325   */\n      add\n        /* \"#utility.yul\":19306:19325   */\n      swap2\n      pop\n        /* \"#utility.yul\":19342:19345   */\n      dup2\n        /* \"#utility.yul\":19335:19345   */\n      swap1\n      pop\n        /* \"#utility.yul\":18672:19351   */\n      swap6\n      swap5\n      pop\n      pop\n      pop\n      pop\n      pop\n      jump\t// out\n        /* \"#utility.yul\":19357:19950   */\n    tag_355:\n        /* \"#utility.yul\":19556:19560   */\n      0x00\n        /* \"#utility.yul\":19594:19596   */\n      0x60\n        /* \"#utility.yul\":19583:19592   */\n      dup3\n        /* \"#utility.yul\":19579:19597   */\n      add\n        /* \"#utility.yul\":19571:19597   */\n      swap1\n      pop\n        /* \"#utility.yul\":19607:19678   */\n      tag_669\n        /* \"#utility.yul\":19675:19676   */\n      0x00\n        /* \"#utility.yul\":19664:19673   */\n      dup4\n        /* \"#utility.yul\":19660:19677   */\n      add\n        /* \"#utility.yul\":19651:19657   */\n      dup7\n        /* \"#utility.yul\":19607:19678   */\n      tag_401\n      jump\t// in\n    tag_669:\n        /* \"#utility.yul\":19688:19760   */\n      tag_670\n        /* \"#utility.yul\":19756:19758   */\n      0x20\n        /* \"#utility.yul\":19745:19754   */\n      dup4\n        /* \"#utility.yul\":19741:19759   */\n      add\n        /* \"#utility.yul\":19732:19738   */\n      dup6\n        /* \"#utility.yul\":19688:19760   */\n      tag_401\n      jump\t// in\n    tag_670:\n        /* \"#utility.yul\":19807:19816   */\n      dup2\n        /* \"#utility.yul\":19801:19805   */\n      dup2\n        /* \"#utility.yul\":19797:19817   */\n      sub\n        /* \"#utility.yul\":19792:19794   */\n      0x40\n        /* \"#utility.yul\":19781:19790   */\n      dup4\n        /* \"#utility.yul\":19777:19795   */\n      add\n        /* \"#utility.yul\":19770:19818   */\n      mstore\n        /* \"#utility.yul\":19835:19943   */\n      tag_671\n        /* \"#utility.yul\":19938:19942   */\n      dup2\n        /* \"#utility.yul\":19929:19935   */\n      dup5\n        /* \"#utility.yul\":19835:19943   */\n      tag_421\n      jump\t// in\n    tag_671:\n        /* \"#utility.yul\":19827:19943   */\n      swap1\n      pop\n        /* \"#utility.yul\":19357:19950   */\n      swap5\n      swap4\n      pop\n      pop\n      pop\n      pop\n      jump\t// out\n        /* \"#utility.yul\":19956:20398   */\n    tag_358:\n        /* \"#utility.yul\":20105:20109   */\n      0x00\n        /* \"#utility.yul\":20143:20145   */\n      0x60\n        /* \"#utility.yul\":20132:20141   */\n      dup3\n        /* \"#utility.yul\":20128:20146   */\n      add\n        /* \"#utility.yul\":20120:20146   */\n      swap1\n      pop\n        /* \"#utility.yul\":20156:20227   */\n      tag_673\n        /* \"#utility.yul\":20224:20225   */\n      0x00\n        /* \"#utility.yul\":20213:20222   */\n      dup4\n        /* \"#utility.yul\":20209:20226   */\n      add\n        /* \"#utility.yul\":20200:20206   */\n      dup7\n        /* \"#utility.yul\":20156:20227   */\n      tag_423\n      jump\t// in\n    tag_673:\n        /* \"#utility.yul\":20237:20309   */\n      tag_674\n        /* \"#utility.yul\":20305:20307   */\n      0x20\n        /* \"#utility.yul\":20294:20303   */\n      dup4\n        /* \"#utility.yul\":20290:20308   */\n      add\n        /* \"#utility.yul\":20281:20287   */\n      dup6\n        /* \"#utility.yul\":20237:20309   */\n      tag_423\n      jump\t// in\n    tag_674:\n        /* \"#utility.yul\":20319:20391   */\n      tag_675\n        /* \"#utility.yul\":20387:20389   */\n      0x40\n        /* \"#utility.yul\":20376:20385   */\n      dup4\n        /* \"#utility.yul\":20372:20390   */\n      add\n        /* \"#utility.yul\":20363:20369   */\n      dup5\n        /* \"#utility.yul\":20319:20391   */\n      tag_401\n      jump\t// in\n    tag_675:\n        /* \"#utility.yul\":19956:20398   */\n      swap5\n      swap4\n      pop\n      pop\n      pop\n      pop\n      jump\t// out\n\n    auxdata: 0xa2646970667358221220c9f085df11c49620fb0eddfaee885305d4f0ac13bd3c75d7fff0f8398e9ba15764736f6c63430008180033\n}\n",
				"bytecode": {
					"linkReferences": {},
					"object": "60a0604052600160045534801562000015575f80fd5b50604051620030383803806200303883398181016040528101906200003b91906200018f565b5f73ffffffffffffffffffffffffffffffffffffffff168173ffffffffffffffffffffffffffffffffffffffff1603620000a1576040517fe6c4247b00000000000000000000000000000000000000000000000000000000815260040160405180910390fd5b335f806101000a81548173ffffffffffffffffffffffffffffffffffffffff021916908373ffffffffffffffffffffffffffffffffffffffff1602179055508073ffffffffffffffffffffffffffffffffffffffff1660808173ffffffffffffffffffffffffffffffffffffffff1681525050670186cc6acd4b000060018190555050620001bf565b5f80fd5b5f73ffffffffffffffffffffffffffffffffffffffff82169050919050565b5f62000159826200012e565b9050919050565b6200016b816200014d565b811462000176575f80fd5b50565b5f81519050620001898162000160565b92915050565b5f60208284031215620001a757620001a66200012a565b5b5f620001b68482850162000179565b91505092915050565b608051612e44620001f45f395f818161065c01528181610b0c01528181610c25015281816113e00152611ebf0152612e445ff3fe608060405234801561000f575f80fd5b5060043610610171575f3560e01c80638da5cb5b116100dc578063cdadc66611610095578063f2fde38b1161006f578063f2fde38b14610427578063f3eec42f14610443578063f4c2af9314610473578063fe8ace851461049157610171565b8063cdadc666146103ab578063e54566f3146103c7578063eb2dbcf6146103f757610171565b80638da5cb5b146102d55780638ef7fe56146102f35780638f15024f14610311578063990dc9db1461032f578063a3b5fcd81461034b578063a4bfd0cc1461037b57610171565b806359974e381161012e57806359974e3814610211578063616eb2551461022d57806363375e161461026157806375d2bf601461027f5780638627df461461029b5780638861d532146102b757610171565b80631209b1f614610175578063159816501461019357806315b5386e146101af578063293be456146101cd5780632f48ab7d146101e957806330b4821314610207575b5f80fd5b61017d6104c4565b60405161018a91906123d4565b60405180910390f35b6101ad60048036038101906101a8919061241f565b6104ca565b005b6101b761058f565b6040516101c491906123d4565b60405180910390f35b6101e760048036038101906101e2919061241f565b610595565b005b6101f161065a565b6040516101fe91906124c4565b60405180910390f35b61020f61067e565b005b61022b6004803603810190610226919061241f565b61079c565b005b6102476004803603810190610242919061241f565b610da4565b6040516102589594939291906125ae565b60405180910390f35b610269610e68565b60405161027691906123d4565b60405180910390f35b6102996004803603810190610294919061241f565b610e6d565b005b6102b560048036038101906102b09190612606565b6110c9565b005b6102bf6112c1565b6040516102cc91906123d4565b60405180910390f35b6102dd6112c7565b6040516102ea9190612664565b60405180910390f35b6102fb6112ea565b60405161030891906123d4565b60405180910390f35b6103196112ef565b60405161032691906123d4565b60405180910390f35b610349600480360381019061034491906126a7565b6112f5565b005b6103656004803603810190610360919061241f565b611501565b60405161037291906126e5565b60405180910390f35b610395600480360381019061039091906126fe565b61151e565b6040516103a29190612729565b60405180910390f35b6103c560048036038101906103c091906127aa565b6115b1565b005b6103e160048036038101906103dc91906126fe565b61171f565b6040516103ee91906123d4565b60405180910390f35b610411600480360381019061040c919061241f565b611734565b60405161041e9190612664565b60405180910390f35b610441600480360381019061043c91906126fe565b611764565b005b61045d6004803603810190610458919061241f565b61188f565b60405161046a91906123d4565b60405180910390f35b61047b6118a4565b60405161048891906123d4565b60405180910390f35b6104ab60048036038101906104a6919061241f565b6118a9565b6040516104bb9493929190612807565b60405180910390f35b60015481565b5f8054906101000a900473ffffffffffffffffffffffffffffffffffffffff1673ffffffffffffffffffffffffffffffffffffffff163373ffffffffffffffffffffffffffffffffffffffff161461054e576040517f30cd747100000000000000000000000000000000000000000000000000000000815260040160405180910390fd5b806001819055507f7429795511c1ec5ebcc0e6839095ec18f13fce25cdc7c90da9d8a016584a1dbe8160405161058491906123d4565b60405180910390a150565b60035481565b5f8054906101000a900473ffffffffffffffffffffffffffffffffffffffff1673ffffffffffffffffffffffffffffffffffffffff163373ffffffffffffffffffffffffffffffffffffffff1614610619576040517f30cd747100000000000000000000000000000000000000000000000000000000815260040160405180910390fd5b806001819055507fcb94909754d27c309adf4167150f1f7aa04de40b6a0e6bb98b2ae80a2bf438f68160405161064f91906123d4565b60405180910390a150565b7f000000000000000000000000000000000000000000000000000000000000000081565b5f8054906101000a900473ffffffffffffffffffffffffffffffffffffffff1673ffffffffffffffffffffffffffffffffffffffff163373ffffffffffffffffffffffffffffffffffffffff1614610702576040517f30cd747100000000000000000000000000000000000000000000000000000000815260040160405180910390fd5b600160035f8282546107149190612877565b925050819055505f60055f60035481526020019081526020015f2090506064815f01819055505f81600101819055505f816003015f6101000a81548160ff0219169083151502179055506003547fa9bb9f177c59b93f2b7abb2dfb6ffc1518c0d3a40145c47a372f46e70d011d15606460405161079191906123d4565b60405180910390a250565b5f8054906101000a900473ffffffffffffffffffffffffffffffffffffffff1673ffffffffffffffffffffffffffffffffffffffff163373ffffffffffffffffffffffffffffffffffffffff1614610820576040517f30cd747100000000000000000000000000000000000000000000000000000000815260040160405180910390fd5b5f81148061082f575060035481115b1561087157806040517fc68e534300000000000000000000000000000000000000000000000000000000815260040161086891906123d4565b60405180910390fd5b5f60055f8381526020019081526020015f209050806003015f9054906101000a900460ff166108d757816040517f5277eacd0000000000000000000000000000000000000000000000000000000081526004016108ce91906123d4565b60405180910390fd5b600a5f8381526020019081526020015f205f9054906101000a900460ff161561093757816040517f6fabcdec00000000000000000000000000000000000000000000000000000000815260040161092e91906123d4565b60405180910390fd5b5f600a67ffffffffffffffff811115610953576109526128aa565b5b6040519080825280602002602001820160405280156109815781602001602082028036833780820191505090505b5090505f805b8360020180549050811015610a96575f8460020182815481106109ad576109ac6128d7565b5b905f5260205f20015490505f81608088901b1790505f60075f8381526020019081526020015f205f9054906101000a900473ffffffffffffffffffffffffffffffffffffffff1690505f73ffffffffffffffffffffffffffffffffffffffff168173ffffffffffffffffffffffffffffffffffffffff1614610a865780868681518110610a3d57610a3c6128d7565b5b602002602001019073ffffffffffffffffffffffffffffffffffffffff16908173ffffffffffffffffffffffffffffffffffffffff16815250508480610a8290612904565b9550505b5050508080600101915050610987565b505f8103610adb57836040517ff0fc51cc000000000000000000000000000000000000000000000000000000008152600401610ad291906123d4565b60405180910390fd5b5f6001548460010154610aee919061294b565b90505f670de0b6b3a7640000600454610b07919061294b565b90505f7f000000000000000000000000000000000000000000000000000000000000000073ffffffffffffffffffffffffffffffffffffffff166370a08231306040518263ffffffff1660e01b8152600401610b639190612664565b602060405180830381865afa158015610b7e573d5f803e3d5ffd5b505050506040513d601f19601f82011682018060405250810190610ba291906129a0565b905082811015610bbf57809250600a83610bbc91906129f8565b91505b5f5b84811015610d1c575f73ffffffffffffffffffffffffffffffffffffffff16868281518110610bf357610bf26128d7565b5b602002602001015173ffffffffffffffffffffffffffffffffffffffff1614158015610c1e57505f83115b15610d0f577f000000000000000000000000000000000000000000000000000000000000000073ffffffffffffffffffffffffffffffffffffffff1663a9059cbb878381518110610c7257610c716128d7565b5b6020026020010151856040518363ffffffff1660e01b8152600401610c98929190612a28565b6020604051808303815f875af1158015610cb4573d5f803e3d5ffd5b505050506040513d601f19601f82011682018060405250810190610cd89190612a79565b610d0e576040517f90b8ec1800000000000000000000000000000000000000000000000000000000815260040160405180910390fd5b5b8080600101915050610bc1565b506001600a5f8981526020019081526020015f205f6101000a81548160ff0219169083151502179055505f610d5186866118e1565b9050877f304b0f51aff1fa2e109dcc4743e16c2985ead88eee868723e54df3013f3b721f82858887610d83919061294b565b604051610d9293929190612b5b565b60405180910390a25050505050505050565b5f805f8060605f60055f8881526020019081526020015f2090505f605a826001015410158015610de25750816003015f9054906101000a900460ff16155b9050815f01548260010154836003015f9054906101000a900460ff16838560020180805480602002602001604051908101604052809291908181526020018280548015610e4c57602002820191905f5260205f20905b815481526020019060010190808311610e38575b5050505050905096509650965096509650505091939590929450565b605a81565b5f8054906101000a900473ffffffffffffffffffffffffffffffffffffffff1673ffffffffffffffffffffffffffffffffffffffff163373ffffffffffffffffffffffffffffffffffffffff1614610ef1576040517f30cd747100000000000000000000000000000000000000000000000000000000815260040160405180910390fd5b5f811480610f00575060035481115b15610f4257806040517fc68e5343000000000000000000000000000000000000000000000000000000008152600401610f3991906123d4565b60405180910390fd5b5f60055f8381526020019081526020015f209050605a81600101541015610fa057816040517f5337fa1c000000000000000000000000000000000000000000000000000000008152600401610f9791906123d4565b60405180910390fd5b806003015f9054906101000a900460ff1615610ff357816040517f6b83bfbb000000000000000000000000000000000000000000000000000000008152600401610fea91906123d4565b60405180910390fd5b5f6001436110019190612b97565b4042443386866001015460405160200161102096959493929190612c58565b604051602081830303815290604052805190602001205f1c90508082600401819055505f611052828460010154611b7c565b90508083600201908051906020019061106c929190612333565b506001836003015f6101000a81548160ff021916908315150217905550837fb9b63d02dbcb30a774c4322c8b5f9afd79edf26b84fa733c10d1d940a1f357a982846040516110bb929190612cc7565b60405180910390a250505050565b5f8103611102576040517f8e71bef900000000000000000000000000000000000000000000000000000000815260040160405180910390fd5b5f821480611111575060035482115b1561115357816040517fc68e534300000000000000000000000000000000000000000000000000000000815260040161114a91906123d4565b60405180910390fd5b5f60055f8481526020019081526020015f209050806003015f9054906101000a900460ff16156111ba57826040517f127a8a720000000000000000000000000000000000000000000000000000000081526004016111b191906123d4565b60405180910390fd5b5f8160010154825f01546111ce9190612b97565b90508083111561120a576040517f19e215bc00000000000000000000000000000000000000000000000000000000815260040160405180910390fd5b5f8367ffffffffffffffff811115611225576112246128aa565b5b6040519080825280602002602001820160405280156112535781602001602082028036833780820191505090505b5090505f600184600101546112689190612877565b90505f5b858110156112ac5780826112809190612877565b838281518110611293576112926128d7565b5b602002602001018181525050808060010191505061126c565b506112b933878685611db5565b505050505050565b60045481565b5f8054906101000a900473ffffffffffffffffffffffffffffffffffffffff1681565b600a81565b60025481565b5f8054906101000a900473ffffffffffffffffffffffffffffffffffffffff1673ffffffffffffffffffffffffffffffffffffffff163373ffffffffffffffffffffffffffffffffffffffff1614611379576040517f30cd747100000000000000000000000000000000000000000000000000000000815260040160405180910390fd5b5f73ffffffffffffffffffffffffffffffffffffffff168273ffffffffffffffffffffffffffffffffffffffff16036113de576040517fe6c4247b00000000000000000000000000000000000000000000000000000000815260040160405180910390fd5b7f000000000000000000000000000000000000000000000000000000000000000073ffffffffffffffffffffffffffffffffffffffff1663a9059cbb83836040518363ffffffff1660e01b8152600401611439929190612a28565b6020604051808303815f875af1158015611455573d5f803e3d5ffd5b505050506040513d601f19601f820116820180604052508101906114799190612a79565b6114af576040517f90b8ec1800000000000000000000000000000000000000000000000000000000815260040160405180910390fd5b8173ffffffffffffffffffffffffffffffffffffffff167f884edad9ce6fa2440d8a54cc123490eb96d2768479d49ff9c7366125a9424364826040516114f591906123d4565b60405180910390a25050565b600a602052805f5260405f205f915054906101000a900460ff1681565b606060095f8373ffffffffffffffffffffffffffffffffffffffff1673ffffffffffffffffffffffffffffffffffffffff1681526020019081526020015f208054806020026020016040519081016040528092919081815260200182805480156115a557602002820191905f5260205f20905b815481526020019060010190808311611591575b50505050509050919050565b5f8282905090505f81036115f1576040517f8e71bef900000000000000000000000000000000000000000000000000000000815260040160405180910390fd5b5f841480611600575060035484115b1561164257836040517fc68e534300000000000000000000000000000000000000000000000000000000815260040161163991906123d4565b60405180910390fd5b5f60055f8681526020019081526020015f209050806003015f9054906101000a900460ff16156116a957846040517f127a8a720000000000000000000000000000000000000000000000000000000081526004016116a091906123d4565b60405180910390fd5b5f8160010154825f01546116bd9190612b97565b9050808311156116f9576040517f19e215bc00000000000000000000000000000000000000000000000000000000815260040160405180910390fd5b5f6117088686855f0154611fd6565b905061171633888584611db5565b50505050505050565b6006602052805f5260405f205f915090505481565b6007602052805f5260405f205f915054906101000a900473ffffffffffffffffffffffffffffffffffffffff1681565b5f8054906101000a900473ffffffffffffffffffffffffffffffffffffffff1673ffffffffffffffffffffffffffffffffffffffff163373ffffffffffffffffffffffffffffffffffffffff16146117e8576040517f30cd747100000000000000000000000000000000000000000000000000000000815260040160405180910390fd5b5f73ffffffffffffffffffffffffffffffffffffffff168173ffffffffffffffffffffffffffffffffffffffff160361184d576040517fe6c4247b00000000000000000000000000000000000000000000000000000000815260040160405180910390fd5b805f806101000a81548173ffffffffffffffffffffffffffffffffffffffff021916908373ffffffffffffffffffffffffffffffffffffffff16021790555050565b6008602052805f5260405f205f915090505481565b606481565b6005602052805f5260405f205f91509050805f015490806001015490806003015f9054906101000a900460ff16908060040154905084565b60605f8267ffffffffffffffff8111156118fe576118fd6128aa565b5b60405190808252806020026020018201604052801561192c5781602001602082028036833780820191505090505b5090505f805b84811015611aa3575f600190505f5b838110156119c55787838151811061195c5761195b6128d7565b5b602002602001015173ffffffffffffffffffffffffffffffffffffffff1685828151811061198d5761198c6128d7565b5b602002602001015173ffffffffffffffffffffffffffffffffffffffff16036119b8575f91506119c5565b8080600101915050611941565b50808015611a1957505f73ffffffffffffffffffffffffffffffffffffffff168783815181106119f8576119f76128d7565b5b602002602001015173ffffffffffffffffffffffffffffffffffffffff1614155b15611a9557868281518110611a3157611a306128d7565b5b6020026020010151848481518110611a4c57611a4b6128d7565b5b602002602001019073ffffffffffffffffffffffffffffffffffffffff16908173ffffffffffffffffffffffffffffffffffffffff16815250508280611a9190612904565b9350505b508080600101915050611932565b505f8167ffffffffffffffff811115611abf57611abe6128aa565b5b604051908082528060200260200182016040528015611aed5781602001602082028036833780820191505090505b5090505f5b82811015611b6f57838181518110611b0d57611b0c6128d7565b5b6020026020010151828281518110611b2857611b276128d7565b5b602002602001019073ffffffffffffffffffffffffffffffffffffffff16908173ffffffffffffffffffffffffffffffffffffffff16815250508080600101915050611af2565b5080935050505092915050565b60605f600a67ffffffffffffffff811115611b9a57611b996128aa565b5b604051908082528060200260200182016040528015611bc85781602001602082028036833780820191505090505b509050611bd361237e565b5f808690505b600a821015611da8578082604051602001611bf5929190612cf5565b604051602081830303815290604052805190602001205f1c90505f6001606483611c1f9190612d20565b611c299190612877565b9050838160658110611c3e57611c3d6128d7565b5b6020020151611c9a576001848260658110611c5c57611c5b6128d7565b5b60200201901515908115158152505080858481518110611c7f57611c7e6128d7565b5b6020026020010181815250508280611c9690612904565b9350505b600a831015611da2575f5b848260658110611cb857611cb76128d7565b5b60200201518015611cc9575060c881105b15611da0578284828a604051602001611ce59493929190612d50565b604051602081830303815290604052805190602001205f1c92506001606484611d0e9190612d20565b611d189190612877565b9150848260658110611d2d57611d2c6128d7565b5b6020020151611d8d576001858360658110611d4b57611d4a6128d7565b5b60200201901515908115158152505081868581518110611d6e57611d6d6128d7565b5b6020026020010181815250508380611d8590612904565b945050611da0565b8080611d9890612904565b915050611ca5565b505b50611bd9565b8394505050505092915050565b5f815190505f81600154611dc9919061294b565b90505f611ddb8787875f0154876120cc565b905082856001015f828254611df09190612877565b925050819055508260025f828254611e089190612877565b925050819055508260065f8973ffffffffffffffffffffffffffffffffffffffff1673ffffffffffffffffffffffffffffffffffffffff1681526020019081526020015f205f828254611e5b9190612877565b92505081905550858773ffffffffffffffffffffffffffffffffffffffff167f7478e1ca4690b7ad34581c0f0974fc4d6c826cb3d55af76a85334ed9537c5dd9858585604051611ead93929190612d9d565b60405180910390a35f821115611f91577f000000000000000000000000000000000000000000000000000000000000000073ffffffffffffffffffffffffffffffffffffffff166323b872dd8830856040518463ffffffff1660e01b8152600401611f1a93929190612dd9565b6020604051808303815f875af1158015611f36573d5f803e3d5ffd5b505050506040513d601f19601f82011682018060405250810190611f5a9190612a79565b611f90576040517f90b8ec1800000000000000000000000000000000000000000000000000000000815260040160405180910390fd5b5b845f0154856001015403611fcd57857ffd8d96e5e049823e751e0c23004bdbb7793038835ac2cb5e6eeec672aa5c8ebc60405160405180910390a25b50505050505050565b60605f8484905090508067ffffffffffffffff811115611ff957611ff86128aa565b5b6040519080825280602002602001820160405280156120275781602001602082028036833780820191505090505b5091505f5b818110156120c3575f868683818110612048576120476128d7565b5b9050602002013590505f81148061205e57508481115b15612095576040517faeaddff100000000000000000000000000000000000000000000000000000000815260040160405180910390fd5b808483815181106120a9576120a86128d7565b5b60200260200101818152505050808060010191505061202c565b50509392505050565b60605f825190508067ffffffffffffffff8111156120ed576120ec6128aa565b5b60405190808252806020026020018201604052801561211b5781602001602082028036833780820191505090505b5091505f5b81811015612329575f84828151811061213c5761213b6128d7565b5b602002602001015190505f81148061215357508581115b1561218a576040517faeaddff100000000000000000000000000000000000000000000000000000000815260040160405180910390fd5b5f81608089901b1790505f73ffffffffffffffffffffffffffffffffffffffff1660075f8381526020019081526020015f205f9054906101000a900473ffffffffffffffffffffffffffffffffffffffff1673ffffffffffffffffffffffffffffffffffffffff161461223457816040517f8605b53e00000000000000000000000000000000000000000000000000000000815260040161222b91906123d4565b60405180910390fd5b8860075f8381526020019081526020015f205f6101000a81548173ffffffffffffffffffffffffffffffffffffffff021916908373ffffffffffffffffffffffffffffffffffffffff1602179055508760085f8381526020019081526020015f208190555060095f8a73ffffffffffffffffffffffffffffffffffffffff1673ffffffffffffffffffffffffffffffffffffffff1681526020019081526020015f2081908060018154018082558091505060019003905f5260205f20015f90919091909150558085848151811061230e5761230d6128d7565b5b60200260200101818152505050508080600101915050612120565b5050949350505050565b828054828255905f5260205f2090810192821561236d579160200282015b8281111561236c578251825591602001919060010190612351565b5b50905061237a91906123a1565b5090565b60405180610ca00160405280606590602082028036833780820191505090505090565b5b808211156123b8575f815f9055506001016123a2565b5090565b5f819050919050565b6123ce816123bc565b82525050565b5f6020820190506123e75f8301846123c5565b92915050565b5f80fd5b5f80fd5b6123fe816123bc565b8114612408575f80fd5b50565b5f81359050612419816123f5565b92915050565b5f60208284031215612434576124336123ed565b5b5f6124418482850161240b565b91505092915050565b5f73ffffffffffffffffffffffffffffffffffffffff82169050919050565b5f819050919050565b5f61248c6124876124828461244a565b612469565b61244a565b9050919050565b5f61249d82612472565b9050919050565b5f6124ae82612493565b9050919050565b6124be816124a4565b82525050565b5f6020820190506124d75f8301846124b5565b92915050565b5f8115159050919050565b6124f1816124dd565b82525050565b5f81519050919050565b5f82825260208201905092915050565b5f819050602082019050919050565b612529816123bc565b82525050565b5f61253a8383612520565b60208301905092915050565b5f602082019050919050565b5f61255c826124f7565b6125668185612501565b935061257183612511565b805f5b838110156125a1578151612588888261252f565b975061259383612546565b925050600181019050612574565b5085935050505092915050565b5f60a0820190506125c15f8301886123c5565b6125ce60208301876123c5565b6125db60408301866124e8565b6125e860608301856124e8565b81810360808301526125fa8184612552565b90509695505050505050565b5f806040838503121561261c5761261b6123ed565b5b5f6126298582860161240b565b925050602061263a8582860161240b565b9150509250929050565b5f61264e8261244a565b9050919050565b61265e81612644565b82525050565b5f6020820190506126775f830184612655565b92915050565b61268681612644565b8114612690575f80fd5b50565b5f813590506126a18161267d565b92915050565b5f80604083850312156126bd576126bc6123ed565b5b5f6126ca85828601612693565b92505060206126db8582860161240b565b9150509250929050565b5f6020820190506126f85f8301846124e8565b92915050565b5f60208284031215612713576127126123ed565b5b5f61272084828501612693565b91505092915050565b5f6020820190508181035f8301526127418184612552565b905092915050565b5f80fd5b5f80fd5b5f80fd5b5f8083601f84011261276a57612769612749565b5b8235905067ffffffffffffffff8111156127875761278661274d565b5b6020830191508360208202830111156127a3576127a2612751565b5b9250929050565b5f805f604084860312156127c1576127c06123ed565b5b5f6127ce8682870161240b565b935050602084013567ffffffffffffffff8111156127ef576127ee6123f1565b5b6127fb86828701612755565b92509250509250925092565b5f60808201905061281a5f8301876123c5565b61282760208301866123c5565b61283460408301856124e8565b61284160608301846123c5565b95945050505050565b7f4e487b71000000000000000000000000000000000000000000000000000000005f52601160045260245ffd5b5f612881826123bc565b915061288c836123bc565b92508282019050808211156128a4576128a361284a565b5b92915050565b7f4e487b71000000000000000000000000000000000000000000000000000000005f52604160045260245ffd5b7f4e487b71000000000000000000000000000000000000000000000000000000005f52603260045260245ffd5b5f61290e826123bc565b91507fffffffffffffffffffffffffffffffffffffffffffffffffffffffffffffffff82036129405761293f61284a565b5b600182019050919050565b5f612955826123bc565b9150612960836123bc565b925082820261296e816123bc565b915082820484148315176129855761298461284a565b5b5092915050565b5f8151905061299a816123f5565b92915050565b5f602082840312156129b5576129b46123ed565b5b5f6129c28482850161298c565b91505092915050565b7f4e487b71000000000000000000000000000000000000000000000000000000005f52601260045260245ffd5b5f612a02826123bc565b9150612a0d836123bc565b925082612a1d57612a1c6129cb565b5b828204905092915050565b5f604082019050612a3b5f830185612655565b612a4860208301846123c5565b9392505050565b612a58816124dd565b8114612a62575f80fd5b50565b5f81519050612a7381612a4f565b92915050565b5f60208284031215612a8e57612a8d6123ed565b5b5f612a9b84828501612a65565b91505092915050565b5f81519050919050565b5f82825260208201905092915050565b5f819050602082019050919050565b612ad681612644565b82525050565b5f612ae78383612acd565b60208301905092915050565b5f602082019050919050565b5f612b0982612aa4565b612b138185612aae565b9350612b1e83612abe565b805f5b83811015612b4e578151612b358882612adc565b9750612b4083612af3565b925050600181019050612b21565b5085935050505092915050565b5f6060820190508181035f830152612b738186612aff565b9050612b8260208301856123c5565b612b8f60408301846123c5565b949350505050565b5f612ba1826123bc565b9150612bac836123bc565b9250828203905081811115612bc457612bc361284a565b5b92915050565b5f819050919050565b5f819050919050565b612bed612be882612bca565b612bd3565b82525050565b5f819050919050565b612c0d612c08826123bc565b612bf3565b82525050565b5f8160601b9050919050565b5f612c2982612c13565b9050919050565b5f612c3a82612c1f565b9050919050565b612c52612c4d82612644565b612c30565b82525050565b5f612c638289612bdc565b602082019150612c738288612bfc565b602082019150612c838287612bfc565b602082019150612c938286612c41565b601482019150612ca38285612bfc565b602082019150612cb38284612bfc565b602082019150819050979650505050505050565b5f6040820190508181035f830152612cdf8185612552565b9050612cee60208301846123c5565b9392505050565b5f612d008285612bfc565b602082019150612d108284612bfc565b6020820191508190509392505050565b5f612d2a826123bc565b9150612d35836123bc565b925082612d4557612d446129cb565b5b828206905092915050565b5f612d5b8287612bfc565b602082019150612d6b8286612bfc565b602082019150612d7b8285612bfc565b602082019150612d8b8284612bfc565b60208201915081905095945050505050565b5f606082019050612db05f8301866123c5565b612dbd60208301856123c5565b8181036040830152612dcf8184612552565b9050949350505050565b5f606082019050612dec5f830186612655565b612df96020830185612655565b612e0660408301846123c5565b94935050505056fea2646970667358221220c9f085df11c49620fb0eddfaee885305d4f0ac13bd3c75d7fff0f8398e9ba15764736f6c63430008180033",
					"opcodes": "PUSH1 0xA0 PUSH1 0x40 MSTORE PUSH1 0x1 PUSH1 0x4 SSTORE CALLVALUE DUP1 ISZERO PUSH3 0x15 JUMPI PUSH0 DUP1 REVERT JUMPDEST POP PUSH1 0x40 MLOAD PUSH3 0x3038 CODESIZE SUB DUP1 PUSH3 0x3038 DUP4 CODECOPY DUP2 DUP2 ADD PUSH1 0x40 MSTORE DUP2 ADD SWAP1 PUSH3 0x3B SWAP2 SWAP1 PUSH3 0x18F JUMP JUMPDEST PUSH0 PUSH20 0xFFFFFFFFFFFFFFFFFFFFFFFFFFFFFFFFFFFFFFFF AND DUP2 PUSH20 0xFFFFFFFFFFFFFFFFFFFFFFFFFFFFFFFFFFFFFFFF AND SUB PUSH3 0xA1 JUMPI PUSH1 0x40 MLOAD PUSH32 0xE6C4247B00000000000000000000000000000000000000000000000000000000 DUP2 MSTORE PUSH1 0x4 ADD PUSH1 0x40 MLOAD DUP1 SWAP2 SUB SWAP1 REVERT JUMPDEST CALLER PUSH0 DUP1 PUSH2 0x100 EXP DUP2 SLOAD DUP2 PUSH20 0xFFFFFFFFFFFFFFFFFFFFFFFFFFFFFFFFFFFFFFFF MUL NOT AND SWAP1 DUP4 PUSH20 0xFFFFFFFFFFFFFFFFFFFFFFFFFFFFFFFFFFFFFFFF AND MUL OR SWAP1 SSTORE POP DUP1 PUSH20 0xFFFFFFFFFFFFFFFFFFFFFFFFFFFFFFFFFFFFFFFF AND PUSH1 0x80 DUP2 PUSH20 0xFFFFFFFFFFFFFFFFFFFFFFFFFFFFFFFFFFFFFFFF AND DUP2 MSTORE POP POP PUSH8 0x186CC6ACD4B0000 PUSH1 0x1 DUP2 SWAP1 SSTORE POP POP PUSH3 0x1BF JUMP JUMPDEST PUSH0 DUP1 REVERT JUMPDEST PUSH0 PUSH20 0xFFFFFFFFFFFFFFFFFFFFFFFFFFFFFFFFFFFFFFFF DUP3 AND SWAP1 POP SWAP2 SWAP1 POP JUMP JUMPDEST PUSH0 PUSH3 0x159 DUP3 PUSH3 0x12E JUMP JUMPDEST SWAP1 POP SWAP2 SWAP1 POP JUMP JUMPDEST PUSH3 0x16B DUP2 PUSH3 0x14D JUMP JUMPDEST DUP2 EQ PUSH3 0x176 JUMPI PUSH0 DUP1 REVERT JUMPDEST POP JUMP JUMPDEST PUSH0 DUP2 MLOAD SWAP1 POP PUSH3 0x189 DUP2 PUSH3 0x160 JUMP JUMPDEST SWAP3 SWAP2 POP POP JUMP JUMPDEST PUSH0 PUSH1 0x20 DUP3 DUP5 SUB SLT ISZERO PUSH3 0x1A7 JUMPI PUSH3 0x1A6 PUSH3 0x12A JUMP JUMPDEST JUMPDEST PUSH0 PUSH3 0x1B6 DUP5 DUP3 DUP6 ADD PUSH3 0x179 JUMP JUMPDEST SWAP2 POP POP SWAP3 SWAP2 POP POP JUMP JUMPDEST PUSH1 0x80 MLOAD PUSH2 0x2E44 PUSH3 0x1F4 PUSH0 CODECOPY PUSH0 DUP2 DUP2 PUSH2 0x65C ADD MSTORE DUP2 DUP2 PUSH2 0xB0C ADD MSTORE DUP2 DUP2 PUSH2 0xC25 ADD MSTORE DUP2 DUP2 PUSH2 0x13E0 ADD MSTORE PUSH2 0x1EBF ADD MSTORE PUSH2 0x2E44 PUSH0 RETURN INVALID PUSH1 0x80 PUSH1 0x40 MSTORE CALLVALUE DUP1 ISZERO PUSH2 0xF JUMPI PUSH0 DUP1 REVERT JUMPDEST POP PUSH1 0x4 CALLDATASIZE LT PUSH2 0x171 JUMPI PUSH0 CALLDATALOAD PUSH1 0xE0 SHR DUP1 PUSH4 0x8DA5CB5B GT PUSH2 0xDC JUMPI DUP1 PUSH4 0xCDADC666 GT PUSH2 0x95 JUMPI DUP1 PUSH4 0xF2FDE38B GT PUSH2 0x6F JUMPI DUP1 PUSH4 0xF2FDE38B EQ PUSH2 0x427 JUMPI DUP1 PUSH4 0xF3EEC42F EQ PUSH2 0x443 JUMPI DUP1 PUSH4 0xF4C2AF93 EQ PUSH2 0x473 JUMPI DUP1 PUSH4 0xFE8ACE85 EQ PUSH2 0x491 JUMPI PUSH2 0x171 JUMP JUMPDEST DUP1 PUSH4 0xCDADC666 EQ PUSH2 0x3AB JUMPI DUP1 PUSH4 0xE54566F3 EQ PUSH2 0x3C7 JUMPI DUP1 PUSH4 0xEB2DBCF6 EQ PUSH2 0x3F7 JUMPI PUSH2 0x171 JUMP JUMPDEST DUP1 PUSH4 0x8DA5CB5B EQ PUSH2 0x2D5 JUMPI DUP1 PUSH4 0x8EF7FE56 EQ PUSH2 0x2F3 JUMPI DUP1 PUSH4 0x8F15024F EQ PUSH2 0x311 JUMPI DUP1 PUSH4 0x990DC9DB EQ PUSH2 0x32F JUMPI DUP1 PUSH4 0xA3B5FCD8 EQ PUSH2 0x34B JUMPI DUP1 PUSH4 0xA4BFD0CC EQ PUSH2 0x37B JUMPI PUSH2 0x171 JUMP JUMPDEST DUP1 PUSH4 0x59974E38 GT PUSH2 0x12E JUMPI DUP1 PUSH4 0x59974E38 EQ PUSH2 0x211 JUMPI DUP1 PUSH4 0x616EB255 EQ PUSH2 0x22D JUMPI DUP1 PUSH4 0x63375E16 EQ PUSH2 0x261 JUMPI DUP1 PUSH4 0x75D2BF60 EQ PUSH2 0x27F JUMPI DUP1 PUSH4 0x8627DF46 EQ PUSH2 0x29B JUMPI DUP1 PUSH4 0x8861D532 EQ PUSH2 0x2B7 JUMPI PUSH2 0x171 JUMP JUMPDEST DUP1 PUSH4 0x1209B1F6 EQ PUSH2 0x175 JUMPI DUP1 PUSH4 0x15981650 EQ PUSH2 0x193 JUMPI DUP1 PUSH4 0x15B5386E EQ PUSH2 0x1AF JUMPI DUP1 PUSH4 0x293BE456 EQ PUSH2 0x1CD JUMPI DUP1 PUSH4 0x2F48AB7D EQ PUSH2 0x1E9 JUMPI DUP1 PUSH4 0x30B48213 EQ PUSH2 0x207 JUMPI JUMPDEST PUSH0 DUP1 REVERT JUMPDEST PUSH2 0x17D PUSH2 0x4C4 JUMP JUMPDEST PUSH1 0x40 MLOAD PUSH2 0x18A SWAP2 SWAP1 PUSH2 0x23D4 JUMP JUMPDEST PUSH1 0x40 MLOAD DUP1 SWAP2 SUB SWAP1 RETURN JUMPDEST PUSH2 0x1AD PUSH1 0x4 DUP1 CALLDATASIZE SUB DUP2 ADD SWAP1 PUSH2 0x1A8 SWAP2 SWAP1 PUSH2 0x241F JUMP JUMPDEST PUSH2 0x4CA JUMP JUMPDEST STOP JUMPDEST PUSH2 0x1B7 PUSH2 0x58F JUMP JUMPDEST PUSH1 0x40 MLOAD PUSH2 0x1C4 SWAP2 SWAP1 PUSH2 0x23D4 JUMP JUMPDEST PUSH1 0x40 MLOAD DUP1 SWAP2 SUB SWAP1 RETURN JUMPDEST PUSH2 0x1E7 PUSH1 0x4 DUP1 CALLDATASIZE SUB DUP2 ADD SWAP1 PUSH2 0x1E2 SWAP2 SWAP1 PUSH2 0x241F JUMP JUMPDEST PUSH2 0x595 JUMP JUMPDEST STOP JUMPDEST PUSH2 0x1F1 PUSH2 0x65A JUMP JUMPDEST PUSH1 0x40 MLOAD PUSH2 0x1FE SWAP2 SWAP1 PUSH2 0x24C4 JUMP JUMPDEST PUSH1 0x40 MLOAD DUP1 SWAP2 SUB SWAP1 RETURN JUMPDEST PUSH2 0x20F PUSH2 0x67E JUMP JUMPDEST STOP JUMPDEST PUSH2 0x22B PUSH1 0x4 DUP1 CALLDATASIZE SUB DUP2 ADD SWAP1 PUSH2 0x226 SWAP2 SWAP1 PUSH2 0x241F JUMP JUMPDEST PUSH2 0x79C JUMP JUMPDEST STOP JUMPDEST PUSH2 0x247 PUSH1 0x4 DUP1 CALLDATASIZE SUB DUP2 ADD SWAP1 PUSH2 0x242 SWAP2 SWAP1 PUSH2 0x241F JUMP JUMPDEST PUSH2 0xDA4 JUMP JUMPDEST PUSH1 0x40 MLOAD PUSH2 0x258 SWAP6 SWAP5 SWAP4 SWAP3 SWAP2 SWAP1 PUSH2 0x25AE JUMP JUMPDEST PUSH1 0x40 MLOAD DUP1 SWAP2 SUB SWAP1 RETURN JUMPDEST PUSH2 0x269 PUSH2 0xE68 JUMP JUMPDEST PUSH1 0x40 MLOAD PUSH2 0x276 SWAP2 SWAP1 PUSH2 0x23D4 JUMP JUMPDEST PUSH1 0x40 MLOAD DUP1 SWAP2 SUB SWAP1 RETURN JUMPDEST PUSH2 0x299 PUSH1 0x4 DUP1 CALLDATASIZE SUB DUP2 ADD SWAP1 PUSH2 0x294 SWAP2 SWAP1 PUSH2 0x241F JUMP JUMPDEST PUSH2 0xE6D JUMP JUMPDEST STOP JUMPDEST PUSH2 0x2B5 PUSH1 0x4 DUP1 CALLDATASIZE SUB DUP2 ADD SWAP1 PUSH2 0x2B0 SWAP2 SWAP1 PUSH2 0x2606 JUMP JUMPDEST PUSH2 0x10C9 JUMP JUMPDEST STOP JUMPDEST PUSH2 0x2BF PUSH2 0x12C1 JUMP JUMPDEST PUSH1 0x40 MLOAD PUSH2 0x2CC SWAP2 SWAP1 PUSH2 0x23D4 JUMP JUMPDEST PUSH1 0x40 MLOAD DUP1 SWAP2 SUB SWAP1 RETURN JUMPDEST PUSH2 0x2DD PUSH2 0x12C7 JUMP JUMPDEST PUSH1 0x40 MLOAD PUSH2 0x2EA SWAP2 SWAP1 PUSH2 0x2664 JUMP JUMPDEST PUSH1 0x40 MLOAD DUP1 SWAP2 SUB SWAP1 RETURN JUMPDEST PUSH2 0x2FB PUSH2 0x12EA JUMP JUMPDEST PUSH1 0x40 MLOAD PUSH2 0x308 SWAP2 SWAP1 PUSH2 0x23D4 JUMP JUMPDEST PUSH1 0x40 MLOAD DUP1 SWAP2 SUB SWAP1 RETURN JUMPDEST PUSH2 0x319 PUSH2 0x12EF JUMP JUMPDEST PUSH1 0x40 MLOAD PUSH2 0x326 SWAP2 SWAP1 PUSH2 0x23D4 JUMP JUMPDEST PUSH1 0x40 MLOAD DUP1 SWAP2 SUB SWAP1 RETURN JUMPDEST PUSH2 0x349 PUSH1 0x4 DUP1 CALLDATASIZE SUB DUP2 ADD SWAP1 PUSH2 0x344 SWAP2 SWAP1 PUSH2 0x26A7 JUMP JUMPDEST PUSH2 0x12F5 JUMP JUMPDEST STOP JUMPDEST PUSH2 0x365 PUSH1 0x4 DUP1 CALLDATASIZE SUB DUP2 ADD SWAP1 PUSH2 0x360 SWAP2 SWAP1 PUSH2 0x241F JUMP JUMPDEST PUSH2 0x1501 JUMP JUMPDEST PUSH1 0x40 MLOAD PUSH2 0x372 SWAP2 SWAP1 PUSH2 0x26E5 JUMP JUMPDEST PUSH1 0x40 MLOAD DUP1 SWAP2 SUB SWAP1 RETURN JUMPDEST PUSH2 0x395 PUSH1 0x4 DUP1 CALLDATASIZE SUB DUP2 ADD SWAP1 PUSH2 0x390 SWAP2 SWAP1 PUSH2 0x26FE JUMP JUMPDEST PUSH2 0x151E JUMP JUMPDEST PUSH1 0x40 MLOAD PUSH2 0x3A2 SWAP2 SWAP1 PUSH2 0x2729 JUMP JUMPDEST PUSH1 0x40 MLOAD DUP1 SWAP2 SUB SWAP1 RETURN JUMPDEST PUSH2 0x3C5 PUSH1 0x4 DUP1 CALLDATASIZE SUB DUP2 ADD SWAP1 PUSH2 0x3C0 SWAP2 SWAP1 PUSH2 0x27AA JUMP JUMPDEST PUSH2 0x15B1 JUMP JUMPDEST STOP JUMPDEST PUSH2 0x3E1 PUSH1 0x4 DUP1 CALLDATASIZE SUB DUP2 ADD SWAP1 PUSH2 0x3DC SWAP2 SWAP1 PUSH2 0x26FE JUMP JUMPDEST PUSH2 0x171F JUMP JUMPDEST PUSH1 0x40 MLOAD PUSH2 0x3EE SWAP2 SWAP1 PUSH2 0x23D4 JUMP JUMPDEST PUSH1 0x40 MLOAD DUP1 SWAP2 SUB SWAP1 RETURN JUMPDEST PUSH2 0x411 PUSH1 0x4 DUP1 CALLDATASIZE SUB DUP2 ADD SWAP1 PUSH2 0x40C SWAP2 SWAP1 PUSH2 0x241F JUMP JUMPDEST PUSH2 0x1734 JUMP JUMPDEST PUSH1 0x40 MLOAD PUSH2 0x41E SWAP2 SWAP1 PUSH2 0x2664 JUMP JUMPDEST PUSH1 0x40 MLOAD DUP1 SWAP2 SUB SWAP1 RETURN JUMPDEST PUSH2 0x441 PUSH1 0x4 DUP1 CALLDATASIZE SUB DUP2 ADD SWAP1 PUSH2 0x43C SWAP2 SWAP1 PUSH2 0x26FE JUMP JUMPDEST PUSH2 0x1764 JUMP JUMPDEST STOP JUMPDEST PUSH2 0x45D PUSH1 0x4 DUP1 CALLDATASIZE SUB DUP2 ADD SWAP1 PUSH2 0x458 SWAP2 SWAP1 PUSH2 0x241F JUMP JUMPDEST PUSH2 0x188F JUMP JUMPDEST PUSH1 0x40 MLOAD PUSH2 0x46A SWAP2 SWAP1 PUSH2 0x23D4 JUMP JUMPDEST PUSH1 0x40 MLOAD DUP1 SWAP2 SUB SWAP1 RETURN JUMPDEST PUSH2 0x47B PUSH2 0x18A4 JUMP JUMPDEST PUSH1 0x40 MLOAD PUSH2 0x488 SWAP2 SWAP1 PUSH2 0x23D4 JUMP JUMPDEST PUSH1 0x40 MLOAD DUP1 SWAP2 SUB SWAP1 RETURN JUMPDEST PUSH2 0x4AB PUSH1 0x4 DUP1 CALLDATASIZE SUB DUP2 ADD SWAP1 PUSH2 0x4A6 SWAP2 SWAP1 PUSH2 0x241F JUMP JUMPDEST PUSH2 0x18A9 JUMP JUMPDEST PUSH1 0x40 MLOAD PUSH2 0x4BB SWAP5 SWAP4 SWAP3 SWAP2 SWAP1 PUSH2 0x2807 JUMP JUMPDEST PUSH1 0x40 MLOAD DUP1 SWAP2 SUB SWAP1 RETURN JUMPDEST PUSH1 0x1 SLOAD DUP2 JUMP JUMPDEST PUSH0 DUP1 SLOAD SWAP1 PUSH2 0x100 EXP SWAP1 DIV PUSH20 0xFFFFFFFFFFFFFFFFFFFFFFFFFFFFFFFFFFFFFFFF AND PUSH20 0xFFFFFFFFFFFFFFFFFFFFFFFFFFFFFFFFFFFFFFFF AND CALLER PUSH20 0xFFFFFFFFFFFFFFFFFFFFFFFFFFFFFFFFFFFFFFFF AND EQ PUSH2 0x54E JUMPI PUSH1 0x40 MLOAD PUSH32 0x30CD747100000000000000000000000000000000000000000000000000000000 DUP2 MSTORE PUSH1 0x4 ADD PUSH1 0x40 MLOAD DUP1 SWAP2 SUB SWAP1 REVERT JUMPDEST DUP1 PUSH1 0x1 DUP2 SWAP1 SSTORE POP PUSH32 0x7429795511C1EC5EBCC0E6839095EC18F13FCE25CDC7C90DA9D8A016584A1DBE DUP2 PUSH1 0x40 MLOAD PUSH2 0x584 SWAP2 SWAP1 PUSH2 0x23D4 JUMP JUMPDEST PUSH1 0x40 MLOAD DUP1 SWAP2 SUB SWAP1 LOG1 POP JUMP JUMPDEST PUSH1 0x3 SLOAD DUP2 JUMP JUMPDEST PUSH0 DUP1 SLOAD SWAP1 PUSH2 0x100 EXP SWAP1 DIV PUSH20 0xFFFFFFFFFFFFFFFFFFFFFFFFFFFFFFFFFFFFFFFF AND PUSH20 0xFFFFFFFFFFFFFFFFFFFFFFFFFFFFFFFFFFFFFFFF AND CALLER PUSH20 0xFFFFFFFFFFFFFFFFFFFFFFFFFFFFFFFFFFFFFFFF AND EQ PUSH2 0x619 JUMPI PUSH1 0x40 MLOAD PUSH32 0x30CD747100000000000000000000000000000000000000000000000000000000 DUP2 MSTORE PUSH1 0x4 ADD PUSH1 0x40 MLOAD DUP1 SWAP2 SUB SWAP1 REVERT JUMPDEST DUP1 PUSH1 0x1 DUP2 SWAP1 SSTORE POP PUSH32 0xCB94909754D27C309ADF4167150F1F7AA04DE40B6A0E6BB98B2AE80A2BF438F6 DUP2 PUSH1 0x40 MLOAD PUSH2 0x64F SWAP2 SWAP1 PUSH2 0x23D4 JUMP JUMPDEST PUSH1 0x40 MLOAD DUP1 SWAP2 SUB SWAP1 LOG1 POP JUMP JUMPDEST PUSH32 0x0 DUP2 JUMP JUMPDEST PUSH0 DUP1 SLOAD SWAP1 PUSH2 0x100 EXP SWAP1 DIV PUSH20 0xFFFFFFFFFFFFFFFFFFFFFFFFFFFFFFFFFFFFFFFF AND PUSH20 0xFFFFFFFFFFFFFFFFFFFFFFFFFFFFFFFFFFFFFFFF AND CALLER PUSH20 0xFFFFFFFFFFFFFFFFFFFFFFFFFFFFFFFFFFFFFFFF AND EQ PUSH2 0x702 JUMPI PUSH1 0x40 MLOAD PUSH32 0x30CD747100000000000000000000000000000000000000000000000000000000 DUP2 MSTORE PUSH1 0x4 ADD PUSH1 0x40 MLOAD DUP1 SWAP2 SUB SWAP1 REVERT JUMPDEST PUSH1 0x1 PUSH1 0x3 PUSH0 DUP3 DUP3 SLOAD PUSH2 0x714 SWAP2 SWAP1 PUSH2 0x2877 JUMP JUMPDEST SWAP3 POP POP DUP2 SWAP1 SSTORE POP PUSH0 PUSH1 0x5 PUSH0 PUSH1 0x3 SLOAD DUP2 MSTORE PUSH1 0x20 ADD SWAP1 DUP2 MSTORE PUSH1 0x20 ADD PUSH0 KECCAK256 SWAP1 POP PUSH1 0x64 DUP2 PUSH0 ADD DUP2 SWAP1 SSTORE POP PUSH0 DUP2 PUSH1 0x1 ADD DUP2 SWAP1 SSTORE POP PUSH0 DUP2 PUSH1 0x3 ADD PUSH0 PUSH2 0x100 EXP DUP2 SLOAD DUP2 PUSH1 0xFF MUL NOT AND SWAP1 DUP4 ISZERO ISZERO MUL OR SWAP1 SSTORE POP PUSH1 0x3 SLOAD PUSH32 0xA9BB9F177C59B93F2B7ABB2DFB6FFC1518C0D3A40145C47A372F46E70D011D15 PUSH1 0x64 PUSH1 0x40 MLOAD PUSH2 0x791 SWAP2 SWAP1 PUSH2 0x23D4 JUMP JUMPDEST PUSH1 0x40 MLOAD DUP1 SWAP2 SUB SWAP1 LOG2 POP JUMP JUMPDEST PUSH0 DUP1 SLOAD SWAP1 PUSH2 0x100 EXP SWAP1 DIV PUSH20 0xFFFFFFFFFFFFFFFFFFFFFFFFFFFFFFFFFFFFFFFF AND PUSH20 0xFFFFFFFFFFFFFFFFFFFFFFFFFFFFFFFFFFFFFFFF AND CALLER PUSH20 0xFFFFFFFFFFFFFFFFFFFFFFFFFFFFFFFFFFFFFFFF AND EQ PUSH2 0x820 JUMPI PUSH1 0x40 MLOAD PUSH32 0x30CD747100000000000000000000000000000000000000000000000000000000 DUP2 MSTORE PUSH1 0x4 ADD PUSH1 0x40 MLOAD DUP1 SWAP2 SUB SWAP1 REVERT JUMPDEST PUSH0 DUP2 EQ DUP1 PUSH2 0x82F JUMPI POP PUSH1 0x3 SLOAD DUP2 GT JUMPDEST ISZERO PUSH2 0x871 JUMPI DUP1 PUSH1 0x40 MLOAD PUSH32 0xC68E534300000000000000000000000000000000000000000000000000000000 DUP2 MSTORE PUSH1 0x4 ADD PUSH2 0x868 SWAP2 SWAP1 PUSH2 0x23D4 JUMP JUMPDEST PUSH1 0x40 MLOAD DUP1 SWAP2 SUB SWAP1 REVERT JUMPDEST PUSH0 PUSH1 0x5 PUSH0 DUP4 DUP2 MSTORE PUSH1 0x20 ADD SWAP1 DUP2 MSTORE PUSH1 0x20 ADD PUSH0 KECCAK256 SWAP1 POP DUP1 PUSH1 0x3 ADD PUSH0 SWAP1 SLOAD SWAP1 PUSH2 0x100 EXP SWAP1 DIV PUSH1 0xFF AND PUSH2 0x8D7 JUMPI DUP2 PUSH1 0x40 MLOAD PUSH32 0x5277EACD00000000000000000000000000000000000000000000000000000000 DUP2 MSTORE PUSH1 0x4 ADD PUSH2 0x8CE SWAP2 SWAP1 PUSH2 0x23D4 JUMP JUMPDEST PUSH1 0x40 MLOAD DUP1 SWAP2 SUB SWAP1 REVERT JUMPDEST PUSH1 0xA PUSH0 DUP4 DUP2 MSTORE PUSH1 0x20 ADD SWAP1 DUP2 MSTORE PUSH1 0x20 ADD PUSH0 KECCAK256 PUSH0 SWAP1 SLOAD SWAP1 PUSH2 0x100 EXP SWAP1 DIV PUSH1 0xFF AND ISZERO PUSH2 0x937 JUMPI DUP2 PUSH1 0x40 MLOAD PUSH32 0x6FABCDEC00000000000000000000000000000000000000000000000000000000 DUP2 MSTORE PUSH1 0x4 ADD PUSH2 0x92E SWAP2 SWAP1 PUSH2 0x23D4 JUMP JUMPDEST PUSH1 0x40 MLOAD DUP1 SWAP2 SUB SWAP1 REVERT JUMPDEST PUSH0 PUSH1 0xA PUSH8 0xFFFFFFFFFFFFFFFF DUP2 GT ISZERO PUSH2 0x953 JUMPI PUSH2 0x952 PUSH2 0x28AA JUMP JUMPDEST JUMPDEST PUSH1 0x40 MLOAD SWAP1 DUP1 DUP3 MSTORE DUP1 PUSH1 0x20 MUL PUSH1 0x20 ADD DUP3 ADD PUSH1 0x40 MSTORE DUP1 ISZERO PUSH2 0x981 JUMPI DUP2 PUSH1 0x20 ADD PUSH1 0x20 DUP3 MUL DUP1 CALLDATASIZE DUP4 CALLDATACOPY DUP1 DUP3 ADD SWAP2 POP POP SWAP1 POP JUMPDEST POP SWAP1 POP PUSH0 DUP1 JUMPDEST DUP4 PUSH1 0x2 ADD DUP1 SLOAD SWAP1 POP DUP2 LT ISZERO PUSH2 0xA96 JUMPI PUSH0 DUP5 PUSH1 0x2 ADD DUP3 DUP2 SLOAD DUP2 LT PUSH2 0x9AD JUMPI PUSH2 0x9AC PUSH2 0x28D7 JUMP JUMPDEST JUMPDEST SWAP1 PUSH0 MSTORE PUSH1 0x20 PUSH0 KECCAK256 ADD SLOAD SWAP1 POP PUSH0 DUP2 PUSH1 0x80 DUP9 SWAP1 SHL OR SWAP1 POP PUSH0 PUSH1 0x7 PUSH0 DUP4 DUP2 MSTORE PUSH1 0x20 ADD SWAP1 DUP2 MSTORE PUSH1 0x20 ADD PUSH0 KECCAK256 PUSH0 SWAP1 SLOAD SWAP1 PUSH2 0x100 EXP SWAP1 DIV PUSH20 0xFFFFFFFFFFFFFFFFFFFFFFFFFFFFFFFFFFFFFFFF AND SWAP1 POP PUSH0 PUSH20 0xFFFFFFFFFFFFFFFFFFFFFFFFFFFFFFFFFFFFFFFF AND DUP2 PUSH20 0xFFFFFFFFFFFFFFFFFFFFFFFFFFFFFFFFFFFFFFFF AND EQ PUSH2 0xA86 JUMPI DUP1 DUP7 DUP7 DUP2 MLOAD DUP2 LT PUSH2 0xA3D JUMPI PUSH2 0xA3C PUSH2 0x28D7 JUMP JUMPDEST JUMPDEST PUSH1 0x20 MUL PUSH1 0x20 ADD ADD SWAP1 PUSH20 0xFFFFFFFFFFFFFFFFFFFFFFFFFFFFFFFFFFFFFFFF AND SWAP1 DUP2 PUSH20 0xFFFFFFFFFFFFFFFFFFFFFFFFFFFFFFFFFFFFFFFF AND DUP2 MSTORE POP POP DUP5 DUP1 PUSH2 0xA82 SWAP1 PUSH2 0x2904 JUMP JUMPDEST SWAP6 POP POP JUMPDEST POP POP POP DUP1 DUP1 PUSH1 0x1 ADD SWAP2 POP POP PUSH2 0x987 JUMP JUMPDEST POP PUSH0 DUP2 SUB PUSH2 0xADB JUMPI DUP4 PUSH1 0x40 MLOAD PUSH32 0xF0FC51CC00000000000000000000000000000000000000000000000000000000 DUP2 MSTORE PUSH1 0x4 ADD PUSH2 0xAD2 SWAP2 SWAP1 PUSH2 0x23D4 JUMP JUMPDEST PUSH1 0x40 MLOAD DUP1 SWAP2 SUB SWAP1 REVERT JUMPDEST PUSH0 PUSH1 0x1 SLOAD DUP5 PUSH1 0x1 ADD SLOAD PUSH2 0xAEE SWAP2 SWAP1 PUSH2 0x294B JUMP JUMPDEST SWAP1 POP PUSH0 PUSH8 0xDE0B6B3A7640000 PUSH1 0x4 SLOAD PUSH2 0xB07 SWAP2 SWAP1 PUSH2 0x294B JUMP JUMPDEST SWAP1 POP PUSH0 PUSH32 0x0 PUSH20 0xFFFFFFFFFFFFFFFFFFFFFFFFFFFFFFFFFFFFFFFF AND PUSH4 0x70A08231 ADDRESS PUSH1 0x40 MLOAD DUP3 PUSH4 0xFFFFFFFF AND PUSH1 0xE0 SHL DUP2 MSTORE PUSH1 0x4 ADD PUSH2 0xB63 SWAP2 SWAP1 PUSH2 0x2664 JUMP JUMPDEST PUSH1 0x20 PUSH1 0x40 MLOAD DUP1 DUP4 SUB DUP2 DUP7 GAS STATICCALL ISZERO DUP1 ISZERO PUSH2 0xB7E JUMPI RETURNDATASIZE PUSH0 DUP1 RETURNDATACOPY RETURNDATASIZE PUSH0 REVERT JUMPDEST POP POP POP POP PUSH1 0x40 MLOAD RETURNDATASIZE PUSH1 0x1F NOT PUSH1 0x1F DUP3 ADD AND DUP3 ADD DUP1 PUSH1 0x40 MSTORE POP DUP2 ADD SWAP1 PUSH2 0xBA2 SWAP2 SWAP1 PUSH2 0x29A0 JUMP JUMPDEST SWAP1 POP DUP3 DUP2 LT ISZERO PUSH2 0xBBF JUMPI DUP1 SWAP3 POP PUSH1 0xA DUP4 PUSH2 0xBBC SWAP2 SWAP1 PUSH2 0x29F8 JUMP JUMPDEST SWAP2 POP JUMPDEST PUSH0 JUMPDEST DUP5 DUP2 LT ISZERO PUSH2 0xD1C JUMPI PUSH0 PUSH20 0xFFFFFFFFFFFFFFFFFFFFFFFFFFFFFFFFFFFFFFFF AND DUP7 DUP3 DUP2 MLOAD DUP2 LT PUSH2 0xBF3 JUMPI PUSH2 0xBF2 PUSH2 0x28D7 JUMP JUMPDEST JUMPDEST PUSH1 0x20 MUL PUSH1 0x20 ADD ADD MLOAD PUSH20 0xFFFFFFFFFFFFFFFFFFFFFFFFFFFFFFFFFFFFFFFF AND EQ ISZERO DUP1 ISZERO PUSH2 0xC1E JUMPI POP PUSH0 DUP4 GT JUMPDEST ISZERO PUSH2 0xD0F JUMPI PUSH32 0x0 PUSH20 0xFFFFFFFFFFFFFFFFFFFFFFFFFFFFFFFFFFFFFFFF AND PUSH4 0xA9059CBB DUP8 DUP4 DUP2 MLOAD DUP2 LT PUSH2 0xC72 JUMPI PUSH2 0xC71 PUSH2 0x28D7 JUMP JUMPDEST JUMPDEST PUSH1 0x20 MUL PUSH1 0x20 ADD ADD MLOAD DUP6 PUSH1 0x40 MLOAD DUP4 PUSH4 0xFFFFFFFF AND PUSH1 0xE0 SHL DUP2 MSTORE PUSH1 0x4 ADD PUSH2 0xC98 SWAP3 SWAP2 SWAP1 PUSH2 0x2A28 JUMP JUMPDEST PUSH1 0x20 PUSH1 0x40 MLOAD DUP1 DUP4 SUB DUP2 PUSH0 DUP8 GAS CALL ISZERO DUP1 ISZERO PUSH2 0xCB4 JUMPI RETURNDATASIZE PUSH0 DUP1 RETURNDATACOPY RETURNDATASIZE PUSH0 REVERT JUMPDEST POP POP POP POP PUSH1 0x40 MLOAD RETURNDATASIZE PUSH1 0x1F NOT PUSH1 0x1F DUP3 ADD AND DUP3 ADD DUP1 PUSH1 0x40 MSTORE POP DUP2 ADD SWAP1 PUSH2 0xCD8 SWAP2 SWAP1 PUSH2 0x2A79 JUMP JUMPDEST PUSH2 0xD0E JUMPI PUSH1 0x40 MLOAD PUSH32 0x90B8EC1800000000000000000000000000000000000000000000000000000000 DUP2 MSTORE PUSH1 0x4 ADD PUSH1 0x40 MLOAD DUP1 SWAP2 SUB SWAP1 REVERT JUMPDEST JUMPDEST DUP1 DUP1 PUSH1 0x1 ADD SWAP2 POP POP PUSH2 0xBC1 JUMP JUMPDEST POP PUSH1 0x1 PUSH1 0xA PUSH0 DUP10 DUP2 MSTORE PUSH1 0x20 ADD SWAP1 DUP2 MSTORE PUSH1 0x20 ADD PUSH0 KECCAK256 PUSH0 PUSH2 0x100 EXP DUP2 SLOAD DUP2 PUSH1 0xFF MUL NOT AND SWAP1 DUP4 ISZERO ISZERO MUL OR SWAP1 SSTORE POP PUSH0 PUSH2 0xD51 DUP7 DUP7 PUSH2 0x18E1 JUMP JUMPDEST SWAP1 POP DUP8 PUSH32 0x304B0F51AFF1FA2E109DCC4743E16C2985EAD88EEE868723E54DF3013F3B721F DUP3 DUP6 DUP9 DUP8 PUSH2 0xD83 SWAP2 SWAP1 PUSH2 0x294B JUMP JUMPDEST PUSH1 0x40 MLOAD PUSH2 0xD92 SWAP4 SWAP3 SWAP2 SWAP1 PUSH2 0x2B5B JUMP JUMPDEST PUSH1 0x40 MLOAD DUP1 SWAP2 SUB SWAP1 LOG2 POP POP POP POP POP POP POP POP JUMP JUMPDEST PUSH0 DUP1 PUSH0 DUP1 PUSH1 0x60 PUSH0 PUSH1 0x5 PUSH0 DUP9 DUP2 MSTORE PUSH1 0x20 ADD SWAP1 DUP2 MSTORE PUSH1 0x20 ADD PUSH0 KECCAK256 SWAP1 POP PUSH0 PUSH1 0x5A DUP3 PUSH1 0x1 ADD SLOAD LT ISZERO DUP1 ISZERO PUSH2 0xDE2 JUMPI POP DUP2 PUSH1 0x3 ADD PUSH0 SWAP1 SLOAD SWAP1 PUSH2 0x100 EXP SWAP1 DIV PUSH1 0xFF AND ISZERO JUMPDEST SWAP1 POP DUP2 PUSH0 ADD SLOAD DUP3 PUSH1 0x1 ADD SLOAD DUP4 PUSH1 0x3 ADD PUSH0 SWAP1 SLOAD SWAP1 PUSH2 0x100 EXP SWAP1 DIV PUSH1 0xFF AND DUP4 DUP6 PUSH1 0x2 ADD DUP1 DUP1 SLOAD DUP1 PUSH1 0x20 MUL PUSH1 0x20 ADD PUSH1 0x40 MLOAD SWAP1 DUP2 ADD PUSH1 0x40 MSTORE DUP1 SWAP3 SWAP2 SWAP1 DUP2 DUP2 MSTORE PUSH1 0x20 ADD DUP3 DUP1 SLOAD DUP1 ISZERO PUSH2 0xE4C JUMPI PUSH1 0x20 MUL DUP3 ADD SWAP2 SWAP1 PUSH0 MSTORE PUSH1 0x20 PUSH0 KECCAK256 SWAP1 JUMPDEST DUP2 SLOAD DUP2 MSTORE PUSH1 0x20 ADD SWAP1 PUSH1 0x1 ADD SWAP1 DUP1 DUP4 GT PUSH2 0xE38 JUMPI JUMPDEST POP POP POP POP POP SWAP1 POP SWAP7 POP SWAP7 POP SWAP7 POP SWAP7 POP SWAP7 POP POP POP SWAP2 SWAP4 SWAP6 SWAP1 SWAP3 SWAP5 POP JUMP JUMPDEST PUSH1 0x5A DUP2 JUMP JUMPDEST PUSH0 DUP1 SLOAD SWAP1 PUSH2 0x100 EXP SWAP1 DIV PUSH20 0xFFFFFFFFFFFFFFFFFFFFFFFFFFFFFFFFFFFFFFFF AND PUSH20 0xFFFFFFFFFFFFFFFFFFFFFFFFFFFFFFFFFFFFFFFF AND CALLER PUSH20 0xFFFFFFFFFFFFFFFFFFFFFFFFFFFFFFFFFFFFFFFF AND EQ PUSH2 0xEF1 JUMPI PUSH1 0x40 MLOAD PUSH32 0x30CD747100000000000000000000000000000000000000000000000000000000 DUP2 MSTORE PUSH1 0x4 ADD PUSH1 0x40 MLOAD DUP1 SWAP2 SUB SWAP1 REVERT JUMPDEST PUSH0 DUP2 EQ DUP1 PUSH2 0xF00 JUMPI POP PUSH1 0x3 SLOAD DUP2 GT JUMPDEST ISZERO PUSH2 0xF42 JUMPI DUP1 PUSH1 0x40 MLOAD PUSH32 0xC68E534300000000000000000000000000000000000000000000000000000000 DUP2 MSTORE PUSH1 0x4 ADD PUSH2 0xF39 SWAP2 SWAP1 PUSH2 0x23D4 JUMP JUMPDEST PUSH1 0x40 MLOAD DUP1 SWAP2 SUB SWAP1 REVERT JUMPDEST PUSH0 PUSH1 0x5 PUSH0 DUP4 DUP2 MSTORE PUSH1 0x20 ADD SWAP1 DUP2 MSTORE PUSH1 0x20 ADD PUSH0 KECCAK256 SWAP1 POP PUSH1 0x5A DUP2 PUSH1 0x1 ADD SLOAD LT ISZERO PUSH2 0xFA0 JUMPI DUP2 PUSH1 0x40 MLOAD PUSH32 0x5337FA1C00000000000000000000000000000000000000000000000000000000 DUP2 MSTORE PUSH1 0x4 ADD PUSH2 0xF97 SWAP2 SWAP1 PUSH2 0x23D4 JUMP JUMPDEST PUSH1 0x40 MLOAD DUP1 SWAP2 SUB SWAP1 REVERT JUMPDEST DUP1 PUSH1 0x3 ADD PUSH0 SWAP1 SLOAD SWAP1 PUSH2 0x100 EXP SWAP1 DIV PUSH1 0xFF AND ISZERO PUSH2 0xFF3 JUMPI DUP2 PUSH1 0x40 MLOAD PUSH32 0x6B83BFBB00000000000000000000000000000000000000000000000000000000 DUP2 MSTORE PUSH1 0x4 ADD PUSH2 0xFEA SWAP2 SWAP1 PUSH2 0x23D4 JUMP JUMPDEST PUSH1 0x40 MLOAD DUP1 SWAP2 SUB SWAP1 REVERT JUMPDEST PUSH0 PUSH1 0x1 NUMBER PUSH2 0x1001 SWAP2 SWAP1 PUSH2 0x2B97 JUMP JUMPDEST BLOCKHASH TIMESTAMP PREVRANDAO CALLER DUP7 DUP7 PUSH1 0x1 ADD SLOAD PUSH1 0x40 MLOAD PUSH1 0x20 ADD PUSH2 0x1020 SWAP7 SWAP6 SWAP5 SWAP4 SWAP3 SWAP2 SWAP1 PUSH2 0x2C58 JUMP JUMPDEST PUSH1 0x40 MLOAD PUSH1 0x20 DUP2 DUP4 SUB SUB DUP2 MSTORE SWAP1 PUSH1 0x40 MSTORE DUP1 MLOAD SWAP1 PUSH1 0x20 ADD KECCAK256 PUSH0 SHR SWAP1 POP DUP1 DUP3 PUSH1 0x4 ADD DUP2 SWAP1 SSTORE POP PUSH0 PUSH2 0x1052 DUP3 DUP5 PUSH1 0x1 ADD SLOAD PUSH2 0x1B7C JUMP JUMPDEST SWAP1 POP DUP1 DUP4 PUSH1 0x2 ADD SWAP1 DUP1 MLOAD SWAP1 PUSH1 0x20 ADD SWAP1 PUSH2 0x106C SWAP3 SWAP2 SWAP1 PUSH2 0x2333 JUMP JUMPDEST POP PUSH1 0x1 DUP4 PUSH1 0x3 ADD PUSH0 PUSH2 0x100 EXP DUP2 SLOAD DUP2 PUSH1 0xFF MUL NOT AND SWAP1 DUP4 ISZERO ISZERO MUL OR SWAP1 SSTORE POP DUP4 PUSH32 0xB9B63D02DBCB30A774C4322C8B5F9AFD79EDF26B84FA733C10D1D940A1F357A9 DUP3 DUP5 PUSH1 0x40 MLOAD PUSH2 0x10BB SWAP3 SWAP2 SWAP1 PUSH2 0x2CC7 JUMP JUMPDEST PUSH1 0x40 MLOAD DUP1 SWAP2 SUB SWAP1 LOG2 POP POP POP POP JUMP JUMPDEST PUSH0 DUP2 SUB PUSH2 0x1102 JUMPI PUSH1 0x40 MLOAD PUSH32 0x8E71BEF900000000000000000000000000000000000000000000000000000000 DUP2 MSTORE PUSH1 0x4 ADD PUSH1 0x40 MLOAD DUP1 SWAP2 SUB SWAP1 REVERT JUMPDEST PUSH0 DUP3 EQ DUP1 PUSH2 0x1111 JUMPI POP PUSH1 0x3 SLOAD DUP3 GT JUMPDEST ISZERO PUSH2 0x1153 JUMPI DUP2 PUSH1 0x40 MLOAD PUSH32 0xC68E534300000000000000000000000000000000000000000000000000000000 DUP2 MSTORE PUSH1 0x4 ADD PUSH2 0x114A SWAP2 SWAP1 PUSH2 0x23D4 JUMP JUMPDEST PUSH1 0x40 MLOAD DUP1 SWAP2 SUB SWAP1 REVERT JUMPDEST PUSH0 PUSH1 0x5 PUSH0 DUP5 DUP2 MSTORE PUSH1 0x20 ADD SWAP1 DUP2 MSTORE PUSH1 0x20 ADD PUSH0 KECCAK256 SWAP1 POP DUP1 PUSH1 0x3 ADD PUSH0 SWAP1 SLOAD SWAP1 PUSH2 0x100 EXP SWAP1 DIV PUSH1 0xFF AND ISZERO PUSH2 0x11BA JUMPI DUP3 PUSH1 0x40 MLOAD PUSH32 0x127A8A7200000000000000000000000000000000000000000000000000000000 DUP2 MSTORE PUSH1 0x4 ADD PUSH2 0x11B1 SWAP2 SWAP1 PUSH2 0x23D4 JUMP JUMPDEST PUSH1 0x40 MLOAD DUP1 SWAP2 SUB SWAP1 REVERT JUMPDEST PUSH0 DUP2 PUSH1 0x1 ADD SLOAD DUP3 PUSH0 ADD SLOAD PUSH2 0x11CE SWAP2 SWAP1 PUSH2 0x2B97 JUMP JUMPDEST SWAP1 POP DUP1 DUP4 GT ISZERO PUSH2 0x120A JUMPI PUSH1 0x40 MLOAD PUSH32 0x19E215BC00000000000000000000000000000000000000000000000000000000 DUP2 MSTORE PUSH1 0x4 ADD PUSH1 0x40 MLOAD DUP1 SWAP2 SUB SWAP1 REVERT JUMPDEST PUSH0 DUP4 PUSH8 0xFFFFFFFFFFFFFFFF DUP2 GT ISZERO PUSH2 0x1225 JUMPI PUSH2 0x1224 PUSH2 0x28AA JUMP JUMPDEST JUMPDEST PUSH1 0x40 MLOAD SWAP1 DUP1 DUP3 MSTORE DUP1 PUSH1 0x20 MUL PUSH1 0x20 ADD DUP3 ADD PUSH1 0x40 MSTORE DUP1 ISZERO PUSH2 0x1253 JUMPI DUP2 PUSH1 0x20 ADD PUSH1 0x20 DUP3 MUL DUP1 CALLDATASIZE DUP4 CALLDATACOPY DUP1 DUP3 ADD SWAP2 POP POP SWAP1 POP JUMPDEST POP SWAP1 POP PUSH0 PUSH1 0x1 DUP5 PUSH1 0x1 ADD SLOAD PUSH2 0x1268 SWAP2 SWAP1 PUSH2 0x2877 JUMP JUMPDEST SWAP1 POP PUSH0 JUMPDEST DUP6 DUP2 LT ISZERO PUSH2 0x12AC JUMPI DUP1 DUP3 PUSH2 0x1280 SWAP2 SWAP1 PUSH2 0x2877 JUMP JUMPDEST DUP4 DUP3 DUP2 MLOAD DUP2 LT PUSH2 0x1293 JUMPI PUSH2 0x1292 PUSH2 0x28D7 JUMP JUMPDEST JUMPDEST PUSH1 0x20 MUL PUSH1 0x20 ADD ADD DUP2 DUP2 MSTORE POP POP DUP1 DUP1 PUSH1 0x1 ADD SWAP2 POP POP PUSH2 0x126C JUMP JUMPDEST POP PUSH2 0x12B9 CALLER DUP8 DUP7 DUP6 PUSH2 0x1DB5 JUMP JUMPDEST POP POP POP POP POP POP JUMP JUMPDEST PUSH1 0x4 SLOAD DUP2 JUMP JUMPDEST PUSH0 DUP1 SLOAD SWAP1 PUSH2 0x100 EXP SWAP1 DIV PUSH20 0xFFFFFFFFFFFFFFFFFFFFFFFFFFFFFFFFFFFFFFFF AND DUP2 JUMP JUMPDEST PUSH1 0xA DUP2 JUMP JUMPDEST PUSH1 0x2 SLOAD DUP2 JUMP JUMPDEST PUSH0 DUP1 SLOAD SWAP1 PUSH2 0x100 EXP SWAP1 DIV PUSH20 0xFFFFFFFFFFFFFFFFFFFFFFFFFFFFFFFFFFFFFFFF AND PUSH20 0xFFFFFFFFFFFFFFFFFFFFFFFFFFFFFFFFFFFFFFFF AND CALLER PUSH20 0xFFFFFFFFFFFFFFFFFFFFFFFFFFFFFFFFFFFFFFFF AND EQ PUSH2 0x1379 JUMPI PUSH1 0x40 MLOAD PUSH32 0x30CD747100000000000000000000000000000000000000000000000000000000 DUP2 MSTORE PUSH1 0x4 ADD PUSH1 0x40 MLOAD DUP1 SWAP2 SUB SWAP1 REVERT JUMPDEST PUSH0 PUSH20 0xFFFFFFFFFFFFFFFFFFFFFFFFFFFFFFFFFFFFFFFF AND DUP3 PUSH20 0xFFFFFFFFFFFFFFFFFFFFFFFFFFFFFFFFFFFFFFFF AND SUB PUSH2 0x13DE JUMPI PUSH1 0x40 MLOAD PUSH32 0xE6C4247B00000000000000000000000000000000000000000000000000000000 DUP2 MSTORE PUSH1 0x4 ADD PUSH1 0x40 MLOAD DUP1 SWAP2 SUB SWAP1 REVERT JUMPDEST PUSH32 0x0 PUSH20 0xFFFFFFFFFFFFFFFFFFFFFFFFFFFFFFFFFFFFFFFF AND PUSH4 0xA9059CBB DUP4 DUP4 PUSH1 0x40 MLOAD DUP4 PUSH4 0xFFFFFFFF AND PUSH1 0xE0 SHL DUP2 MSTORE PUSH1 0x4 ADD PUSH2 0x1439 SWAP3 SWAP2 SWAP1 PUSH2 0x2A28 JUMP JUMPDEST PUSH1 0x20 PUSH1 0x40 MLOAD DUP1 DUP4 SUB DUP2 PUSH0 DUP8 GAS CALL ISZERO DUP1 ISZERO PUSH2 0x1455 JUMPI RETURNDATASIZE PUSH0 DUP1 RETURNDATACOPY RETURNDATASIZE PUSH0 REVERT JUMPDEST POP POP POP POP PUSH1 0x40 MLOAD RETURNDATASIZE PUSH1 0x1F NOT PUSH1 0x1F DUP3 ADD AND DUP3 ADD DUP1 PUSH1 0x40 MSTORE POP DUP2 ADD SWAP1 PUSH2 0x1479 SWAP2 SWAP1 PUSH2 0x2A79 JUMP JUMPDEST PUSH2 0x14AF JUMPI PUSH1 0x40 MLOAD PUSH32 0x90B8EC1800000000000000000000000000000000000000000000000000000000 DUP2 MSTORE PUSH1 0x4 ADD PUSH1 0x40 MLOAD DUP1 SWAP2 SUB SWAP1 REVERT JUMPDEST DUP2 PUSH20 0xFFFFFFFFFFFFFFFFFFFFFFFFFFFFFFFFFFFFFFFF AND PUSH32 0x884EDAD9CE6FA2440D8A54CC123490EB96D2768479D49FF9C7366125A9424364 DUP3 PUSH1 0x40 MLOAD PUSH2 0x14F5 SWAP2 SWAP1 PUSH2 0x23D4 JUMP JUMPDEST PUSH1 0x40 MLOAD DUP1 SWAP2 SUB SWAP1 LOG2 POP POP JUMP JUMPDEST PUSH1 0xA PUSH1 0x20 MSTORE DUP1 PUSH0 MSTORE PUSH1 0x40 PUSH0 KECCAK256 PUSH0 SWAP2 POP SLOAD SWAP1 PUSH2 0x100 EXP SWAP1 DIV PUSH1 0xFF AND DUP2 JUMP JUMPDEST PUSH1 0x60 PUSH1 0x9 PUSH0 DUP4 PUSH20 0xFFFFFFFFFFFFFFFFFFFFFFFFFFFFFFFFFFFFFFFF AND PUSH20 0xFFFFFFFFFFFFFFFFFFFFFFFFFFFFFFFFFFFFFFFF AND DUP2 MSTORE PUSH1 0x20 ADD SWAP1 DUP2 MSTORE PUSH1 0x20 ADD PUSH0 KECCAK256 DUP1 SLOAD DUP1 PUSH1 0x20 MUL PUSH1 0x20 ADD PUSH1 0x40 MLOAD SWAP1 DUP2 ADD PUSH1 0x40 MSTORE DUP1 SWAP3 SWAP2 SWAP1 DUP2 DUP2 MSTORE PUSH1 0x20 ADD DUP3 DUP1 SLOAD DUP1 ISZERO PUSH2 0x15A5 JUMPI PUSH1 0x20 MUL DUP3 ADD SWAP2 SWAP1 PUSH0 MSTORE PUSH1 0x20 PUSH0 KECCAK256 SWAP1 JUMPDEST DUP2 SLOAD DUP2 MSTORE PUSH1 0x20 ADD SWAP1 PUSH1 0x1 ADD SWAP1 DUP1 DUP4 GT PUSH2 0x1591 JUMPI JUMPDEST POP POP POP POP POP SWAP1 POP SWAP2 SWAP1 POP JUMP JUMPDEST PUSH0 DUP3 DUP3 SWAP1 POP SWAP1 POP PUSH0 DUP2 SUB PUSH2 0x15F1 JUMPI PUSH1 0x40 MLOAD PUSH32 0x8E71BEF900000000000000000000000000000000000000000000000000000000 DUP2 MSTORE PUSH1 0x4 ADD PUSH1 0x40 MLOAD DUP1 SWAP2 SUB SWAP1 REVERT JUMPDEST PUSH0 DUP5 EQ DUP1 PUSH2 0x1600 JUMPI POP PUSH1 0x3 SLOAD DUP5 GT JUMPDEST ISZERO PUSH2 0x1642 JUMPI DUP4 PUSH1 0x40 MLOAD PUSH32 0xC68E534300000000000000000000000000000000000000000000000000000000 DUP2 MSTORE PUSH1 0x4 ADD PUSH2 0x1639 SWAP2 SWAP1 PUSH2 0x23D4 JUMP JUMPDEST PUSH1 0x40 MLOAD DUP1 SWAP2 SUB SWAP1 REVERT JUMPDEST PUSH0 PUSH1 0x5 PUSH0 DUP7 DUP2 MSTORE PUSH1 0x20 ADD SWAP1 DUP2 MSTORE PUSH1 0x20 ADD PUSH0 KECCAK256 SWAP1 POP DUP1 PUSH1 0x3 ADD PUSH0 SWAP1 SLOAD SWAP1 PUSH2 0x100 EXP SWAP1 DIV PUSH1 0xFF AND ISZERO PUSH2 0x16A9 JUMPI DUP5 PUSH1 0x40 MLOAD PUSH32 0x127A8A7200000000000000000000000000000000000000000000000000000000 DUP2 MSTORE PUSH1 0x4 ADD PUSH2 0x16A0 SWAP2 SWAP1 PUSH2 0x23D4 JUMP JUMPDEST PUSH1 0x40 MLOAD DUP1 SWAP2 SUB SWAP1 REVERT JUMPDEST PUSH0 DUP2 PUSH1 0x1 ADD SLOAD DUP3 PUSH0 ADD SLOAD PUSH2 0x16BD SWAP2 SWAP1 PUSH2 0x2B97 JUMP JUMPDEST SWAP1 POP DUP1 DUP4 GT ISZERO PUSH2 0x16F9 JUMPI PUSH1 0x40 MLOAD PUSH32 0x19E215BC00000000000000000000000000000000000000000000000000000000 DUP2 MSTORE PUSH1 0x4 ADD PUSH1 0x40 MLOAD DUP1 SWAP2 SUB SWAP1 REVERT JUMPDEST PUSH0 PUSH2 0x1708 DUP7 DUP7 DUP6 PUSH0 ADD SLOAD PUSH2 0x1FD6 JUMP JUMPDEST SWAP1 POP PUSH2 0x1716 CALLER DUP9 DUP6 DUP5 PUSH2 0x1DB5 JUMP JUMPDEST POP POP POP POP POP POP POP JUMP JUMPDEST PUSH1 0x6 PUSH1 0x20 MSTORE DUP1 PUSH0 MSTORE PUSH1 0x40 PUSH0 KECCAK256 PUSH0 SWAP2 POP SWAP1 POP SLOAD DUP2 JUMP JUMPDEST PUSH1 0x7 PUSH1 0x20 MSTORE DUP1 PUSH0 MSTORE PUSH1 0x40 PUSH0 KECCAK256 PUSH0 SWAP2 POP SLOAD SWAP1 PUSH2 0x100 EXP SWAP1 DIV PUSH20 0xFFFFFFFFFFFFFFFFFFFFFFFFFFFFFFFFFFFFFFFF AND DUP2 JUMP JUMPDEST PUSH0 DUP1 SLOAD SWAP1 PUSH2 0x100 EXP SWAP1 DIV PUSH20 0xFFFFFFFFFFFFFFFFFFFFFFFFFFFFFFFFFFFFFFFF AND PUSH20 0xFFFFFFFFFFFFFFFFFFFFFFFFFFFFFFFFFFFFFFFF AND CALLER PUSH20 0xFFFFFFFFFFFFFFFFFFFFFFFFFFFFFFFFFFFFFFFF AND EQ PUSH2 0x17E8 JUMPI PUSH1 0x40 MLOAD PUSH32 0x30CD747100000000000000000000000000000000000000000000000000000000 DUP2 MSTORE PUSH1 0x4 ADD PUSH1 0x40 MLOAD DUP1 SWAP2 SUB SWAP1 REVERT JUMPDEST PUSH0 PUSH20 0xFFFFFFFFFFFFFFFFFFFFFFFFFFFFFFFFFFFFFFFF AND DUP2 PUSH20 0xFFFFFFFFFFFFFFFFFFFFFFFFFFFFFFFFFFFFFFFF AND SUB PUSH2 0x184D JUMPI PUSH1 0x40 MLOAD PUSH32 0xE6C4247B00000000000000000000000000000000000000000000000000000000 DUP2 MSTORE PUSH1 0x4 ADD PUSH1 0x40 MLOAD DUP1 SWAP2 SUB SWAP1 REVERT JUMPDEST DUP1 PUSH0 DUP1 PUSH2 0x100 EXP DUP2 SLOAD DUP2 PUSH20 0xFFFFFFFFFFFFFFFFFFFFFFFFFFFFFFFFFFFFFFFF MUL NOT AND SWAP1 DUP4 PUSH20 0xFFFFFFFFFFFFFFFFFFFFFFFFFFFFFFFFFFFFFFFF AND MUL OR SWAP1 SSTORE POP POP JUMP JUMPDEST PUSH1 0x8 PUSH1 0x20 MSTORE DUP1 PUSH0 MSTORE PUSH1 0x40 PUSH0 KECCAK256 PUSH0 SWAP2 POP SWAP1 POP SLOAD DUP2 JUMP JUMPDEST PUSH1 0x64 DUP2 JUMP JUMPDEST PUSH1 0x5 PUSH1 0x20 MSTORE DUP1 PUSH0 MSTORE PUSH1 0x40 PUSH0 KECCAK256 PUSH0 SWAP2 POP SWAP1 POP DUP1 PUSH0 ADD SLOAD SWAP1 DUP1 PUSH1 0x1 ADD SLOAD SWAP1 DUP1 PUSH1 0x3 ADD PUSH0 SWAP1 SLOAD SWAP1 PUSH2 0x100 EXP SWAP1 DIV PUSH1 0xFF AND SWAP1 DUP1 PUSH1 0x4 ADD SLOAD SWAP1 POP DUP5 JUMP JUMPDEST PUSH1 0x60 PUSH0 DUP3 PUSH8 0xFFFFFFFFFFFFFFFF DUP2 GT ISZERO PUSH2 0x18FE JUMPI PUSH2 0x18FD PUSH2 0x28AA JUMP JUMPDEST JUMPDEST PUSH1 0x40 MLOAD SWAP1 DUP1 DUP3 MSTORE DUP1 PUSH1 0x20 MUL PUSH1 0x20 ADD DUP3 ADD PUSH1 0x40 MSTORE DUP1 ISZERO PUSH2 0x192C JUMPI DUP2 PUSH1 0x20 ADD PUSH1 0x20 DUP3 MUL DUP1 CALLDATASIZE DUP4 CALLDATACOPY DUP1 DUP3 ADD SWAP2 POP POP SWAP1 POP JUMPDEST POP SWAP1 POP PUSH0 DUP1 JUMPDEST DUP5 DUP2 LT ISZERO PUSH2 0x1AA3 JUMPI PUSH0 PUSH1 0x1 SWAP1 POP PUSH0 JUMPDEST DUP4 DUP2 LT ISZERO PUSH2 0x19C5 JUMPI DUP8 DUP4 DUP2 MLOAD DUP2 LT PUSH2 0x195C JUMPI PUSH2 0x195B PUSH2 0x28D7 JUMP JUMPDEST JUMPDEST PUSH1 0x20 MUL PUSH1 0x20 ADD ADD MLOAD PUSH20 0xFFFFFFFFFFFFFFFFFFFFFFFFFFFFFFFFFFFFFFFF AND DUP6 DUP3 DUP2 MLOAD DUP2 LT PUSH2 0x198D JUMPI PUSH2 0x198C PUSH2 0x28D7 JUMP JUMPDEST JUMPDEST PUSH1 0x20 MUL PUSH1 0x20 ADD ADD MLOAD PUSH20 0xFFFFFFFFFFFFFFFFFFFFFFFFFFFFFFFFFFFFFFFF AND SUB PUSH2 0x19B8 JUMPI PUSH0 SWAP2 POP PUSH2 0x19C5 JUMP JUMPDEST DUP1 DUP1 PUSH1 0x1 ADD SWAP2 POP POP PUSH2 0x1941 JUMP JUMPDEST POP DUP1 DUP1 ISZERO PUSH2 0x1A19 JUMPI POP PUSH0 PUSH20 0xFFFFFFFFFFFFFFFFFFFFFFFFFFFFFFFFFFFFFFFF AND DUP8 DUP4 DUP2 MLOAD DUP2 LT PUSH2 0x19F8 JUMPI PUSH2 0x19F7 PUSH2 0x28D7 JUMP JUMPDEST JUMPDEST PUSH1 0x20 MUL PUSH1 0x20 ADD ADD MLOAD PUSH20 0xFFFFFFFFFFFFFFFFFFFFFFFFFFFFFFFFFFFFFFFF AND EQ ISZERO JUMPDEST ISZERO PUSH2 0x1A95 JUMPI DUP7 DUP3 DUP2 MLOAD DUP2 LT PUSH2 0x1A31 JUMPI PUSH2 0x1A30 PUSH2 0x28D7 JUMP JUMPDEST JUMPDEST PUSH1 0x20 MUL PUSH1 0x20 ADD ADD MLOAD DUP5 DUP5 DUP2 MLOAD DUP2 LT PUSH2 0x1A4C JUMPI PUSH2 0x1A4B PUSH2 0x28D7 JUMP JUMPDEST JUMPDEST PUSH1 0x20 MUL PUSH1 0x20 ADD ADD SWAP1 PUSH20 0xFFFFFFFFFFFFFFFFFFFFFFFFFFFFFFFFFFFFFFFF AND SWAP1 DUP2 PUSH20 0xFFFFFFFFFFFFFFFFFFFFFFFFFFFFFFFFFFFFFFFF AND DUP2 MSTORE POP POP DUP3 DUP1 PUSH2 0x1A91 SWAP1 PUSH2 0x2904 JUMP JUMPDEST SWAP4 POP POP JUMPDEST POP DUP1 DUP1 PUSH1 0x1 ADD SWAP2 POP POP PUSH2 0x1932 JUMP JUMPDEST POP PUSH0 DUP2 PUSH8 0xFFFFFFFFFFFFFFFF DUP2 GT ISZERO PUSH2 0x1ABF JUMPI PUSH2 0x1ABE PUSH2 0x28AA JUMP JUMPDEST JUMPDEST PUSH1 0x40 MLOAD SWAP1 DUP1 DUP3 MSTORE DUP1 PUSH1 0x20 MUL PUSH1 0x20 ADD DUP3 ADD PUSH1 0x40 MSTORE DUP1 ISZERO PUSH2 0x1AED JUMPI DUP2 PUSH1 0x20 ADD PUSH1 0x20 DUP3 MUL DUP1 CALLDATASIZE DUP4 CALLDATACOPY DUP1 DUP3 ADD SWAP2 POP POP SWAP1 POP JUMPDEST POP SWAP1 POP PUSH0 JUMPDEST DUP3 DUP2 LT ISZERO PUSH2 0x1B6F JUMPI DUP4 DUP2 DUP2 MLOAD DUP2 LT PUSH2 0x1B0D JUMPI PUSH2 0x1B0C PUSH2 0x28D7 JUMP JUMPDEST JUMPDEST PUSH1 0x20 MUL PUSH1 0x20 ADD ADD MLOAD DUP3 DUP3 DUP2 MLOAD DUP2 LT PUSH2 0x1B28 JUMPI PUSH2 0x1B27 PUSH2 0x28D7 JUMP JUMPDEST JUMPDEST PUSH1 0x20 MUL PUSH1 0x20 ADD ADD SWAP1 PUSH20 0xFFFFFFFFFFFFFFFFFFFFFFFFFFFFFFFFFFFFFFFF AND SWAP1 DUP2 PUSH20 0xFFFFFFFFFFFFFFFFFFFFFFFFFFFFFFFFFFFFFFFF AND DUP2 MSTORE POP POP DUP1 DUP1 PUSH1 0x1 ADD SWAP2 POP POP PUSH2 0x1AF2 JUMP JUMPDEST POP DUP1 SWAP4 POP POP POP POP SWAP3 SWAP2 POP POP JUMP JUMPDEST PUSH1 0x60 PUSH0 PUSH1 0xA PUSH8 0xFFFFFFFFFFFFFFFF DUP2 GT ISZERO PUSH2 0x1B9A JUMPI PUSH2 0x1B99 PUSH2 0x28AA JUMP JUMPDEST JUMPDEST PUSH1 0x40 MLOAD SWAP1 DUP1 DUP3 MSTORE DUP1 PUSH1 0x20 MUL PUSH1 0x20 ADD DUP3 ADD PUSH1 0x40 MSTORE DUP1 ISZERO PUSH2 0x1BC8 JUMPI DUP2 PUSH1 0x20 ADD PUSH1 0x20 DUP3 MUL DUP1 CALLDATASIZE DUP4 CALLDATACOPY DUP1 DUP3 ADD SWAP2 POP POP SWAP1 POP JUMPDEST POP SWAP1 POP PUSH2 0x1BD3 PUSH2 0x237E JUMP JUMPDEST PUSH0 DUP1 DUP7 SWAP1 POP JUMPDEST PUSH1 0xA DUP3 LT ISZERO PUSH2 0x1DA8 JUMPI DUP1 DUP3 PUSH1 0x40 MLOAD PUSH1 0x20 ADD PUSH2 0x1BF5 SWAP3 SWAP2 SWAP1 PUSH2 0x2CF5 JUMP JUMPDEST PUSH1 0x40 MLOAD PUSH1 0x20 DUP2 DUP4 SUB SUB DUP2 MSTORE SWAP1 PUSH1 0x40 MSTORE DUP1 MLOAD SWAP1 PUSH1 0x20 ADD KECCAK256 PUSH0 SHR SWAP1 POP PUSH0 PUSH1 0x1 PUSH1 0x64 DUP4 PUSH2 0x1C1F SWAP2 SWAP1 PUSH2 0x2D20 JUMP JUMPDEST PUSH2 0x1C29 SWAP2 SWAP1 PUSH2 0x2877 JUMP JUMPDEST SWAP1 POP DUP4 DUP2 PUSH1 0x65 DUP2 LT PUSH2 0x1C3E JUMPI PUSH2 0x1C3D PUSH2 0x28D7 JUMP JUMPDEST JUMPDEST PUSH1 0x20 MUL ADD MLOAD PUSH2 0x1C9A JUMPI PUSH1 0x1 DUP5 DUP3 PUSH1 0x65 DUP2 LT PUSH2 0x1C5C JUMPI PUSH2 0x1C5B PUSH2 0x28D7 JUMP JUMPDEST JUMPDEST PUSH1 0x20 MUL ADD SWAP1 ISZERO ISZERO SWAP1 DUP2 ISZERO ISZERO DUP2 MSTORE POP POP DUP1 DUP6 DUP5 DUP2 MLOAD DUP2 LT PUSH2 0x1C7F JUMPI PUSH2 0x1C7E PUSH2 0x28D7 JUMP JUMPDEST JUMPDEST PUSH1 0x20 MUL PUSH1 0x20 ADD ADD DUP2 DUP2 MSTORE POP POP DUP3 DUP1 PUSH2 0x1C96 SWAP1 PUSH2 0x2904 JUMP JUMPDEST SWAP4 POP POP JUMPDEST PUSH1 0xA DUP4 LT ISZERO PUSH2 0x1DA2 JUMPI PUSH0 JUMPDEST DUP5 DUP3 PUSH1 0x65 DUP2 LT PUSH2 0x1CB8 JUMPI PUSH2 0x1CB7 PUSH2 0x28D7 JUMP JUMPDEST JUMPDEST PUSH1 0x20 MUL ADD MLOAD DUP1 ISZERO PUSH2 0x1CC9 JUMPI POP PUSH1 0xC8 DUP2 LT JUMPDEST ISZERO PUSH2 0x1DA0 JUMPI DUP3 DUP5 DUP3 DUP11 PUSH1 0x40 MLOAD PUSH1 0x20 ADD PUSH2 0x1CE5 SWAP5 SWAP4 SWAP3 SWAP2 SWAP1 PUSH2 0x2D50 JUMP JUMPDEST PUSH1 0x40 MLOAD PUSH1 0x20 DUP2 DUP4 SUB SUB DUP2 MSTORE SWAP1 PUSH1 0x40 MSTORE DUP1 MLOAD SWAP1 PUSH1 0x20 ADD KECCAK256 PUSH0 SHR SWAP3 POP PUSH1 0x1 PUSH1 0x64 DUP5 PUSH2 0x1D0E SWAP2 SWAP1 PUSH2 0x2D20 JUMP JUMPDEST PUSH2 0x1D18 SWAP2 SWAP1 PUSH2 0x2877 JUMP JUMPDEST SWAP2 POP DUP5 DUP3 PUSH1 0x65 DUP2 LT PUSH2 0x1D2D JUMPI PUSH2 0x1D2C PUSH2 0x28D7 JUMP JUMPDEST JUMPDEST PUSH1 0x20 MUL ADD MLOAD PUSH2 0x1D8D JUMPI PUSH1 0x1 DUP6 DUP4 PUSH1 0x65 DUP2 LT PUSH2 0x1D4B JUMPI PUSH2 0x1D4A PUSH2 0x28D7 JUMP JUMPDEST JUMPDEST PUSH1 0x20 MUL ADD SWAP1 ISZERO ISZERO SWAP1 DUP2 ISZERO ISZERO DUP2 MSTORE POP POP DUP2 DUP7 DUP6 DUP2 MLOAD DUP2 LT PUSH2 0x1D6E JUMPI PUSH2 0x1D6D PUSH2 0x28D7 JUMP JUMPDEST JUMPDEST PUSH1 0x20 MUL PUSH1 0x20 ADD ADD DUP2 DUP2 MSTORE POP POP DUP4 DUP1 PUSH2 0x1D85 SWAP1 PUSH2 0x2904 JUMP JUMPDEST SWAP5 POP POP PUSH2 0x1DA0 JUMP JUMPDEST DUP1 DUP1 PUSH2 0x1D98 SWAP1 PUSH2 0x2904 JUMP JUMPDEST SWAP2 POP POP PUSH2 0x1CA5 JUMP JUMPDEST POP JUMPDEST POP PUSH2 0x1BD9 JUMP JUMPDEST DUP4 SWAP5 POP POP POP POP POP SWAP3 SWAP2 POP POP JUMP JUMPDEST PUSH0 DUP2 MLOAD SWAP1 POP PUSH0 DUP2 PUSH1 0x1 SLOAD PUSH2 0x1DC9 SWAP2 SWAP1 PUSH2 0x294B JUMP JUMPDEST SWAP1 POP PUSH0 PUSH2 0x1DDB DUP8 DUP8 DUP8 PUSH0 ADD SLOAD DUP8 PUSH2 0x20CC JUMP JUMPDEST SWAP1 POP DUP3 DUP6 PUSH1 0x1 ADD PUSH0 DUP3 DUP3 SLOAD PUSH2 0x1DF0 SWAP2 SWAP1 PUSH2 0x2877 JUMP JUMPDEST SWAP3 POP POP DUP2 SWAP1 SSTORE POP DUP3 PUSH1 0x2 PUSH0 DUP3 DUP3 SLOAD PUSH2 0x1E08 SWAP2 SWAP1 PUSH2 0x2877 JUMP JUMPDEST SWAP3 POP POP DUP2 SWAP1 SSTORE POP DUP3 PUSH1 0x6 PUSH0 DUP10 PUSH20 0xFFFFFFFFFFFFFFFFFFFFFFFFFFFFFFFFFFFFFFFF AND PUSH20 0xFFFFFFFFFFFFFFFFFFFFFFFFFFFFFFFFFFFFFFFF AND DUP2 MSTORE PUSH1 0x20 ADD SWAP1 DUP2 MSTORE PUSH1 0x20 ADD PUSH0 KECCAK256 PUSH0 DUP3 DUP3 SLOAD PUSH2 0x1E5B SWAP2 SWAP1 PUSH2 0x2877 JUMP JUMPDEST SWAP3 POP POP DUP2 SWAP1 SSTORE POP DUP6 DUP8 PUSH20 0xFFFFFFFFFFFFFFFFFFFFFFFFFFFFFFFFFFFFFFFF AND PUSH32 0x7478E1CA4690B7AD34581C0F0974FC4D6C826CB3D55AF76A85334ED9537C5DD9 DUP6 DUP6 DUP6 PUSH1 0x40 MLOAD PUSH2 0x1EAD SWAP4 SWAP3 SWAP2 SWAP1 PUSH2 0x2D9D JUMP JUMPDEST PUSH1 0x40 MLOAD DUP1 SWAP2 SUB SWAP1 LOG3 PUSH0 DUP3 GT ISZERO PUSH2 0x1F91 JUMPI PUSH32 0x0 PUSH20 0xFFFFFFFFFFFFFFFFFFFFFFFFFFFFFFFFFFFFFFFF AND PUSH4 0x23B872DD DUP9 ADDRESS DUP6 PUSH1 0x40 MLOAD DUP5 PUSH4 0xFFFFFFFF AND PUSH1 0xE0 SHL DUP2 MSTORE PUSH1 0x4 ADD PUSH2 0x1F1A SWAP4 SWAP3 SWAP2 SWAP1 PUSH2 0x2DD9 JUMP JUMPDEST PUSH1 0x20 PUSH1 0x40 MLOAD DUP1 DUP4 SUB DUP2 PUSH0 DUP8 GAS CALL ISZERO DUP1 ISZERO PUSH2 0x1F36 JUMPI RETURNDATASIZE PUSH0 DUP1 RETURNDATACOPY RETURNDATASIZE PUSH0 REVERT JUMPDEST POP POP POP POP PUSH1 0x40 MLOAD RETURNDATASIZE PUSH1 0x1F NOT PUSH1 0x1F DUP3 ADD AND DUP3 ADD DUP1 PUSH1 0x40 MSTORE POP DUP2 ADD SWAP1 PUSH2 0x1F5A SWAP2 SWAP1 PUSH2 0x2A79 JUMP JUMPDEST PUSH2 0x1F90 JUMPI PUSH1 0x40 MLOAD PUSH32 0x90B8EC1800000000000000000000000000000000000000000000000000000000 DUP2 MSTORE PUSH1 0x4 ADD PUSH1 0x40 MLOAD DUP1 SWAP2 SUB SWAP1 REVERT JUMPDEST JUMPDEST DUP5 PUSH0 ADD SLOAD DUP6 PUSH1 0x1 ADD SLOAD SUB PUSH2 0x1FCD JUMPI DUP6 PUSH32 0xFD8D96E5E049823E751E0C23004BDBB7793038835AC2CB5E6EEEC672AA5C8EBC PUSH1 0x40 MLOAD PUSH1 0x40 MLOAD DUP1 SWAP2 SUB SWAP1 LOG2 JUMPDEST POP POP POP POP POP POP POP JUMP JUMPDEST PUSH1 0x60 PUSH0 DUP5 DUP5 SWAP1 POP SWAP1 POP DUP1 PUSH8 0xFFFFFFFFFFFFFFFF DUP2 GT ISZERO PUSH2 0x1FF9 JUMPI PUSH2 0x1FF8 PUSH2 0x28AA JUMP JUMPDEST JUMPDEST PUSH1 0x40 MLOAD SWAP1 DUP1 DUP3 MSTORE DUP1 PUSH1 0x20 MUL PUSH1 0x20 ADD DUP3 ADD PUSH1 0x40 MSTORE DUP1 ISZERO PUSH2 0x2027 JUMPI DUP2 PUSH1 0x20 ADD PUSH1 0x20 DUP3 MUL DUP1 CALLDATASIZE DUP4 CALLDATACOPY DUP1 DUP3 ADD SWAP2 POP POP SWAP1 POP JUMPDEST POP SWAP2 POP PUSH0 JUMPDEST DUP2 DUP2 LT ISZERO PUSH2 0x20C3 JUMPI PUSH0 DUP7 DUP7 DUP4 DUP2 DUP2 LT PUSH2 0x2048 JUMPI PUSH2 0x2047 PUSH2 0x28D7 JUMP JUMPDEST JUMPDEST SWAP1 POP PUSH1 0x20 MUL ADD CALLDATALOAD SWAP1 POP PUSH0 DUP2 EQ DUP1 PUSH2 0x205E JUMPI POP DUP5 DUP2 GT JUMPDEST ISZERO PUSH2 0x2095 JUMPI PUSH1 0x40 MLOAD PUSH32 0xAEADDFF100000000000000000000000000000000000000000000000000000000 DUP2 MSTORE PUSH1 0x4 ADD PUSH1 0x40 MLOAD DUP1 SWAP2 SUB SWAP1 REVERT JUMPDEST DUP1 DUP5 DUP4 DUP2 MLOAD DUP2 LT PUSH2 0x20A9 JUMPI PUSH2 0x20A8 PUSH2 0x28D7 JUMP JUMPDEST JUMPDEST PUSH1 0x20 MUL PUSH1 0x20 ADD ADD DUP2 DUP2 MSTORE POP POP POP DUP1 DUP1 PUSH1 0x1 ADD SWAP2 POP POP PUSH2 0x202C JUMP JUMPDEST POP POP SWAP4 SWAP3 POP POP POP JUMP JUMPDEST PUSH1 0x60 PUSH0 DUP3 MLOAD SWAP1 POP DUP1 PUSH8 0xFFFFFFFFFFFFFFFF DUP2 GT ISZERO PUSH2 0x20ED JUMPI PUSH2 0x20EC PUSH2 0x28AA JUMP JUMPDEST JUMPDEST PUSH1 0x40 MLOAD SWAP1 DUP1 DUP3 MSTORE DUP1 PUSH1 0x20 MUL PUSH1 0x20 ADD DUP3 ADD PUSH1 0x40 MSTORE DUP1 ISZERO PUSH2 0x211B JUMPI DUP2 PUSH1 0x20 ADD PUSH1 0x20 DUP3 MUL DUP1 CALLDATASIZE DUP4 CALLDATACOPY DUP1 DUP3 ADD SWAP2 POP POP SWAP1 POP JUMPDEST POP SWAP2 POP PUSH0 JUMPDEST DUP2 DUP2 LT ISZERO PUSH2 0x2329 JUMPI PUSH0 DUP5 DUP3 DUP2 MLOAD DUP2 LT PUSH2 0x213C JUMPI PUSH2 0x213B PUSH2 0x28D7 JUMP JUMPDEST JUMPDEST PUSH1 0x20 MUL PUSH1 0x20 ADD ADD MLOAD SWAP1 POP PUSH0 DUP2 EQ DUP1 PUSH2 0x2153 JUMPI POP DUP6 DUP2 GT JUMPDEST ISZERO PUSH2 0x218A JUMPI PUSH1 0x40 MLOAD PUSH32 0xAEADDFF100000000000000000000000000000000000000000000000000000000 DUP2 MSTORE PUSH1 0x4 ADD PUSH1 0x40 MLOAD DUP1 SWAP2 SUB SWAP1 REVERT JUMPDEST PUSH0 DUP2 PUSH1 0x80 DUP10 SWAP1 SHL OR SWAP1 POP PUSH0 PUSH20 0xFFFFFFFFFFFFFFFFFFFFFFFFFFFFFFFFFFFFFFFF AND PUSH1 0x7 PUSH0 DUP4 DUP2 MSTORE PUSH1 0x20 ADD SWAP1 DUP2 MSTORE PUSH1 0x20 ADD PUSH0 KECCAK256 PUSH0 SWAP1 SLOAD SWAP1 PUSH2 0x100 EXP SWAP1 DIV PUSH20 0xFFFFFFFFFFFFFFFFFFFFFFFFFFFFFFFFFFFFFFFF AND PUSH20 0xFFFFFFFFFFFFFFFFFFFFFFFFFFFFFFFFFFFFFFFF AND EQ PUSH2 0x2234 JUMPI DUP2 PUSH1 0x40 MLOAD PUSH32 0x8605B53E00000000000000000000000000000000000000000000000000000000 DUP2 MSTORE PUSH1 0x4 ADD PUSH2 0x222B SWAP2 SWAP1 PUSH2 0x23D4 JUMP JUMPDEST PUSH1 0x40 MLOAD DUP1 SWAP2 SUB SWAP1 REVERT JUMPDEST DUP9 PUSH1 0x7 PUSH0 DUP4 DUP2 MSTORE PUSH1 0x20 ADD SWAP1 DUP2 MSTORE PUSH1 0x20 ADD PUSH0 KECCAK256 PUSH0 PUSH2 0x100 EXP DUP2 SLOAD DUP2 PUSH20 0xFFFFFFFFFFFFFFFFFFFFFFFFFFFFFFFFFFFFFFFF MUL NOT AND SWAP1 DUP4 PUSH20 0xFFFFFFFFFFFFFFFFFFFFFFFFFFFFFFFFFFFFFFFF AND MUL OR SWAP1 SSTORE POP DUP8 PUSH1 0x8 PUSH0 DUP4 DUP2 MSTORE PUSH1 0x20 ADD SWAP1 DUP2 MSTORE PUSH1 0x20 ADD PUSH0 KECCAK256 DUP2 SWAP1 SSTORE POP PUSH1 0x9 PUSH0 DUP11 PUSH20 0xFFFFFFFFFFFFFFFFFFFFFFFFFFFFFFFFFFFFFFFF AND PUSH20 0xFFFFFFFFFFFFFFFFFFFFFFFFFFFFFFFFFFFFFFFF AND DUP2 MSTORE PUSH1 0x20 ADD SWAP1 DUP2 MSTORE PUSH1 0x20 ADD PUSH0 KECCAK256 DUP2 SWAP1 DUP1 PUSH1 0x1 DUP2 SLOAD ADD DUP1 DUP3 SSTORE DUP1 SWAP2 POP POP PUSH1 0x1 SWAP1 SUB SWAP1 PUSH0 MSTORE PUSH1 0x20 PUSH0 KECCAK256 ADD PUSH0 SWAP1 SWAP2 SWAP1 SWAP2 SWAP1 SWAP2 POP SSTORE DUP1 DUP6 DUP5 DUP2 MLOAD DUP2 LT PUSH2 0x230E JUMPI PUSH2 0x230D PUSH2 0x28D7 JUMP JUMPDEST JUMPDEST PUSH1 0x20 MUL PUSH1 0x20 ADD ADD DUP2 DUP2 MSTORE POP POP POP POP DUP1 DUP1 PUSH1 0x1 ADD SWAP2 POP POP PUSH2 0x2120 JUMP JUMPDEST POP POP SWAP5 SWAP4 POP POP POP POP JUMP JUMPDEST DUP3 DUP1 SLOAD DUP3 DUP3 SSTORE SWAP1 PUSH0 MSTORE PUSH1 0x20 PUSH0 KECCAK256 SWAP1 DUP2 ADD SWAP3 DUP3 ISZERO PUSH2 0x236D JUMPI SWAP2 PUSH1 0x20 MUL DUP3 ADD JUMPDEST DUP3 DUP2 GT ISZERO PUSH2 0x236C JUMPI DUP3 MLOAD DUP3 SSTORE SWAP2 PUSH1 0x20 ADD SWAP2 SWAP1 PUSH1 0x1 ADD SWAP1 PUSH2 0x2351 JUMP JUMPDEST JUMPDEST POP SWAP1 POP PUSH2 0x237A SWAP2 SWAP1 PUSH2 0x23A1 JUMP JUMPDEST POP SWAP1 JUMP JUMPDEST PUSH1 0x40 MLOAD DUP1 PUSH2 0xCA0 ADD PUSH1 0x40 MSTORE DUP1 PUSH1 0x65 SWAP1 PUSH1 0x20 DUP3 MUL DUP1 CALLDATASIZE DUP4 CALLDATACOPY DUP1 DUP3 ADD SWAP2 POP POP SWAP1 POP POP SWAP1 JUMP JUMPDEST JUMPDEST DUP1 DUP3 GT ISZERO PUSH2 0x23B8 JUMPI PUSH0 DUP2 PUSH0 SWAP1 SSTORE POP PUSH1 0x1 ADD PUSH2 0x23A2 JUMP JUMPDEST POP SWAP1 JUMP JUMPDEST PUSH0 DUP2 SWAP1 POP SWAP2 SWAP1 POP JUMP JUMPDEST PUSH2 0x23CE DUP2 PUSH2 0x23BC JUMP JUMPDEST DUP3 MSTORE POP POP JUMP JUMPDEST PUSH0 PUSH1 0x20 DUP3 ADD SWAP1 POP PUSH2 0x23E7 PUSH0 DUP4 ADD DUP5 PUSH2 0x23C5 JUMP JUMPDEST SWAP3 SWAP2 POP POP JUMP JUMPDEST PUSH0 DUP1 REVERT JUMPDEST PUSH0 DUP1 REVERT JUMPDEST PUSH2 0x23FE DUP2 PUSH2 0x23BC JUMP JUMPDEST DUP2 EQ PUSH2 0x2408 JUMPI PUSH0 DUP1 REVERT JUMPDEST POP JUMP JUMPDEST PUSH0 DUP2 CALLDATALOAD SWAP1 POP PUSH2 0x2419 DUP2 PUSH2 0x23F5 JUMP JUMPDEST SWAP3 SWAP2 POP POP JUMP JUMPDEST PUSH0 PUSH1 0x20 DUP3 DUP5 SUB SLT ISZERO PUSH2 0x2434 JUMPI PUSH2 0x2433 PUSH2 0x23ED JUMP JUMPDEST JUMPDEST PUSH0 PUSH2 0x2441 DUP5 DUP3 DUP6 ADD PUSH2 0x240B JUMP JUMPDEST SWAP2 POP POP SWAP3 SWAP2 POP POP JUMP JUMPDEST PUSH0 PUSH20 0xFFFFFFFFFFFFFFFFFFFFFFFFFFFFFFFFFFFFFFFF DUP3 AND SWAP1 POP SWAP2 SWAP1 POP JUMP JUMPDEST PUSH0 DUP2 SWAP1 POP SWAP2 SWAP1 POP JUMP JUMPDEST PUSH0 PUSH2 0x248C PUSH2 0x2487 PUSH2 0x2482 DUP5 PUSH2 0x244A JUMP JUMPDEST PUSH2 0x2469 JUMP JUMPDEST PUSH2 0x244A JUMP JUMPDEST SWAP1 POP SWAP2 SWAP1 POP JUMP JUMPDEST PUSH0 PUSH2 0x249D DUP3 PUSH2 0x2472 JUMP JUMPDEST SWAP1 POP SWAP2 SWAP1 POP JUMP JUMPDEST PUSH0 PUSH2 0x24AE DUP3 PUSH2 0x2493 JUMP JUMPDEST SWAP1 POP SWAP2 SWAP1 POP JUMP JUMPDEST PUSH2 0x24BE DUP2 PUSH2 0x24A4 JUMP JUMPDEST DUP3 MSTORE POP POP JUMP JUMPDEST PUSH0 PUSH1 0x20 DUP3 ADD SWAP1 POP PUSH2 0x24D7 PUSH0 DUP4 ADD DUP5 PUSH2 0x24B5 JUMP JUMPDEST SWAP3 SWAP2 POP POP JUMP JUMPDEST PUSH0 DUP2 ISZERO ISZERO SWAP1 POP SWAP2 SWAP1 POP JUMP JUMPDEST PUSH2 0x24F1 DUP2 PUSH2 0x24DD JUMP JUMPDEST DUP3 MSTORE POP POP JUMP JUMPDEST PUSH0 DUP2 MLOAD SWAP1 POP SWAP2 SWAP1 POP JUMP JUMPDEST PUSH0 DUP3 DUP3 MSTORE PUSH1 0x20 DUP3 ADD SWAP1 POP SWAP3 SWAP2 POP POP JUMP JUMPDEST PUSH0 DUP2 SWAP1 POP PUSH1 0x20 DUP3 ADD SWAP1 POP SWAP2 SWAP1 POP JUMP JUMPDEST PUSH2 0x2529 DUP2 PUSH2 0x23BC JUMP JUMPDEST DUP3 MSTORE POP POP JUMP JUMPDEST PUSH0 PUSH2 0x253A DUP4 DUP4 PUSH2 0x2520 JUMP JUMPDEST PUSH1 0x20 DUP4 ADD SWAP1 POP SWAP3 SWAP2 POP POP JUMP JUMPDEST PUSH0 PUSH1 0x20 DUP3 ADD SWAP1 POP SWAP2 SWAP1 POP JUMP JUMPDEST PUSH0 PUSH2 0x255C DUP3 PUSH2 0x24F7 JUMP JUMPDEST PUSH2 0x2566 DUP2 DUP6 PUSH2 0x2501 JUMP JUMPDEST SWAP4 POP PUSH2 0x2571 DUP4 PUSH2 0x2511 JUMP JUMPDEST DUP1 PUSH0 JUMPDEST DUP4 DUP2 LT ISZERO PUSH2 0x25A1 JUMPI DUP2 MLOAD PUSH2 0x2588 DUP9 DUP3 PUSH2 0x252F JUMP JUMPDEST SWAP8 POP PUSH2 0x2593 DUP4 PUSH2 0x2546 JUMP JUMPDEST SWAP3 POP POP PUSH1 0x1 DUP2 ADD SWAP1 POP PUSH2 0x2574 JUMP JUMPDEST POP DUP6 SWAP4 POP POP POP POP SWAP3 SWAP2 POP POP JUMP JUMPDEST PUSH0 PUSH1 0xA0 DUP3 ADD SWAP1 POP PUSH2 0x25C1 PUSH0 DUP4 ADD DUP9 PUSH2 0x23C5 JUMP JUMPDEST PUSH2 0x25CE PUSH1 0x20 DUP4 ADD DUP8 PUSH2 0x23C5 JUMP JUMPDEST PUSH2 0x25DB PUSH1 0x40 DUP4 ADD DUP7 PUSH2 0x24E8 JUMP JUMPDEST PUSH2 0x25E8 PUSH1 0x60 DUP4 ADD DUP6 PUSH2 0x24E8 JUMP JUMPDEST DUP2 DUP2 SUB PUSH1 0x80 DUP4 ADD MSTORE PUSH2 0x25FA DUP2 DUP5 PUSH2 0x2552 JUMP JUMPDEST SWAP1 POP SWAP7 SWAP6 POP POP POP POP POP POP JUMP JUMPDEST PUSH0 DUP1 PUSH1 0x40 DUP4 DUP6 SUB SLT ISZERO PUSH2 0x261C JUMPI PUSH2 0x261B PUSH2 0x23ED JUMP JUMPDEST JUMPDEST PUSH0 PUSH2 0x2629 DUP6 DUP3 DUP7 ADD PUSH2 0x240B JUMP JUMPDEST SWAP3 POP POP PUSH1 0x20 PUSH2 0x263A DUP6 DUP3 DUP7 ADD PUSH2 0x240B JUMP JUMPDEST SWAP2 POP POP SWAP3 POP SWAP3 SWAP1 POP JUMP JUMPDEST PUSH0 PUSH2 0x264E DUP3 PUSH2 0x244A JUMP JUMPDEST SWAP1 POP SWAP2 SWAP1 POP JUMP JUMPDEST PUSH2 0x265E DUP2 PUSH2 0x2644 JUMP JUMPDEST DUP3 MSTORE POP POP JUMP JUMPDEST PUSH0 PUSH1 0x20 DUP3 ADD SWAP1 POP PUSH2 0x2677 PUSH0 DUP4 ADD DUP5 PUSH2 0x2655 JUMP JUMPDEST SWAP3 SWAP2 POP POP JUMP JUMPDEST PUSH2 0x2686 DUP2 PUSH2 0x2644 JUMP JUMPDEST DUP2 EQ PUSH2 0x2690 JUMPI PUSH0 DUP1 REVERT JUMPDEST POP JUMP JUMPDEST PUSH0 DUP2 CALLDATALOAD SWAP1 POP PUSH2 0x26A1 DUP2 PUSH2 0x267D JUMP JUMPDEST SWAP3 SWAP2 POP POP JUMP JUMPDEST PUSH0 DUP1 PUSH1 0x40 DUP4 DUP6 SUB SLT ISZERO PUSH2 0x26BD JUMPI PUSH2 0x26BC PUSH2 0x23ED JUMP JUMPDEST JUMPDEST PUSH0 PUSH2 0x26CA DUP6 DUP3 DUP7 ADD PUSH2 0x2693 JUMP JUMPDEST SWAP3 POP POP PUSH1 0x20 PUSH2 0x26DB DUP6 DUP3 DUP7 ADD PUSH2 0x240B JUMP JUMPDEST SWAP2 POP POP SWAP3 POP SWAP3 SWAP1 POP JUMP JUMPDEST PUSH0 PUSH1 0x20 DUP3 ADD SWAP1 POP PUSH2 0x26F8 PUSH0 DUP4 ADD DUP5 PUSH2 0x24E8 JUMP JUMPDEST SWAP3 SWAP2 POP POP JUMP JUMPDEST PUSH0 PUSH1 0x20 DUP3 DUP5 SUB SLT ISZERO PUSH2 0x2713 JUMPI PUSH2 0x2712 PUSH2 0x23ED JUMP JUMPDEST JUMPDEST PUSH0 PUSH2 0x2720 DUP5 DUP3 DUP6 ADD PUSH2 0x2693 JUMP JUMPDEST SWAP2 POP POP SWAP3 SWAP2 POP POP JUMP JUMPDEST PUSH0 PUSH1 0x20 DUP3 ADD SWAP1 POP DUP2 DUP2 SUB PUSH0 DUP4 ADD MSTORE PUSH2 0x2741 DUP2 DUP5 PUSH2 0x2552 JUMP JUMPDEST SWAP1 POP SWAP3 SWAP2 POP POP JUMP JUMPDEST PUSH0 DUP1 REVERT JUMPDEST PUSH0 DUP1 REVERT JUMPDEST PUSH0 DUP1 REVERT JUMPDEST PUSH0 DUP1 DUP4 PUSH1 0x1F DUP5 ADD SLT PUSH2 0x276A JUMPI PUSH2 0x2769 PUSH2 0x2749 JUMP JUMPDEST JUMPDEST DUP3 CALLDATALOAD SWAP1 POP PUSH8 0xFFFFFFFFFFFFFFFF DUP2 GT ISZERO PUSH2 0x2787 JUMPI PUSH2 0x2786 PUSH2 0x274D JUMP JUMPDEST JUMPDEST PUSH1 0x20 DUP4 ADD SWAP2 POP DUP4 PUSH1 0x20 DUP3 MUL DUP4 ADD GT ISZERO PUSH2 0x27A3 JUMPI PUSH2 0x27A2 PUSH2 0x2751 JUMP JUMPDEST JUMPDEST SWAP3 POP SWAP3 SWAP1 POP JUMP JUMPDEST PUSH0 DUP1 PUSH0 PUSH1 0x40 DUP5 DUP7 SUB SLT ISZERO PUSH2 0x27C1 JUMPI PUSH2 0x27C0 PUSH2 0x23ED JUMP JUMPDEST JUMPDEST PUSH0 PUSH2 0x27CE DUP7 DUP3 DUP8 ADD PUSH2 0x240B JUMP JUMPDEST SWAP4 POP POP PUSH1 0x20 DUP5 ADD CALLDATALOAD PUSH8 0xFFFFFFFFFFFFFFFF DUP2 GT ISZERO PUSH2 0x27EF JUMPI PUSH2 0x27EE PUSH2 0x23F1 JUMP JUMPDEST JUMPDEST PUSH2 0x27FB DUP7 DUP3 DUP8 ADD PUSH2 0x2755 JUMP JUMPDEST SWAP3 POP SWAP3 POP POP SWAP3 POP SWAP3 POP SWAP3 JUMP JUMPDEST PUSH0 PUSH1 0x80 DUP3 ADD SWAP1 POP PUSH2 0x281A PUSH0 DUP4 ADD DUP8 PUSH2 0x23C5 JUMP JUMPDEST PUSH2 0x2827 PUSH1 0x20 DUP4 ADD DUP7 PUSH2 0x23C5 JUMP JUMPDEST PUSH2 0x2834 PUSH1 0x40 DUP4 ADD DUP6 PUSH2 0x24E8 JUMP JUMPDEST PUSH2 0x2841 PUSH1 0x60 DUP4 ADD DUP5 PUSH2 0x23C5 JUMP JUMPDEST SWAP6 SWAP5 POP POP POP POP POP JUMP JUMPDEST PUSH32 0x4E487B7100000000000000000000000000000000000000000000000000000000 PUSH0 MSTORE PUSH1 0x11 PUSH1 0x4 MSTORE PUSH1 0x24 PUSH0 REVERT JUMPDEST PUSH0 PUSH2 0x2881 DUP3 PUSH2 0x23BC JUMP JUMPDEST SWAP2 POP PUSH2 0x288C DUP4 PUSH2 0x23BC JUMP JUMPDEST SWAP3 POP DUP3 DUP3 ADD SWAP1 POP DUP1 DUP3 GT ISZERO PUSH2 0x28A4 JUMPI PUSH2 0x28A3 PUSH2 0x284A JUMP JUMPDEST JUMPDEST SWAP3 SWAP2 POP POP JUMP JUMPDEST PUSH32 0x4E487B7100000000000000000000000000000000000000000000000000000000 PUSH0 MSTORE PUSH1 0x41 PUSH1 0x4 MSTORE PUSH1 0x24 PUSH0 REVERT JUMPDEST PUSH32 0x4E487B7100000000000000000000000000000000000000000000000000000000 PUSH0 MSTORE PUSH1 0x32 PUSH1 0x4 MSTORE PUSH1 0x24 PUSH0 REVERT JUMPDEST PUSH0 PUSH2 0x290E DUP3 PUSH2 0x23BC JUMP JUMPDEST SWAP2 POP PUSH32 0xFFFFFFFFFFFFFFFFFFFFFFFFFFFFFFFFFFFFFFFFFFFFFFFFFFFFFFFFFFFFFFFF DUP3 SUB PUSH2 0x2940 JUMPI PUSH2 0x293F PUSH2 0x284A JUMP JUMPDEST JUMPDEST PUSH1 0x1 DUP3 ADD SWAP1 POP SWAP2 SWAP1 POP JUMP JUMPDEST PUSH0 PUSH2 0x2955 DUP3 PUSH2 0x23BC JUMP JUMPDEST SWAP2 POP PUSH2 0x2960 DUP4 PUSH2 0x23BC JUMP JUMPDEST SWAP3 POP DUP3 DUP3 MUL PUSH2 0x296E DUP2 PUSH2 0x23BC JUMP JUMPDEST SWAP2 POP DUP3 DUP3 DIV DUP5 EQ DUP4 ISZERO OR PUSH2 0x2985 JUMPI PUSH2 0x2984 PUSH2 0x284A JUMP JUMPDEST JUMPDEST POP SWAP3 SWAP2 POP POP JUMP JUMPDEST PUSH0 DUP2 MLOAD SWAP1 POP PUSH2 0x299A DUP2 PUSH2 0x23F5 JUMP JUMPDEST SWAP3 SWAP2 POP POP JUMP JUMPDEST PUSH0 PUSH1 0x20 DUP3 DUP5 SUB SLT ISZERO PUSH2 0x29B5 JUMPI PUSH2 0x29B4 PUSH2 0x23ED JUMP JUMPDEST JUMPDEST PUSH0 PUSH2 0x29C2 DUP5 DUP3 DUP6 ADD PUSH2 0x298C JUMP JUMPDEST SWAP2 POP POP SWAP3 SWAP2 POP POP JUMP JUMPDEST PUSH32 0x4E487B7100000000000000000000000000000000000000000000000000000000 PUSH0 MSTORE PUSH1 0x12 PUSH1 0x4 MSTORE PUSH1 0x24 PUSH0 REVERT JUMPDEST PUSH0 PUSH2 0x2A02 DUP3 PUSH2 0x23BC JUMP JUMPDEST SWAP2 POP PUSH2 0x2A0D DUP4 PUSH2 0x23BC JUMP JUMPDEST SWAP3 POP DUP3 PUSH2 0x2A1D JUMPI PUSH2 0x2A1C PUSH2 0x29CB JUMP JUMPDEST JUMPDEST DUP3 DUP3 DIV SWAP1 POP SWAP3 SWAP2 POP POP JUMP JUMPDEST PUSH0 PUSH1 0x40 DUP3 ADD SWAP1 POP PUSH2 0x2A3B PUSH0 DUP4 ADD DUP6 PUSH2 0x2655 JUMP JUMPDEST PUSH2 0x2A48 PUSH1 0x20 DUP4 ADD DUP5 PUSH2 0x23C5 JUMP JUMPDEST SWAP4 SWAP3 POP POP POP JUMP JUMPDEST PUSH2 0x2A58 DUP2 PUSH2 0x24DD JUMP JUMPDEST DUP2 EQ PUSH2 0x2A62 JUMPI PUSH0 DUP1 REVERT JUMPDEST POP JUMP JUMPDEST PUSH0 DUP2 MLOAD SWAP1 POP PUSH2 0x2A73 DUP2 PUSH2 0x2A4F JUMP JUMPDEST SWAP3 SWAP2 POP POP JUMP JUMPDEST PUSH0 PUSH1 0x20 DUP3 DUP5 SUB SLT ISZERO PUSH2 0x2A8E JUMPI PUSH2 0x2A8D PUSH2 0x23ED JUMP JUMPDEST JUMPDEST PUSH0 PUSH2 0x2A9B DUP5 DUP3 DUP6 ADD PUSH2 0x2A65 JUMP JUMPDEST SWAP2 POP POP SWAP3 SWAP2 POP POP JUMP JUMPDEST PUSH0 DUP2 MLOAD SWAP1 POP SWAP2 SWAP1 POP JUMP JUMPDEST PUSH0 DUP3 DUP3 MSTORE PUSH1 0x20 DUP3 ADD SWAP1 POP SWAP3 SWAP2 POP POP JUMP JUMPDEST PUSH0 DUP2 SWAP1 POP PUSH1 0x20 DUP3 ADD SWAP1 POP SWAP2 SWAP1 POP JUMP JUMPDEST PUSH2 0x2AD6 DUP2 PUSH2 0x2644 JUMP JUMPDEST DUP3 MSTORE POP POP JUMP JUMPDEST PUSH0 PUSH2 0x2AE7 DUP4 DUP4 PUSH2 0x2ACD JUMP JUMPDEST PUSH1 0x20 DUP4 ADD SWAP1 POP SWAP3 SWAP2 POP POP JUMP JUMPDEST PUSH0 PUSH1 0x20 DUP3 ADD SWAP1 POP SWAP2 SWAP1 POP JUMP JUMPDEST PUSH0 PUSH2 0x2B09 DUP3 PUSH2 0x2AA4 JUMP JUMPDEST PUSH2 0x2B13 DUP2 DUP6 PUSH2 0x2AAE JUMP JUMPDEST SWAP4 POP PUSH2 0x2B1E DUP4 PUSH2 0x2ABE JUMP JUMPDEST DUP1 PUSH0 JUMPDEST DUP4 DUP2 LT ISZERO PUSH2 0x2B4E JUMPI DUP2 MLOAD PUSH2 0x2B35 DUP9 DUP3 PUSH2 0x2ADC JUMP JUMPDEST SWAP8 POP PUSH2 0x2B40 DUP4 PUSH2 0x2AF3 JUMP JUMPDEST SWAP3 POP POP PUSH1 0x1 DUP2 ADD SWAP1 POP PUSH2 0x2B21 JUMP JUMPDEST POP DUP6 SWAP4 POP POP POP POP SWAP3 SWAP2 POP POP JUMP JUMPDEST PUSH0 PUSH1 0x60 DUP3 ADD SWAP1 POP DUP2 DUP2 SUB PUSH0 DUP4 ADD MSTORE PUSH2 0x2B73 DUP2 DUP7 PUSH2 0x2AFF JUMP JUMPDEST SWAP1 POP PUSH2 0x2B82 PUSH1 0x20 DUP4 ADD DUP6 PUSH2 0x23C5 JUMP JUMPDEST PUSH2 0x2B8F PUSH1 0x40 DUP4 ADD DUP5 PUSH2 0x23C5 JUMP JUMPDEST SWAP5 SWAP4 POP POP POP POP JUMP JUMPDEST PUSH0 PUSH2 0x2BA1 DUP3 PUSH2 0x23BC JUMP JUMPDEST SWAP2 POP PUSH2 0x2BAC DUP4 PUSH2 0x23BC JUMP JUMPDEST SWAP3 POP DUP3 DUP3 SUB SWAP1 POP DUP2 DUP2 GT ISZERO PUSH2 0x2BC4 JUMPI PUSH2 0x2BC3 PUSH2 0x284A JUMP JUMPDEST JUMPDEST SWAP3 SWAP2 POP POP JUMP JUMPDEST PUSH0 DUP2 SWAP1 POP SWAP2 SWAP1 POP JUMP JUMPDEST PUSH0 DUP2 SWAP1 POP SWAP2 SWAP1 POP JUMP JUMPDEST PUSH2 0x2BED PUSH2 0x2BE8 DUP3 PUSH2 0x2BCA JUMP JUMPDEST PUSH2 0x2BD3 JUMP JUMPDEST DUP3 MSTORE POP POP JUMP JUMPDEST PUSH0 DUP2 SWAP1 POP SWAP2 SWAP1 POP JUMP JUMPDEST PUSH2 0x2C0D PUSH2 0x2C08 DUP3 PUSH2 0x23BC JUMP JUMPDEST PUSH2 0x2BF3 JUMP JUMPDEST DUP3 MSTORE POP POP JUMP JUMPDEST PUSH0 DUP2 PUSH1 0x60 SHL SWAP1 POP SWAP2 SWAP1 POP JUMP JUMPDEST PUSH0 PUSH2 0x2C29 DUP3 PUSH2 0x2C13 JUMP JUMPDEST SWAP1 POP SWAP2 SWAP1 POP JUMP JUMPDEST PUSH0 PUSH2 0x2C3A DUP3 PUSH2 0x2C1F JUMP JUMPDEST SWAP1 POP SWAP2 SWAP1 POP JUMP JUMPDEST PUSH2 0x2C52 PUSH2 0x2C4D DUP3 PUSH2 0x2644 JUMP JUMPDEST PUSH2 0x2C30 JUMP JUMPDEST DUP3 MSTORE POP POP JUMP JUMPDEST PUSH0 PUSH2 0x2C63 DUP3 DUP10 PUSH2 0x2BDC JUMP JUMPDEST PUSH1 0x20 DUP3 ADD SWAP2 POP PUSH2 0x2C73 DUP3 DUP9 PUSH2 0x2BFC JUMP JUMPDEST PUSH1 0x20 DUP3 ADD SWAP2 POP PUSH2 0x2C83 DUP3 DUP8 PUSH2 0x2BFC JUMP JUMPDEST PUSH1 0x20 DUP3 ADD SWAP2 POP PUSH2 0x2C93 DUP3 DUP7 PUSH2 0x2C41 JUMP JUMPDEST PUSH1 0x14 DUP3 ADD SWAP2 POP PUSH2 0x2CA3 DUP3 DUP6 PUSH2 0x2BFC JUMP JUMPDEST PUSH1 0x20 DUP3 ADD SWAP2 POP PUSH2 0x2CB3 DUP3 DUP5 PUSH2 0x2BFC JUMP JUMPDEST PUSH1 0x20 DUP3 ADD SWAP2 POP DUP2 SWAP1 POP SWAP8 SWAP7 POP POP POP POP POP POP POP JUMP JUMPDEST PUSH0 PUSH1 0x40 DUP3 ADD SWAP1 POP DUP2 DUP2 SUB PUSH0 DUP4 ADD MSTORE PUSH2 0x2CDF DUP2 DUP6 PUSH2 0x2552 JUMP JUMPDEST SWAP1 POP PUSH2 0x2CEE PUSH1 0x20 DUP4 ADD DUP5 PUSH2 0x23C5 JUMP JUMPDEST SWAP4 SWAP3 POP POP POP JUMP JUMPDEST PUSH0 PUSH2 0x2D00 DUP3 DUP6 PUSH2 0x2BFC JUMP JUMPDEST PUSH1 0x20 DUP3 ADD SWAP2 POP PUSH2 0x2D10 DUP3 DUP5 PUSH2 0x2BFC JUMP JUMPDEST PUSH1 0x20 DUP3 ADD SWAP2 POP DUP2 SWAP1 POP SWAP4 SWAP3 POP POP POP JUMP JUMPDEST PUSH0 PUSH2 0x2D2A DUP3 PUSH2 0x23BC JUMP JUMPDEST SWAP2 POP PUSH2 0x2D35 DUP4 PUSH2 0x23BC JUMP JUMPDEST SWAP3 POP DUP3 PUSH2 0x2D45 JUMPI PUSH2 0x2D44 PUSH2 0x29CB JUMP JUMPDEST JUMPDEST DUP3 DUP3 MOD SWAP1 POP SWAP3 SWAP2 POP POP JUMP JUMPDEST PUSH0 PUSH2 0x2D5B DUP3 DUP8 PUSH2 0x2BFC JUMP JUMPDEST PUSH1 0x20 DUP3 ADD SWAP2 POP PUSH2 0x2D6B DUP3 DUP7 PUSH2 0x2BFC JUMP JUMPDEST PUSH1 0x20 DUP3 ADD SWAP2 POP PUSH2 0x2D7B DUP3 DUP6 PUSH2 0x2BFC JUMP JUMPDEST PUSH1 0x20 DUP3 ADD SWAP2 POP PUSH2 0x2D8B DUP3 DUP5 PUSH2 0x2BFC JUMP JUMPDEST PUSH1 0x20 DUP3 ADD SWAP2 POP DUP2 SWAP1 POP SWAP6 SWAP5 POP POP POP POP POP JUMP JUMPDEST PUSH0 PUSH1 0x60 DUP3 ADD SWAP1 POP PUSH2 0x2DB0 PUSH0 DUP4 ADD DUP7 PUSH2 0x23C5 JUMP JUMPDEST PUSH2 0x2DBD PUSH1 0x20 DUP4 ADD DUP6 PUSH2 0x23C5 JUMP JUMPDEST DUP2 DUP2 SUB PUSH1 0x40 DUP4 ADD MSTORE PUSH2 0x2DCF DUP2 DUP5 PUSH2 0x2552 JUMP JUMPDEST SWAP1 POP SWAP5 SWAP4 POP POP POP POP JUMP JUMPDEST PUSH0 PUSH1 0x60 DUP3 ADD SWAP1 POP PUSH2 0x2DEC PUSH0 DUP4 ADD DUP7 PUSH2 0x2655 JUMP JUMPDEST PUSH2 0x2DF9 PUSH1 0x20 DUP4 ADD DUP6 PUSH2 0x2655 JUMP JUMPDEST PUSH2 0x2E06 PUSH1 0x40 DUP4 ADD DUP5 PUSH2 0x23C5 JUMP JUMPDEST SWAP5 SWAP4 POP POP POP POP JUMP INVALID LOG2 PUSH5 0x6970667358 0x22 SLT KECCAK256 0xC9 CREATE DUP6 0xDF GT 0xC4 SWAP7 KECCAK256 0xFB 0xE 0xDD STATICCALL 0xEE DUP9 MSTORE8 SDIV 0xD4 CREATE 0xAC SGT 0xBD EXTCODECOPY PUSH22 0xD7FFF0F8398E9BA15764736F6C634300081800330000 "
				},
				"gasEstimates": {
					"creation": {
						"codeDepositCost": "2368800",
						"executionCost": "infinite",
						"totalCost": "infinite"
					},
					"external": {
						"DRAW_THRESHOLD()": "392",
						"TICKETS_PER_SERIES()": "413",
						"WINNING_TICKETS_COUNT()": "370",
						"buyTickets(uint256,uint256)": "infinite",
						"buyTicketsAt(uint256,uint256[])": "infinite",
						"distributeRewards(uint256)": "infinite",
						"executeDraw(uint256)": "infinite",
						"generateSeries()": "infinite",
						"getOwnedTicketIds(address)": "infinite",
						"getSeriesInfo(uint256)": "infinite",
						"owner()": "2528",
						"rewardPerUser()": "2558",
						"rewardsDistributed(uint256)": "2896",
						"seriesInfo(uint256)": "infinite",
						"setReward(uint256)": "infinite",
						"setTicketPrice(uint256)": "infinite",
						"ticketBalances(address)": "2869",
						"ticketOwners(uint256)": "2916",
						"ticketPrice()": "2449",
						"ticketSeries(uint256)": "infinite",
						"ticketsSold()": "2492",
						"totalSeriesCount()": "2493",
						"transferFunds(address,uint256)": "infinite",
						"transferOwnership(address)": "26959",
						"usdt()": "infinite"
					},
					"internal": {
						"_completePurchase(address,uint256,struct Lottery.Series storage pointer,uint256[] memory)": "infinite",
						"_generateWinningNumbers(uint256,uint256)": "infinite",
						"_getUniqueAddresses(address[] memory,uint256)": "infinite",
						"_mintTickets(address,uint256,uint256,uint256[] memory)": "infinite",
						"_validateTicketNumbers(uint256[] calldata,uint256)": "infinite"
					}
				},
				"methodIdentifiers": {
					"DRAW_THRESHOLD()": "63375e16",
					"TICKETS_PER_SERIES()": "f4c2af93",
					"WINNING_TICKETS_COUNT()": "8ef7fe56",
					"buyTickets(uint256,uint256)": "8627df46",
					"buyTicketsAt(uint256,uint256[])": "cdadc666",
					"distributeRewards(uint256)": "59974e38",
					"executeDraw(uint256)": "75d2bf60",
					"generateSeries()": "30b48213",
					"getOwnedTicketIds(address)": "a4bfd0cc",
					"getSeriesInfo(uint256)": "616eb255",
					"owner()": "8da5cb5b",
					"rewardPerUser()": "8861d532",
					"rewardsDistributed(uint256)": "a3b5fcd8",
					"seriesInfo(uint256)": "fe8ace85",
					"setReward(uint256)": "293be456",
					"setTicketPrice(uint256)": "15981650",
					"ticketBalances(address)": "e54566f3",
					"ticketOwners(uint256)": "eb2dbcf6",
					"ticketPrice()": "1209b1f6",
					"ticketSeries(uint256)": "f3eec42f",
					"ticketsSold()": "8f15024f",
					"totalSeriesCount()": "15b5386e",
					"transferFunds(address,uint256)": "990dc9db",
					"transferOwnership(address)": "f2fde38b",
					"usdt()": "2f48ab7d"
				}
			},
			"storageLayout": {
				"storage": [
					{
						"astId": 133,
						"contract": "Lottery.sol:Lottery",
						"label": "owner",
						"offset": 0,
						"slot": "0",
						"type": "t_address"
					},
					{
						"astId": 138,
						"contract": "Lottery.sol:Lottery",
						"label": "ticketPrice",
						"offset": 0,
						"slot": "1",
						"type": "t_uint256"
					},
					{
						"astId": 140,
						"contract": "Lottery.sol:Lottery",
						"label": "ticketsSold",
						"offset": 0,
						"slot": "2",
						"type": "t_uint256"
					},
					{
						"astId": 142,
						"contract": "Lottery.sol:Lottery",
						"label": "totalSeriesCount",
						"offset": 0,
						"slot": "3",
						"type": "t_uint256"
					},
					{
						"astId": 145,
						"contract": "Lottery.sol:Lottery",
						"label": "rewardPerUser",
						"offset": 0,
						"slot": "4",
						"type": "t_uint256"
					},
					{
						"astId": 150,
						"contract": "Lottery.sol:Lottery",
						"label": "seriesInfo",
						"offset": 0,
						"slot": "5",
						"type": "t_mapping(t_uint256,t_struct(Series)131_storage)"
					},
					{
						"astId": 154,
						"contract": "Lottery.sol:Lottery",
						"label": "ticketBalances",
						"offset": 0,
						"slot": "6",
						"type": "t_mapping(t_address,t_uint256)"
					},
					{
						"astId": 158,
						"contract": "Lottery.sol:Lottery",
						"label": "ticketOwners",
						"offset": 0,
						"slot": "7",
						"type": "t_mapping(t_uint256,t_address)"
					},
					{
						"astId": 162,
						"contract": "Lottery.sol:Lottery",
						"label": "ticketSeries",
						"offset": 0,
						"slot": "8",
						"type": "t_mapping(t_uint256,t_uint256)"
					},
					{
						"astId": 167,
						"contract": "Lottery.sol:Lottery",
						"label": "ownedTicketIds",
						"offset": 0,
						"slot": "9",
						"type": "t_mapping(t_address,t_array(t_uint256)dyn_storage)"
					},
					{
						"astId": 171,
						"contract": "Lottery.sol:Lottery",
						"label": "rewardsDistributed",
						"offset": 0,
						"slot": "10",
						"type": "t_mapping(t_uint256,t_bool)"
					}
				],
				"types": {
					"t_address": {
						"encoding": "inplace",
						"label": "address",
						"numberOfBytes": "20"
					},
					"t_array(t_uint256)dyn_storage": {
						"base": "t_uint256",
						"encoding": "dynamic_array",
						"label": "uint256[]",
						"numberOfBytes": "32"
					},
					"t_bool": {
						"encoding": "inplace",
						"label": "bool",
						"numberOfBytes": "1"
					},
					"t_mapping(t_address,t_array(t_uint256)dyn_storage)": {
						"encoding": "mapping",
						"key": "t_address",
						"label": "mapping(address => uint256[])",
						"numberOfBytes": "32",
						"value": "t_array(t_uint256)dyn_storage"
					},
					"t_mapping(t_address,t_uint256)": {
						"encoding": "mapping",
						"key": "t_address",
						"label": "mapping(address => uint256)",
						"numberOfBytes": "32",
						"value": "t_uint256"
					},
					"t_mapping(t_uint256,t_address)": {
						"encoding": "mapping",
						"key": "t_uint256",
						"label": "mapping(uint256 => address)",
						"numberOfBytes": "32",
						"value": "t_address"
					},
					"t_mapping(t_uint256,t_bool)": {
						"encoding": "mapping",
						"key": "t_uint256",
						"label": "mapping(uint256 => bool)",
						"numberOfBytes": "32",
						"value": "t_bool"
					},
					"t_mapping(t_uint256,t_struct(Series)131_storage)": {
						"encoding": "mapping",
						"key": "t_uint256",
						"label": "mapping(uint256 => struct Lottery.Series)",
						"numberOfBytes": "32",
						"value": "t_struct(Series)131_storage"
					},
					"t_mapping(t_uint256,t_uint256)": {
						"encoding": "mapping",
						"key": "t_uint256",
						"label": "mapping(uint256 => uint256)",
						"numberOfBytes": "32",
						"value": "t_uint256"
					},
					"t_struct(Series)131_storage": {
						"encoding": "inplace",
						"label": "struct Lottery.Series",
						"members": [
							{
								"astId": 121,
								"contract": "Lottery.sol:Lottery",
								"label": "totalTickets",
								"offset": 0,
								"slot": "0",
								"type": "t_uint256"
							},
							{
								"astId": 123,
								"contract": "Lottery.sol:Lottery",
								"label": "ticketsSold",
								"offset": 0,
								"slot": "1",
								"type": "t_uint256"
							},
							{
								"astId": 126,
								"contract": "Lottery.sol:Lottery",
								"label": "winningTicketNumbers",
								"offset": 0,
								"slot": "2",
								"type": "t_array(t_uint256)dyn_storage"
							},
							{
								"astId": 128,
								"contract": "Lottery.sol:Lottery",
								"label": "drawExecuted",
								"offset": 0,
								"slot": "3",
								"type": "t_bool"
							},
							{
								"astId": 130,
								"contract": "Lottery.sol:Lottery",
								"label": "drawRandomSeed",
								"offset": 0,
								"slot": "4",
								"type": "t_uint256"
							}
						],
						"numberOfBytes": "160"
					},
					"t_uint256": {
						"encoding": "inplace",
						"label": "uint256",
						"numberOfBytes": "32"
					}
				}
			},
			"userdoc": {
				"errors": {
					"InvalidAddress()": [
						{
							"notice": "----------------------------------------------------------------------- Errors -----------------------------------------------------------------------"
						}
					]
				},
				"events": {
					"TicketPriceUpdated(uint256)": {
						"notice": "----------------------------------------------------------------------- Events -----------------------------------------------------------------------"
					}
				},
				"kind": "user",
				"methods": {
					"TICKETS_PER_SERIES()": {
						"notice": "----------------------------------------------------------------------- Storage -----------------------------------------------------------------------"
					},
					"buyTickets(uint256,uint256)": {
						"notice": "Buy tickets from a specific series (sequential ticket numbers)"
					},
					"buyTicketsAt(uint256,uint256[])": {
						"notice": "Buy specific ticket numbers from a series"
					},
					"constructor": {
						"notice": "----------------------------------------------------------------------- Constructor -----------------------------------------------------------------------"
					},
					"distributeRewards(uint256)": {
						"notice": "Distribute rewards to winners based on winning ticket numbers"
					},
					"executeDraw(uint256)": {
						"notice": "Execute draw for a series that has at least 90% tickets sold Generates 10 random winning ticket numbers (1-100)"
					},
					"generateSeries()": {
						"notice": "Generate a new series with 100 tickets"
					},
					"setTicketPrice(uint256)": {
						"notice": "----------------------------------------------------------------------- Owner actions -----------------------------------------------------------------------"
					}
				},
				"notice": "Minimal lottery contract that sells tickets priced in USDT on BNB Testnet.",
				"version": 1
			}
		}
	}
}