{
	"data": {
		"bytecode": {
			"linkReferences": {},
			"object": "60a060405234801561000f575f5ffd5b506040516117c63803806117c6833981810160405281019061003191906101a8565b5f73ffffffffffffffffffffffffffffffffffffffff168273ffffffffffffffffffffffffffffffffffffffff1603610096576040517fe6c4247b00000000000000000000000000000000000000000000000000000000815260040160405180910390fd5b335f5f6101000a81548173ffffffffffffffffffffffffffffffffffffffff021916908373ffffffffffffffffffffffffffffffffffffffff1602179055508173ffffffffffffffffffffffffffffffffffffffff1660808173ffffffffffffffffffffffffffffffffffffffff16815250508060018190555050506101e6565b5f5ffd5b5f73ffffffffffffffffffffffffffffffffffffffff82169050919050565b5f6101448261011b565b9050919050565b6101548161013a565b811461015e575f5ffd5b50565b5f8151905061016f8161014b565b92915050565b5f819050919050565b61018781610175565b8114610191575f5ffd5b50565b5f815190506101a28161017e565b92915050565b5f5f604083850312156101be576101bd610117565b5b5f6101cb85828601610161565b92505060206101dc85828601610194565b9150509250929050565b6080516115ba61020c5f395f81816107cc015281816108ee0152610c6801526115ba5ff3fe608060405234801561000f575f5ffd5b5060043610610109575f3560e01c80638da5cb5b116100a0578063eb2dbcf61161006f578063eb2dbcf6146102a6578063f2fde38b146102d6578063f3eec42f146102f2578063f3fef3a314610322578063fe8ace851461033e57610109565b80638da5cb5b1461020a5780638f15024f14610228578063a4bfd0cc14610246578063e54566f31461027657610109565b80632671fd2b116100dc5780632671fd2b146101815780632f3666371461019f5780632f48ab7d146101bb578063616eb255146101d957610109565b8063039142761461010d5780631209b1f614610129578063159816501461014757806315b5386e14610163575b5f5ffd5b61012760048036038101906101229190611067565b61036f565b005b6101316104f8565b60405161013e91906110a1565b60405180910390f35b610161600480360381019061015c9190611067565b6104fe565b005b61016b6105c4565b60405161017891906110a1565b60405180910390f35b6101896105ca565b60405161019691906110a1565b60405180910390f35b6101b960048036038101906101b49190611067565b6105d0565b005b6101c36108ec565b6040516101d09190611134565b60405180910390f35b6101f360048036038101906101ee9190611067565b610910565b60405161020192919061114d565b60405180910390f35b610212610939565b60405161021f9190611194565b60405180910390f35b61023061095d565b60405161023d91906110a1565b60405180910390f35b610260600480360381019061025b91906111d7565b610963565b60405161026d91906112b9565b60405180910390f35b610290600480360381019061028b91906111d7565b6109f6565b60405161029d91906110a1565b60405180910390f35b6102c060048036038101906102bb9190611067565b610a0b565b6040516102cd9190611194565b60405180910390f35b6102f060048036038101906102eb91906111d7565b610a3b565b005b61030c60048036038101906103079190611067565b610b67565b60405161031991906110a1565b60405180910390f35b61033c600480360381019061033791906112d9565b610b7c565b005b61035860048036038101906103539190611067565b610d89565b60405161036692919061114d565b60405180910390f35b5f5f9054906101000a900473ffffffffffffffffffffffffffffffffffffffff1673ffffffffffffffffffffffffffffffffffffffff163373ffffffffffffffffffffffffffffffffffffffff16146103f4576040517f30cd747100000000000000000000000000000000000000000000000000000000815260040160405180910390fd5b5f810361042d576040517f8e71bef900000000000000000000000000000000000000000000000000000000815260040160405180910390fd5b600160045f82825461043f9190611344565b925050819055505f60055f60045481526020019081526020015f20905081815f01819055505f81600101819055506004547fa9bb9f177c59b93f2b7abb2dfb6ffc1518c0d3a40145c47a372f46e70d011d158360405161049f91906110a1565b60405180910390a25f600354036104f4576004546003819055506003547f92f4672ba5b2b4f28a7cee1336b7f92f4c6d73f32a8a3317187229febcb68a4b836040516104eb91906110a1565b60405180910390a25b5050565b60015481565b5f5f9054906101000a900473ffffffffffffffffffffffffffffffffffffffff1673ffffffffffffffffffffffffffffffffffffffff163373ffffffffffffffffffffffffffffffffffffffff1614610583576040517f30cd747100000000000000000000000000000000000000000000000000000000815260040160405180910390fd5b806001819055507f7429795511c1ec5ebcc0e6839095ec18f13fce25cdc7c90da9d8a016584a1dbe816040516105b991906110a1565b60405180910390a150565b60045481565b60035481565b5f8103610609576040517f8e71bef900000000000000000000000000000000000000000000000000000000815260040160405180910390fd5b610611610da9565b5f6003540361064c576040517fba6add4400000000000000000000000000000000000000000000000000000000815260040160405180910390fd5b5f60055f60035481526020019081526020015f2090505f8160010154825f01546106769190611377565b9050808311156106b2576040517f19e215bc00000000000000000000000000000000000000000000000000000000815260040160405180910390fd5b5f836001546106c191906113aa565b90505f8360010154905084846001015f8282546106de9190611344565b925050819055508460025f8282546106f69190611344565b925050819055508460065f3373ffffffffffffffffffffffffffffffffffffffff1673ffffffffffffffffffffffffffffffffffffffff1681526020019081526020015f205f8282546107499190611344565b925050819055505f61076b336003546001856107659190611344565b89610df0565b90506003543373ffffffffffffffffffffffffffffffffffffffff167f7478e1ca4690b7ad34581c0f0974fc4d6c826cb3d55af76a85334ed9537c5dd98886856040516107ba939291906113eb565b60405180910390a35f83111561089e577f000000000000000000000000000000000000000000000000000000000000000073ffffffffffffffffffffffffffffffffffffffff166323b872dd3330866040518463ffffffff1660e01b815260040161082793929190611427565b6020604051808303815f875af1158015610843573d5f5f3e3d5ffd5b505050506040513d601f19601f820116820180604052508101906108679190611491565b61089d576040517f90b8ec1800000000000000000000000000000000000000000000000000000000815260040160405180910390fd5b5b845f01548560010154036108e4576003547ffd8d96e5e049823e751e0c23004bdbb7793038835ac2cb5e6eeec672aa5c8ebc60405160405180910390a26108e3610f61565b5b505050505050565b7f000000000000000000000000000000000000000000000000000000000000000081565b5f5f5f60055f8581526020019081526020015f209050805f015481600101549250925050915091565b5f5f9054906101000a900473ffffffffffffffffffffffffffffffffffffffff1681565b60025481565b606060095f8373ffffffffffffffffffffffffffffffffffffffff1673ffffffffffffffffffffffffffffffffffffffff1681526020019081526020015f208054806020026020016040519081016040528092919081815260200182805480156109ea57602002820191905f5260205f20905b8154815260200190600101908083116109d6575b50505050509050919050565b6006602052805f5260405f205f915090505481565b6007602052805f5260405f205f915054906101000a900473ffffffffffffffffffffffffffffffffffffffff1681565b5f5f9054906101000a900473ffffffffffffffffffffffffffffffffffffffff1673ffffffffffffffffffffffffffffffffffffffff163373ffffffffffffffffffffffffffffffffffffffff1614610ac0576040517f30cd747100000000000000000000000000000000000000000000000000000000815260040160405180910390fd5b5f73ffffffffffffffffffffffffffffffffffffffff168173ffffffffffffffffffffffffffffffffffffffff1603610b25576040517fe6c4247b00000000000000000000000000000000000000000000000000000000815260040160405180910390fd5b805f5f6101000a81548173ffffffffffffffffffffffffffffffffffffffff021916908373ffffffffffffffffffffffffffffffffffffffff16021790555050565b6008602052805f5260405f205f915090505481565b5f5f9054906101000a900473ffffffffffffffffffffffffffffffffffffffff1673ffffffffffffffffffffffffffffffffffffffff163373ffffffffffffffffffffffffffffffffffffffff1614610c01576040517f30cd747100000000000000000000000000000000000000000000000000000000815260040160405180910390fd5b5f73ffffffffffffffffffffffffffffffffffffffff168273ffffffffffffffffffffffffffffffffffffffff1603610c66576040517fe6c4247b00000000000000000000000000000000000000000000000000000000815260040160405180910390fd5b7f000000000000000000000000000000000000000000000000000000000000000073ffffffffffffffffffffffffffffffffffffffff1663a9059cbb83836040518363ffffffff1660e01b8152600401610cc19291906114bc565b6020604051808303815f875af1158015610cdd573d5f5f3e3d5ffd5b505050506040513d601f19601f82011682018060405250810190610d019190611491565b610d37576040517f90b8ec1800000000000000000000000000000000000000000000000000000000815260040160405180910390fd5b8173ffffffffffffffffffffffffffffffffffffffff167f884edad9ce6fa2440d8a54cc123490eb96d2768479d49ff9c7366125a942436482604051610d7d91906110a1565b60405180910390a25050565b6005602052805f5260405f205f91509050805f0154908060010154905082565b5f60035403610dbf57610dba610f61565b610dee565b5f60055f60035481526020019081526020015f209050805f0154816001015403610dec57610deb610f61565b5b505b565b60608167ffffffffffffffff811115610e0c57610e0b6114e3565b5b604051908082528060200260200182016040528015610e3a5781602001602082028036833780820191505090505b5090505f5f90505b82811015610f58575f8185610e579190611344565b90505f81608088901b1790508760075f8381526020019081526020015f205f6101000a81548173ffffffffffffffffffffffffffffffffffffffff021916908373ffffffffffffffffffffffffffffffffffffffff1602179055508660085f8381526020019081526020015f208190555060095f8973ffffffffffffffffffffffffffffffffffffffff1673ffffffffffffffffffffffffffffffffffffffff1681526020019081526020015f2081908060018154018082558091505060019003905f5260205f20015f909190919091505580848481518110610f3d57610f3c611510565b5b60200260200101818152505050508080600101915050610e42565b50949350505050565b5f5f60035414610f7f576001600354610f7a9190611344565b610f82565b60015b90505f8190505b6004548111611024575f60055f8381526020019081526020015f2090505f815f015403610fb65750611011565b805f01548160010154101561100f5781600381905550817f92f4672ba5b2b4f28a7cee1336b7f92f4c6d73f32a8a3317187229febcb68a4b825f0154604051610fff91906110a1565b60405180910390a250505061102e565b505b808061101c9061153d565b915050610f89565b505f600381905550505b565b5f5ffd5b5f819050919050565b61104681611034565b8114611050575f5ffd5b50565b5f813590506110618161103d565b92915050565b5f6020828403121561107c5761107b611030565b5b5f61108984828501611053565b91505092915050565b61109b81611034565b82525050565b5f6020820190506110b45f830184611092565b92915050565b5f73ffffffffffffffffffffffffffffffffffffffff82169050919050565b5f819050919050565b5f6110fc6110f76110f2846110ba565b6110d9565b6110ba565b9050919050565b5f61110d826110e2565b9050919050565b5f61111e82611103565b9050919050565b61112e81611114565b82525050565b5f6020820190506111475f830184611125565b92915050565b5f6040820190506111605f830185611092565b61116d6020830184611092565b9392505050565b5f61117e826110ba565b9050919050565b61118e81611174565b82525050565b5f6020820190506111a75f830184611185565b92915050565b6111b681611174565b81146111c0575f5ffd5b50565b5f813590506111d1816111ad565b92915050565b5f602082840312156111ec576111eb611030565b5b5f6111f9848285016111c3565b91505092915050565b5f81519050919050565b5f82825260208201905092915050565b5f819050602082019050919050565b61123481611034565b82525050565b5f611245838361122b565b60208301905092915050565b5f602082019050919050565b5f61126782611202565b611271818561120c565b935061127c8361121c565b805f5b838110156112ac578151611293888261123a565b975061129e83611251565b92505060018101905061127f565b5085935050505092915050565b5f6020820190508181035f8301526112d1818461125d565b905092915050565b5f5f604083850312156112ef576112ee611030565b5b5f6112fc858286016111c3565b925050602061130d85828601611053565b9150509250929050565b7f4e487b71000000000000000000000000000000000000000000000000000000005f52601160045260245ffd5b5f61134e82611034565b915061135983611034565b925082820190508082111561137157611370611317565b5b92915050565b5f61138182611034565b915061138c83611034565b92508282039050818111156113a4576113a3611317565b5b92915050565b5f6113b482611034565b91506113bf83611034565b92508282026113cd81611034565b915082820484148315176113e4576113e3611317565b5b5092915050565b5f6060820190506113fe5f830186611092565b61140b6020830185611092565b818103604083015261141d818461125d565b9050949350505050565b5f60608201905061143a5f830186611185565b6114476020830185611185565b6114546040830184611092565b949350505050565b5f8115159050919050565b6114708161145c565b811461147a575f5ffd5b50565b5f8151905061148b81611467565b92915050565b5f602082840312156114a6576114a5611030565b5b5f6114b38482850161147d565b91505092915050565b5f6040820190506114cf5f830185611185565b6114dc6020830184611092565b9392505050565b7f4e487b71000000000000000000000000000000000000000000000000000000005f52604160045260245ffd5b7f4e487b71000000000000000000000000000000000000000000000000000000005f52603260045260245ffd5b5f61154782611034565b91507fffffffffffffffffffffffffffffffffffffffffffffffffffffffffffffffff820361157957611578611317565b5b60018201905091905056fea26469706673582212207bf4ab074f0c4133eb905cbb3be0e31af51130a1b7d99aa5ad67fc738129f6f664736f6c634300081e0033",
			"opcodes": "PUSH1 0xA0 PUSH1 0x40 MSTORE CALLVALUE DUP1 ISZERO PUSH2 0xF JUMPI PUSH0 PUSH0 REVERT JUMPDEST POP PUSH1 0x40 MLOAD PUSH2 0x17C6 CODESIZE SUB DUP1 PUSH2 0x17C6 DUP4 CODECOPY DUP2 DUP2 ADD PUSH1 0x40 MSTORE DUP2 ADD SWAP1 PUSH2 0x31 SWAP2 SWAP1 PUSH2 0x1A8 JUMP JUMPDEST PUSH0 PUSH20 0xFFFFFFFFFFFFFFFFFFFFFFFFFFFFFFFFFFFFFFFF AND DUP3 PUSH20 0xFFFFFFFFFFFFFFFFFFFFFFFFFFFFFFFFFFFFFFFF AND SUB PUSH2 0x96 JUMPI PUSH1 0x40 MLOAD PUSH32 0xE6C4247B00000000000000000000000000000000000000000000000000000000 DUP2 MSTORE PUSH1 0x4 ADD PUSH1 0x40 MLOAD DUP1 SWAP2 SUB SWAP1 REVERT JUMPDEST CALLER PUSH0 PUSH0 PUSH2 0x100 EXP DUP2 SLOAD DUP2 PUSH20 0xFFFFFFFFFFFFFFFFFFFFFFFFFFFFFFFFFFFFFFFF MUL NOT AND SWAP1 DUP4 PUSH20 0xFFFFFFFFFFFFFFFFFFFFFFFFFFFFFFFFFFFFFFFF AND MUL OR SWAP1 SSTORE POP DUP2 PUSH20 0xFFFFFFFFFFFFFFFFFFFFFFFFFFFFFFFFFFFFFFFF AND PUSH1 0x80 DUP2 PUSH20 0xFFFFFFFFFFFFFFFFFFFFFFFFFFFFFFFFFFFFFFFF AND DUP2 MSTORE POP POP DUP1 PUSH1 0x1 DUP2 SWAP1 SSTORE POP POP POP PUSH2 0x1E6 JUMP JUMPDEST PUSH0 PUSH0 REVERT JUMPDEST PUSH0 PUSH20 0xFFFFFFFFFFFFFFFFFFFFFFFFFFFFFFFFFFFFFFFF DUP3 AND SWAP1 POP SWAP2 SWAP1 POP JUMP JUMPDEST PUSH0 PUSH2 0x144 DUP3 PUSH2 0x11B JUMP JUMPDEST SWAP1 POP SWAP2 SWAP1 POP JUMP JUMPDEST PUSH2 0x154 DUP2 PUSH2 0x13A JUMP JUMPDEST DUP2 EQ PUSH2 0x15E JUMPI PUSH0 PUSH0 REVERT JUMPDEST POP JUMP JUMPDEST PUSH0 DUP2 MLOAD SWAP1 POP PUSH2 0x16F DUP2 PUSH2 0x14B JUMP JUMPDEST SWAP3 SWAP2 POP POP JUMP JUMPDEST PUSH0 DUP2 SWAP1 POP SWAP2 SWAP1 POP JUMP JUMPDEST PUSH2 0x187 DUP2 PUSH2 0x175 JUMP JUMPDEST DUP2 EQ PUSH2 0x191 JUMPI PUSH0 PUSH0 REVERT JUMPDEST POP JUMP JUMPDEST PUSH0 DUP2 MLOAD SWAP1 POP PUSH2 0x1A2 DUP2 PUSH2 0x17E JUMP JUMPDEST SWAP3 SWAP2 POP POP JUMP JUMPDEST PUSH0 PUSH0 PUSH1 0x40 DUP4 DUP6 SUB SLT ISZERO PUSH2 0x1BE JUMPI PUSH2 0x1BD PUSH2 0x117 JUMP JUMPDEST JUMPDEST PUSH0 PUSH2 0x1CB DUP6 DUP3 DUP7 ADD PUSH2 0x161 JUMP JUMPDEST SWAP3 POP POP PUSH1 0x20 PUSH2 0x1DC DUP6 DUP3 DUP7 ADD PUSH2 0x194 JUMP JUMPDEST SWAP2 POP POP SWAP3 POP SWAP3 SWAP1 POP JUMP JUMPDEST PUSH1 0x80 MLOAD PUSH2 0x15BA PUSH2 0x20C PUSH0 CODECOPY PUSH0 DUP2 DUP2 PUSH2 0x7CC ADD MSTORE DUP2 DUP2 PUSH2 0x8EE ADD MSTORE PUSH2 0xC68 ADD MSTORE PUSH2 0x15BA PUSH0 RETURN INVALID PUSH1 0x80 PUSH1 0x40 MSTORE CALLVALUE DUP1 ISZERO PUSH2 0xF JUMPI PUSH0 PUSH0 REVERT JUMPDEST POP PUSH1 0x4 CALLDATASIZE LT PUSH2 0x109 JUMPI PUSH0 CALLDATALOAD PUSH1 0xE0 SHR DUP1 PUSH4 0x8DA5CB5B GT PUSH2 0xA0 JUMPI DUP1 PUSH4 0xEB2DBCF6 GT PUSH2 0x6F JUMPI DUP1 PUSH4 0xEB2DBCF6 EQ PUSH2 0x2A6 JUMPI DUP1 PUSH4 0xF2FDE38B EQ PUSH2 0x2D6 JUMPI DUP1 PUSH4 0xF3EEC42F EQ PUSH2 0x2F2 JUMPI DUP1 PUSH4 0xF3FEF3A3 EQ PUSH2 0x322 JUMPI DUP1 PUSH4 0xFE8ACE85 EQ PUSH2 0x33E JUMPI PUSH2 0x109 JUMP JUMPDEST DUP1 PUSH4 0x8DA5CB5B EQ PUSH2 0x20A JUMPI DUP1 PUSH4 0x8F15024F EQ PUSH2 0x228 JUMPI DUP1 PUSH4 0xA4BFD0CC EQ PUSH2 0x246 JUMPI DUP1 PUSH4 0xE54566F3 EQ PUSH2 0x276 JUMPI PUSH2 0x109 JUMP JUMPDEST DUP1 PUSH4 0x2671FD2B GT PUSH2 0xDC JUMPI DUP1 PUSH4 0x2671FD2B EQ PUSH2 0x181 JUMPI DUP1 PUSH4 0x2F366637 EQ PUSH2 0x19F JUMPI DUP1 PUSH4 0x2F48AB7D EQ PUSH2 0x1BB JUMPI DUP1 PUSH4 0x616EB255 EQ PUSH2 0x1D9 JUMPI PUSH2 0x109 JUMP JUMPDEST DUP1 PUSH4 0x3914276 EQ PUSH2 0x10D JUMPI DUP1 PUSH4 0x1209B1F6 EQ PUSH2 0x129 JUMPI DUP1 PUSH4 0x15981650 EQ PUSH2 0x147 JUMPI DUP1 PUSH4 0x15B5386E EQ PUSH2 0x163 JUMPI JUMPDEST PUSH0 PUSH0 REVERT JUMPDEST PUSH2 0x127 PUSH1 0x4 DUP1 CALLDATASIZE SUB DUP2 ADD SWAP1 PUSH2 0x122 SWAP2 SWAP1 PUSH2 0x1067 JUMP JUMPDEST PUSH2 0x36F JUMP JUMPDEST STOP JUMPDEST PUSH2 0x131 PUSH2 0x4F8 JUMP JUMPDEST PUSH1 0x40 MLOAD PUSH2 0x13E SWAP2 SWAP1 PUSH2 0x10A1 JUMP JUMPDEST PUSH1 0x40 MLOAD DUP1 SWAP2 SUB SWAP1 RETURN JUMPDEST PUSH2 0x161 PUSH1 0x4 DUP1 CALLDATASIZE SUB DUP2 ADD SWAP1 PUSH2 0x15C SWAP2 SWAP1 PUSH2 0x1067 JUMP JUMPDEST PUSH2 0x4FE JUMP JUMPDEST STOP JUMPDEST PUSH2 0x16B PUSH2 0x5C4 JUMP JUMPDEST PUSH1 0x40 MLOAD PUSH2 0x178 SWAP2 SWAP1 PUSH2 0x10A1 JUMP JUMPDEST PUSH1 0x40 MLOAD DUP1 SWAP2 SUB SWAP1 RETURN JUMPDEST PUSH2 0x189 PUSH2 0x5CA JUMP JUMPDEST PUSH1 0x40 MLOAD PUSH2 0x196 SWAP2 SWAP1 PUSH2 0x10A1 JUMP JUMPDEST PUSH1 0x40 MLOAD DUP1 SWAP2 SUB SWAP1 RETURN JUMPDEST PUSH2 0x1B9 PUSH1 0x4 DUP1 CALLDATASIZE SUB DUP2 ADD SWAP1 PUSH2 0x1B4 SWAP2 SWAP1 PUSH2 0x1067 JUMP JUMPDEST PUSH2 0x5D0 JUMP JUMPDEST STOP JUMPDEST PUSH2 0x1C3 PUSH2 0x8EC JUMP JUMPDEST PUSH1 0x40 MLOAD PUSH2 0x1D0 SWAP2 SWAP1 PUSH2 0x1134 JUMP JUMPDEST PUSH1 0x40 MLOAD DUP1 SWAP2 SUB SWAP1 RETURN JUMPDEST PUSH2 0x1F3 PUSH1 0x4 DUP1 CALLDATASIZE SUB DUP2 ADD SWAP1 PUSH2 0x1EE SWAP2 SWAP1 PUSH2 0x1067 JUMP JUMPDEST PUSH2 0x910 JUMP JUMPDEST PUSH1 0x40 MLOAD PUSH2 0x201 SWAP3 SWAP2 SWAP1 PUSH2 0x114D JUMP JUMPDEST PUSH1 0x40 MLOAD DUP1 SWAP2 SUB SWAP1 RETURN JUMPDEST PUSH2 0x212 PUSH2 0x939 JUMP JUMPDEST PUSH1 0x40 MLOAD PUSH2 0x21F SWAP2 SWAP1 PUSH2 0x1194 JUMP JUMPDEST PUSH1 0x40 MLOAD DUP1 SWAP2 SUB SWAP1 RETURN JUMPDEST PUSH2 0x230 PUSH2 0x95D JUMP JUMPDEST PUSH1 0x40 MLOAD PUSH2 0x23D SWAP2 SWAP1 PUSH2 0x10A1 JUMP JUMPDEST PUSH1 0x40 MLOAD DUP1 SWAP2 SUB SWAP1 RETURN JUMPDEST PUSH2 0x260 PUSH1 0x4 DUP1 CALLDATASIZE SUB DUP2 ADD SWAP1 PUSH2 0x25B SWAP2 SWAP1 PUSH2 0x11D7 JUMP JUMPDEST PUSH2 0x963 JUMP JUMPDEST PUSH1 0x40 MLOAD PUSH2 0x26D SWAP2 SWAP1 PUSH2 0x12B9 JUMP JUMPDEST PUSH1 0x40 MLOAD DUP1 SWAP2 SUB SWAP1 RETURN JUMPDEST PUSH2 0x290 PUSH1 0x4 DUP1 CALLDATASIZE SUB DUP2 ADD SWAP1 PUSH2 0x28B SWAP2 SWAP1 PUSH2 0x11D7 JUMP JUMPDEST PUSH2 0x9F6 JUMP JUMPDEST PUSH1 0x40 MLOAD PUSH2 0x29D SWAP2 SWAP1 PUSH2 0x10A1 JUMP JUMPDEST PUSH1 0x40 MLOAD DUP1 SWAP2 SUB SWAP1 RETURN JUMPDEST PUSH2 0x2C0 PUSH1 0x4 DUP1 CALLDATASIZE SUB DUP2 ADD SWAP1 PUSH2 0x2BB SWAP2 SWAP1 PUSH2 0x1067 JUMP JUMPDEST PUSH2 0xA0B JUMP JUMPDEST PUSH1 0x40 MLOAD PUSH2 0x2CD SWAP2 SWAP1 PUSH2 0x1194 JUMP JUMPDEST PUSH1 0x40 MLOAD DUP1 SWAP2 SUB SWAP1 RETURN JUMPDEST PUSH2 0x2F0 PUSH1 0x4 DUP1 CALLDATASIZE SUB DUP2 ADD SWAP1 PUSH2 0x2EB SWAP2 SWAP1 PUSH2 0x11D7 JUMP JUMPDEST PUSH2 0xA3B JUMP JUMPDEST STOP JUMPDEST PUSH2 0x30C PUSH1 0x4 DUP1 CALLDATASIZE SUB DUP2 ADD SWAP1 PUSH2 0x307 SWAP2 SWAP1 PUSH2 0x1067 JUMP JUMPDEST PUSH2 0xB67 JUMP JUMPDEST PUSH1 0x40 MLOAD PUSH2 0x319 SWAP2 SWAP1 PUSH2 0x10A1 JUMP JUMPDEST PUSH1 0x40 MLOAD DUP1 SWAP2 SUB SWAP1 RETURN JUMPDEST PUSH2 0x33C PUSH1 0x4 DUP1 CALLDATASIZE SUB DUP2 ADD SWAP1 PUSH2 0x337 SWAP2 SWAP1 PUSH2 0x12D9 JUMP JUMPDEST PUSH2 0xB7C JUMP JUMPDEST STOP JUMPDEST PUSH2 0x358 PUSH1 0x4 DUP1 CALLDATASIZE SUB DUP2 ADD SWAP1 PUSH2 0x353 SWAP2 SWAP1 PUSH2 0x1067 JUMP JUMPDEST PUSH2 0xD89 JUMP JUMPDEST PUSH1 0x40 MLOAD PUSH2 0x366 SWAP3 SWAP2 SWAP1 PUSH2 0x114D JUMP JUMPDEST PUSH1 0x40 MLOAD DUP1 SWAP2 SUB SWAP1 RETURN JUMPDEST PUSH0 PUSH0 SWAP1 SLOAD SWAP1 PUSH2 0x100 EXP SWAP1 DIV PUSH20 0xFFFFFFFFFFFFFFFFFFFFFFFFFFFFFFFFFFFFFFFF AND PUSH20 0xFFFFFFFFFFFFFFFFFFFFFFFFFFFFFFFFFFFFFFFF AND CALLER PUSH20 0xFFFFFFFFFFFFFFFFFFFFFFFFFFFFFFFFFFFFFFFF AND EQ PUSH2 0x3F4 JUMPI PUSH1 0x40 MLOAD PUSH32 0x30CD747100000000000000000000000000000000000000000000000000000000 DUP2 MSTORE PUSH1 0x4 ADD PUSH1 0x40 MLOAD DUP1 SWAP2 SUB SWAP1 REVERT JUMPDEST PUSH0 DUP2 SUB PUSH2 0x42D JUMPI PUSH1 0x40 MLOAD PUSH32 0x8E71BEF900000000000000000000000000000000000000000000000000000000 DUP2 MSTORE PUSH1 0x4 ADD PUSH1 0x40 MLOAD DUP1 SWAP2 SUB SWAP1 REVERT JUMPDEST PUSH1 0x1 PUSH1 0x4 PUSH0 DUP3 DUP3 SLOAD PUSH2 0x43F SWAP2 SWAP1 PUSH2 0x1344 JUMP JUMPDEST SWAP3 POP POP DUP2 SWAP1 SSTORE POP PUSH0 PUSH1 0x5 PUSH0 PUSH1 0x4 SLOAD DUP2 MSTORE PUSH1 0x20 ADD SWAP1 DUP2 MSTORE PUSH1 0x20 ADD PUSH0 KECCAK256 SWAP1 POP DUP2 DUP2 PUSH0 ADD DUP2 SWAP1 SSTORE POP PUSH0 DUP2 PUSH1 0x1 ADD DUP2 SWAP1 SSTORE POP PUSH1 0x4 SLOAD PUSH32 0xA9BB9F177C59B93F2B7ABB2DFB6FFC1518C0D3A40145C47A372F46E70D011D15 DUP4 PUSH1 0x40 MLOAD PUSH2 0x49F SWAP2 SWAP1 PUSH2 0x10A1 JUMP JUMPDEST PUSH1 0x40 MLOAD DUP1 SWAP2 SUB SWAP1 LOG2 PUSH0 PUSH1 0x3 SLOAD SUB PUSH2 0x4F4 JUMPI PUSH1 0x4 SLOAD PUSH1 0x3 DUP2 SWAP1 SSTORE POP PUSH1 0x3 SLOAD PUSH32 0x92F4672BA5B2B4F28A7CEE1336B7F92F4C6D73F32A8A3317187229FEBCB68A4B DUP4 PUSH1 0x40 MLOAD PUSH2 0x4EB SWAP2 SWAP1 PUSH2 0x10A1 JUMP JUMPDEST PUSH1 0x40 MLOAD DUP1 SWAP2 SUB SWAP1 LOG2 JUMPDEST POP POP JUMP JUMPDEST PUSH1 0x1 SLOAD DUP2 JUMP JUMPDEST PUSH0 PUSH0 SWAP1 SLOAD SWAP1 PUSH2 0x100 EXP SWAP1 DIV PUSH20 0xFFFFFFFFFFFFFFFFFFFFFFFFFFFFFFFFFFFFFFFF AND PUSH20 0xFFFFFFFFFFFFFFFFFFFFFFFFFFFFFFFFFFFFFFFF AND CALLER PUSH20 0xFFFFFFFFFFFFFFFFFFFFFFFFFFFFFFFFFFFFFFFF AND EQ PUSH2 0x583 JUMPI PUSH1 0x40 MLOAD PUSH32 0x30CD747100000000000000000000000000000000000000000000000000000000 DUP2 MSTORE PUSH1 0x4 ADD PUSH1 0x40 MLOAD DUP1 SWAP2 SUB SWAP1 REVERT JUMPDEST DUP1 PUSH1 0x1 DUP2 SWAP1 SSTORE POP PUSH32 0x7429795511C1EC5EBCC0E6839095EC18F13FCE25CDC7C90DA9D8A016584A1DBE DUP2 PUSH1 0x40 MLOAD PUSH2 0x5B9 SWAP2 SWAP1 PUSH2 0x10A1 JUMP JUMPDEST PUSH1 0x40 MLOAD DUP1 SWAP2 SUB SWAP1 LOG1 POP JUMP JUMPDEST PUSH1 0x4 SLOAD DUP2 JUMP JUMPDEST PUSH1 0x3 SLOAD DUP2 JUMP JUMPDEST PUSH0 DUP2 SUB PUSH2 0x609 JUMPI PUSH1 0x40 MLOAD PUSH32 0x8E71BEF900000000000000000000000000000000000000000000000000000000 DUP2 MSTORE PUSH1 0x4 ADD PUSH1 0x40 MLOAD DUP1 SWAP2 SUB SWAP1 REVERT JUMPDEST PUSH2 0x611 PUSH2 0xDA9 JUMP JUMPDEST PUSH0 PUSH1 0x3 SLOAD SUB PUSH2 0x64C JUMPI PUSH1 0x40 MLOAD PUSH32 0xBA6ADD4400000000000000000000000000000000000000000000000000000000 DUP2 MSTORE PUSH1 0x4 ADD PUSH1 0x40 MLOAD DUP1 SWAP2 SUB SWAP1 REVERT JUMPDEST PUSH0 PUSH1 0x5 PUSH0 PUSH1 0x3 SLOAD DUP2 MSTORE PUSH1 0x20 ADD SWAP1 DUP2 MSTORE PUSH1 0x20 ADD PUSH0 KECCAK256 SWAP1 POP PUSH0 DUP2 PUSH1 0x1 ADD SLOAD DUP3 PUSH0 ADD SLOAD PUSH2 0x676 SWAP2 SWAP1 PUSH2 0x1377 JUMP JUMPDEST SWAP1 POP DUP1 DUP4 GT ISZERO PUSH2 0x6B2 JUMPI PUSH1 0x40 MLOAD PUSH32 0x19E215BC00000000000000000000000000000000000000000000000000000000 DUP2 MSTORE PUSH1 0x4 ADD PUSH1 0x40 MLOAD DUP1 SWAP2 SUB SWAP1 REVERT JUMPDEST PUSH0 DUP4 PUSH1 0x1 SLOAD PUSH2 0x6C1 SWAP2 SWAP1 PUSH2 0x13AA JUMP JUMPDEST SWAP1 POP PUSH0 DUP4 PUSH1 0x1 ADD SLOAD SWAP1 POP DUP5 DUP5 PUSH1 0x1 ADD PUSH0 DUP3 DUP3 SLOAD PUSH2 0x6DE SWAP2 SWAP1 PUSH2 0x1344 JUMP JUMPDEST SWAP3 POP POP DUP2 SWAP1 SSTORE POP DUP5 PUSH1 0x2 PUSH0 DUP3 DUP3 SLOAD PUSH2 0x6F6 SWAP2 SWAP1 PUSH2 0x1344 JUMP JUMPDEST SWAP3 POP POP DUP2 SWAP1 SSTORE POP DUP5 PUSH1 0x6 PUSH0 CALLER PUSH20 0xFFFFFFFFFFFFFFFFFFFFFFFFFFFFFFFFFFFFFFFF AND PUSH20 0xFFFFFFFFFFFFFFFFFFFFFFFFFFFFFFFFFFFFFFFF AND DUP2 MSTORE PUSH1 0x20 ADD SWAP1 DUP2 MSTORE PUSH1 0x20 ADD PUSH0 KECCAK256 PUSH0 DUP3 DUP3 SLOAD PUSH2 0x749 SWAP2 SWAP1 PUSH2 0x1344 JUMP JUMPDEST SWAP3 POP POP DUP2 SWAP1 SSTORE POP PUSH0 PUSH2 0x76B CALLER PUSH1 0x3 SLOAD PUSH1 0x1 DUP6 PUSH2 0x765 SWAP2 SWAP1 PUSH2 0x1344 JUMP JUMPDEST DUP10 PUSH2 0xDF0 JUMP JUMPDEST SWAP1 POP PUSH1 0x3 SLOAD CALLER PUSH20 0xFFFFFFFFFFFFFFFFFFFFFFFFFFFFFFFFFFFFFFFF AND PUSH32 0x7478E1CA4690B7AD34581C0F0974FC4D6C826CB3D55AF76A85334ED9537C5DD9 DUP9 DUP7 DUP6 PUSH1 0x40 MLOAD PUSH2 0x7BA SWAP4 SWAP3 SWAP2 SWAP1 PUSH2 0x13EB JUMP JUMPDEST PUSH1 0x40 MLOAD DUP1 SWAP2 SUB SWAP1 LOG3 PUSH0 DUP4 GT ISZERO PUSH2 0x89E JUMPI PUSH32 0x0 PUSH20 0xFFFFFFFFFFFFFFFFFFFFFFFFFFFFFFFFFFFFFFFF AND PUSH4 0x23B872DD CALLER ADDRESS DUP7 PUSH1 0x40 MLOAD DUP5 PUSH4 0xFFFFFFFF AND PUSH1 0xE0 SHL DUP2 MSTORE PUSH1 0x4 ADD PUSH2 0x827 SWAP4 SWAP3 SWAP2 SWAP1 PUSH2 0x1427 JUMP JUMPDEST PUSH1 0x20 PUSH1 0x40 MLOAD DUP1 DUP4 SUB DUP2 PUSH0 DUP8 GAS CALL ISZERO DUP1 ISZERO PUSH2 0x843 JUMPI RETURNDATASIZE PUSH0 PUSH0 RETURNDATACOPY RETURNDATASIZE PUSH0 REVERT JUMPDEST POP POP POP POP PUSH1 0x40 MLOAD RETURNDATASIZE PUSH1 0x1F NOT PUSH1 0x1F DUP3 ADD AND DUP3 ADD DUP1 PUSH1 0x40 MSTORE POP DUP2 ADD SWAP1 PUSH2 0x867 SWAP2 SWAP1 PUSH2 0x1491 JUMP JUMPDEST PUSH2 0x89D JUMPI PUSH1 0x40 MLOAD PUSH32 0x90B8EC1800000000000000000000000000000000000000000000000000000000 DUP2 MSTORE PUSH1 0x4 ADD PUSH1 0x40 MLOAD DUP1 SWAP2 SUB SWAP1 REVERT JUMPDEST JUMPDEST DUP5 PUSH0 ADD SLOAD DUP6 PUSH1 0x1 ADD SLOAD SUB PUSH2 0x8E4 JUMPI PUSH1 0x3 SLOAD PUSH32 0xFD8D96E5E049823E751E0C23004BDBB7793038835AC2CB5E6EEEC672AA5C8EBC PUSH1 0x40 MLOAD PUSH1 0x40 MLOAD DUP1 SWAP2 SUB SWAP1 LOG2 PUSH2 0x8E3 PUSH2 0xF61 JUMP JUMPDEST JUMPDEST POP POP POP POP POP POP JUMP JUMPDEST PUSH32 0x0 DUP2 JUMP JUMPDEST PUSH0 PUSH0 PUSH0 PUSH1 0x5 PUSH0 DUP6 DUP2 MSTORE PUSH1 0x20 ADD SWAP1 DUP2 MSTORE PUSH1 0x20 ADD PUSH0 KECCAK256 SWAP1 POP DUP1 PUSH0 ADD SLOAD DUP2 PUSH1 0x1 ADD SLOAD SWAP3 POP SWAP3 POP POP SWAP2 POP SWAP2 JUMP JUMPDEST PUSH0 PUSH0 SWAP1 SLOAD SWAP1 PUSH2 0x100 EXP SWAP1 DIV PUSH20 0xFFFFFFFFFFFFFFFFFFFFFFFFFFFFFFFFFFFFFFFF AND DUP2 JUMP JUMPDEST PUSH1 0x2 SLOAD DUP2 JUMP JUMPDEST PUSH1 0x60 PUSH1 0x9 PUSH0 DUP4 PUSH20 0xFFFFFFFFFFFFFFFFFFFFFFFFFFFFFFFFFFFFFFFF AND PUSH20 0xFFFFFFFFFFFFFFFFFFFFFFFFFFFFFFFFFFFFFFFF AND DUP2 MSTORE PUSH1 0x20 ADD SWAP1 DUP2 MSTORE PUSH1 0x20 ADD PUSH0 KECCAK256 DUP1 SLOAD DUP1 PUSH1 0x20 MUL PUSH1 0x20 ADD PUSH1 0x40 MLOAD SWAP1 DUP2 ADD PUSH1 0x40 MSTORE DUP1 SWAP3 SWAP2 SWAP1 DUP2 DUP2 MSTORE PUSH1 0x20 ADD DUP3 DUP1 SLOAD DUP1 ISZERO PUSH2 0x9EA JUMPI PUSH1 0x20 MUL DUP3 ADD SWAP2 SWAP1 PUSH0 MSTORE PUSH1 0x20 PUSH0 KECCAK256 SWAP1 JUMPDEST DUP2 SLOAD DUP2 MSTORE PUSH1 0x20 ADD SWAP1 PUSH1 0x1 ADD SWAP1 DUP1 DUP4 GT PUSH2 0x9D6 JUMPI JUMPDEST POP POP POP POP POP SWAP1 POP SWAP2 SWAP1 POP JUMP JUMPDEST PUSH1 0x6 PUSH1 0x20 MSTORE DUP1 PUSH0 MSTORE PUSH1 0x40 PUSH0 KECCAK256 PUSH0 SWAP2 POP SWAP1 POP SLOAD DUP2 JUMP JUMPDEST PUSH1 0x7 PUSH1 0x20 MSTORE DUP1 PUSH0 MSTORE PUSH1 0x40 PUSH0 KECCAK256 PUSH0 SWAP2 POP SLOAD SWAP1 PUSH2 0x100 EXP SWAP1 DIV PUSH20 0xFFFFFFFFFFFFFFFFFFFFFFFFFFFFFFFFFFFFFFFF AND DUP2 JUMP JUMPDEST PUSH0 PUSH0 SWAP1 SLOAD SWAP1 PUSH2 0x100 EXP SWAP1 DIV PUSH20 0xFFFFFFFFFFFFFFFFFFFFFFFFFFFFFFFFFFFFFFFF AND PUSH20 0xFFFFFFFFFFFFFFFFFFFFFFFFFFFFFFFFFFFFFFFF AND CALLER PUSH20 0xFFFFFFFFFFFFFFFFFFFFFFFFFFFFFFFFFFFFFFFF AND EQ PUSH2 0xAC0 JUMPI PUSH1 0x40 MLOAD PUSH32 0x30CD747100000000000000000000000000000000000000000000000000000000 DUP2 MSTORE PUSH1 0x4 ADD PUSH1 0x40 MLOAD DUP1 SWAP2 SUB SWAP1 REVERT JUMPDEST PUSH0 PUSH20 0xFFFFFFFFFFFFFFFFFFFFFFFFFFFFFFFFFFFFFFFF AND DUP2 PUSH20 0xFFFFFFFFFFFFFFFFFFFFFFFFFFFFFFFFFFFFFFFF AND SUB PUSH2 0xB25 JUMPI PUSH1 0x40 MLOAD PUSH32 0xE6C4247B00000000000000000000000000000000000000000000000000000000 DUP2 MSTORE PUSH1 0x4 ADD PUSH1 0x40 MLOAD DUP1 SWAP2 SUB SWAP1 REVERT JUMPDEST DUP1 PUSH0 PUSH0 PUSH2 0x100 EXP DUP2 SLOAD DUP2 PUSH20 0xFFFFFFFFFFFFFFFFFFFFFFFFFFFFFFFFFFFFFFFF MUL NOT AND SWAP1 DUP4 PUSH20 0xFFFFFFFFFFFFFFFFFFFFFFFFFFFFFFFFFFFFFFFF AND MUL OR SWAP1 SSTORE POP POP JUMP JUMPDEST PUSH1 0x8 PUSH1 0x20 MSTORE DUP1 PUSH0 MSTORE PUSH1 0x40 PUSH0 KECCAK256 PUSH0 SWAP2 POP SWAP1 POP SLOAD DUP2 JUMP JUMPDEST PUSH0 PUSH0 SWAP1 SLOAD SWAP1 PUSH2 0x100 EXP SWAP1 DIV PUSH20 0xFFFFFFFFFFFFFFFFFFFFFFFFFFFFFFFFFFFFFFFF AND PUSH20 0xFFFFFFFFFFFFFFFFFFFFFFFFFFFFFFFFFFFFFFFF AND CALLER PUSH20 0xFFFFFFFFFFFFFFFFFFFFFFFFFFFFFFFFFFFFFFFF AND EQ PUSH2 0xC01 JUMPI PUSH1 0x40 MLOAD PUSH32 0x30CD747100000000000000000000000000000000000000000000000000000000 DUP2 MSTORE PUSH1 0x4 ADD PUSH1 0x40 MLOAD DUP1 SWAP2 SUB SWAP1 REVERT JUMPDEST PUSH0 PUSH20 0xFFFFFFFFFFFFFFFFFFFFFFFFFFFFFFFFFFFFFFFF AND DUP3 PUSH20 0xFFFFFFFFFFFFFFFFFFFFFFFFFFFFFFFFFFFFFFFF AND SUB PUSH2 0xC66 JUMPI PUSH1 0x40 MLOAD PUSH32 0xE6C4247B00000000000000000000000000000000000000000000000000000000 DUP2 MSTORE PUSH1 0x4 ADD PUSH1 0x40 MLOAD DUP1 SWAP2 SUB SWAP1 REVERT JUMPDEST PUSH32 0x0 PUSH20 0xFFFFFFFFFFFFFFFFFFFFFFFFFFFFFFFFFFFFFFFF AND PUSH4 0xA9059CBB DUP4 DUP4 PUSH1 0x40 MLOAD DUP4 PUSH4 0xFFFFFFFF AND PUSH1 0xE0 SHL DUP2 MSTORE PUSH1 0x4 ADD PUSH2 0xCC1 SWAP3 SWAP2 SWAP1 PUSH2 0x14BC JUMP JUMPDEST PUSH1 0x20 PUSH1 0x40 MLOAD DUP1 DUP4 SUB DUP2 PUSH0 DUP8 GAS CALL ISZERO DUP1 ISZERO PUSH2 0xCDD JUMPI RETURNDATASIZE PUSH0 PUSH0 RETURNDATACOPY RETURNDATASIZE PUSH0 REVERT JUMPDEST POP POP POP POP PUSH1 0x40 MLOAD RETURNDATASIZE PUSH1 0x1F NOT PUSH1 0x1F DUP3 ADD AND DUP3 ADD DUP1 PUSH1 0x40 MSTORE POP DUP2 ADD SWAP1 PUSH2 0xD01 SWAP2 SWAP1 PUSH2 0x1491 JUMP JUMPDEST PUSH2 0xD37 JUMPI PUSH1 0x40 MLOAD PUSH32 0x90B8EC1800000000000000000000000000000000000000000000000000000000 DUP2 MSTORE PUSH1 0x4 ADD PUSH1 0x40 MLOAD DUP1 SWAP2 SUB SWAP1 REVERT JUMPDEST DUP2 PUSH20 0xFFFFFFFFFFFFFFFFFFFFFFFFFFFFFFFFFFFFFFFF AND PUSH32 0x884EDAD9CE6FA2440D8A54CC123490EB96D2768479D49FF9C7366125A9424364 DUP3 PUSH1 0x40 MLOAD PUSH2 0xD7D SWAP2 SWAP1 PUSH2 0x10A1 JUMP JUMPDEST PUSH1 0x40 MLOAD DUP1 SWAP2 SUB SWAP1 LOG2 POP POP JUMP JUMPDEST PUSH1 0x5 PUSH1 0x20 MSTORE DUP1 PUSH0 MSTORE PUSH1 0x40 PUSH0 KECCAK256 PUSH0 SWAP2 POP SWAP1 POP DUP1 PUSH0 ADD SLOAD SWAP1 DUP1 PUSH1 0x1 ADD SLOAD SWAP1 POP DUP3 JUMP JUMPDEST PUSH0 PUSH1 0x3 SLOAD SUB PUSH2 0xDBF JUMPI PUSH2 0xDBA PUSH2 0xF61 JUMP JUMPDEST PUSH2 0xDEE JUMP JUMPDEST PUSH0 PUSH1 0x5 PUSH0 PUSH1 0x3 SLOAD DUP2 MSTORE PUSH1 0x20 ADD SWAP1 DUP2 MSTORE PUSH1 0x20 ADD PUSH0 KECCAK256 SWAP1 POP DUP1 PUSH0 ADD SLOAD DUP2 PUSH1 0x1 ADD SLOAD SUB PUSH2 0xDEC JUMPI PUSH2 0xDEB PUSH2 0xF61 JUMP JUMPDEST JUMPDEST POP JUMPDEST JUMP JUMPDEST PUSH1 0x60 DUP2 PUSH8 0xFFFFFFFFFFFFFFFF DUP2 GT ISZERO PUSH2 0xE0C JUMPI PUSH2 0xE0B PUSH2 0x14E3 JUMP JUMPDEST JUMPDEST PUSH1 0x40 MLOAD SWAP1 DUP1 DUP3 MSTORE DUP1 PUSH1 0x20 MUL PUSH1 0x20 ADD DUP3 ADD PUSH1 0x40 MSTORE DUP1 ISZERO PUSH2 0xE3A JUMPI DUP2 PUSH1 0x20 ADD PUSH1 0x20 DUP3 MUL DUP1 CALLDATASIZE DUP4 CALLDATACOPY DUP1 DUP3 ADD SWAP2 POP POP SWAP1 POP JUMPDEST POP SWAP1 POP PUSH0 PUSH0 SWAP1 POP JUMPDEST DUP3 DUP2 LT ISZERO PUSH2 0xF58 JUMPI PUSH0 DUP2 DUP6 PUSH2 0xE57 SWAP2 SWAP1 PUSH2 0x1344 JUMP JUMPDEST SWAP1 POP PUSH0 DUP2 PUSH1 0x80 DUP9 SWAP1 SHL OR SWAP1 POP DUP8 PUSH1 0x7 PUSH0 DUP4 DUP2 MSTORE PUSH1 0x20 ADD SWAP1 DUP2 MSTORE PUSH1 0x20 ADD PUSH0 KECCAK256 PUSH0 PUSH2 0x100 EXP DUP2 SLOAD DUP2 PUSH20 0xFFFFFFFFFFFFFFFFFFFFFFFFFFFFFFFFFFFFFFFF MUL NOT AND SWAP1 DUP4 PUSH20 0xFFFFFFFFFFFFFFFFFFFFFFFFFFFFFFFFFFFFFFFF AND MUL OR SWAP1 SSTORE POP DUP7 PUSH1 0x8 PUSH0 DUP4 DUP2 MSTORE PUSH1 0x20 ADD SWAP1 DUP2 MSTORE PUSH1 0x20 ADD PUSH0 KECCAK256 DUP2 SWAP1 SSTORE POP PUSH1 0x9 PUSH0 DUP10 PUSH20 0xFFFFFFFFFFFFFFFFFFFFFFFFFFFFFFFFFFFFFFFF AND PUSH20 0xFFFFFFFFFFFFFFFFFFFFFFFFFFFFFFFFFFFFFFFF AND DUP2 MSTORE PUSH1 0x20 ADD SWAP1 DUP2 MSTORE PUSH1 0x20 ADD PUSH0 KECCAK256 DUP2 SWAP1 DUP1 PUSH1 0x1 DUP2 SLOAD ADD DUP1 DUP3 SSTORE DUP1 SWAP2 POP POP PUSH1 0x1 SWAP1 SUB SWAP1 PUSH0 MSTORE PUSH1 0x20 PUSH0 KECCAK256 ADD PUSH0 SWAP1 SWAP2 SWAP1 SWAP2 SWAP1 SWAP2 POP SSTORE DUP1 DUP5 DUP5 DUP2 MLOAD DUP2 LT PUSH2 0xF3D JUMPI PUSH2 0xF3C PUSH2 0x1510 JUMP JUMPDEST JUMPDEST PUSH1 0x20 MUL PUSH1 0x20 ADD ADD DUP2 DUP2 MSTORE POP POP POP POP DUP1 DUP1 PUSH1 0x1 ADD SWAP2 POP POP PUSH2 0xE42 JUMP JUMPDEST POP SWAP5 SWAP4 POP POP POP POP JUMP JUMPDEST PUSH0 PUSH0 PUSH1 0x3 SLOAD EQ PUSH2 0xF7F JUMPI PUSH1 0x1 PUSH1 0x3 SLOAD PUSH2 0xF7A SWAP2 SWAP1 PUSH2 0x1344 JUMP JUMPDEST PUSH2 0xF82 JUMP JUMPDEST PUSH1 0x1 JUMPDEST SWAP1 POP PUSH0 DUP2 SWAP1 POP JUMPDEST PUSH1 0x4 SLOAD DUP2 GT PUSH2 0x1024 JUMPI PUSH0 PUSH1 0x5 PUSH0 DUP4 DUP2 MSTORE PUSH1 0x20 ADD SWAP1 DUP2 MSTORE PUSH1 0x20 ADD PUSH0 KECCAK256 SWAP1 POP PUSH0 DUP2 PUSH0 ADD SLOAD SUB PUSH2 0xFB6 JUMPI POP PUSH2 0x1011 JUMP JUMPDEST DUP1 PUSH0 ADD SLOAD DUP2 PUSH1 0x1 ADD SLOAD LT ISZERO PUSH2 0x100F JUMPI DUP2 PUSH1 0x3 DUP2 SWAP1 SSTORE POP DUP2 PUSH32 0x92F4672BA5B2B4F28A7CEE1336B7F92F4C6D73F32A8A3317187229FEBCB68A4B DUP3 PUSH0 ADD SLOAD PUSH1 0x40 MLOAD PUSH2 0xFFF SWAP2 SWAP1 PUSH2 0x10A1 JUMP JUMPDEST PUSH1 0x40 MLOAD DUP1 SWAP2 SUB SWAP1 LOG2 POP POP POP PUSH2 0x102E JUMP JUMPDEST POP JUMPDEST DUP1 DUP1 PUSH2 0x101C SWAP1 PUSH2 0x153D JUMP JUMPDEST SWAP2 POP POP PUSH2 0xF89 JUMP JUMPDEST POP PUSH0 PUSH1 0x3 DUP2 SWAP1 SSTORE POP POP JUMPDEST JUMP JUMPDEST PUSH0 PUSH0 REVERT JUMPDEST PUSH0 DUP2 SWAP1 POP SWAP2 SWAP1 POP JUMP JUMPDEST PUSH2 0x1046 DUP2 PUSH2 0x1034 JUMP JUMPDEST DUP2 EQ PUSH2 0x1050 JUMPI PUSH0 PUSH0 REVERT JUMPDEST POP JUMP JUMPDEST PUSH0 DUP2 CALLDATALOAD SWAP1 POP PUSH2 0x1061 DUP2 PUSH2 0x103D JUMP JUMPDEST SWAP3 SWAP2 POP POP JUMP JUMPDEST PUSH0 PUSH1 0x20 DUP3 DUP5 SUB SLT ISZERO PUSH2 0x107C JUMPI PUSH2 0x107B PUSH2 0x1030 JUMP JUMPDEST JUMPDEST PUSH0 PUSH2 0x1089 DUP5 DUP3 DUP6 ADD PUSH2 0x1053 JUMP JUMPDEST SWAP2 POP POP SWAP3 SWAP2 POP POP JUMP JUMPDEST PUSH2 0x109B DUP2 PUSH2 0x1034 JUMP JUMPDEST DUP3 MSTORE POP POP JUMP JUMPDEST PUSH0 PUSH1 0x20 DUP3 ADD SWAP1 POP PUSH2 0x10B4 PUSH0 DUP4 ADD DUP5 PUSH2 0x1092 JUMP JUMPDEST SWAP3 SWAP2 POP POP JUMP JUMPDEST PUSH0 PUSH20 0xFFFFFFFFFFFFFFFFFFFFFFFFFFFFFFFFFFFFFFFF DUP3 AND SWAP1 POP SWAP2 SWAP1 POP JUMP JUMPDEST PUSH0 DUP2 SWAP1 POP SWAP2 SWAP1 POP JUMP JUMPDEST PUSH0 PUSH2 0x10FC PUSH2 0x10F7 PUSH2 0x10F2 DUP5 PUSH2 0x10BA JUMP JUMPDEST PUSH2 0x10D9 JUMP JUMPDEST PUSH2 0x10BA JUMP JUMPDEST SWAP1 POP SWAP2 SWAP1 POP JUMP JUMPDEST PUSH0 PUSH2 0x110D DUP3 PUSH2 0x10E2 JUMP JUMPDEST SWAP1 POP SWAP2 SWAP1 POP JUMP JUMPDEST PUSH0 PUSH2 0x111E DUP3 PUSH2 0x1103 JUMP JUMPDEST SWAP1 POP SWAP2 SWAP1 POP JUMP JUMPDEST PUSH2 0x112E DUP2 PUSH2 0x1114 JUMP JUMPDEST DUP3 MSTORE POP POP JUMP JUMPDEST PUSH0 PUSH1 0x20 DUP3 ADD SWAP1 POP PUSH2 0x1147 PUSH0 DUP4 ADD DUP5 PUSH2 0x1125 JUMP JUMPDEST SWAP3 SWAP2 POP POP JUMP JUMPDEST PUSH0 PUSH1 0x40 DUP3 ADD SWAP1 POP PUSH2 0x1160 PUSH0 DUP4 ADD DUP6 PUSH2 0x1092 JUMP JUMPDEST PUSH2 0x116D PUSH1 0x20 DUP4 ADD DUP5 PUSH2 0x1092 JUMP JUMPDEST SWAP4 SWAP3 POP POP POP JUMP JUMPDEST PUSH0 PUSH2 0x117E DUP3 PUSH2 0x10BA JUMP JUMPDEST SWAP1 POP SWAP2 SWAP1 POP JUMP JUMPDEST PUSH2 0x118E DUP2 PUSH2 0x1174 JUMP JUMPDEST DUP3 MSTORE POP POP JUMP JUMPDEST PUSH0 PUSH1 0x20 DUP3 ADD SWAP1 POP PUSH2 0x11A7 PUSH0 DUP4 ADD DUP5 PUSH2 0x1185 JUMP JUMPDEST SWAP3 SWAP2 POP POP JUMP JUMPDEST PUSH2 0x11B6 DUP2 PUSH2 0x1174 JUMP JUMPDEST DUP2 EQ PUSH2 0x11C0 JUMPI PUSH0 PUSH0 REVERT JUMPDEST POP JUMP JUMPDEST PUSH0 DUP2 CALLDATALOAD SWAP1 POP PUSH2 0x11D1 DUP2 PUSH2 0x11AD JUMP JUMPDEST SWAP3 SWAP2 POP POP JUMP JUMPDEST PUSH0 PUSH1 0x20 DUP3 DUP5 SUB SLT ISZERO PUSH2 0x11EC JUMPI PUSH2 0x11EB PUSH2 0x1030 JUMP JUMPDEST JUMPDEST PUSH0 PUSH2 0x11F9 DUP5 DUP3 DUP6 ADD PUSH2 0x11C3 JUMP JUMPDEST SWAP2 POP POP SWAP3 SWAP2 POP POP JUMP JUMPDEST PUSH0 DUP2 MLOAD SWAP1 POP SWAP2 SWAP1 POP JUMP JUMPDEST PUSH0 DUP3 DUP3 MSTORE PUSH1 0x20 DUP3 ADD SWAP1 POP SWAP3 SWAP2 POP POP JUMP JUMPDEST PUSH0 DUP2 SWAP1 POP PUSH1 0x20 DUP3 ADD SWAP1 POP SWAP2 SWAP1 POP JUMP JUMPDEST PUSH2 0x1234 DUP2 PUSH2 0x1034 JUMP JUMPDEST DUP3 MSTORE POP POP JUMP JUMPDEST PUSH0 PUSH2 0x1245 DUP4 DUP4 PUSH2 0x122B JUMP JUMPDEST PUSH1 0x20 DUP4 ADD SWAP1 POP SWAP3 SWAP2 POP POP JUMP JUMPDEST PUSH0 PUSH1 0x20 DUP3 ADD SWAP1 POP SWAP2 SWAP1 POP JUMP JUMPDEST PUSH0 PUSH2 0x1267 DUP3 PUSH2 0x1202 JUMP JUMPDEST PUSH2 0x1271 DUP2 DUP6 PUSH2 0x120C JUMP JUMPDEST SWAP4 POP PUSH2 0x127C DUP4 PUSH2 0x121C JUMP JUMPDEST DUP1 PUSH0 JUMPDEST DUP4 DUP2 LT ISZERO PUSH2 0x12AC JUMPI DUP2 MLOAD PUSH2 0x1293 DUP9 DUP3 PUSH2 0x123A JUMP JUMPDEST SWAP8 POP PUSH2 0x129E DUP4 PUSH2 0x1251 JUMP JUMPDEST SWAP3 POP POP PUSH1 0x1 DUP2 ADD SWAP1 POP PUSH2 0x127F JUMP JUMPDEST POP DUP6 SWAP4 POP POP POP POP SWAP3 SWAP2 POP POP JUMP JUMPDEST PUSH0 PUSH1 0x20 DUP3 ADD SWAP1 POP DUP2 DUP2 SUB PUSH0 DUP4 ADD MSTORE PUSH2 0x12D1 DUP2 DUP5 PUSH2 0x125D JUMP JUMPDEST SWAP1 POP SWAP3 SWAP2 POP POP JUMP JUMPDEST PUSH0 PUSH0 PUSH1 0x40 DUP4 DUP6 SUB SLT ISZERO PUSH2 0x12EF JUMPI PUSH2 0x12EE PUSH2 0x1030 JUMP JUMPDEST JUMPDEST PUSH0 PUSH2 0x12FC DUP6 DUP3 DUP7 ADD PUSH2 0x11C3 JUMP JUMPDEST SWAP3 POP POP PUSH1 0x20 PUSH2 0x130D DUP6 DUP3 DUP7 ADD PUSH2 0x1053 JUMP JUMPDEST SWAP2 POP POP SWAP3 POP SWAP3 SWAP1 POP JUMP JUMPDEST PUSH32 0x4E487B7100000000000000000000000000000000000000000000000000000000 PUSH0 MSTORE PUSH1 0x11 PUSH1 0x4 MSTORE PUSH1 0x24 PUSH0 REVERT JUMPDEST PUSH0 PUSH2 0x134E DUP3 PUSH2 0x1034 JUMP JUMPDEST SWAP2 POP PUSH2 0x1359 DUP4 PUSH2 0x1034 JUMP JUMPDEST SWAP3 POP DUP3 DUP3 ADD SWAP1 POP DUP1 DUP3 GT ISZERO PUSH2 0x1371 JUMPI PUSH2 0x1370 PUSH2 0x1317 JUMP JUMPDEST JUMPDEST SWAP3 SWAP2 POP POP JUMP JUMPDEST PUSH0 PUSH2 0x1381 DUP3 PUSH2 0x1034 JUMP JUMPDEST SWAP2 POP PUSH2 0x138C DUP4 PUSH2 0x1034 JUMP JUMPDEST SWAP3 POP DUP3 DUP3 SUB SWAP1 POP DUP2 DUP2 GT ISZERO PUSH2 0x13A4 JUMPI PUSH2 0x13A3 PUSH2 0x1317 JUMP JUMPDEST JUMPDEST SWAP3 SWAP2 POP POP JUMP JUMPDEST PUSH0 PUSH2 0x13B4 DUP3 PUSH2 0x1034 JUMP JUMPDEST SWAP2 POP PUSH2 0x13BF DUP4 PUSH2 0x1034 JUMP JUMPDEST SWAP3 POP DUP3 DUP3 MUL PUSH2 0x13CD DUP2 PUSH2 0x1034 JUMP JUMPDEST SWAP2 POP DUP3 DUP3 DIV DUP5 EQ DUP4 ISZERO OR PUSH2 0x13E4 JUMPI PUSH2 0x13E3 PUSH2 0x1317 JUMP JUMPDEST JUMPDEST POP SWAP3 SWAP2 POP POP JUMP JUMPDEST PUSH0 PUSH1 0x60 DUP3 ADD SWAP1 POP PUSH2 0x13FE PUSH0 DUP4 ADD DUP7 PUSH2 0x1092 JUMP JUMPDEST PUSH2 0x140B PUSH1 0x20 DUP4 ADD DUP6 PUSH2 0x1092 JUMP JUMPDEST DUP2 DUP2 SUB PUSH1 0x40 DUP4 ADD MSTORE PUSH2 0x141D DUP2 DUP5 PUSH2 0x125D JUMP JUMPDEST SWAP1 POP SWAP5 SWAP4 POP POP POP POP JUMP JUMPDEST PUSH0 PUSH1 0x60 DUP3 ADD SWAP1 POP PUSH2 0x143A PUSH0 DUP4 ADD DUP7 PUSH2 0x1185 JUMP JUMPDEST PUSH2 0x1447 PUSH1 0x20 DUP4 ADD DUP6 PUSH2 0x1185 JUMP JUMPDEST PUSH2 0x1454 PUSH1 0x40 DUP4 ADD DUP5 PUSH2 0x1092 JUMP JUMPDEST SWAP5 SWAP4 POP POP POP POP JUMP JUMPDEST PUSH0 DUP2 ISZERO ISZERO SWAP1 POP SWAP2 SWAP1 POP JUMP JUMPDEST PUSH2 0x1470 DUP2 PUSH2 0x145C JUMP JUMPDEST DUP2 EQ PUSH2 0x147A JUMPI PUSH0 PUSH0 REVERT JUMPDEST POP JUMP JUMPDEST PUSH0 DUP2 MLOAD SWAP1 POP PUSH2 0x148B DUP2 PUSH2 0x1467 JUMP JUMPDEST SWAP3 SWAP2 POP POP JUMP JUMPDEST PUSH0 PUSH1 0x20 DUP3 DUP5 SUB SLT ISZERO PUSH2 0x14A6 JUMPI PUSH2 0x14A5 PUSH2 0x1030 JUMP JUMPDEST JUMPDEST PUSH0 PUSH2 0x14B3 DUP5 DUP3 DUP6 ADD PUSH2 0x147D JUMP JUMPDEST SWAP2 POP POP SWAP3 SWAP2 POP POP JUMP JUMPDEST PUSH0 PUSH1 0x40 DUP3 ADD SWAP1 POP PUSH2 0x14CF PUSH0 DUP4 ADD DUP6 PUSH2 0x1185 JUMP JUMPDEST PUSH2 0x14DC PUSH1 0x20 DUP4 ADD DUP5 PUSH2 0x1092 JUMP JUMPDEST SWAP4 SWAP3 POP POP POP JUMP JUMPDEST PUSH32 0x4E487B7100000000000000000000000000000000000000000000000000000000 PUSH0 MSTORE PUSH1 0x41 PUSH1 0x4 MSTORE PUSH1 0x24 PUSH0 REVERT JUMPDEST PUSH32 0x4E487B7100000000000000000000000000000000000000000000000000000000 PUSH0 MSTORE PUSH1 0x32 PUSH1 0x4 MSTORE PUSH1 0x24 PUSH0 REVERT JUMPDEST PUSH0 PUSH2 0x1547 DUP3 PUSH2 0x1034 JUMP JUMPDEST SWAP2 POP PUSH32 0xFFFFFFFFFFFFFFFFFFFFFFFFFFFFFFFFFFFFFFFFFFFFFFFFFFFFFFFFFFFFFFFF DUP3 SUB PUSH2 0x1579 JUMPI PUSH2 0x1578 PUSH2 0x1317 JUMP JUMPDEST JUMPDEST PUSH1 0x1 DUP3 ADD SWAP1 POP SWAP2 SWAP1 POP JUMP INVALID LOG2 PUSH5 0x6970667358 0x22 SLT KECCAK256 PUSH28 0xF4AB074F0C4133EB905CBB3BE0E31AF51130A1B7D99AA5AD67FC7381 0x29 0xF6 0xF6 PUSH5 0x736F6C6343 STOP ADDMOD 0x1E STOP CALLER "
		},
		"gasEstimates": {
			"creation": {
				"codeDepositCost": "1112400",
				"executionCost": "infinite",
				"totalCost": "infinite"
			},
			"external": {
				"activeSeriesId()": "2448",
				"buyTickets(uint256)": "infinite",
				"getOwnedTicketIds(address)": "infinite",
				"getSeriesInfo(uint256)": "infinite",
				"owner()": "2530",
				"queueSeries(uint256)": "infinite",
				"seriesInfo(uint256)": "infinite",
				"setTicketPrice(uint256)": "infinite",
				"ticketBalances(address)": "2891",
				"ticketOwners(uint256)": "2849",
				"ticketPrice()": "2471",
				"ticketSeries(uint256)": "infinite",
				"ticketsSold()": "2470",
				"totalSeriesCount()": "2515",
				"transferOwnership(address)": "26960",
				"usdt()": "infinite",
				"withdraw(address,uint256)": "infinite"
			},
			"internal": {
				"_advanceSeries()": "infinite",
				"_ensureActiveSeries()": "infinite",
				"_generateTicketSeries(address,uint256,uint256,uint256)": "infinite"
			}
		},
		"methodIdentifiers": {
			"activeSeriesId()": "2671fd2b",
			"buyTickets(uint256)": "2f366637",
			"getOwnedTicketIds(address)": "a4bfd0cc",
			"getSeriesInfo(uint256)": "616eb255",
			"owner()": "8da5cb5b",
			"queueSeries(uint256)": "03914276",
			"seriesInfo(uint256)": "fe8ace85",
			"setTicketPrice(uint256)": "15981650",
			"ticketBalances(address)": "e54566f3",
			"ticketOwners(uint256)": "eb2dbcf6",
			"ticketPrice()": "1209b1f6",
			"ticketSeries(uint256)": "f3eec42f",
			"ticketsSold()": "8f15024f",
			"totalSeriesCount()": "15b5386e",
			"transferOwnership(address)": "f2fde38b",
			"usdt()": "2f48ab7d",
			"withdraw(address,uint256)": "f3fef3a3"
		}
	},
	"abi": [
		{
			"inputs": [
				{
					"internalType": "address",
					"name": "usdtAddress",
					"type": "address"
				},
				{
					"internalType": "uint256",
					"name": "initialTicketPrice",
					"type": "uint256"
				}
			],
			"stateMutability": "nonpayable",
			"type": "constructor"
		},
		{
			"inputs": [],
			"name": "InsufficientTickets",
			"type": "error"
		},
		{
			"inputs": [],
			"name": "InvalidAddress",
			"type": "error"
		},
		{
			"inputs": [],
			"name": "InvalidTicketCount",
			"type": "error"
		},
		{
			"inputs": [],
			"name": "NoActiveSeries",
			"type": "error"
		},
		{
			"inputs": [],
			"name": "NotOwner",
			"type": "error"
		},
		{
			"inputs": [],
			"name": "TransferFailed",
			"type": "error"
		},
		{
			"anonymous": false,
			"inputs": [
				{
					"indexed": true,
					"internalType": "uint256",
					"name": "seriesId",
					"type": "uint256"
				},
				{
					"indexed": false,
					"internalType": "uint256",
					"name": "totalTickets",
					"type": "uint256"
				}
			],
			"name": "SeriesActivated",
			"type": "event"
		},
		{
			"anonymous": false,
			"inputs": [
				{
					"indexed": true,
					"internalType": "uint256",
					"name": "seriesId",
					"type": "uint256"
				}
			],
			"name": "SeriesCompleted",
			"type": "event"
		},
		{
			"anonymous": false,
			"inputs": [
				{
					"indexed": true,
					"internalType": "uint256",
					"name": "seriesId",
					"type": "uint256"
				},
				{
					"indexed": false,
					"internalType": "uint256",
					"name": "totalTickets",
					"type": "uint256"
				}
			],
			"name": "SeriesConfigured",
			"type": "event"
		},
		{
			"anonymous": false,
			"inputs": [
				{
					"indexed": false,
					"internalType": "uint256",
					"name": "newPrice",
					"type": "uint256"
				}
			],
			"name": "TicketPriceUpdated",
			"type": "event"
		},
		{
			"anonymous": false,
			"inputs": [
				{
					"indexed": true,
					"internalType": "address",
					"name": "buyer",
					"type": "address"
				},
				{
					"indexed": false,
					"internalType": "uint256",
					"name": "count",
					"type": "uint256"
				},
				{
					"indexed": false,
					"internalType": "uint256",
					"name": "totalCost",
					"type": "uint256"
				},
				{
					"indexed": false,
					"internalType": "uint256[]",
					"name": "ticketIds",
					"type": "uint256[]"
				},
				{
					"indexed": true,
					"internalType": "uint256",
					"name": "seriesId",
					"type": "uint256"
				}
			],
			"name": "TicketPurchased",
			"type": "event"
		},
		{
			"anonymous": false,
			"inputs": [
				{
					"indexed": true,
					"internalType": "address",
					"name": "to",
					"type": "address"
				},
				{
					"indexed": false,
					"internalType": "uint256",
					"name": "amount",
					"type": "uint256"
				}
			],
			"name": "Withdraw",
			"type": "event"
		},
		{
			"inputs": [],
			"name": "activeSeriesId",
			"outputs": [
				{
					"internalType": "uint256",
					"name": "",
					"type": "uint256"
				}
			],
			"stateMutability": "view",
			"type": "function"
		},
		{
			"inputs": [
				{
					"internalType": "uint256",
					"name": "count",
					"type": "uint256"
				}
			],
			"name": "buyTickets",
			"outputs": [],
			"stateMutability": "nonpayable",
			"type": "function"
		},
		{
			"inputs": [
				{
					"internalType": "address",
					"name": "account",
					"type": "address"
				}
			],
			"name": "getOwnedTicketIds",
			"outputs": [
				{
					"internalType": "uint256[]",
					"name": "",
					"type": "uint256[]"
				}
			],
			"stateMutability": "view",
			"type": "function"
		},
		{
			"inputs": [
				{
					"internalType": "uint256",
					"name": "seriesId",
					"type": "uint256"
				}
			],
			"name": "getSeriesInfo",
			"outputs": [
				{
					"internalType": "uint256",
					"name": "totalTickets",
					"type": "uint256"
				},
				{
					"internalType": "uint256",
					"name": "sold",
					"type": "uint256"
				}
			],
			"stateMutability": "view",
			"type": "function"
		},
		{
			"inputs": [],
			"name": "owner",
			"outputs": [
				{
					"internalType": "address",
					"name": "",
					"type": "address"
				}
			],
			"stateMutability": "view",
			"type": "function"
		},
		{
			"inputs": [
				{
					"internalType": "uint256",
					"name": "ticketCount",
					"type": "uint256"
				}
			],
			"name": "queueSeries",
			"outputs": [],
			"stateMutability": "nonpayable",
			"type": "function"
		},
		{
			"inputs": [
				{
					"internalType": "uint256",
					"name": "",
					"type": "uint256"
				}
			],
			"name": "seriesInfo",
			"outputs": [
				{
					"internalType": "uint256",
					"name": "totalTickets",
					"type": "uint256"
				},
				{
					"internalType": "uint256",
					"name": "ticketsSold",
					"type": "uint256"
				}
			],
			"stateMutability": "view",
			"type": "function"
		},
		{
			"inputs": [
				{
					"internalType": "uint256",
					"name": "newTicketPrice",
					"type": "uint256"
				}
			],
			"name": "setTicketPrice",
			"outputs": [],
			"stateMutability": "nonpayable",
			"type": "function"
		},
		{
			"inputs": [
				{
					"internalType": "address",
					"name": "",
					"type": "address"
				}
			],
			"name": "ticketBalances",
			"outputs": [
				{
					"internalType": "uint256",
					"name": "",
					"type": "uint256"
				}
			],
			"stateMutability": "view",
			"type": "function"
		},
		{
			"inputs": [
				{
					"internalType": "uint256",
					"name": "",
					"type": "uint256"
				}
			],
			"name": "ticketOwners",
			"outputs": [
				{
					"internalType": "address",
					"name": "",
					"type": "address"
				}
			],
			"stateMutability": "view",
			"type": "function"
		},
		{
			"inputs": [],
			"name": "ticketPrice",
			"outputs": [
				{
					"internalType": "uint256",
					"name": "",
					"type": "uint256"
				}
			],
			"stateMutability": "view",
			"type": "function"
		},
		{
			"inputs": [
				{
					"internalType": "uint256",
					"name": "",
					"type": "uint256"
				}
			],
			"name": "ticketSeries",
			"outputs": [
				{
					"internalType": "uint256",
					"name": "",
					"type": "uint256"
				}
			],
			"stateMutability": "view",
			"type": "function"
		},
		{
			"inputs": [],
			"name": "ticketsSold",
			"outputs": [
				{
					"internalType": "uint256",
					"name": "",
					"type": "uint256"
				}
			],
			"stateMutability": "view",
			"type": "function"
		},
		{
			"inputs": [],
			"name": "totalSeriesCount",
			"outputs": [
				{
					"internalType": "uint256",
					"name": "",
					"type": "uint256"
				}
			],
			"stateMutability": "view",
			"type": "function"
		},
		{
			"inputs": [
				{
					"internalType": "address",
					"name": "newOwner",
					"type": "address"
				}
			],
			"name": "transferOwnership",
			"outputs": [],
			"stateMutability": "nonpayable",
			"type": "function"
		},
		{
			"inputs": [],
			"name": "usdt",
			"outputs": [
				{
					"internalType": "contract IERC20",
					"name": "",
					"type": "address"
				}
			],
			"stateMutability": "view",
			"type": "function"
		},
		{
			"inputs": [
				{
					"internalType": "address",
					"name": "to",
					"type": "address"
				},
				{
					"internalType": "uint256",
					"name": "amount",
					"type": "uint256"
				}
			],
			"name": "withdraw",
			"outputs": [],
			"stateMutability": "nonpayable",
			"type": "function"
		}
	]
}