{
	"data": {
		"bytecode": {
			"linkReferences": {},
			"object": "60a0604052600160045534801562000015575f80fd5b50604051620030383803806200303883398181016040528101906200003b91906200018f565b5f73ffffffffffffffffffffffffffffffffffffffff168173ffffffffffffffffffffffffffffffffffffffff1603620000a1576040517fe6c4247b00000000000000000000000000000000000000000000000000000000815260040160405180910390fd5b335f806101000a81548173ffffffffffffffffffffffffffffffffffffffff021916908373ffffffffffffffffffffffffffffffffffffffff1602179055508073ffffffffffffffffffffffffffffffffffffffff1660808173ffffffffffffffffffffffffffffffffffffffff1681525050670186cc6acd4b000060018190555050620001bf565b5f80fd5b5f73ffffffffffffffffffffffffffffffffffffffff82169050919050565b5f62000159826200012e565b9050919050565b6200016b816200014d565b811462000176575f80fd5b50565b5f81519050620001898162000160565b92915050565b5f60208284031215620001a757620001a66200012a565b5b5f620001b68482850162000179565b91505092915050565b608051612e44620001f45f395f818161065c01528181610b0c01528181610c25015281816113e00152611ebf0152612e445ff3fe608060405234801561000f575f80fd5b5060043610610171575f3560e01c80638da5cb5b116100dc578063cdadc66611610095578063f2fde38b1161006f578063f2fde38b14610427578063f3eec42f14610443578063f4c2af9314610473578063fe8ace851461049157610171565b8063cdadc666146103ab578063e54566f3146103c7578063eb2dbcf6146103f757610171565b80638da5cb5b146102d55780638ef7fe56146102f35780638f15024f14610311578063990dc9db1461032f578063a3b5fcd81461034b578063a4bfd0cc1461037b57610171565b806359974e381161012e57806359974e3814610211578063616eb2551461022d57806363375e161461026157806375d2bf601461027f5780638627df461461029b5780638861d532146102b757610171565b80631209b1f614610175578063159816501461019357806315b5386e146101af578063293be456146101cd5780632f48ab7d146101e957806330b4821314610207575b5f80fd5b61017d6104c4565b60405161018a91906123d4565b60405180910390f35b6101ad60048036038101906101a8919061241f565b6104ca565b005b6101b761058f565b6040516101c491906123d4565b60405180910390f35b6101e760048036038101906101e2919061241f565b610595565b005b6101f161065a565b6040516101fe91906124c4565b60405180910390f35b61020f61067e565b005b61022b6004803603810190610226919061241f565b61079c565b005b6102476004803603810190610242919061241f565b610da4565b6040516102589594939291906125ae565b60405180910390f35b610269610e68565b60405161027691906123d4565b60405180910390f35b6102996004803603810190610294919061241f565b610e6d565b005b6102b560048036038101906102b09190612606565b6110c9565b005b6102bf6112c1565b6040516102cc91906123d4565b60405180910390f35b6102dd6112c7565b6040516102ea9190612664565b60405180910390f35b6102fb6112ea565b60405161030891906123d4565b60405180910390f35b6103196112ef565b60405161032691906123d4565b60405180910390f35b610349600480360381019061034491906126a7565b6112f5565b005b6103656004803603810190610360919061241f565b611501565b60405161037291906126e5565b60405180910390f35b610395600480360381019061039091906126fe565b61151e565b6040516103a29190612729565b60405180910390f35b6103c560048036038101906103c091906127aa565b6115b1565b005b6103e160048036038101906103dc91906126fe565b61171f565b6040516103ee91906123d4565b60405180910390f35b610411600480360381019061040c919061241f565b611734565b60405161041e9190612664565b60405180910390f35b610441600480360381019061043c91906126fe565b611764565b005b61045d6004803603810190610458919061241f565b61188f565b60405161046a91906123d4565b60405180910390f35b61047b6118a4565b60405161048891906123d4565b60405180910390f35b6104ab60048036038101906104a6919061241f565b6118a9565b6040516104bb9493929190612807565b60405180910390f35b60015481565b5f8054906101000a900473ffffffffffffffffffffffffffffffffffffffff1673ffffffffffffffffffffffffffffffffffffffff163373ffffffffffffffffffffffffffffffffffffffff161461054e576040517f30cd747100000000000000000000000000000000000000000000000000000000815260040160405180910390fd5b806001819055507f7429795511c1ec5ebcc0e6839095ec18f13fce25cdc7c90da9d8a016584a1dbe8160405161058491906123d4565b60405180910390a150565b60035481565b5f8054906101000a900473ffffffffffffffffffffffffffffffffffffffff1673ffffffffffffffffffffffffffffffffffffffff163373ffffffffffffffffffffffffffffffffffffffff1614610619576040517f30cd747100000000000000000000000000000000000000000000000000000000815260040160405180910390fd5b806001819055507fcb94909754d27c309adf4167150f1f7aa04de40b6a0e6bb98b2ae80a2bf438f68160405161064f91906123d4565b60405180910390a150565b7f000000000000000000000000000000000000000000000000000000000000000081565b5f8054906101000a900473ffffffffffffffffffffffffffffffffffffffff1673ffffffffffffffffffffffffffffffffffffffff163373ffffffffffffffffffffffffffffffffffffffff1614610702576040517f30cd747100000000000000000000000000000000000000000000000000000000815260040160405180910390fd5b600160035f8282546107149190612877565b925050819055505f60055f60035481526020019081526020015f2090506064815f01819055505f81600101819055505f816003015f6101000a81548160ff0219169083151502179055506003547fa9bb9f177c59b93f2b7abb2dfb6ffc1518c0d3a40145c47a372f46e70d011d15606460405161079191906123d4565b60405180910390a250565b5f8054906101000a900473ffffffffffffffffffffffffffffffffffffffff1673ffffffffffffffffffffffffffffffffffffffff163373ffffffffffffffffffffffffffffffffffffffff1614610820576040517f30cd747100000000000000000000000000000000000000000000000000000000815260040160405180910390fd5b5f81148061082f575060035481115b1561087157806040517fc68e534300000000000000000000000000000000000000000000000000000000815260040161086891906123d4565b60405180910390fd5b5f60055f8381526020019081526020015f209050806003015f9054906101000a900460ff166108d757816040517f5277eacd0000000000000000000000000000000000000000000000000000000081526004016108ce91906123d4565b60405180910390fd5b600a5f8381526020019081526020015f205f9054906101000a900460ff161561093757816040517f6fabcdec00000000000000000000000000000000000000000000000000000000815260040161092e91906123d4565b60405180910390fd5b5f600a67ffffffffffffffff811115610953576109526128aa565b5b6040519080825280602002602001820160405280156109815781602001602082028036833780820191505090505b5090505f805b8360020180549050811015610a96575f8460020182815481106109ad576109ac6128d7565b5b905f5260205f20015490505f81608088901b1790505f60075f8381526020019081526020015f205f9054906101000a900473ffffffffffffffffffffffffffffffffffffffff1690505f73ffffffffffffffffffffffffffffffffffffffff168173ffffffffffffffffffffffffffffffffffffffff1614610a865780868681518110610a3d57610a3c6128d7565b5b602002602001019073ffffffffffffffffffffffffffffffffffffffff16908173ffffffffffffffffffffffffffffffffffffffff16815250508480610a8290612904565b9550505b5050508080600101915050610987565b505f8103610adb57836040517ff0fc51cc000000000000000000000000000000000000000000000000000000008152600401610ad291906123d4565b60405180910390fd5b5f6001548460010154610aee919061294b565b90505f670de0b6b3a7640000600454610b07919061294b565b90505f7f000000000000000000000000000000000000000000000000000000000000000073ffffffffffffffffffffffffffffffffffffffff166370a08231306040518263ffffffff1660e01b8152600401610b639190612664565b602060405180830381865afa158015610b7e573d5f803e3d5ffd5b505050506040513d601f19601f82011682018060405250810190610ba291906129a0565b905082811015610bbf57809250600a83610bbc91906129f8565b91505b5f5b84811015610d1c575f73ffffffffffffffffffffffffffffffffffffffff16868281518110610bf357610bf26128d7565b5b602002602001015173ffffffffffffffffffffffffffffffffffffffff1614158015610c1e57505f83115b15610d0f577f000000000000000000000000000000000000000000000000000000000000000073ffffffffffffffffffffffffffffffffffffffff1663a9059cbb878381518110610c7257610c716128d7565b5b6020026020010151856040518363ffffffff1660e01b8152600401610c98929190612a28565b6020604051808303815f875af1158015610cb4573d5f803e3d5ffd5b505050506040513d601f19601f82011682018060405250810190610cd89190612a79565b610d0e576040517f90b8ec1800000000000000000000000000000000000000000000000000000000815260040160405180910390fd5b5b8080600101915050610bc1565b506001600a5f8981526020019081526020015f205f6101000a81548160ff0219169083151502179055505f610d5186866118e1565b9050877f304b0f51aff1fa2e109dcc4743e16c2985ead88eee868723e54df3013f3b721f82858887610d83919061294b565b604051610d9293929190612b5b565b60405180910390a25050505050505050565b5f805f8060605f60055f8881526020019081526020015f2090505f605a826001015410158015610de25750816003015f9054906101000a900460ff16155b9050815f01548260010154836003015f9054906101000a900460ff16838560020180805480602002602001604051908101604052809291908181526020018280548015610e4c57602002820191905f5260205f20905b815481526020019060010190808311610e38575b5050505050905096509650965096509650505091939590929450565b605a81565b5f8054906101000a900473ffffffffffffffffffffffffffffffffffffffff1673ffffffffffffffffffffffffffffffffffffffff163373ffffffffffffffffffffffffffffffffffffffff1614610ef1576040517f30cd747100000000000000000000000000000000000000000000000000000000815260040160405180910390fd5b5f811480610f00575060035481115b15610f4257806040517fc68e5343000000000000000000000000000000000000000000000000000000008152600401610f3991906123d4565b60405180910390fd5b5f60055f8381526020019081526020015f209050605a81600101541015610fa057816040517f5337fa1c000000000000000000000000000000000000000000000000000000008152600401610f9791906123d4565b60405180910390fd5b806003015f9054906101000a900460ff1615610ff357816040517f6b83bfbb000000000000000000000000000000000000000000000000000000008152600401610fea91906123d4565b60405180910390fd5b5f6001436110019190612b97565b4042443386866001015460405160200161102096959493929190612c58565b604051602081830303815290604052805190602001205f1c90508082600401819055505f611052828460010154611b7c565b90508083600201908051906020019061106c929190612333565b506001836003015f6101000a81548160ff021916908315150217905550837fb9b63d02dbcb30a774c4322c8b5f9afd79edf26b84fa733c10d1d940a1f357a982846040516110bb929190612cc7565b60405180910390a250505050565b5f8103611102576040517f8e71bef900000000000000000000000000000000000000000000000000000000815260040160405180910390fd5b5f821480611111575060035482115b1561115357816040517fc68e534300000000000000000000000000000000000000000000000000000000815260040161114a91906123d4565b60405180910390fd5b5f60055f8481526020019081526020015f209050806003015f9054906101000a900460ff16156111ba57826040517f127a8a720000000000000000000000000000000000000000000000000000000081526004016111b191906123d4565b60405180910390fd5b5f8160010154825f01546111ce9190612b97565b90508083111561120a576040517f19e215bc00000000000000000000000000000000000000000000000000000000815260040160405180910390fd5b5f8367ffffffffffffffff811115611225576112246128aa565b5b6040519080825280602002602001820160405280156112535781602001602082028036833780820191505090505b5090505f600184600101546112689190612877565b90505f5b858110156112ac5780826112809190612877565b838281518110611293576112926128d7565b5b602002602001018181525050808060010191505061126c565b506112b933878685611db5565b505050505050565b60045481565b5f8054906101000a900473ffffffffffffffffffffffffffffffffffffffff1681565b600a81565b60025481565b5f8054906101000a900473ffffffffffffffffffffffffffffffffffffffff1673ffffffffffffffffffffffffffffffffffffffff163373ffffffffffffffffffffffffffffffffffffffff1614611379576040517f30cd747100000000000000000000000000000000000000000000000000000000815260040160405180910390fd5b5f73ffffffffffffffffffffffffffffffffffffffff168273ffffffffffffffffffffffffffffffffffffffff16036113de576040517fe6c4247b00000000000000000000000000000000000000000000000000000000815260040160405180910390fd5b7f000000000000000000000000000000000000000000000000000000000000000073ffffffffffffffffffffffffffffffffffffffff1663a9059cbb83836040518363ffffffff1660e01b8152600401611439929190612a28565b6020604051808303815f875af1158015611455573d5f803e3d5ffd5b505050506040513d601f19601f820116820180604052508101906114799190612a79565b6114af576040517f90b8ec1800000000000000000000000000000000000000000000000000000000815260040160405180910390fd5b8173ffffffffffffffffffffffffffffffffffffffff167f884edad9ce6fa2440d8a54cc123490eb96d2768479d49ff9c7366125a9424364826040516114f591906123d4565b60405180910390a25050565b600a602052805f5260405f205f915054906101000a900460ff1681565b606060095f8373ffffffffffffffffffffffffffffffffffffffff1673ffffffffffffffffffffffffffffffffffffffff1681526020019081526020015f208054806020026020016040519081016040528092919081815260200182805480156115a557602002820191905f5260205f20905b815481526020019060010190808311611591575b50505050509050919050565b5f8282905090505f81036115f1576040517f8e71bef900000000000000000000000000000000000000000000000000000000815260040160405180910390fd5b5f841480611600575060035484115b1561164257836040517fc68e534300000000000000000000000000000000000000000000000000000000815260040161163991906123d4565b60405180910390fd5b5f60055f8681526020019081526020015f209050806003015f9054906101000a900460ff16156116a957846040517f127a8a720000000000000000000000000000000000000000000000000000000081526004016116a091906123d4565b60405180910390fd5b5f8160010154825f01546116bd9190612b97565b9050808311156116f9576040517f19e215bc00000000000000000000000000000000000000000000000000000000815260040160405180910390fd5b5f6117088686855f0154611fd6565b905061171633888584611db5565b50505050505050565b6006602052805f5260405f205f915090505481565b6007602052805f5260405f205f915054906101000a900473ffffffffffffffffffffffffffffffffffffffff1681565b5f8054906101000a900473ffffffffffffffffffffffffffffffffffffffff1673ffffffffffffffffffffffffffffffffffffffff163373ffffffffffffffffffffffffffffffffffffffff16146117e8576040517f30cd747100000000000000000000000000000000000000000000000000000000815260040160405180910390fd5b5f73ffffffffffffffffffffffffffffffffffffffff168173ffffffffffffffffffffffffffffffffffffffff160361184d576040517fe6c4247b00000000000000000000000000000000000000000000000000000000815260040160405180910390fd5b805f806101000a81548173ffffffffffffffffffffffffffffffffffffffff021916908373ffffffffffffffffffffffffffffffffffffffff16021790555050565b6008602052805f5260405f205f915090505481565b606481565b6005602052805f5260405f205f91509050805f015490806001015490806003015f9054906101000a900460ff16908060040154905084565b60605f8267ffffffffffffffff8111156118fe576118fd6128aa565b5b60405190808252806020026020018201604052801561192c5781602001602082028036833780820191505090505b5090505f805b84811015611aa3575f600190505f5b838110156119c55787838151811061195c5761195b6128d7565b5b602002602001015173ffffffffffffffffffffffffffffffffffffffff1685828151811061198d5761198c6128d7565b5b602002602001015173ffffffffffffffffffffffffffffffffffffffff16036119b8575f91506119c5565b8080600101915050611941565b50808015611a1957505f73ffffffffffffffffffffffffffffffffffffffff168783815181106119f8576119f76128d7565b5b602002602001015173ffffffffffffffffffffffffffffffffffffffff1614155b15611a9557868281518110611a3157611a306128d7565b5b6020026020010151848481518110611a4c57611a4b6128d7565b5b602002602001019073ffffffffffffffffffffffffffffffffffffffff16908173ffffffffffffffffffffffffffffffffffffffff16815250508280611a9190612904565b9350505b508080600101915050611932565b505f8167ffffffffffffffff811115611abf57611abe6128aa565b5b604051908082528060200260200182016040528015611aed5781602001602082028036833780820191505090505b5090505f5b82811015611b6f57838181518110611b0d57611b0c6128d7565b5b6020026020010151828281518110611b2857611b276128d7565b5b602002602001019073ffffffffffffffffffffffffffffffffffffffff16908173ffffffffffffffffffffffffffffffffffffffff16815250508080600101915050611af2565b5080935050505092915050565b60605f600a67ffffffffffffffff811115611b9a57611b996128aa565b5b604051908082528060200260200182016040528015611bc85781602001602082028036833780820191505090505b509050611bd361237e565b5f808690505b600a821015611da8578082604051602001611bf5929190612cf5565b604051602081830303815290604052805190602001205f1c90505f6001606483611c1f9190612d20565b611c299190612877565b9050838160658110611c3e57611c3d6128d7565b5b6020020151611c9a576001848260658110611c5c57611c5b6128d7565b5b60200201901515908115158152505080858481518110611c7f57611c7e6128d7565b5b6020026020010181815250508280611c9690612904565b9350505b600a831015611da2575f5b848260658110611cb857611cb76128d7565b5b60200201518015611cc9575060c881105b15611da0578284828a604051602001611ce59493929190612d50565b604051602081830303815290604052805190602001205f1c92506001606484611d0e9190612d20565b611d189190612877565b9150848260658110611d2d57611d2c6128d7565b5b6020020151611d8d576001858360658110611d4b57611d4a6128d7565b5b60200201901515908115158152505081868581518110611d6e57611d6d6128d7565b5b6020026020010181815250508380611d8590612904565b945050611da0565b8080611d9890612904565b915050611ca5565b505b50611bd9565b8394505050505092915050565b5f815190505f81600154611dc9919061294b565b90505f611ddb8787875f0154876120cc565b905082856001015f828254611df09190612877565b925050819055508260025f828254611e089190612877565b925050819055508260065f8973ffffffffffffffffffffffffffffffffffffffff1673ffffffffffffffffffffffffffffffffffffffff1681526020019081526020015f205f828254611e5b9190612877565b92505081905550858773ffffffffffffffffffffffffffffffffffffffff167f7478e1ca4690b7ad34581c0f0974fc4d6c826cb3d55af76a85334ed9537c5dd9858585604051611ead93929190612d9d565b60405180910390a35f821115611f91577f000000000000000000000000000000000000000000000000000000000000000073ffffffffffffffffffffffffffffffffffffffff166323b872dd8830856040518463ffffffff1660e01b8152600401611f1a93929190612dd9565b6020604051808303815f875af1158015611f36573d5f803e3d5ffd5b505050506040513d601f19601f82011682018060405250810190611f5a9190612a79565b611f90576040517f90b8ec1800000000000000000000000000000000000000000000000000000000815260040160405180910390fd5b5b845f0154856001015403611fcd57857ffd8d96e5e049823e751e0c23004bdbb7793038835ac2cb5e6eeec672aa5c8ebc60405160405180910390a25b50505050505050565b60605f8484905090508067ffffffffffffffff811115611ff957611ff86128aa565b5b6040519080825280602002602001820160405280156120275781602001602082028036833780820191505090505b5091505f5b818110156120c3575f868683818110612048576120476128d7565b5b9050602002013590505f81148061205e57508481115b15612095576040517faeaddff100000000000000000000000000000000000000000000000000000000815260040160405180910390fd5b808483815181106120a9576120a86128d7565b5b60200260200101818152505050808060010191505061202c565b50509392505050565b60605f825190508067ffffffffffffffff8111156120ed576120ec6128aa565b5b60405190808252806020026020018201604052801561211b5781602001602082028036833780820191505090505b5091505f5b81811015612329575f84828151811061213c5761213b6128d7565b5b602002602001015190505f81148061215357508581115b1561218a576040517faeaddff100000000000000000000000000000000000000000000000000000000815260040160405180910390fd5b5f81608089901b1790505f73ffffffffffffffffffffffffffffffffffffffff1660075f8381526020019081526020015f205f9054906101000a900473ffffffffffffffffffffffffffffffffffffffff1673ffffffffffffffffffffffffffffffffffffffff161461223457816040517f8605b53e00000000000000000000000000000000000000000000000000000000815260040161222b91906123d4565b60405180910390fd5b8860075f8381526020019081526020015f205f6101000a81548173ffffffffffffffffffffffffffffffffffffffff021916908373ffffffffffffffffffffffffffffffffffffffff1602179055508760085f8381526020019081526020015f208190555060095f8a73ffffffffffffffffffffffffffffffffffffffff1673ffffffffffffffffffffffffffffffffffffffff1681526020019081526020015f2081908060018154018082558091505060019003905f5260205f20015f90919091909150558085848151811061230e5761230d6128d7565b5b60200260200101818152505050508080600101915050612120565b5050949350505050565b828054828255905f5260205f2090810192821561236d579160200282015b8281111561236c578251825591602001919060010190612351565b5b50905061237a91906123a1565b5090565b60405180610ca00160405280606590602082028036833780820191505090505090565b5b808211156123b8575f815f9055506001016123a2565b5090565b5f819050919050565b6123ce816123bc565b82525050565b5f6020820190506123e75f8301846123c5565b92915050565b5f80fd5b5f80fd5b6123fe816123bc565b8114612408575f80fd5b50565b5f81359050612419816123f5565b92915050565b5f60208284031215612434576124336123ed565b5b5f6124418482850161240b565b91505092915050565b5f73ffffffffffffffffffffffffffffffffffffffff82169050919050565b5f819050919050565b5f61248c6124876124828461244a565b612469565b61244a565b9050919050565b5f61249d82612472565b9050919050565b5f6124ae82612493565b9050919050565b6124be816124a4565b82525050565b5f6020820190506124d75f8301846124b5565b92915050565b5f8115159050919050565b6124f1816124dd565b82525050565b5f81519050919050565b5f82825260208201905092915050565b5f819050602082019050919050565b612529816123bc565b82525050565b5f61253a8383612520565b60208301905092915050565b5f602082019050919050565b5f61255c826124f7565b6125668185612501565b935061257183612511565b805f5b838110156125a1578151612588888261252f565b975061259383612546565b925050600181019050612574565b5085935050505092915050565b5f60a0820190506125c15f8301886123c5565b6125ce60208301876123c5565b6125db60408301866124e8565b6125e860608301856124e8565b81810360808301526125fa8184612552565b90509695505050505050565b5f806040838503121561261c5761261b6123ed565b5b5f6126298582860161240b565b925050602061263a8582860161240b565b9150509250929050565b5f61264e8261244a565b9050919050565b61265e81612644565b82525050565b5f6020820190506126775f830184612655565b92915050565b61268681612644565b8114612690575f80fd5b50565b5f813590506126a18161267d565b92915050565b5f80604083850312156126bd576126bc6123ed565b5b5f6126ca85828601612693565b92505060206126db8582860161240b565b9150509250929050565b5f6020820190506126f85f8301846124e8565b92915050565b5f60208284031215612713576127126123ed565b5b5f61272084828501612693565b91505092915050565b5f6020820190508181035f8301526127418184612552565b905092915050565b5f80fd5b5f80fd5b5f80fd5b5f8083601f84011261276a57612769612749565b5b8235905067ffffffffffffffff8111156127875761278661274d565b5b6020830191508360208202830111156127a3576127a2612751565b5b9250929050565b5f805f604084860312156127c1576127c06123ed565b5b5f6127ce8682870161240b565b935050602084013567ffffffffffffffff8111156127ef576127ee6123f1565b5b6127fb86828701612755565b92509250509250925092565b5f60808201905061281a5f8301876123c5565b61282760208301866123c5565b61283460408301856124e8565b61284160608301846123c5565b95945050505050565b7f4e487b71000000000000000000000000000000000000000000000000000000005f52601160045260245ffd5b5f612881826123bc565b915061288c836123bc565b92508282019050808211156128a4576128a361284a565b5b92915050565b7f4e487b71000000000000000000000000000000000000000000000000000000005f52604160045260245ffd5b7f4e487b71000000000000000000000000000000000000000000000000000000005f52603260045260245ffd5b5f61290e826123bc565b91507fffffffffffffffffffffffffffffffffffffffffffffffffffffffffffffffff82036129405761293f61284a565b5b600182019050919050565b5f612955826123bc565b9150612960836123bc565b925082820261296e816123bc565b915082820484148315176129855761298461284a565b5b5092915050565b5f8151905061299a816123f5565b92915050565b5f602082840312156129b5576129b46123ed565b5b5f6129c28482850161298c565b91505092915050565b7f4e487b71000000000000000000000000000000000000000000000000000000005f52601260045260245ffd5b5f612a02826123bc565b9150612a0d836123bc565b925082612a1d57612a1c6129cb565b5b828204905092915050565b5f604082019050612a3b5f830185612655565b612a4860208301846123c5565b9392505050565b612a58816124dd565b8114612a62575f80fd5b50565b5f81519050612a7381612a4f565b92915050565b5f60208284031215612a8e57612a8d6123ed565b5b5f612a9b84828501612a65565b91505092915050565b5f81519050919050565b5f82825260208201905092915050565b5f819050602082019050919050565b612ad681612644565b82525050565b5f612ae78383612acd565b60208301905092915050565b5f602082019050919050565b5f612b0982612aa4565b612b138185612aae565b9350612b1e83612abe565b805f5b83811015612b4e578151612b358882612adc565b9750612b4083612af3565b925050600181019050612b21565b5085935050505092915050565b5f6060820190508181035f830152612b738186612aff565b9050612b8260208301856123c5565b612b8f60408301846123c5565b949350505050565b5f612ba1826123bc565b9150612bac836123bc565b9250828203905081811115612bc457612bc361284a565b5b92915050565b5f819050919050565b5f819050919050565b612bed612be882612bca565b612bd3565b82525050565b5f819050919050565b612c0d612c08826123bc565b612bf3565b82525050565b5f8160601b9050919050565b5f612c2982612c13565b9050919050565b5f612c3a82612c1f565b9050919050565b612c52612c4d82612644565b612c30565b82525050565b5f612c638289612bdc565b602082019150612c738288612bfc565b602082019150612c838287612bfc565b602082019150612c938286612c41565b601482019150612ca38285612bfc565b602082019150612cb38284612bfc565b602082019150819050979650505050505050565b5f6040820190508181035f830152612cdf8185612552565b9050612cee60208301846123c5565b9392505050565b5f612d008285612bfc565b602082019150612d108284612bfc565b6020820191508190509392505050565b5f612d2a826123bc565b9150612d35836123bc565b925082612d4557612d446129cb565b5b828206905092915050565b5f612d5b8287612bfc565b602082019150612d6b8286612bfc565b602082019150612d7b8285612bfc565b602082019150612d8b8284612bfc565b60208201915081905095945050505050565b5f606082019050612db05f8301866123c5565b612dbd60208301856123c5565b8181036040830152612dcf8184612552565b9050949350505050565b5f606082019050612dec5f830186612655565b612df96020830185612655565b612e0660408301846123c5565b94935050505056fea2646970667358221220c9f085df11c49620fb0eddfaee885305d4f0ac13bd3c75d7fff0f8398e9ba15764736f6c63430008180033",
			"opcodes": "PUSH1 0xA0 PUSH1 0x40 MSTORE PUSH1 0x1 PUSH1 0x4 SSTORE CALLVALUE DUP1 ISZERO PUSH3 0x15 JUMPI PUSH0 DUP1 REVERT JUMPDEST POP PUSH1 0x40 MLOAD PUSH3 0x3038 CODESIZE SUB DUP1 PUSH3 0x3038 DUP4 CODECOPY DUP2 DUP2 ADD PUSH1 0x40 MSTORE DUP2 ADD SWAP1 PUSH3 0x3B SWAP2 SWAP1 PUSH3 0x18F JUMP JUMPDEST PUSH0 PUSH20 0xFFFFFFFFFFFFFFFFFFFFFFFFFFFFFFFFFFFFFFFF AND DUP2 PUSH20 0xFFFFFFFFFFFFFFFFFFFFFFFFFFFFFFFFFFFFFFFF AND SUB PUSH3 0xA1 JUMPI PUSH1 0x40 MLOAD PUSH32 0xE6C4247B00000000000000000000000000000000000000000000000000000000 DUP2 MSTORE PUSH1 0x4 ADD PUSH1 0x40 MLOAD DUP1 SWAP2 SUB SWAP1 REVERT JUMPDEST CALLER PUSH0 DUP1 PUSH2 0x100 EXP DUP2 SLOAD DUP2 PUSH20 0xFFFFFFFFFFFFFFFFFFFFFFFFFFFFFFFFFFFFFFFF MUL NOT AND SWAP1 DUP4 PUSH20 0xFFFFFFFFFFFFFFFFFFFFFFFFFFFFFFFFFFFFFFFF AND MUL OR SWAP1 SSTORE POP DUP1 PUSH20 0xFFFFFFFFFFFFFFFFFFFFFFFFFFFFFFFFFFFFFFFF AND PUSH1 0x80 DUP2 PUSH20 0xFFFFFFFFFFFFFFFFFFFFFFFFFFFFFFFFFFFFFFFF AND DUP2 MSTORE POP POP PUSH8 0x186CC6ACD4B0000 PUSH1 0x1 DUP2 SWAP1 SSTORE POP POP PUSH3 0x1BF JUMP JUMPDEST PUSH0 DUP1 REVERT JUMPDEST PUSH0 PUSH20 0xFFFFFFFFFFFFFFFFFFFFFFFFFFFFFFFFFFFFFFFF DUP3 AND SWAP1 POP SWAP2 SWAP1 POP JUMP JUMPDEST PUSH0 PUSH3 0x159 DUP3 PUSH3 0x12E JUMP JUMPDEST SWAP1 POP SWAP2 SWAP1 POP JUMP JUMPDEST PUSH3 0x16B DUP2 PUSH3 0x14D JUMP JUMPDEST DUP2 EQ PUSH3 0x176 JUMPI PUSH0 DUP1 REVERT JUMPDEST POP JUMP JUMPDEST PUSH0 DUP2 MLOAD SWAP1 POP PUSH3 0x189 DUP2 PUSH3 0x160 JUMP JUMPDEST SWAP3 SWAP2 POP POP JUMP JUMPDEST PUSH0 PUSH1 0x20 DUP3 DUP5 SUB SLT ISZERO PUSH3 0x1A7 JUMPI PUSH3 0x1A6 PUSH3 0x12A JUMP JUMPDEST JUMPDEST PUSH0 PUSH3 0x1B6 DUP5 DUP3 DUP6 ADD PUSH3 0x179 JUMP JUMPDEST SWAP2 POP POP SWAP3 SWAP2 POP POP JUMP JUMPDEST PUSH1 0x80 MLOAD PUSH2 0x2E44 PUSH3 0x1F4 PUSH0 CODECOPY PUSH0 DUP2 DUP2 PUSH2 0x65C ADD MSTORE DUP2 DUP2 PUSH2 0xB0C ADD MSTORE DUP2 DUP2 PUSH2 0xC25 ADD MSTORE DUP2 DUP2 PUSH2 0x13E0 ADD MSTORE PUSH2 0x1EBF ADD MSTORE PUSH2 0x2E44 PUSH0 RETURN INVALID PUSH1 0x80 PUSH1 0x40 MSTORE CALLVALUE DUP1 ISZERO PUSH2 0xF JUMPI PUSH0 DUP1 REVERT JUMPDEST POP PUSH1 0x4 CALLDATASIZE LT PUSH2 0x171 JUMPI PUSH0 CALLDATALOAD PUSH1 0xE0 SHR DUP1 PUSH4 0x8DA5CB5B GT PUSH2 0xDC JUMPI DUP1 PUSH4 0xCDADC666 GT PUSH2 0x95 JUMPI DUP1 PUSH4 0xF2FDE38B GT PUSH2 0x6F JUMPI DUP1 PUSH4 0xF2FDE38B EQ PUSH2 0x427 JUMPI DUP1 PUSH4 0xF3EEC42F EQ PUSH2 0x443 JUMPI DUP1 PUSH4 0xF4C2AF93 EQ PUSH2 0x473 JUMPI DUP1 PUSH4 0xFE8ACE85 EQ PUSH2 0x491 JUMPI PUSH2 0x171 JUMP JUMPDEST DUP1 PUSH4 0xCDADC666 EQ PUSH2 0x3AB JUMPI DUP1 PUSH4 0xE54566F3 EQ PUSH2 0x3C7 JUMPI DUP1 PUSH4 0xEB2DBCF6 EQ PUSH2 0x3F7 JUMPI PUSH2 0x171 JUMP JUMPDEST DUP1 PUSH4 0x8DA5CB5B EQ PUSH2 0x2D5 JUMPI DUP1 PUSH4 0x8EF7FE56 EQ PUSH2 0x2F3 JUMPI DUP1 PUSH4 0x8F15024F EQ PUSH2 0x311 JUMPI DUP1 PUSH4 0x990DC9DB EQ PUSH2 0x32F JUMPI DUP1 PUSH4 0xA3B5FCD8 EQ PUSH2 0x34B JUMPI DUP1 PUSH4 0xA4BFD0CC EQ PUSH2 0x37B JUMPI PUSH2 0x171 JUMP JUMPDEST DUP1 PUSH4 0x59974E38 GT PUSH2 0x12E JUMPI DUP1 PUSH4 0x59974E38 EQ PUSH2 0x211 JUMPI DUP1 PUSH4 0x616EB255 EQ PUSH2 0x22D JUMPI DUP1 PUSH4 0x63375E16 EQ PUSH2 0x261 JUMPI DUP1 PUSH4 0x75D2BF60 EQ PUSH2 0x27F JUMPI DUP1 PUSH4 0x8627DF46 EQ PUSH2 0x29B JUMPI DUP1 PUSH4 0x8861D532 EQ PUSH2 0x2B7 JUMPI PUSH2 0x171 JUMP JUMPDEST DUP1 PUSH4 0x1209B1F6 EQ PUSH2 0x175 JUMPI DUP1 PUSH4 0x15981650 EQ PUSH2 0x193 JUMPI DUP1 PUSH4 0x15B5386E EQ PUSH2 0x1AF JUMPI DUP1 PUSH4 0x293BE456 EQ PUSH2 0x1CD JUMPI DUP1 PUSH4 0x2F48AB7D EQ PUSH2 0x1E9 JUMPI DUP1 PUSH4 0x30B48213 EQ PUSH2 0x207 JUMPI JUMPDEST PUSH0 DUP1 REVERT JUMPDEST PUSH2 0x17D PUSH2 0x4C4 JUMP JUMPDEST PUSH1 0x40 MLOAD PUSH2 0x18A SWAP2 SWAP1 PUSH2 0x23D4 JUMP JUMPDEST PUSH1 0x40 MLOAD DUP1 SWAP2 SUB SWAP1 RETURN JUMPDEST PUSH2 0x1AD PUSH1 0x4 DUP1 CALLDATASIZE SUB DUP2 ADD SWAP1 PUSH2 0x1A8 SWAP2 SWAP1 PUSH2 0x241F JUMP JUMPDEST PUSH2 0x4CA JUMP JUMPDEST STOP JUMPDEST PUSH2 0x1B7 PUSH2 0x58F JUMP JUMPDEST PUSH1 0x40 MLOAD PUSH2 0x1C4 SWAP2 SWAP1 PUSH2 0x23D4 JUMP JUMPDEST PUSH1 0x40 MLOAD DUP1 SWAP2 SUB SWAP1 RETURN JUMPDEST PUSH2 0x1E7 PUSH1 0x4 DUP1 CALLDATASIZE SUB DUP2 ADD SWAP1 PUSH2 0x1E2 SWAP2 SWAP1 PUSH2 0x241F JUMP JUMPDEST PUSH2 0x595 JUMP JUMPDEST STOP JUMPDEST PUSH2 0x1F1 PUSH2 0x65A JUMP JUMPDEST PUSH1 0x40 MLOAD PUSH2 0x1FE SWAP2 SWAP1 PUSH2 0x24C4 JUMP JUMPDEST PUSH1 0x40 MLOAD DUP1 SWAP2 SUB SWAP1 RETURN JUMPDEST PUSH2 0x20F PUSH2 0x67E JUMP JUMPDEST STOP JUMPDEST PUSH2 0x22B PUSH1 0x4 DUP1 CALLDATASIZE SUB DUP2 ADD SWAP1 PUSH2 0x226 SWAP2 SWAP1 PUSH2 0x241F JUMP JUMPDEST PUSH2 0x79C JUMP JUMPDEST STOP JUMPDEST PUSH2 0x247 PUSH1 0x4 DUP1 CALLDATASIZE SUB DUP2 ADD SWAP1 PUSH2 0x242 SWAP2 SWAP1 PUSH2 0x241F JUMP JUMPDEST PUSH2 0xDA4 JUMP JUMPDEST PUSH1 0x40 MLOAD PUSH2 0x258 SWAP6 SWAP5 SWAP4 SWAP3 SWAP2 SWAP1 PUSH2 0x25AE JUMP JUMPDEST PUSH1 0x40 MLOAD DUP1 SWAP2 SUB SWAP1 RETURN JUMPDEST PUSH2 0x269 PUSH2 0xE68 JUMP JUMPDEST PUSH1 0x40 MLOAD PUSH2 0x276 SWAP2 SWAP1 PUSH2 0x23D4 JUMP JUMPDEST PUSH1 0x40 MLOAD DUP1 SWAP2 SUB SWAP1 RETURN JUMPDEST PUSH2 0x299 PUSH1 0x4 DUP1 CALLDATASIZE SUB DUP2 ADD SWAP1 PUSH2 0x294 SWAP2 SWAP1 PUSH2 0x241F JUMP JUMPDEST PUSH2 0xE6D JUMP JUMPDEST STOP JUMPDEST PUSH2 0x2B5 PUSH1 0x4 DUP1 CALLDATASIZE SUB DUP2 ADD SWAP1 PUSH2 0x2B0 SWAP2 SWAP1 PUSH2 0x2606 JUMP JUMPDEST PUSH2 0x10C9 JUMP JUMPDEST STOP JUMPDEST PUSH2 0x2BF PUSH2 0x12C1 JUMP JUMPDEST PUSH1 0x40 MLOAD PUSH2 0x2CC SWAP2 SWAP1 PUSH2 0x23D4 JUMP JUMPDEST PUSH1 0x40 MLOAD DUP1 SWAP2 SUB SWAP1 RETURN JUMPDEST PUSH2 0x2DD PUSH2 0x12C7 JUMP JUMPDEST PUSH1 0x40 MLOAD PUSH2 0x2EA SWAP2 SWAP1 PUSH2 0x2664 JUMP JUMPDEST PUSH1 0x40 MLOAD DUP1 SWAP2 SUB SWAP1 RETURN JUMPDEST PUSH2 0x2FB PUSH2 0x12EA JUMP JUMPDEST PUSH1 0x40 MLOAD PUSH2 0x308 SWAP2 SWAP1 PUSH2 0x23D4 JUMP JUMPDEST PUSH1 0x40 MLOAD DUP1 SWAP2 SUB SWAP1 RETURN JUMPDEST PUSH2 0x319 PUSH2 0x12EF JUMP JUMPDEST PUSH1 0x40 MLOAD PUSH2 0x326 SWAP2 SWAP1 PUSH2 0x23D4 JUMP JUMPDEST PUSH1 0x40 MLOAD DUP1 SWAP2 SUB SWAP1 RETURN JUMPDEST PUSH2 0x349 PUSH1 0x4 DUP1 CALLDATASIZE SUB DUP2 ADD SWAP1 PUSH2 0x344 SWAP2 SWAP1 PUSH2 0x26A7 JUMP JUMPDEST PUSH2 0x12F5 JUMP JUMPDEST STOP JUMPDEST PUSH2 0x365 PUSH1 0x4 DUP1 CALLDATASIZE SUB DUP2 ADD SWAP1 PUSH2 0x360 SWAP2 SWAP1 PUSH2 0x241F JUMP JUMPDEST PUSH2 0x1501 JUMP JUMPDEST PUSH1 0x40 MLOAD PUSH2 0x372 SWAP2 SWAP1 PUSH2 0x26E5 JUMP JUMPDEST PUSH1 0x40 MLOAD DUP1 SWAP2 SUB SWAP1 RETURN JUMPDEST PUSH2 0x395 PUSH1 0x4 DUP1 CALLDATASIZE SUB DUP2 ADD SWAP1 PUSH2 0x390 SWAP2 SWAP1 PUSH2 0x26FE JUMP JUMPDEST PUSH2 0x151E JUMP JUMPDEST PUSH1 0x40 MLOAD PUSH2 0x3A2 SWAP2 SWAP1 PUSH2 0x2729 JUMP JUMPDEST PUSH1 0x40 MLOAD DUP1 SWAP2 SUB SWAP1 RETURN JUMPDEST PUSH2 0x3C5 PUSH1 0x4 DUP1 CALLDATASIZE SUB DUP2 ADD SWAP1 PUSH2 0x3C0 SWAP2 SWAP1 PUSH2 0x27AA JUMP JUMPDEST PUSH2 0x15B1 JUMP JUMPDEST STOP JUMPDEST PUSH2 0x3E1 PUSH1 0x4 DUP1 CALLDATASIZE SUB DUP2 ADD SWAP1 PUSH2 0x3DC SWAP2 SWAP1 PUSH2 0x26FE JUMP JUMPDEST PUSH2 0x171F JUMP JUMPDEST PUSH1 0x40 MLOAD PUSH2 0x3EE SWAP2 SWAP1 PUSH2 0x23D4 JUMP JUMPDEST PUSH1 0x40 MLOAD DUP1 SWAP2 SUB SWAP1 RETURN JUMPDEST PUSH2 0x411 PUSH1 0x4 DUP1 CALLDATASIZE SUB DUP2 ADD SWAP1 PUSH2 0x40C SWAP2 SWAP1 PUSH2 0x241F JUMP JUMPDEST PUSH2 0x1734 JUMP JUMPDEST PUSH1 0x40 MLOAD PUSH2 0x41E SWAP2 SWAP1 PUSH2 0x2664 JUMP JUMPDEST PUSH1 0x40 MLOAD DUP1 SWAP2 SUB SWAP1 RETURN JUMPDEST PUSH2 0x441 PUSH1 0x4 DUP1 CALLDATASIZE SUB DUP2 ADD SWAP1 PUSH2 0x43C SWAP2 SWAP1 PUSH2 0x26FE JUMP JUMPDEST PUSH2 0x1764 JUMP JUMPDEST STOP JUMPDEST PUSH2 0x45D PUSH1 0x4 DUP1 CALLDATASIZE SUB DUP2 ADD SWAP1 PUSH2 0x458 SWAP2 SWAP1 PUSH2 0x241F JUMP JUMPDEST PUSH2 0x188F JUMP JUMPDEST PUSH1 0x40 MLOAD PUSH2 0x46A SWAP2 SWAP1 PUSH2 0x23D4 JUMP JUMPDEST PUSH1 0x40 MLOAD DUP1 SWAP2 SUB SWAP1 RETURN JUMPDEST PUSH2 0x47B PUSH2 0x18A4 JUMP JUMPDEST PUSH1 0x40 MLOAD PUSH2 0x488 SWAP2 SWAP1 PUSH2 0x23D4 JUMP JUMPDEST PUSH1 0x40 MLOAD DUP1 SWAP2 SUB SWAP1 RETURN JUMPDEST PUSH2 0x4AB PUSH1 0x4 DUP1 CALLDATASIZE SUB DUP2 ADD SWAP1 PUSH2 0x4A6 SWAP2 SWAP1 PUSH2 0x241F JUMP JUMPDEST PUSH2 0x18A9 JUMP JUMPDEST PUSH1 0x40 MLOAD PUSH2 0x4BB SWAP5 SWAP4 SWAP3 SWAP2 SWAP1 PUSH2 0x2807 JUMP JUMPDEST PUSH1 0x40 MLOAD DUP1 SWAP2 SUB SWAP1 RETURN JUMPDEST PUSH1 0x1 SLOAD DUP2 JUMP JUMPDEST PUSH0 DUP1 SLOAD SWAP1 PUSH2 0x100 EXP SWAP1 DIV PUSH20 0xFFFFFFFFFFFFFFFFFFFFFFFFFFFFFFFFFFFFFFFF AND PUSH20 0xFFFFFFFFFFFFFFFFFFFFFFFFFFFFFFFFFFFFFFFF AND CALLER PUSH20 0xFFFFFFFFFFFFFFFFFFFFFFFFFFFFFFFFFFFFFFFF AND EQ PUSH2 0x54E JUMPI PUSH1 0x40 MLOAD PUSH32 0x30CD747100000000000000000000000000000000000000000000000000000000 DUP2 MSTORE PUSH1 0x4 ADD PUSH1 0x40 MLOAD DUP1 SWAP2 SUB SWAP1 REVERT JUMPDEST DUP1 PUSH1 0x1 DUP2 SWAP1 SSTORE POP PUSH32 0x7429795511C1EC5EBCC0E6839095EC18F13FCE25CDC7C90DA9D8A016584A1DBE DUP2 PUSH1 0x40 MLOAD PUSH2 0x584 SWAP2 SWAP1 PUSH2 0x23D4 JUMP JUMPDEST PUSH1 0x40 MLOAD DUP1 SWAP2 SUB SWAP1 LOG1 POP JUMP JUMPDEST PUSH1 0x3 SLOAD DUP2 JUMP JUMPDEST PUSH0 DUP1 SLOAD SWAP1 PUSH2 0x100 EXP SWAP1 DIV PUSH20 0xFFFFFFFFFFFFFFFFFFFFFFFFFFFFFFFFFFFFFFFF AND PUSH20 0xFFFFFFFFFFFFFFFFFFFFFFFFFFFFFFFFFFFFFFFF AND CALLER PUSH20 0xFFFFFFFFFFFFFFFFFFFFFFFFFFFFFFFFFFFFFFFF AND EQ PUSH2 0x619 JUMPI PUSH1 0x40 MLOAD PUSH32 0x30CD747100000000000000000000000000000000000000000000000000000000 DUP2 MSTORE PUSH1 0x4 ADD PUSH1 0x40 MLOAD DUP1 SWAP2 SUB SWAP1 REVERT JUMPDEST DUP1 PUSH1 0x1 DUP2 SWAP1 SSTORE POP PUSH32 0xCB94909754D27C309ADF4167150F1F7AA04DE40B6A0E6BB98B2AE80A2BF438F6 DUP2 PUSH1 0x40 MLOAD PUSH2 0x64F SWAP2 SWAP1 PUSH2 0x23D4 JUMP JUMPDEST PUSH1 0x40 MLOAD DUP1 SWAP2 SUB SWAP1 LOG1 POP JUMP JUMPDEST PUSH32 0x0 DUP2 JUMP JUMPDEST PUSH0 DUP1 SLOAD SWAP1 PUSH2 0x100 EXP SWAP1 DIV PUSH20 0xFFFFFFFFFFFFFFFFFFFFFFFFFFFFFFFFFFFFFFFF AND PUSH20 0xFFFFFFFFFFFFFFFFFFFFFFFFFFFFFFFFFFFFFFFF AND CALLER PUSH20 0xFFFFFFFFFFFFFFFFFFFFFFFFFFFFFFFFFFFFFFFF AND EQ PUSH2 0x702 JUMPI PUSH1 0x40 MLOAD PUSH32 0x30CD747100000000000000000000000000000000000000000000000000000000 DUP2 MSTORE PUSH1 0x4 ADD PUSH1 0x40 MLOAD DUP1 SWAP2 SUB SWAP1 REVERT JUMPDEST PUSH1 0x1 PUSH1 0x3 PUSH0 DUP3 DUP3 SLOAD PUSH2 0x714 SWAP2 SWAP1 PUSH2 0x2877 JUMP JUMPDEST SWAP3 POP POP DUP2 SWAP1 SSTORE POP PUSH0 PUSH1 0x5 PUSH0 PUSH1 0x3 SLOAD DUP2 MSTORE PUSH1 0x20 ADD SWAP1 DUP2 MSTORE PUSH1 0x20 ADD PUSH0 KECCAK256 SWAP1 POP PUSH1 0x64 DUP2 PUSH0 ADD DUP2 SWAP1 SSTORE POP PUSH0 DUP2 PUSH1 0x1 ADD DUP2 SWAP1 SSTORE POP PUSH0 DUP2 PUSH1 0x3 ADD PUSH0 PUSH2 0x100 EXP DUP2 SLOAD DUP2 PUSH1 0xFF MUL NOT AND SWAP1 DUP4 ISZERO ISZERO MUL OR SWAP1 SSTORE POP PUSH1 0x3 SLOAD PUSH32 0xA9BB9F177C59B93F2B7ABB2DFB6FFC1518C0D3A40145C47A372F46E70D011D15 PUSH1 0x64 PUSH1 0x40 MLOAD PUSH2 0x791 SWAP2 SWAP1 PUSH2 0x23D4 JUMP JUMPDEST PUSH1 0x40 MLOAD DUP1 SWAP2 SUB SWAP1 LOG2 POP JUMP JUMPDEST PUSH0 DUP1 SLOAD SWAP1 PUSH2 0x100 EXP SWAP1 DIV PUSH20 0xFFFFFFFFFFFFFFFFFFFFFFFFFFFFFFFFFFFFFFFF AND PUSH20 0xFFFFFFFFFFFFFFFFFFFFFFFFFFFFFFFFFFFFFFFF AND CALLER PUSH20 0xFFFFFFFFFFFFFFFFFFFFFFFFFFFFFFFFFFFFFFFF AND EQ PUSH2 0x820 JUMPI PUSH1 0x40 MLOAD PUSH32 0x30CD747100000000000000000000000000000000000000000000000000000000 DUP2 MSTORE PUSH1 0x4 ADD PUSH1 0x40 MLOAD DUP1 SWAP2 SUB SWAP1 REVERT JUMPDEST PUSH0 DUP2 EQ DUP1 PUSH2 0x82F JUMPI POP PUSH1 0x3 SLOAD DUP2 GT JUMPDEST ISZERO PUSH2 0x871 JUMPI DUP1 PUSH1 0x40 MLOAD PUSH32 0xC68E534300000000000000000000000000000000000000000000000000000000 DUP2 MSTORE PUSH1 0x4 ADD PUSH2 0x868 SWAP2 SWAP1 PUSH2 0x23D4 JUMP JUMPDEST PUSH1 0x40 MLOAD DUP1 SWAP2 SUB SWAP1 REVERT JUMPDEST PUSH0 PUSH1 0x5 PUSH0 DUP4 DUP2 MSTORE PUSH1 0x20 ADD SWAP1 DUP2 MSTORE PUSH1 0x20 ADD PUSH0 KECCAK256 SWAP1 POP DUP1 PUSH1 0x3 ADD PUSH0 SWAP1 SLOAD SWAP1 PUSH2 0x100 EXP SWAP1 DIV PUSH1 0xFF AND PUSH2 0x8D7 JUMPI DUP2 PUSH1 0x40 MLOAD PUSH32 0x5277EACD00000000000000000000000000000000000000000000000000000000 DUP2 MSTORE PUSH1 0x4 ADD PUSH2 0x8CE SWAP2 SWAP1 PUSH2 0x23D4 JUMP JUMPDEST PUSH1 0x40 MLOAD DUP1 SWAP2 SUB SWAP1 REVERT JUMPDEST PUSH1 0xA PUSH0 DUP4 DUP2 MSTORE PUSH1 0x20 ADD SWAP1 DUP2 MSTORE PUSH1 0x20 ADD PUSH0 KECCAK256 PUSH0 SWAP1 SLOAD SWAP1 PUSH2 0x100 EXP SWAP1 DIV PUSH1 0xFF AND ISZERO PUSH2 0x937 JUMPI DUP2 PUSH1 0x40 MLOAD PUSH32 0x6FABCDEC00000000000000000000000000000000000000000000000000000000 DUP2 MSTORE PUSH1 0x4 ADD PUSH2 0x92E SWAP2 SWAP1 PUSH2 0x23D4 JUMP JUMPDEST PUSH1 0x40 MLOAD DUP1 SWAP2 SUB SWAP1 REVERT JUMPDEST PUSH0 PUSH1 0xA PUSH8 0xFFFFFFFFFFFFFFFF DUP2 GT ISZERO PUSH2 0x953 JUMPI PUSH2 0x952 PUSH2 0x28AA JUMP JUMPDEST JUMPDEST PUSH1 0x40 MLOAD SWAP1 DUP1 DUP3 MSTORE DUP1 PUSH1 0x20 MUL PUSH1 0x20 ADD DUP3 ADD PUSH1 0x40 MSTORE DUP1 ISZERO PUSH2 0x981 JUMPI DUP2 PUSH1 0x20 ADD PUSH1 0x20 DUP3 MUL DUP1 CALLDATASIZE DUP4 CALLDATACOPY DUP1 DUP3 ADD SWAP2 POP POP SWAP1 POP JUMPDEST POP SWAP1 POP PUSH0 DUP1 JUMPDEST DUP4 PUSH1 0x2 ADD DUP1 SLOAD SWAP1 POP DUP2 LT ISZERO PUSH2 0xA96 JUMPI PUSH0 DUP5 PUSH1 0x2 ADD DUP3 DUP2 SLOAD DUP2 LT PUSH2 0x9AD JUMPI PUSH2 0x9AC PUSH2 0x28D7 JUMP JUMPDEST JUMPDEST SWAP1 PUSH0 MSTORE PUSH1 0x20 PUSH0 KECCAK256 ADD SLOAD SWAP1 POP PUSH0 DUP2 PUSH1 0x80 DUP9 SWAP1 SHL OR SWAP1 POP PUSH0 PUSH1 0x7 PUSH0 DUP4 DUP2 MSTORE PUSH1 0x20 ADD SWAP1 DUP2 MSTORE PUSH1 0x20 ADD PUSH0 KECCAK256 PUSH0 SWAP1 SLOAD SWAP1 PUSH2 0x100 EXP SWAP1 DIV PUSH20 0xFFFFFFFFFFFFFFFFFFFFFFFFFFFFFFFFFFFFFFFF AND SWAP1 POP PUSH0 PUSH20 0xFFFFFFFFFFFFFFFFFFFFFFFFFFFFFFFFFFFFFFFF AND DUP2 PUSH20 0xFFFFFFFFFFFFFFFFFFFFFFFFFFFFFFFFFFFFFFFF AND EQ PUSH2 0xA86 JUMPI DUP1 DUP7 DUP7 DUP2 MLOAD DUP2 LT PUSH2 0xA3D JUMPI PUSH2 0xA3C PUSH2 0x28D7 JUMP JUMPDEST JUMPDEST PUSH1 0x20 MUL PUSH1 0x20 ADD ADD SWAP1 PUSH20 0xFFFFFFFFFFFFFFFFFFFFFFFFFFFFFFFFFFFFFFFF AND SWAP1 DUP2 PUSH20 0xFFFFFFFFFFFFFFFFFFFFFFFFFFFFFFFFFFFFFFFF AND DUP2 MSTORE POP POP DUP5 DUP1 PUSH2 0xA82 SWAP1 PUSH2 0x2904 JUMP JUMPDEST SWAP6 POP POP JUMPDEST POP POP POP DUP1 DUP1 PUSH1 0x1 ADD SWAP2 POP POP PUSH2 0x987 JUMP JUMPDEST POP PUSH0 DUP2 SUB PUSH2 0xADB JUMPI DUP4 PUSH1 0x40 MLOAD PUSH32 0xF0FC51CC00000000000000000000000000000000000000000000000000000000 DUP2 MSTORE PUSH1 0x4 ADD PUSH2 0xAD2 SWAP2 SWAP1 PUSH2 0x23D4 JUMP JUMPDEST PUSH1 0x40 MLOAD DUP1 SWAP2 SUB SWAP1 REVERT JUMPDEST PUSH0 PUSH1 0x1 SLOAD DUP5 PUSH1 0x1 ADD SLOAD PUSH2 0xAEE SWAP2 SWAP1 PUSH2 0x294B JUMP JUMPDEST SWAP1 POP PUSH0 PUSH8 0xDE0B6B3A7640000 PUSH1 0x4 SLOAD PUSH2 0xB07 SWAP2 SWAP1 PUSH2 0x294B JUMP JUMPDEST SWAP1 POP PUSH0 PUSH32 0x0 PUSH20 0xFFFFFFFFFFFFFFFFFFFFFFFFFFFFFFFFFFFFFFFF AND PUSH4 0x70A08231 ADDRESS PUSH1 0x40 MLOAD DUP3 PUSH4 0xFFFFFFFF AND PUSH1 0xE0 SHL DUP2 MSTORE PUSH1 0x4 ADD PUSH2 0xB63 SWAP2 SWAP1 PUSH2 0x2664 JUMP JUMPDEST PUSH1 0x20 PUSH1 0x40 MLOAD DUP1 DUP4 SUB DUP2 DUP7 GAS STATICCALL ISZERO DUP1 ISZERO PUSH2 0xB7E JUMPI RETURNDATASIZE PUSH0 DUP1 RETURNDATACOPY RETURNDATASIZE PUSH0 REVERT JUMPDEST POP POP POP POP PUSH1 0x40 MLOAD RETURNDATASIZE PUSH1 0x1F NOT PUSH1 0x1F DUP3 ADD AND DUP3 ADD DUP1 PUSH1 0x40 MSTORE POP DUP2 ADD SWAP1 PUSH2 0xBA2 SWAP2 SWAP1 PUSH2 0x29A0 JUMP JUMPDEST SWAP1 POP DUP3 DUP2 LT ISZERO PUSH2 0xBBF JUMPI DUP1 SWAP3 POP PUSH1 0xA DUP4 PUSH2 0xBBC SWAP2 SWAP1 PUSH2 0x29F8 JUMP JUMPDEST SWAP2 POP JUMPDEST PUSH0 JUMPDEST DUP5 DUP2 LT ISZERO PUSH2 0xD1C JUMPI PUSH0 PUSH20 0xFFFFFFFFFFFFFFFFFFFFFFFFFFFFFFFFFFFFFFFF AND DUP7 DUP3 DUP2 MLOAD DUP2 LT PUSH2 0xBF3 JUMPI PUSH2 0xBF2 PUSH2 0x28D7 JUMP JUMPDEST JUMPDEST PUSH1 0x20 MUL PUSH1 0x20 ADD ADD MLOAD PUSH20 0xFFFFFFFFFFFFFFFFFFFFFFFFFFFFFFFFFFFFFFFF AND EQ ISZERO DUP1 ISZERO PUSH2 0xC1E JUMPI POP PUSH0 DUP4 GT JUMPDEST ISZERO PUSH2 0xD0F JUMPI PUSH32 0x0 PUSH20 0xFFFFFFFFFFFFFFFFFFFFFFFFFFFFFFFFFFFFFFFF AND PUSH4 0xA9059CBB DUP8 DUP4 DUP2 MLOAD DUP2 LT PUSH2 0xC72 JUMPI PUSH2 0xC71 PUSH2 0x28D7 JUMP JUMPDEST JUMPDEST PUSH1 0x20 MUL PUSH1 0x20 ADD ADD MLOAD DUP6 PUSH1 0x40 MLOAD DUP4 PUSH4 0xFFFFFFFF AND PUSH1 0xE0 SHL DUP2 MSTORE PUSH1 0x4 ADD PUSH2 0xC98 SWAP3 SWAP2 SWAP1 PUSH2 0x2A28 JUMP JUMPDEST PUSH1 0x20 PUSH1 0x40 MLOAD DUP1 DUP4 SUB DUP2 PUSH0 DUP8 GAS CALL ISZERO DUP1 ISZERO PUSH2 0xCB4 JUMPI RETURNDATASIZE PUSH0 DUP1 RETURNDATACOPY RETURNDATASIZE PUSH0 REVERT JUMPDEST POP POP POP POP PUSH1 0x40 MLOAD RETURNDATASIZE PUSH1 0x1F NOT PUSH1 0x1F DUP3 ADD AND DUP3 ADD DUP1 PUSH1 0x40 MSTORE POP DUP2 ADD SWAP1 PUSH2 0xCD8 SWAP2 SWAP1 PUSH2 0x2A79 JUMP JUMPDEST PUSH2 0xD0E JUMPI PUSH1 0x40 MLOAD PUSH32 0x90B8EC1800000000000000000000000000000000000000000000000000000000 DUP2 MSTORE PUSH1 0x4 ADD PUSH1 0x40 MLOAD DUP1 SWAP2 SUB SWAP1 REVERT JUMPDEST JUMPDEST DUP1 DUP1 PUSH1 0x1 ADD SWAP2 POP POP PUSH2 0xBC1 JUMP JUMPDEST POP PUSH1 0x1 PUSH1 0xA PUSH0 DUP10 DUP2 MSTORE PUSH1 0x20 ADD SWAP1 DUP2 MSTORE PUSH1 0x20 ADD PUSH0 KECCAK256 PUSH0 PUSH2 0x100 EXP DUP2 SLOAD DUP2 PUSH1 0xFF MUL NOT AND SWAP1 DUP4 ISZERO ISZERO MUL OR SWAP1 SSTORE POP PUSH0 PUSH2 0xD51 DUP7 DUP7 PUSH2 0x18E1 JUMP JUMPDEST SWAP1 POP DUP8 PUSH32 0x304B0F51AFF1FA2E109DCC4743E16C2985EAD88EEE868723E54DF3013F3B721F DUP3 DUP6 DUP9 DUP8 PUSH2 0xD83 SWAP2 SWAP1 PUSH2 0x294B JUMP JUMPDEST PUSH1 0x40 MLOAD PUSH2 0xD92 SWAP4 SWAP3 SWAP2 SWAP1 PUSH2 0x2B5B JUMP JUMPDEST PUSH1 0x40 MLOAD DUP1 SWAP2 SUB SWAP1 LOG2 POP POP POP POP POP POP POP POP JUMP JUMPDEST PUSH0 DUP1 PUSH0 DUP1 PUSH1 0x60 PUSH0 PUSH1 0x5 PUSH0 DUP9 DUP2 MSTORE PUSH1 0x20 ADD SWAP1 DUP2 MSTORE PUSH1 0x20 ADD PUSH0 KECCAK256 SWAP1 POP PUSH0 PUSH1 0x5A DUP3 PUSH1 0x1 ADD SLOAD LT ISZERO DUP1 ISZERO PUSH2 0xDE2 JUMPI POP DUP2 PUSH1 0x3 ADD PUSH0 SWAP1 SLOAD SWAP1 PUSH2 0x100 EXP SWAP1 DIV PUSH1 0xFF AND ISZERO JUMPDEST SWAP1 POP DUP2 PUSH0 ADD SLOAD DUP3 PUSH1 0x1 ADD SLOAD DUP4 PUSH1 0x3 ADD PUSH0 SWAP1 SLOAD SWAP1 PUSH2 0x100 EXP SWAP1 DIV PUSH1 0xFF AND DUP4 DUP6 PUSH1 0x2 ADD DUP1 DUP1 SLOAD DUP1 PUSH1 0x20 MUL PUSH1 0x20 ADD PUSH1 0x40 MLOAD SWAP1 DUP2 ADD PUSH1 0x40 MSTORE DUP1 SWAP3 SWAP2 SWAP1 DUP2 DUP2 MSTORE PUSH1 0x20 ADD DUP3 DUP1 SLOAD DUP1 ISZERO PUSH2 0xE4C JUMPI PUSH1 0x20 MUL DUP3 ADD SWAP2 SWAP1 PUSH0 MSTORE PUSH1 0x20 PUSH0 KECCAK256 SWAP1 JUMPDEST DUP2 SLOAD DUP2 MSTORE PUSH1 0x20 ADD SWAP1 PUSH1 0x1 ADD SWAP1 DUP1 DUP4 GT PUSH2 0xE38 JUMPI JUMPDEST POP POP POP POP POP SWAP1 POP SWAP7 POP SWAP7 POP SWAP7 POP SWAP7 POP SWAP7 POP POP POP SWAP2 SWAP4 SWAP6 SWAP1 SWAP3 SWAP5 POP JUMP JUMPDEST PUSH1 0x5A DUP2 JUMP JUMPDEST PUSH0 DUP1 SLOAD SWAP1 PUSH2 0x100 EXP SWAP1 DIV PUSH20 0xFFFFFFFFFFFFFFFFFFFFFFFFFFFFFFFFFFFFFFFF AND PUSH20 0xFFFFFFFFFFFFFFFFFFFFFFFFFFFFFFFFFFFFFFFF AND CALLER PUSH20 0xFFFFFFFFFFFFFFFFFFFFFFFFFFFFFFFFFFFFFFFF AND EQ PUSH2 0xEF1 JUMPI PUSH1 0x40 MLOAD PUSH32 0x30CD747100000000000000000000000000000000000000000000000000000000 DUP2 MSTORE PUSH1 0x4 ADD PUSH1 0x40 MLOAD DUP1 SWAP2 SUB SWAP1 REVERT JUMPDEST PUSH0 DUP2 EQ DUP1 PUSH2 0xF00 JUMPI POP PUSH1 0x3 SLOAD DUP2 GT JUMPDEST ISZERO PUSH2 0xF42 JUMPI DUP1 PUSH1 0x40 MLOAD PUSH32 0xC68E534300000000000000000000000000000000000000000000000000000000 DUP2 MSTORE PUSH1 0x4 ADD PUSH2 0xF39 SWAP2 SWAP1 PUSH2 0x23D4 JUMP JUMPDEST PUSH1 0x40 MLOAD DUP1 SWAP2 SUB SWAP1 REVERT JUMPDEST PUSH0 PUSH1 0x5 PUSH0 DUP4 DUP2 MSTORE PUSH1 0x20 ADD SWAP1 DUP2 MSTORE PUSH1 0x20 ADD PUSH0 KECCAK256 SWAP1 POP PUSH1 0x5A DUP2 PUSH1 0x1 ADD SLOAD LT ISZERO PUSH2 0xFA0 JUMPI DUP2 PUSH1 0x40 MLOAD PUSH32 0x5337FA1C00000000000000000000000000000000000000000000000000000000 DUP2 MSTORE PUSH1 0x4 ADD PUSH2 0xF97 SWAP2 SWAP1 PUSH2 0x23D4 JUMP JUMPDEST PUSH1 0x40 MLOAD DUP1 SWAP2 SUB SWAP1 REVERT JUMPDEST DUP1 PUSH1 0x3 ADD PUSH0 SWAP1 SLOAD SWAP1 PUSH2 0x100 EXP SWAP1 DIV PUSH1 0xFF AND ISZERO PUSH2 0xFF3 JUMPI DUP2 PUSH1 0x40 MLOAD PUSH32 0x6B83BFBB00000000000000000000000000000000000000000000000000000000 DUP2 MSTORE PUSH1 0x4 ADD PUSH2 0xFEA SWAP2 SWAP1 PUSH2 0x23D4 JUMP JUMPDEST PUSH1 0x40 MLOAD DUP1 SWAP2 SUB SWAP1 REVERT JUMPDEST PUSH0 PUSH1 0x1 NUMBER PUSH2 0x1001 SWAP2 SWAP1 PUSH2 0x2B97 JUMP JUMPDEST BLOCKHASH TIMESTAMP PREVRANDAO CALLER DUP7 DUP7 PUSH1 0x1 ADD SLOAD PUSH1 0x40 MLOAD PUSH1 0x20 ADD PUSH2 0x1020 SWAP7 SWAP6 SWAP5 SWAP4 SWAP3 SWAP2 SWAP1 PUSH2 0x2C58 JUMP JUMPDEST PUSH1 0x40 MLOAD PUSH1 0x20 DUP2 DUP4 SUB SUB DUP2 MSTORE SWAP1 PUSH1 0x40 MSTORE DUP1 MLOAD SWAP1 PUSH1 0x20 ADD KECCAK256 PUSH0 SHR SWAP1 POP DUP1 DUP3 PUSH1 0x4 ADD DUP2 SWAP1 SSTORE POP PUSH0 PUSH2 0x1052 DUP3 DUP5 PUSH1 0x1 ADD SLOAD PUSH2 0x1B7C JUMP JUMPDEST SWAP1 POP DUP1 DUP4 PUSH1 0x2 ADD SWAP1 DUP1 MLOAD SWAP1 PUSH1 0x20 ADD SWAP1 PUSH2 0x106C SWAP3 SWAP2 SWAP1 PUSH2 0x2333 JUMP JUMPDEST POP PUSH1 0x1 DUP4 PUSH1 0x3 ADD PUSH0 PUSH2 0x100 EXP DUP2 SLOAD DUP2 PUSH1 0xFF MUL NOT AND SWAP1 DUP4 ISZERO ISZERO MUL OR SWAP1 SSTORE POP DUP4 PUSH32 0xB9B63D02DBCB30A774C4322C8B5F9AFD79EDF26B84FA733C10D1D940A1F357A9 DUP3 DUP5 PUSH1 0x40 MLOAD PUSH2 0x10BB SWAP3 SWAP2 SWAP1 PUSH2 0x2CC7 JUMP JUMPDEST PUSH1 0x40 MLOAD DUP1 SWAP2 SUB SWAP1 LOG2 POP POP POP POP JUMP JUMPDEST PUSH0 DUP2 SUB PUSH2 0x1102 JUMPI PUSH1 0x40 MLOAD PUSH32 0x8E71BEF900000000000000000000000000000000000000000000000000000000 DUP2 MSTORE PUSH1 0x4 ADD PUSH1 0x40 MLOAD DUP1 SWAP2 SUB SWAP1 REVERT JUMPDEST PUSH0 DUP3 EQ DUP1 PUSH2 0x1111 JUMPI POP PUSH1 0x3 SLOAD DUP3 GT JUMPDEST ISZERO PUSH2 0x1153 JUMPI DUP2 PUSH1 0x40 MLOAD PUSH32 0xC68E534300000000000000000000000000000000000000000000000000000000 DUP2 MSTORE PUSH1 0x4 ADD PUSH2 0x114A SWAP2 SWAP1 PUSH2 0x23D4 JUMP JUMPDEST PUSH1 0x40 MLOAD DUP1 SWAP2 SUB SWAP1 REVERT JUMPDEST PUSH0 PUSH1 0x5 PUSH0 DUP5 DUP2 MSTORE PUSH1 0x20 ADD SWAP1 DUP2 MSTORE PUSH1 0x20 ADD PUSH0 KECCAK256 SWAP1 POP DUP1 PUSH1 0x3 ADD PUSH0 SWAP1 SLOAD SWAP1 PUSH2 0x100 EXP SWAP1 DIV PUSH1 0xFF AND ISZERO PUSH2 0x11BA JUMPI DUP3 PUSH1 0x40 MLOAD PUSH32 0x127A8A7200000000000000000000000000000000000000000000000000000000 DUP2 MSTORE PUSH1 0x4 ADD PUSH2 0x11B1 SWAP2 SWAP1 PUSH2 0x23D4 JUMP JUMPDEST PUSH1 0x40 MLOAD DUP1 SWAP2 SUB SWAP1 REVERT JUMPDEST PUSH0 DUP2 PUSH1 0x1 ADD SLOAD DUP3 PUSH0 ADD SLOAD PUSH2 0x11CE SWAP2 SWAP1 PUSH2 0x2B97 JUMP JUMPDEST SWAP1 POP DUP1 DUP4 GT ISZERO PUSH2 0x120A JUMPI PUSH1 0x40 MLOAD PUSH32 0x19E215BC00000000000000000000000000000000000000000000000000000000 DUP2 MSTORE PUSH1 0x4 ADD PUSH1 0x40 MLOAD DUP1 SWAP2 SUB SWAP1 REVERT JUMPDEST PUSH0 DUP4 PUSH8 0xFFFFFFFFFFFFFFFF DUP2 GT ISZERO PUSH2 0x1225 JUMPI PUSH2 0x1224 PUSH2 0x28AA JUMP JUMPDEST JUMPDEST PUSH1 0x40 MLOAD SWAP1 DUP1 DUP3 MSTORE DUP1 PUSH1 0x20 MUL PUSH1 0x20 ADD DUP3 ADD PUSH1 0x40 MSTORE DUP1 ISZERO PUSH2 0x1253 JUMPI DUP2 PUSH1 0x20 ADD PUSH1 0x20 DUP3 MUL DUP1 CALLDATASIZE DUP4 CALLDATACOPY DUP1 DUP3 ADD SWAP2 POP POP SWAP1 POP JUMPDEST POP SWAP1 POP PUSH0 PUSH1 0x1 DUP5 PUSH1 0x1 ADD SLOAD PUSH2 0x1268 SWAP2 SWAP1 PUSH2 0x2877 JUMP JUMPDEST SWAP1 POP PUSH0 JUMPDEST DUP6 DUP2 LT ISZERO PUSH2 0x12AC JUMPI DUP1 DUP3 PUSH2 0x1280 SWAP2 SWAP1 PUSH2 0x2877 JUMP JUMPDEST DUP4 DUP3 DUP2 MLOAD DUP2 LT PUSH2 0x1293 JUMPI PUSH2 0x1292 PUSH2 0x28D7 JUMP JUMPDEST JUMPDEST PUSH1 0x20 MUL PUSH1 0x20 ADD ADD DUP2 DUP2 MSTORE POP POP DUP1 DUP1 PUSH1 0x1 ADD SWAP2 POP POP PUSH2 0x126C JUMP JUMPDEST POP PUSH2 0x12B9 CALLER DUP8 DUP7 DUP6 PUSH2 0x1DB5 JUMP JUMPDEST POP POP POP POP POP POP JUMP JUMPDEST PUSH1 0x4 SLOAD DUP2 JUMP JUMPDEST PUSH0 DUP1 SLOAD SWAP1 PUSH2 0x100 EXP SWAP1 DIV PUSH20 0xFFFFFFFFFFFFFFFFFFFFFFFFFFFFFFFFFFFFFFFF AND DUP2 JUMP JUMPDEST PUSH1 0xA DUP2 JUMP JUMPDEST PUSH1 0x2 SLOAD DUP2 JUMP JUMPDEST PUSH0 DUP1 SLOAD SWAP1 PUSH2 0x100 EXP SWAP1 DIV PUSH20 0xFFFFFFFFFFFFFFFFFFFFFFFFFFFFFFFFFFFFFFFF AND PUSH20 0xFFFFFFFFFFFFFFFFFFFFFFFFFFFFFFFFFFFFFFFF AND CALLER PUSH20 0xFFFFFFFFFFFFFFFFFFFFFFFFFFFFFFFFFFFFFFFF AND EQ PUSH2 0x1379 JUMPI PUSH1 0x40 MLOAD PUSH32 0x30CD747100000000000000000000000000000000000000000000000000000000 DUP2 MSTORE PUSH1 0x4 ADD PUSH1 0x40 MLOAD DUP1 SWAP2 SUB SWAP1 REVERT JUMPDEST PUSH0 PUSH20 0xFFFFFFFFFFFFFFFFFFFFFFFFFFFFFFFFFFFFFFFF AND DUP3 PUSH20 0xFFFFFFFFFFFFFFFFFFFFFFFFFFFFFFFFFFFFFFFF AND SUB PUSH2 0x13DE JUMPI PUSH1 0x40 MLOAD PUSH32 0xE6C4247B00000000000000000000000000000000000000000000000000000000 DUP2 MSTORE PUSH1 0x4 ADD PUSH1 0x40 MLOAD DUP1 SWAP2 SUB SWAP1 REVERT JUMPDEST PUSH32 0x0 PUSH20 0xFFFFFFFFFFFFFFFFFFFFFFFFFFFFFFFFFFFFFFFF AND PUSH4 0xA9059CBB DUP4 DUP4 PUSH1 0x40 MLOAD DUP4 PUSH4 0xFFFFFFFF AND PUSH1 0xE0 SHL DUP2 MSTORE PUSH1 0x4 ADD PUSH2 0x1439 SWAP3 SWAP2 SWAP1 PUSH2 0x2A28 JUMP JUMPDEST PUSH1 0x20 PUSH1 0x40 MLOAD DUP1 DUP4 SUB DUP2 PUSH0 DUP8 GAS CALL ISZERO DUP1 ISZERO PUSH2 0x1455 JUMPI RETURNDATASIZE PUSH0 DUP1 RETURNDATACOPY RETURNDATASIZE PUSH0 REVERT JUMPDEST POP POP POP POP PUSH1 0x40 MLOAD RETURNDATASIZE PUSH1 0x1F NOT PUSH1 0x1F DUP3 ADD AND DUP3 ADD DUP1 PUSH1 0x40 MSTORE POP DUP2 ADD SWAP1 PUSH2 0x1479 SWAP2 SWAP1 PUSH2 0x2A79 JUMP JUMPDEST PUSH2 0x14AF JUMPI PUSH1 0x40 MLOAD PUSH32 0x90B8EC1800000000000000000000000000000000000000000000000000000000 DUP2 MSTORE PUSH1 0x4 ADD PUSH1 0x40 MLOAD DUP1 SWAP2 SUB SWAP1 REVERT JUMPDEST DUP2 PUSH20 0xFFFFFFFFFFFFFFFFFFFFFFFFFFFFFFFFFFFFFFFF AND PUSH32 0x884EDAD9CE6FA2440D8A54CC123490EB96D2768479D49FF9C7366125A9424364 DUP3 PUSH1 0x40 MLOAD PUSH2 0x14F5 SWAP2 SWAP1 PUSH2 0x23D4 JUMP JUMPDEST PUSH1 0x40 MLOAD DUP1 SWAP2 SUB SWAP1 LOG2 POP POP JUMP JUMPDEST PUSH1 0xA PUSH1 0x20 MSTORE DUP1 PUSH0 MSTORE PUSH1 0x40 PUSH0 KECCAK256 PUSH0 SWAP2 POP SLOAD SWAP1 PUSH2 0x100 EXP SWAP1 DIV PUSH1 0xFF AND DUP2 JUMP JUMPDEST PUSH1 0x60 PUSH1 0x9 PUSH0 DUP4 PUSH20 0xFFFFFFFFFFFFFFFFFFFFFFFFFFFFFFFFFFFFFFFF AND PUSH20 0xFFFFFFFFFFFFFFFFFFFFFFFFFFFFFFFFFFFFFFFF AND DUP2 MSTORE PUSH1 0x20 ADD SWAP1 DUP2 MSTORE PUSH1 0x20 ADD PUSH0 KECCAK256 DUP1 SLOAD DUP1 PUSH1 0x20 MUL PUSH1 0x20 ADD PUSH1 0x40 MLOAD SWAP1 DUP2 ADD PUSH1 0x40 MSTORE DUP1 SWAP3 SWAP2 SWAP1 DUP2 DUP2 MSTORE PUSH1 0x20 ADD DUP3 DUP1 SLOAD DUP1 ISZERO PUSH2 0x15A5 JUMPI PUSH1 0x20 MUL DUP3 ADD SWAP2 SWAP1 PUSH0 MSTORE PUSH1 0x20 PUSH0 KECCAK256 SWAP1 JUMPDEST DUP2 SLOAD DUP2 MSTORE PUSH1 0x20 ADD SWAP1 PUSH1 0x1 ADD SWAP1 DUP1 DUP4 GT PUSH2 0x1591 JUMPI JUMPDEST POP POP POP POP POP SWAP1 POP SWAP2 SWAP1 POP JUMP JUMPDEST PUSH0 DUP3 DUP3 SWAP1 POP SWAP1 POP PUSH0 DUP2 SUB PUSH2 0x15F1 JUMPI PUSH1 0x40 MLOAD PUSH32 0x8E71BEF900000000000000000000000000000000000000000000000000000000 DUP2 MSTORE PUSH1 0x4 ADD PUSH1 0x40 MLOAD DUP1 SWAP2 SUB SWAP1 REVERT JUMPDEST PUSH0 DUP5 EQ DUP1 PUSH2 0x1600 JUMPI POP PUSH1 0x3 SLOAD DUP5 GT JUMPDEST ISZERO PUSH2 0x1642 JUMPI DUP4 PUSH1 0x40 MLOAD PUSH32 0xC68E534300000000000000000000000000000000000000000000000000000000 DUP2 MSTORE PUSH1 0x4 ADD PUSH2 0x1639 SWAP2 SWAP1 PUSH2 0x23D4 JUMP JUMPDEST PUSH1 0x40 MLOAD DUP1 SWAP2 SUB SWAP1 REVERT JUMPDEST PUSH0 PUSH1 0x5 PUSH0 DUP7 DUP2 MSTORE PUSH1 0x20 ADD SWAP1 DUP2 MSTORE PUSH1 0x20 ADD PUSH0 KECCAK256 SWAP1 POP DUP1 PUSH1 0x3 ADD PUSH0 SWAP1 SLOAD SWAP1 PUSH2 0x100 EXP SWAP1 DIV PUSH1 0xFF AND ISZERO PUSH2 0x16A9 JUMPI DUP5 PUSH1 0x40 MLOAD PUSH32 0x127A8A7200000000000000000000000000000000000000000000000000000000 DUP2 MSTORE PUSH1 0x4 ADD PUSH2 0x16A0 SWAP2 SWAP1 PUSH2 0x23D4 JUMP JUMPDEST PUSH1 0x40 MLOAD DUP1 SWAP2 SUB SWAP1 REVERT JUMPDEST PUSH0 DUP2 PUSH1 0x1 ADD SLOAD DUP3 PUSH0 ADD SLOAD PUSH2 0x16BD SWAP2 SWAP1 PUSH2 0x2B97 JUMP JUMPDEST SWAP1 POP DUP1 DUP4 GT ISZERO PUSH2 0x16F9 JUMPI PUSH1 0x40 MLOAD PUSH32 0x19E215BC00000000000000000000000000000000000000000000000000000000 DUP2 MSTORE PUSH1 0x4 ADD PUSH1 0x40 MLOAD DUP1 SWAP2 SUB SWAP1 REVERT JUMPDEST PUSH0 PUSH2 0x1708 DUP7 DUP7 DUP6 PUSH0 ADD SLOAD PUSH2 0x1FD6 JUMP JUMPDEST SWAP1 POP PUSH2 0x1716 CALLER DUP9 DUP6 DUP5 PUSH2 0x1DB5 JUMP JUMPDEST POP POP POP POP POP POP POP JUMP JUMPDEST PUSH1 0x6 PUSH1 0x20 MSTORE DUP1 PUSH0 MSTORE PUSH1 0x40 PUSH0 KECCAK256 PUSH0 SWAP2 POP SWAP1 POP SLOAD DUP2 JUMP JUMPDEST PUSH1 0x7 PUSH1 0x20 MSTORE DUP1 PUSH0 MSTORE PUSH1 0x40 PUSH0 KECCAK256 PUSH0 SWAP2 POP SLOAD SWAP1 PUSH2 0x100 EXP SWAP1 DIV PUSH20 0xFFFFFFFFFFFFFFFFFFFFFFFFFFFFFFFFFFFFFFFF AND DUP2 JUMP JUMPDEST PUSH0 DUP1 SLOAD SWAP1 PUSH2 0x100 EXP SWAP1 DIV PUSH20 0xFFFFFFFFFFFFFFFFFFFFFFFFFFFFFFFFFFFFFFFF AND PUSH20 0xFFFFFFFFFFFFFFFFFFFFFFFFFFFFFFFFFFFFFFFF AND CALLER PUSH20 0xFFFFFFFFFFFFFFFFFFFFFFFFFFFFFFFFFFFFFFFF AND EQ PUSH2 0x17E8 JUMPI PUSH1 0x40 MLOAD PUSH32 0x30CD747100000000000000000000000000000000000000000000000000000000 DUP2 MSTORE PUSH1 0x4 ADD PUSH1 0x40 MLOAD DUP1 SWAP2 SUB SWAP1 REVERT JUMPDEST PUSH0 PUSH20 0xFFFFFFFFFFFFFFFFFFFFFFFFFFFFFFFFFFFFFFFF AND DUP2 PUSH20 0xFFFFFFFFFFFFFFFFFFFFFFFFFFFFFFFFFFFFFFFF AND SUB PUSH2 0x184D JUMPI PUSH1 0x40 MLOAD PUSH32 0xE6C4247B00000000000000000000000000000000000000000000000000000000 DUP2 MSTORE PUSH1 0x4 ADD PUSH1 0x40 MLOAD DUP1 SWAP2 SUB SWAP1 REVERT JUMPDEST DUP1 PUSH0 DUP1 PUSH2 0x100 EXP DUP2 SLOAD DUP2 PUSH20 0xFFFFFFFFFFFFFFFFFFFFFFFFFFFFFFFFFFFFFFFF MUL NOT AND SWAP1 DUP4 PUSH20 0xFFFFFFFFFFFFFFFFFFFFFFFFFFFFFFFFFFFFFFFF AND MUL OR SWAP1 SSTORE POP POP JUMP JUMPDEST PUSH1 0x8 PUSH1 0x20 MSTORE DUP1 PUSH0 MSTORE PUSH1 0x40 PUSH0 KECCAK256 PUSH0 SWAP2 POP SWAP1 POP SLOAD DUP2 JUMP JUMPDEST PUSH1 0x64 DUP2 JUMP JUMPDEST PUSH1 0x5 PUSH1 0x20 MSTORE DUP1 PUSH0 MSTORE PUSH1 0x40 PUSH0 KECCAK256 PUSH0 SWAP2 POP SWAP1 POP DUP1 PUSH0 ADD SLOAD SWAP1 DUP1 PUSH1 0x1 ADD SLOAD SWAP1 DUP1 PUSH1 0x3 ADD PUSH0 SWAP1 SLOAD SWAP1 PUSH2 0x100 EXP SWAP1 DIV PUSH1 0xFF AND SWAP1 DUP1 PUSH1 0x4 ADD SLOAD SWAP1 POP DUP5 JUMP JUMPDEST PUSH1 0x60 PUSH0 DUP3 PUSH8 0xFFFFFFFFFFFFFFFF DUP2 GT ISZERO PUSH2 0x18FE JUMPI PUSH2 0x18FD PUSH2 0x28AA JUMP JUMPDEST JUMPDEST PUSH1 0x40 MLOAD SWAP1 DUP1 DUP3 MSTORE DUP1 PUSH1 0x20 MUL PUSH1 0x20 ADD DUP3 ADD PUSH1 0x40 MSTORE DUP1 ISZERO PUSH2 0x192C JUMPI DUP2 PUSH1 0x20 ADD PUSH1 0x20 DUP3 MUL DUP1 CALLDATASIZE DUP4 CALLDATACOPY DUP1 DUP3 ADD SWAP2 POP POP SWAP1 POP JUMPDEST POP SWAP1 POP PUSH0 DUP1 JUMPDEST DUP5 DUP2 LT ISZERO PUSH2 0x1AA3 JUMPI PUSH0 PUSH1 0x1 SWAP1 POP PUSH0 JUMPDEST DUP4 DUP2 LT ISZERO PUSH2 0x19C5 JUMPI DUP8 DUP4 DUP2 MLOAD DUP2 LT PUSH2 0x195C JUMPI PUSH2 0x195B PUSH2 0x28D7 JUMP JUMPDEST JUMPDEST PUSH1 0x20 MUL PUSH1 0x20 ADD ADD MLOAD PUSH20 0xFFFFFFFFFFFFFFFFFFFFFFFFFFFFFFFFFFFFFFFF AND DUP6 DUP3 DUP2 MLOAD DUP2 LT PUSH2 0x198D JUMPI PUSH2 0x198C PUSH2 0x28D7 JUMP JUMPDEST JUMPDEST PUSH1 0x20 MUL PUSH1 0x20 ADD ADD MLOAD PUSH20 0xFFFFFFFFFFFFFFFFFFFFFFFFFFFFFFFFFFFFFFFF AND SUB PUSH2 0x19B8 JUMPI PUSH0 SWAP2 POP PUSH2 0x19C5 JUMP JUMPDEST DUP1 DUP1 PUSH1 0x1 ADD SWAP2 POP POP PUSH2 0x1941 JUMP JUMPDEST POP DUP1 DUP1 ISZERO PUSH2 0x1A19 JUMPI POP PUSH0 PUSH20 0xFFFFFFFFFFFFFFFFFFFFFFFFFFFFFFFFFFFFFFFF AND DUP8 DUP4 DUP2 MLOAD DUP2 LT PUSH2 0x19F8 JUMPI PUSH2 0x19F7 PUSH2 0x28D7 JUMP JUMPDEST JUMPDEST PUSH1 0x20 MUL PUSH1 0x20 ADD ADD MLOAD PUSH20 0xFFFFFFFFFFFFFFFFFFFFFFFFFFFFFFFFFFFFFFFF AND EQ ISZERO JUMPDEST ISZERO PUSH2 0x1A95 JUMPI DUP7 DUP3 DUP2 MLOAD DUP2 LT PUSH2 0x1A31 JUMPI PUSH2 0x1A30 PUSH2 0x28D7 JUMP JUMPDEST JUMPDEST PUSH1 0x20 MUL PUSH1 0x20 ADD ADD MLOAD DUP5 DUP5 DUP2 MLOAD DUP2 LT PUSH2 0x1A4C JUMPI PUSH2 0x1A4B PUSH2 0x28D7 JUMP JUMPDEST JUMPDEST PUSH1 0x20 MUL PUSH1 0x20 ADD ADD SWAP1 PUSH20 0xFFFFFFFFFFFFFFFFFFFFFFFFFFFFFFFFFFFFFFFF AND SWAP1 DUP2 PUSH20 0xFFFFFFFFFFFFFFFFFFFFFFFFFFFFFFFFFFFFFFFF AND DUP2 MSTORE POP POP DUP3 DUP1 PUSH2 0x1A91 SWAP1 PUSH2 0x2904 JUMP JUMPDEST SWAP4 POP POP JUMPDEST POP DUP1 DUP1 PUSH1 0x1 ADD SWAP2 POP POP PUSH2 0x1932 JUMP JUMPDEST POP PUSH0 DUP2 PUSH8 0xFFFFFFFFFFFFFFFF DUP2 GT ISZERO PUSH2 0x1ABF JUMPI PUSH2 0x1ABE PUSH2 0x28AA JUMP JUMPDEST JUMPDEST PUSH1 0x40 MLOAD SWAP1 DUP1 DUP3 MSTORE DUP1 PUSH1 0x20 MUL PUSH1 0x20 ADD DUP3 ADD PUSH1 0x40 MSTORE DUP1 ISZERO PUSH2 0x1AED JUMPI DUP2 PUSH1 0x20 ADD PUSH1 0x20 DUP3 MUL DUP1 CALLDATASIZE DUP4 CALLDATACOPY DUP1 DUP3 ADD SWAP2 POP POP SWAP1 POP JUMPDEST POP SWAP1 POP PUSH0 JUMPDEST DUP3 DUP2 LT ISZERO PUSH2 0x1B6F JUMPI DUP4 DUP2 DUP2 MLOAD DUP2 LT PUSH2 0x1B0D JUMPI PUSH2 0x1B0C PUSH2 0x28D7 JUMP JUMPDEST JUMPDEST PUSH1 0x20 MUL PUSH1 0x20 ADD ADD MLOAD DUP3 DUP3 DUP2 MLOAD DUP2 LT PUSH2 0x1B28 JUMPI PUSH2 0x1B27 PUSH2 0x28D7 JUMP JUMPDEST JUMPDEST PUSH1 0x20 MUL PUSH1 0x20 ADD ADD SWAP1 PUSH20 0xFFFFFFFFFFFFFFFFFFFFFFFFFFFFFFFFFFFFFFFF AND SWAP1 DUP2 PUSH20 0xFFFFFFFFFFFFFFFFFFFFFFFFFFFFFFFFFFFFFFFF AND DUP2 MSTORE POP POP DUP1 DUP1 PUSH1 0x1 ADD SWAP2 POP POP PUSH2 0x1AF2 JUMP JUMPDEST POP DUP1 SWAP4 POP POP POP POP SWAP3 SWAP2 POP POP JUMP JUMPDEST PUSH1 0x60 PUSH0 PUSH1 0xA PUSH8 0xFFFFFFFFFFFFFFFF DUP2 GT ISZERO PUSH2 0x1B9A JUMPI PUSH2 0x1B99 PUSH2 0x28AA JUMP JUMPDEST JUMPDEST PUSH1 0x40 MLOAD SWAP1 DUP1 DUP3 MSTORE DUP1 PUSH1 0x20 MUL PUSH1 0x20 ADD DUP3 ADD PUSH1 0x40 MSTORE DUP1 ISZERO PUSH2 0x1BC8 JUMPI DUP2 PUSH1 0x20 ADD PUSH1 0x20 DUP3 MUL DUP1 CALLDATASIZE DUP4 CALLDATACOPY DUP1 DUP3 ADD SWAP2 POP POP SWAP1 POP JUMPDEST POP SWAP1 POP PUSH2 0x1BD3 PUSH2 0x237E JUMP JUMPDEST PUSH0 DUP1 DUP7 SWAP1 POP JUMPDEST PUSH1 0xA DUP3 LT ISZERO PUSH2 0x1DA8 JUMPI DUP1 DUP3 PUSH1 0x40 MLOAD PUSH1 0x20 ADD PUSH2 0x1BF5 SWAP3 SWAP2 SWAP1 PUSH2 0x2CF5 JUMP JUMPDEST PUSH1 0x40 MLOAD PUSH1 0x20 DUP2 DUP4 SUB SUB DUP2 MSTORE SWAP1 PUSH1 0x40 MSTORE DUP1 MLOAD SWAP1 PUSH1 0x20 ADD KECCAK256 PUSH0 SHR SWAP1 POP PUSH0 PUSH1 0x1 PUSH1 0x64 DUP4 PUSH2 0x1C1F SWAP2 SWAP1 PUSH2 0x2D20 JUMP JUMPDEST PUSH2 0x1C29 SWAP2 SWAP1 PUSH2 0x2877 JUMP JUMPDEST SWAP1 POP DUP4 DUP2 PUSH1 0x65 DUP2 LT PUSH2 0x1C3E JUMPI PUSH2 0x1C3D PUSH2 0x28D7 JUMP JUMPDEST JUMPDEST PUSH1 0x20 MUL ADD MLOAD PUSH2 0x1C9A JUMPI PUSH1 0x1 DUP5 DUP3 PUSH1 0x65 DUP2 LT PUSH2 0x1C5C JUMPI PUSH2 0x1C5B PUSH2 0x28D7 JUMP JUMPDEST JUMPDEST PUSH1 0x20 MUL ADD SWAP1 ISZERO ISZERO SWAP1 DUP2 ISZERO ISZERO DUP2 MSTORE POP POP DUP1 DUP6 DUP5 DUP2 MLOAD DUP2 LT PUSH2 0x1C7F JUMPI PUSH2 0x1C7E PUSH2 0x28D7 JUMP JUMPDEST JUMPDEST PUSH1 0x20 MUL PUSH1 0x20 ADD ADD DUP2 DUP2 MSTORE POP POP DUP3 DUP1 PUSH2 0x1C96 SWAP1 PUSH2 0x2904 JUMP JUMPDEST SWAP4 POP POP JUMPDEST PUSH1 0xA DUP4 LT ISZERO PUSH2 0x1DA2 JUMPI PUSH0 JUMPDEST DUP5 DUP3 PUSH1 0x65 DUP2 LT PUSH2 0x1CB8 JUMPI PUSH2 0x1CB7 PUSH2 0x28D7 JUMP JUMPDEST JUMPDEST PUSH1 0x20 MUL ADD MLOAD DUP1 ISZERO PUSH2 0x1CC9 JUMPI POP PUSH1 0xC8 DUP2 LT JUMPDEST ISZERO PUSH2 0x1DA0 JUMPI DUP3 DUP5 DUP3 DUP11 PUSH1 0x40 MLOAD PUSH1 0x20 ADD PUSH2 0x1CE5 SWAP5 SWAP4 SWAP3 SWAP2 SWAP1 PUSH2 0x2D50 JUMP JUMPDEST PUSH1 0x40 MLOAD PUSH1 0x20 DUP2 DUP4 SUB SUB DUP2 MSTORE SWAP1 PUSH1 0x40 MSTORE DUP1 MLOAD SWAP1 PUSH1 0x20 ADD KECCAK256 PUSH0 SHR SWAP3 POP PUSH1 0x1 PUSH1 0x64 DUP5 PUSH2 0x1D0E SWAP2 SWAP1 PUSH2 0x2D20 JUMP JUMPDEST PUSH2 0x1D18 SWAP2 SWAP1 PUSH2 0x2877 JUMP JUMPDEST SWAP2 POP DUP5 DUP3 PUSH1 0x65 DUP2 LT PUSH2 0x1D2D JUMPI PUSH2 0x1D2C PUSH2 0x28D7 JUMP JUMPDEST JUMPDEST PUSH1 0x20 MUL ADD MLOAD PUSH2 0x1D8D JUMPI PUSH1 0x1 DUP6 DUP4 PUSH1 0x65 DUP2 LT PUSH2 0x1D4B JUMPI PUSH2 0x1D4A PUSH2 0x28D7 JUMP JUMPDEST JUMPDEST PUSH1 0x20 MUL ADD SWAP1 ISZERO ISZERO SWAP1 DUP2 ISZERO ISZERO DUP2 MSTORE POP POP DUP2 DUP7 DUP6 DUP2 MLOAD DUP2 LT PUSH2 0x1D6E JUMPI PUSH2 0x1D6D PUSH2 0x28D7 JUMP JUMPDEST JUMPDEST PUSH1 0x20 MUL PUSH1 0x20 ADD ADD DUP2 DUP2 MSTORE POP POP DUP4 DUP1 PUSH2 0x1D85 SWAP1 PUSH2 0x2904 JUMP JUMPDEST SWAP5 POP POP PUSH2 0x1DA0 JUMP JUMPDEST DUP1 DUP1 PUSH2 0x1D98 SWAP1 PUSH2 0x2904 JUMP JUMPDEST SWAP2 POP POP PUSH2 0x1CA5 JUMP JUMPDEST POP JUMPDEST POP PUSH2 0x1BD9 JUMP JUMPDEST DUP4 SWAP5 POP POP POP POP POP SWAP3 SWAP2 POP POP JUMP JUMPDEST PUSH0 DUP2 MLOAD SWAP1 POP PUSH0 DUP2 PUSH1 0x1 SLOAD PUSH2 0x1DC9 SWAP2 SWAP1 PUSH2 0x294B JUMP JUMPDEST SWAP1 POP PUSH0 PUSH2 0x1DDB DUP8 DUP8 DUP8 PUSH0 ADD SLOAD DUP8 PUSH2 0x20CC JUMP JUMPDEST SWAP1 POP DUP3 DUP6 PUSH1 0x1 ADD PUSH0 DUP3 DUP3 SLOAD PUSH2 0x1DF0 SWAP2 SWAP1 PUSH2 0x2877 JUMP JUMPDEST SWAP3 POP POP DUP2 SWAP1 SSTORE POP DUP3 PUSH1 0x2 PUSH0 DUP3 DUP3 SLOAD PUSH2 0x1E08 SWAP2 SWAP1 PUSH2 0x2877 JUMP JUMPDEST SWAP3 POP POP DUP2 SWAP1 SSTORE POP DUP3 PUSH1 0x6 PUSH0 DUP10 PUSH20 0xFFFFFFFFFFFFFFFFFFFFFFFFFFFFFFFFFFFFFFFF AND PUSH20 0xFFFFFFFFFFFFFFFFFFFFFFFFFFFFFFFFFFFFFFFF AND DUP2 MSTORE PUSH1 0x20 ADD SWAP1 DUP2 MSTORE PUSH1 0x20 ADD PUSH0 KECCAK256 PUSH0 DUP3 DUP3 SLOAD PUSH2 0x1E5B SWAP2 SWAP1 PUSH2 0x2877 JUMP JUMPDEST SWAP3 POP POP DUP2 SWAP1 SSTORE POP DUP6 DUP8 PUSH20 0xFFFFFFFFFFFFFFFFFFFFFFFFFFFFFFFFFFFFFFFF AND PUSH32 0x7478E1CA4690B7AD34581C0F0974FC4D6C826CB3D55AF76A85334ED9537C5DD9 DUP6 DUP6 DUP6 PUSH1 0x40 MLOAD PUSH2 0x1EAD SWAP4 SWAP3 SWAP2 SWAP1 PUSH2 0x2D9D JUMP JUMPDEST PUSH1 0x40 MLOAD DUP1 SWAP2 SUB SWAP1 LOG3 PUSH0 DUP3 GT ISZERO PUSH2 0x1F91 JUMPI PUSH32 0x0 PUSH20 0xFFFFFFFFFFFFFFFFFFFFFFFFFFFFFFFFFFFFFFFF AND PUSH4 0x23B872DD DUP9 ADDRESS DUP6 PUSH1 0x40 MLOAD DUP5 PUSH4 0xFFFFFFFF AND PUSH1 0xE0 SHL DUP2 MSTORE PUSH1 0x4 ADD PUSH2 0x1F1A SWAP4 SWAP3 SWAP2 SWAP1 PUSH2 0x2DD9 JUMP JUMPDEST PUSH1 0x20 PUSH1 0x40 MLOAD DUP1 DUP4 SUB DUP2 PUSH0 DUP8 GAS CALL ISZERO DUP1 ISZERO PUSH2 0x1F36 JUMPI RETURNDATASIZE PUSH0 DUP1 RETURNDATACOPY RETURNDATASIZE PUSH0 REVERT JUMPDEST POP POP POP POP PUSH1 0x40 MLOAD RETURNDATASIZE PUSH1 0x1F NOT PUSH1 0x1F DUP3 ADD AND DUP3 ADD DUP1 PUSH1 0x40 MSTORE POP DUP2 ADD SWAP1 PUSH2 0x1F5A SWAP2 SWAP1 PUSH2 0x2A79 JUMP JUMPDEST PUSH2 0x1F90 JUMPI PUSH1 0x40 MLOAD PUSH32 0x90B8EC1800000000000000000000000000000000000000000000000000000000 DUP2 MSTORE PUSH1 0x4 ADD PUSH1 0x40 MLOAD DUP1 SWAP2 SUB SWAP1 REVERT JUMPDEST JUMPDEST DUP5 PUSH0 ADD SLOAD DUP6 PUSH1 0x1 ADD SLOAD SUB PUSH2 0x1FCD JUMPI DUP6 PUSH32 0xFD8D96E5E049823E751E0C23004BDBB7793038835AC2CB5E6EEEC672AA5C8EBC PUSH1 0x40 MLOAD PUSH1 0x40 MLOAD DUP1 SWAP2 SUB SWAP1 LOG2 JUMPDEST POP POP POP POP POP POP POP JUMP JUMPDEST PUSH1 0x60 PUSH0 DUP5 DUP5 SWAP1 POP SWAP1 POP DUP1 PUSH8 0xFFFFFFFFFFFFFFFF DUP2 GT ISZERO PUSH2 0x1FF9 JUMPI PUSH2 0x1FF8 PUSH2 0x28AA JUMP JUMPDEST JUMPDEST PUSH1 0x40 MLOAD SWAP1 DUP1 DUP3 MSTORE DUP1 PUSH1 0x20 MUL PUSH1 0x20 ADD DUP3 ADD PUSH1 0x40 MSTORE DUP1 ISZERO PUSH2 0x2027 JUMPI DUP2 PUSH1 0x20 ADD PUSH1 0x20 DUP3 MUL DUP1 CALLDATASIZE DUP4 CALLDATACOPY DUP1 DUP3 ADD SWAP2 POP POP SWAP1 POP JUMPDEST POP SWAP2 POP PUSH0 JUMPDEST DUP2 DUP2 LT ISZERO PUSH2 0x20C3 JUMPI PUSH0 DUP7 DUP7 DUP4 DUP2 DUP2 LT PUSH2 0x2048 JUMPI PUSH2 0x2047 PUSH2 0x28D7 JUMP JUMPDEST JUMPDEST SWAP1 POP PUSH1 0x20 MUL ADD CALLDATALOAD SWAP1 POP PUSH0 DUP2 EQ DUP1 PUSH2 0x205E JUMPI POP DUP5 DUP2 GT JUMPDEST ISZERO PUSH2 0x2095 JUMPI PUSH1 0x40 MLOAD PUSH32 0xAEADDFF100000000000000000000000000000000000000000000000000000000 DUP2 MSTORE PUSH1 0x4 ADD PUSH1 0x40 MLOAD DUP1 SWAP2 SUB SWAP1 REVERT JUMPDEST DUP1 DUP5 DUP4 DUP2 MLOAD DUP2 LT PUSH2 0x20A9 JUMPI PUSH2 0x20A8 PUSH2 0x28D7 JUMP JUMPDEST JUMPDEST PUSH1 0x20 MUL PUSH1 0x20 ADD ADD DUP2 DUP2 MSTORE POP POP POP DUP1 DUP1 PUSH1 0x1 ADD SWAP2 POP POP PUSH2 0x202C JUMP JUMPDEST POP POP SWAP4 SWAP3 POP POP POP JUMP JUMPDEST PUSH1 0x60 PUSH0 DUP3 MLOAD SWAP1 POP DUP1 PUSH8 0xFFFFFFFFFFFFFFFF DUP2 GT ISZERO PUSH2 0x20ED JUMPI PUSH2 0x20EC PUSH2 0x28AA JUMP JUMPDEST JUMPDEST PUSH1 0x40 MLOAD SWAP1 DUP1 DUP3 MSTORE DUP1 PUSH1 0x20 MUL PUSH1 0x20 ADD DUP3 ADD PUSH1 0x40 MSTORE DUP1 ISZERO PUSH2 0x211B JUMPI DUP2 PUSH1 0x20 ADD PUSH1 0x20 DUP3 MUL DUP1 CALLDATASIZE DUP4 CALLDATACOPY DUP1 DUP3 ADD SWAP2 POP POP SWAP1 POP JUMPDEST POP SWAP2 POP PUSH0 JUMPDEST DUP2 DUP2 LT ISZERO PUSH2 0x2329 JUMPI PUSH0 DUP5 DUP3 DUP2 MLOAD DUP2 LT PUSH2 0x213C JUMPI PUSH2 0x213B PUSH2 0x28D7 JUMP JUMPDEST JUMPDEST PUSH1 0x20 MUL PUSH1 0x20 ADD ADD MLOAD SWAP1 POP PUSH0 DUP2 EQ DUP1 PUSH2 0x2153 JUMPI POP DUP6 DUP2 GT JUMPDEST ISZERO PUSH2 0x218A JUMPI PUSH1 0x40 MLOAD PUSH32 0xAEADDFF100000000000000000000000000000000000000000000000000000000 DUP2 MSTORE PUSH1 0x4 ADD PUSH1 0x40 MLOAD DUP1 SWAP2 SUB SWAP1 REVERT JUMPDEST PUSH0 DUP2 PUSH1 0x80 DUP10 SWAP1 SHL OR SWAP1 POP PUSH0 PUSH20 0xFFFFFFFFFFFFFFFFFFFFFFFFFFFFFFFFFFFFFFFF AND PUSH1 0x7 PUSH0 DUP4 DUP2 MSTORE PUSH1 0x20 ADD SWAP1 DUP2 MSTORE PUSH1 0x20 ADD PUSH0 KECCAK256 PUSH0 SWAP1 SLOAD SWAP1 PUSH2 0x100 EXP SWAP1 DIV PUSH20 0xFFFFFFFFFFFFFFFFFFFFFFFFFFFFFFFFFFFFFFFF AND PUSH20 0xFFFFFFFFFFFFFFFFFFFFFFFFFFFFFFFFFFFFFFFF AND EQ PUSH2 0x2234 JUMPI DUP2 PUSH1 0x40 MLOAD PUSH32 0x8605B53E00000000000000000000000000000000000000000000000000000000 DUP2 MSTORE PUSH1 0x4 ADD PUSH2 0x222B SWAP2 SWAP1 PUSH2 0x23D4 JUMP JUMPDEST PUSH1 0x40 MLOAD DUP1 SWAP2 SUB SWAP1 REVERT JUMPDEST DUP9 PUSH1 0x7 PUSH0 DUP4 DUP2 MSTORE PUSH1 0x20 ADD SWAP1 DUP2 MSTORE PUSH1 0x20 ADD PUSH0 KECCAK256 PUSH0 PUSH2 0x100 EXP DUP2 SLOAD DUP2 PUSH20 0xFFFFFFFFFFFFFFFFFFFFFFFFFFFFFFFFFFFFFFFF MUL NOT AND SWAP1 DUP4 PUSH20 0xFFFFFFFFFFFFFFFFFFFFFFFFFFFFFFFFFFFFFFFF AND MUL OR SWAP1 SSTORE POP DUP8 PUSH1 0x8 PUSH0 DUP4 DUP2 MSTORE PUSH1 0x20 ADD SWAP1 DUP2 MSTORE PUSH1 0x20 ADD PUSH0 KECCAK256 DUP2 SWAP1 SSTORE POP PUSH1 0x9 PUSH0 DUP11 PUSH20 0xFFFFFFFFFFFFFFFFFFFFFFFFFFFFFFFFFFFFFFFF AND PUSH20 0xFFFFFFFFFFFFFFFFFFFFFFFFFFFFFFFFFFFFFFFF AND DUP2 MSTORE PUSH1 0x20 ADD SWAP1 DUP2 MSTORE PUSH1 0x20 ADD PUSH0 KECCAK256 DUP2 SWAP1 DUP1 PUSH1 0x1 DUP2 SLOAD ADD DUP1 DUP3 SSTORE DUP1 SWAP2 POP POP PUSH1 0x1 SWAP1 SUB SWAP1 PUSH0 MSTORE PUSH1 0x20 PUSH0 KECCAK256 ADD PUSH0 SWAP1 SWAP2 SWAP1 SWAP2 SWAP1 SWAP2 POP SSTORE DUP1 DUP6 DUP5 DUP2 MLOAD DUP2 LT PUSH2 0x230E JUMPI PUSH2 0x230D PUSH2 0x28D7 JUMP JUMPDEST JUMPDEST PUSH1 0x20 MUL PUSH1 0x20 ADD ADD DUP2 DUP2 MSTORE POP POP POP POP DUP1 DUP1 PUSH1 0x1 ADD SWAP2 POP POP PUSH2 0x2120 JUMP JUMPDEST POP POP SWAP5 SWAP4 POP POP POP POP JUMP JUMPDEST DUP3 DUP1 SLOAD DUP3 DUP3 SSTORE SWAP1 PUSH0 MSTORE PUSH1 0x20 PUSH0 KECCAK256 SWAP1 DUP2 ADD SWAP3 DUP3 ISZERO PUSH2 0x236D JUMPI SWAP2 PUSH1 0x20 MUL DUP3 ADD JUMPDEST DUP3 DUP2 GT ISZERO PUSH2 0x236C JUMPI DUP3 MLOAD DUP3 SSTORE SWAP2 PUSH1 0x20 ADD SWAP2 SWAP1 PUSH1 0x1 ADD SWAP1 PUSH2 0x2351 JUMP JUMPDEST JUMPDEST POP SWAP1 POP PUSH2 0x237A SWAP2 SWAP1 PUSH2 0x23A1 JUMP JUMPDEST POP SWAP1 JUMP JUMPDEST PUSH1 0x40 MLOAD DUP1 PUSH2 0xCA0 ADD PUSH1 0x40 MSTORE DUP1 PUSH1 0x65 SWAP1 PUSH1 0x20 DUP3 MUL DUP1 CALLDATASIZE DUP4 CALLDATACOPY DUP1 DUP3 ADD SWAP2 POP POP SWAP1 POP POP SWAP1 JUMP JUMPDEST JUMPDEST DUP1 DUP3 GT ISZERO PUSH2 0x23B8 JUMPI PUSH0 DUP2 PUSH0 SWAP1 SSTORE POP PUSH1 0x1 ADD PUSH2 0x23A2 JUMP JUMPDEST POP SWAP1 JUMP JUMPDEST PUSH0 DUP2 SWAP1 POP SWAP2 SWAP1 POP JUMP JUMPDEST PUSH2 0x23CE DUP2 PUSH2 0x23BC JUMP JUMPDEST DUP3 MSTORE POP POP JUMP JUMPDEST PUSH0 PUSH1 0x20 DUP3 ADD SWAP1 POP PUSH2 0x23E7 PUSH0 DUP4 ADD DUP5 PUSH2 0x23C5 JUMP JUMPDEST SWAP3 SWAP2 POP POP JUMP JUMPDEST PUSH0 DUP1 REVERT JUMPDEST PUSH0 DUP1 REVERT JUMPDEST PUSH2 0x23FE DUP2 PUSH2 0x23BC JUMP JUMPDEST DUP2 EQ PUSH2 0x2408 JUMPI PUSH0 DUP1 REVERT JUMPDEST POP JUMP JUMPDEST PUSH0 DUP2 CALLDATALOAD SWAP1 POP PUSH2 0x2419 DUP2 PUSH2 0x23F5 JUMP JUMPDEST SWAP3 SWAP2 POP POP JUMP JUMPDEST PUSH0 PUSH1 0x20 DUP3 DUP5 SUB SLT ISZERO PUSH2 0x2434 JUMPI PUSH2 0x2433 PUSH2 0x23ED JUMP JUMPDEST JUMPDEST PUSH0 PUSH2 0x2441 DUP5 DUP3 DUP6 ADD PUSH2 0x240B JUMP JUMPDEST SWAP2 POP POP SWAP3 SWAP2 POP POP JUMP JUMPDEST PUSH0 PUSH20 0xFFFFFFFFFFFFFFFFFFFFFFFFFFFFFFFFFFFFFFFF DUP3 AND SWAP1 POP SWAP2 SWAP1 POP JUMP JUMPDEST PUSH0 DUP2 SWAP1 POP SWAP2 SWAP1 POP JUMP JUMPDEST PUSH0 PUSH2 0x248C PUSH2 0x2487 PUSH2 0x2482 DUP5 PUSH2 0x244A JUMP JUMPDEST PUSH2 0x2469 JUMP JUMPDEST PUSH2 0x244A JUMP JUMPDEST SWAP1 POP SWAP2 SWAP1 POP JUMP JUMPDEST PUSH0 PUSH2 0x249D DUP3 PUSH2 0x2472 JUMP JUMPDEST SWAP1 POP SWAP2 SWAP1 POP JUMP JUMPDEST PUSH0 PUSH2 0x24AE DUP3 PUSH2 0x2493 JUMP JUMPDEST SWAP1 POP SWAP2 SWAP1 POP JUMP JUMPDEST PUSH2 0x24BE DUP2 PUSH2 0x24A4 JUMP JUMPDEST DUP3 MSTORE POP POP JUMP JUMPDEST PUSH0 PUSH1 0x20 DUP3 ADD SWAP1 POP PUSH2 0x24D7 PUSH0 DUP4 ADD DUP5 PUSH2 0x24B5 JUMP JUMPDEST SWAP3 SWAP2 POP POP JUMP JUMPDEST PUSH0 DUP2 ISZERO ISZERO SWAP1 POP SWAP2 SWAP1 POP JUMP JUMPDEST PUSH2 0x24F1 DUP2 PUSH2 0x24DD JUMP JUMPDEST DUP3 MSTORE POP POP JUMP JUMPDEST PUSH0 DUP2 MLOAD SWAP1 POP SWAP2 SWAP1 POP JUMP JUMPDEST PUSH0 DUP3 DUP3 MSTORE PUSH1 0x20 DUP3 ADD SWAP1 POP SWAP3 SWAP2 POP POP JUMP JUMPDEST PUSH0 DUP2 SWAP1 POP PUSH1 0x20 DUP3 ADD SWAP1 POP SWAP2 SWAP1 POP JUMP JUMPDEST PUSH2 0x2529 DUP2 PUSH2 0x23BC JUMP JUMPDEST DUP3 MSTORE POP POP JUMP JUMPDEST PUSH0 PUSH2 0x253A DUP4 DUP4 PUSH2 0x2520 JUMP JUMPDEST PUSH1 0x20 DUP4 ADD SWAP1 POP SWAP3 SWAP2 POP POP JUMP JUMPDEST PUSH0 PUSH1 0x20 DUP3 ADD SWAP1 POP SWAP2 SWAP1 POP JUMP JUMPDEST PUSH0 PUSH2 0x255C DUP3 PUSH2 0x24F7 JUMP JUMPDEST PUSH2 0x2566 DUP2 DUP6 PUSH2 0x2501 JUMP JUMPDEST SWAP4 POP PUSH2 0x2571 DUP4 PUSH2 0x2511 JUMP JUMPDEST DUP1 PUSH0 JUMPDEST DUP4 DUP2 LT ISZERO PUSH2 0x25A1 JUMPI DUP2 MLOAD PUSH2 0x2588 DUP9 DUP3 PUSH2 0x252F JUMP JUMPDEST SWAP8 POP PUSH2 0x2593 DUP4 PUSH2 0x2546 JUMP JUMPDEST SWAP3 POP POP PUSH1 0x1 DUP2 ADD SWAP1 POP PUSH2 0x2574 JUMP JUMPDEST POP DUP6 SWAP4 POP POP POP POP SWAP3 SWAP2 POP POP JUMP JUMPDEST PUSH0 PUSH1 0xA0 DUP3 ADD SWAP1 POP PUSH2 0x25C1 PUSH0 DUP4 ADD DUP9 PUSH2 0x23C5 JUMP JUMPDEST PUSH2 0x25CE PUSH1 0x20 DUP4 ADD DUP8 PUSH2 0x23C5 JUMP JUMPDEST PUSH2 0x25DB PUSH1 0x40 DUP4 ADD DUP7 PUSH2 0x24E8 JUMP JUMPDEST PUSH2 0x25E8 PUSH1 0x60 DUP4 ADD DUP6 PUSH2 0x24E8 JUMP JUMPDEST DUP2 DUP2 SUB PUSH1 0x80 DUP4 ADD MSTORE PUSH2 0x25FA DUP2 DUP5 PUSH2 0x2552 JUMP JUMPDEST SWAP1 POP SWAP7 SWAP6 POP POP POP POP POP POP JUMP JUMPDEST PUSH0 DUP1 PUSH1 0x40 DUP4 DUP6 SUB SLT ISZERO PUSH2 0x261C JUMPI PUSH2 0x261B PUSH2 0x23ED JUMP JUMPDEST JUMPDEST PUSH0 PUSH2 0x2629 DUP6 DUP3 DUP7 ADD PUSH2 0x240B JUMP JUMPDEST SWAP3 POP POP PUSH1 0x20 PUSH2 0x263A DUP6 DUP3 DUP7 ADD PUSH2 0x240B JUMP JUMPDEST SWAP2 POP POP SWAP3 POP SWAP3 SWAP1 POP JUMP JUMPDEST PUSH0 PUSH2 0x264E DUP3 PUSH2 0x244A JUMP JUMPDEST SWAP1 POP SWAP2 SWAP1 POP JUMP JUMPDEST PUSH2 0x265E DUP2 PUSH2 0x2644 JUMP JUMPDEST DUP3 MSTORE POP POP JUMP JUMPDEST PUSH0 PUSH1 0x20 DUP3 ADD SWAP1 POP PUSH2 0x2677 PUSH0 DUP4 ADD DUP5 PUSH2 0x2655 JUMP JUMPDEST SWAP3 SWAP2 POP POP JUMP JUMPDEST PUSH2 0x2686 DUP2 PUSH2 0x2644 JUMP JUMPDEST DUP2 EQ PUSH2 0x2690 JUMPI PUSH0 DUP1 REVERT JUMPDEST POP JUMP JUMPDEST PUSH0 DUP2 CALLDATALOAD SWAP1 POP PUSH2 0x26A1 DUP2 PUSH2 0x267D JUMP JUMPDEST SWAP3 SWAP2 POP POP JUMP JUMPDEST PUSH0 DUP1 PUSH1 0x40 DUP4 DUP6 SUB SLT ISZERO PUSH2 0x26BD JUMPI PUSH2 0x26BC PUSH2 0x23ED JUMP JUMPDEST JUMPDEST PUSH0 PUSH2 0x26CA DUP6 DUP3 DUP7 ADD PUSH2 0x2693 JUMP JUMPDEST SWAP3 POP POP PUSH1 0x20 PUSH2 0x26DB DUP6 DUP3 DUP7 ADD PUSH2 0x240B JUMP JUMPDEST SWAP2 POP POP SWAP3 POP SWAP3 SWAP1 POP JUMP JUMPDEST PUSH0 PUSH1 0x20 DUP3 ADD SWAP1 POP PUSH2 0x26F8 PUSH0 DUP4 ADD DUP5 PUSH2 0x24E8 JUMP JUMPDEST SWAP3 SWAP2 POP POP JUMP JUMPDEST PUSH0 PUSH1 0x20 DUP3 DUP5 SUB SLT ISZERO PUSH2 0x2713 JUMPI PUSH2 0x2712 PUSH2 0x23ED JUMP JUMPDEST JUMPDEST PUSH0 PUSH2 0x2720 DUP5 DUP3 DUP6 ADD PUSH2 0x2693 JUMP JUMPDEST SWAP2 POP POP SWAP3 SWAP2 POP POP JUMP JUMPDEST PUSH0 PUSH1 0x20 DUP3 ADD SWAP1 POP DUP2 DUP2 SUB PUSH0 DUP4 ADD MSTORE PUSH2 0x2741 DUP2 DUP5 PUSH2 0x2552 JUMP JUMPDEST SWAP1 POP SWAP3 SWAP2 POP POP JUMP JUMPDEST PUSH0 DUP1 REVERT JUMPDEST PUSH0 DUP1 REVERT JUMPDEST PUSH0 DUP1 REVERT JUMPDEST PUSH0 DUP1 DUP4 PUSH1 0x1F DUP5 ADD SLT PUSH2 0x276A JUMPI PUSH2 0x2769 PUSH2 0x2749 JUMP JUMPDEST JUMPDEST DUP3 CALLDATALOAD SWAP1 POP PUSH8 0xFFFFFFFFFFFFFFFF DUP2 GT ISZERO PUSH2 0x2787 JUMPI PUSH2 0x2786 PUSH2 0x274D JUMP JUMPDEST JUMPDEST PUSH1 0x20 DUP4 ADD SWAP2 POP DUP4 PUSH1 0x20 DUP3 MUL DUP4 ADD GT ISZERO PUSH2 0x27A3 JUMPI PUSH2 0x27A2 PUSH2 0x2751 JUMP JUMPDEST JUMPDEST SWAP3 POP SWAP3 SWAP1 POP JUMP JUMPDEST PUSH0 DUP1 PUSH0 PUSH1 0x40 DUP5 DUP7 SUB SLT ISZERO PUSH2 0x27C1 JUMPI PUSH2 0x27C0 PUSH2 0x23ED JUMP JUMPDEST JUMPDEST PUSH0 PUSH2 0x27CE DUP7 DUP3 DUP8 ADD PUSH2 0x240B JUMP JUMPDEST SWAP4 POP POP PUSH1 0x20 DUP5 ADD CALLDATALOAD PUSH8 0xFFFFFFFFFFFFFFFF DUP2 GT ISZERO PUSH2 0x27EF JUMPI PUSH2 0x27EE PUSH2 0x23F1 JUMP JUMPDEST JUMPDEST PUSH2 0x27FB DUP7 DUP3 DUP8 ADD PUSH2 0x2755 JUMP JUMPDEST SWAP3 POP SWAP3 POP POP SWAP3 POP SWAP3 POP SWAP3 JUMP JUMPDEST PUSH0 PUSH1 0x80 DUP3 ADD SWAP1 POP PUSH2 0x281A PUSH0 DUP4 ADD DUP8 PUSH2 0x23C5 JUMP JUMPDEST PUSH2 0x2827 PUSH1 0x20 DUP4 ADD DUP7 PUSH2 0x23C5 JUMP JUMPDEST PUSH2 0x2834 PUSH1 0x40 DUP4 ADD DUP6 PUSH2 0x24E8 JUMP JUMPDEST PUSH2 0x2841 PUSH1 0x60 DUP4 ADD DUP5 PUSH2 0x23C5 JUMP JUMPDEST SWAP6 SWAP5 POP POP POP POP POP JUMP JUMPDEST PUSH32 0x4E487B7100000000000000000000000000000000000000000000000000000000 PUSH0 MSTORE PUSH1 0x11 PUSH1 0x4 MSTORE PUSH1 0x24 PUSH0 REVERT JUMPDEST PUSH0 PUSH2 0x2881 DUP3 PUSH2 0x23BC JUMP JUMPDEST SWAP2 POP PUSH2 0x288C DUP4 PUSH2 0x23BC JUMP JUMPDEST SWAP3 POP DUP3 DUP3 ADD SWAP1 POP DUP1 DUP3 GT ISZERO PUSH2 0x28A4 JUMPI PUSH2 0x28A3 PUSH2 0x284A JUMP JUMPDEST JUMPDEST SWAP3 SWAP2 POP POP JUMP JUMPDEST PUSH32 0x4E487B7100000000000000000000000000000000000000000000000000000000 PUSH0 MSTORE PUSH1 0x41 PUSH1 0x4 MSTORE PUSH1 0x24 PUSH0 REVERT JUMPDEST PUSH32 0x4E487B7100000000000000000000000000000000000000000000000000000000 PUSH0 MSTORE PUSH1 0x32 PUSH1 0x4 MSTORE PUSH1 0x24 PUSH0 REVERT JUMPDEST PUSH0 PUSH2 0x290E DUP3 PUSH2 0x23BC JUMP JUMPDEST SWAP2 POP PUSH32 0xFFFFFFFFFFFFFFFFFFFFFFFFFFFFFFFFFFFFFFFFFFFFFFFFFFFFFFFFFFFFFFFF DUP3 SUB PUSH2 0x2940 JUMPI PUSH2 0x293F PUSH2 0x284A JUMP JUMPDEST JUMPDEST PUSH1 0x1 DUP3 ADD SWAP1 POP SWAP2 SWAP1 POP JUMP JUMPDEST PUSH0 PUSH2 0x2955 DUP3 PUSH2 0x23BC JUMP JUMPDEST SWAP2 POP PUSH2 0x2960 DUP4 PUSH2 0x23BC JUMP JUMPDEST SWAP3 POP DUP3 DUP3 MUL PUSH2 0x296E DUP2 PUSH2 0x23BC JUMP JUMPDEST SWAP2 POP DUP3 DUP3 DIV DUP5 EQ DUP4 ISZERO OR PUSH2 0x2985 JUMPI PUSH2 0x2984 PUSH2 0x284A JUMP JUMPDEST JUMPDEST POP SWAP3 SWAP2 POP POP JUMP JUMPDEST PUSH0 DUP2 MLOAD SWAP1 POP PUSH2 0x299A DUP2 PUSH2 0x23F5 JUMP JUMPDEST SWAP3 SWAP2 POP POP JUMP JUMPDEST PUSH0 PUSH1 0x20 DUP3 DUP5 SUB SLT ISZERO PUSH2 0x29B5 JUMPI PUSH2 0x29B4 PUSH2 0x23ED JUMP JUMPDEST JUMPDEST PUSH0 PUSH2 0x29C2 DUP5 DUP3 DUP6 ADD PUSH2 0x298C JUMP JUMPDEST SWAP2 POP POP SWAP3 SWAP2 POP POP JUMP JUMPDEST PUSH32 0x4E487B7100000000000000000000000000000000000000000000000000000000 PUSH0 MSTORE PUSH1 0x12 PUSH1 0x4 MSTORE PUSH1 0x24 PUSH0 REVERT JUMPDEST PUSH0 PUSH2 0x2A02 DUP3 PUSH2 0x23BC JUMP JUMPDEST SWAP2 POP PUSH2 0x2A0D DUP4 PUSH2 0x23BC JUMP JUMPDEST SWAP3 POP DUP3 PUSH2 0x2A1D JUMPI PUSH2 0x2A1C PUSH2 0x29CB JUMP JUMPDEST JUMPDEST DUP3 DUP3 DIV SWAP1 POP SWAP3 SWAP2 POP POP JUMP JUMPDEST PUSH0 PUSH1 0x40 DUP3 ADD SWAP1 POP PUSH2 0x2A3B PUSH0 DUP4 ADD DUP6 PUSH2 0x2655 JUMP JUMPDEST PUSH2 0x2A48 PUSH1 0x20 DUP4 ADD DUP5 PUSH2 0x23C5 JUMP JUMPDEST SWAP4 SWAP3 POP POP POP JUMP JUMPDEST PUSH2 0x2A58 DUP2 PUSH2 0x24DD JUMP JUMPDEST DUP2 EQ PUSH2 0x2A62 JUMPI PUSH0 DUP1 REVERT JUMPDEST POP JUMP JUMPDEST PUSH0 DUP2 MLOAD SWAP1 POP PUSH2 0x2A73 DUP2 PUSH2 0x2A4F JUMP JUMPDEST SWAP3 SWAP2 POP POP JUMP JUMPDEST PUSH0 PUSH1 0x20 DUP3 DUP5 SUB SLT ISZERO PUSH2 0x2A8E JUMPI PUSH2 0x2A8D PUSH2 0x23ED JUMP JUMPDEST JUMPDEST PUSH0 PUSH2 0x2A9B DUP5 DUP3 DUP6 ADD PUSH2 0x2A65 JUMP JUMPDEST SWAP2 POP POP SWAP3 SWAP2 POP POP JUMP JUMPDEST PUSH0 DUP2 MLOAD SWAP1 POP SWAP2 SWAP1 POP JUMP JUMPDEST PUSH0 DUP3 DUP3 MSTORE PUSH1 0x20 DUP3 ADD SWAP1 POP SWAP3 SWAP2 POP POP JUMP JUMPDEST PUSH0 DUP2 SWAP1 POP PUSH1 0x20 DUP3 ADD SWAP1 POP SWAP2 SWAP1 POP JUMP JUMPDEST PUSH2 0x2AD6 DUP2 PUSH2 0x2644 JUMP JUMPDEST DUP3 MSTORE POP POP JUMP JUMPDEST PUSH0 PUSH2 0x2AE7 DUP4 DUP4 PUSH2 0x2ACD JUMP JUMPDEST PUSH1 0x20 DUP4 ADD SWAP1 POP SWAP3 SWAP2 POP POP JUMP JUMPDEST PUSH0 PUSH1 0x20 DUP3 ADD SWAP1 POP SWAP2 SWAP1 POP JUMP JUMPDEST PUSH0 PUSH2 0x2B09 DUP3 PUSH2 0x2AA4 JUMP JUMPDEST PUSH2 0x2B13 DUP2 DUP6 PUSH2 0x2AAE JUMP JUMPDEST SWAP4 POP PUSH2 0x2B1E DUP4 PUSH2 0x2ABE JUMP JUMPDEST DUP1 PUSH0 JUMPDEST DUP4 DUP2 LT ISZERO PUSH2 0x2B4E JUMPI DUP2 MLOAD PUSH2 0x2B35 DUP9 DUP3 PUSH2 0x2ADC JUMP JUMPDEST SWAP8 POP PUSH2 0x2B40 DUP4 PUSH2 0x2AF3 JUMP JUMPDEST SWAP3 POP POP PUSH1 0x1 DUP2 ADD SWAP1 POP PUSH2 0x2B21 JUMP JUMPDEST POP DUP6 SWAP4 POP POP POP POP SWAP3 SWAP2 POP POP JUMP JUMPDEST PUSH0 PUSH1 0x60 DUP3 ADD SWAP1 POP DUP2 DUP2 SUB PUSH0 DUP4 ADD MSTORE PUSH2 0x2B73 DUP2 DUP7 PUSH2 0x2AFF JUMP JUMPDEST SWAP1 POP PUSH2 0x2B82 PUSH1 0x20 DUP4 ADD DUP6 PUSH2 0x23C5 JUMP JUMPDEST PUSH2 0x2B8F PUSH1 0x40 DUP4 ADD DUP5 PUSH2 0x23C5 JUMP JUMPDEST SWAP5 SWAP4 POP POP POP POP JUMP JUMPDEST PUSH0 PUSH2 0x2BA1 DUP3 PUSH2 0x23BC JUMP JUMPDEST SWAP2 POP PUSH2 0x2BAC DUP4 PUSH2 0x23BC JUMP JUMPDEST SWAP3 POP DUP3 DUP3 SUB SWAP1 POP DUP2 DUP2 GT ISZERO PUSH2 0x2BC4 JUMPI PUSH2 0x2BC3 PUSH2 0x284A JUMP JUMPDEST JUMPDEST SWAP3 SWAP2 POP POP JUMP JUMPDEST PUSH0 DUP2 SWAP1 POP SWAP2 SWAP1 POP JUMP JUMPDEST PUSH0 DUP2 SWAP1 POP SWAP2 SWAP1 POP JUMP JUMPDEST PUSH2 0x2BED PUSH2 0x2BE8 DUP3 PUSH2 0x2BCA JUMP JUMPDEST PUSH2 0x2BD3 JUMP JUMPDEST DUP3 MSTORE POP POP JUMP JUMPDEST PUSH0 DUP2 SWAP1 POP SWAP2 SWAP1 POP JUMP JUMPDEST PUSH2 0x2C0D PUSH2 0x2C08 DUP3 PUSH2 0x23BC JUMP JUMPDEST PUSH2 0x2BF3 JUMP JUMPDEST DUP3 MSTORE POP POP JUMP JUMPDEST PUSH0 DUP2 PUSH1 0x60 SHL SWAP1 POP SWAP2 SWAP1 POP JUMP JUMPDEST PUSH0 PUSH2 0x2C29 DUP3 PUSH2 0x2C13 JUMP JUMPDEST SWAP1 POP SWAP2 SWAP1 POP JUMP JUMPDEST PUSH0 PUSH2 0x2C3A DUP3 PUSH2 0x2C1F JUMP JUMPDEST SWAP1 POP SWAP2 SWAP1 POP JUMP JUMPDEST PUSH2 0x2C52 PUSH2 0x2C4D DUP3 PUSH2 0x2644 JUMP JUMPDEST PUSH2 0x2C30 JUMP JUMPDEST DUP3 MSTORE POP POP JUMP JUMPDEST PUSH0 PUSH2 0x2C63 DUP3 DUP10 PUSH2 0x2BDC JUMP JUMPDEST PUSH1 0x20 DUP3 ADD SWAP2 POP PUSH2 0x2C73 DUP3 DUP9 PUSH2 0x2BFC JUMP JUMPDEST PUSH1 0x20 DUP3 ADD SWAP2 POP PUSH2 0x2C83 DUP3 DUP8 PUSH2 0x2BFC JUMP JUMPDEST PUSH1 0x20 DUP3 ADD SWAP2 POP PUSH2 0x2C93 DUP3 DUP7 PUSH2 0x2C41 JUMP JUMPDEST PUSH1 0x14 DUP3 ADD SWAP2 POP PUSH2 0x2CA3 DUP3 DUP6 PUSH2 0x2BFC JUMP JUMPDEST PUSH1 0x20 DUP3 ADD SWAP2 POP PUSH2 0x2CB3 DUP3 DUP5 PUSH2 0x2BFC JUMP JUMPDEST PUSH1 0x20 DUP3 ADD SWAP2 POP DUP2 SWAP1 POP SWAP8 SWAP7 POP POP POP POP POP POP POP JUMP JUMPDEST PUSH0 PUSH1 0x40 DUP3 ADD SWAP1 POP DUP2 DUP2 SUB PUSH0 DUP4 ADD MSTORE PUSH2 0x2CDF DUP2 DUP6 PUSH2 0x2552 JUMP JUMPDEST SWAP1 POP PUSH2 0x2CEE PUSH1 0x20 DUP4 ADD DUP5 PUSH2 0x23C5 JUMP JUMPDEST SWAP4 SWAP3 POP POP POP JUMP JUMPDEST PUSH0 PUSH2 0x2D00 DUP3 DUP6 PUSH2 0x2BFC JUMP JUMPDEST PUSH1 0x20 DUP3 ADD SWAP2 POP PUSH2 0x2D10 DUP3 DUP5 PUSH2 0x2BFC JUMP JUMPDEST PUSH1 0x20 DUP3 ADD SWAP2 POP DUP2 SWAP1 POP SWAP4 SWAP3 POP POP POP JUMP JUMPDEST PUSH0 PUSH2 0x2D2A DUP3 PUSH2 0x23BC JUMP JUMPDEST SWAP2 POP PUSH2 0x2D35 DUP4 PUSH2 0x23BC JUMP JUMPDEST SWAP3 POP DUP3 PUSH2 0x2D45 JUMPI PUSH2 0x2D44 PUSH2 0x29CB JUMP JUMPDEST JUMPDEST DUP3 DUP3 MOD SWAP1 POP SWAP3 SWAP2 POP POP JUMP JUMPDEST PUSH0 PUSH2 0x2D5B DUP3 DUP8 PUSH2 0x2BFC JUMP JUMPDEST PUSH1 0x20 DUP3 ADD SWAP2 POP PUSH2 0x2D6B DUP3 DUP7 PUSH2 0x2BFC JUMP JUMPDEST PUSH1 0x20 DUP3 ADD SWAP2 POP PUSH2 0x2D7B DUP3 DUP6 PUSH2 0x2BFC JUMP JUMPDEST PUSH1 0x20 DUP3 ADD SWAP2 POP PUSH2 0x2D8B DUP3 DUP5 PUSH2 0x2BFC JUMP JUMPDEST PUSH1 0x20 DUP3 ADD SWAP2 POP DUP2 SWAP1 POP SWAP6 SWAP5 POP POP POP POP POP JUMP JUMPDEST PUSH0 PUSH1 0x60 DUP3 ADD SWAP1 POP PUSH2 0x2DB0 PUSH0 DUP4 ADD DUP7 PUSH2 0x23C5 JUMP JUMPDEST PUSH2 0x2DBD PUSH1 0x20 DUP4 ADD DUP6 PUSH2 0x23C5 JUMP JUMPDEST DUP2 DUP2 SUB PUSH1 0x40 DUP4 ADD MSTORE PUSH2 0x2DCF DUP2 DUP5 PUSH2 0x2552 JUMP JUMPDEST SWAP1 POP SWAP5 SWAP4 POP POP POP POP JUMP JUMPDEST PUSH0 PUSH1 0x60 DUP3 ADD SWAP1 POP PUSH2 0x2DEC PUSH0 DUP4 ADD DUP7 PUSH2 0x2655 JUMP JUMPDEST PUSH2 0x2DF9 PUSH1 0x20 DUP4 ADD DUP6 PUSH2 0x2655 JUMP JUMPDEST PUSH2 0x2E06 PUSH1 0x40 DUP4 ADD DUP5 PUSH2 0x23C5 JUMP JUMPDEST SWAP5 SWAP4 POP POP POP POP JUMP INVALID LOG2 PUSH5 0x6970667358 0x22 SLT KECCAK256 0xC9 CREATE DUP6 0xDF GT 0xC4 SWAP7 KECCAK256 0xFB 0xE 0xDD STATICCALL 0xEE DUP9 MSTORE8 SDIV 0xD4 CREATE 0xAC SGT 0xBD EXTCODECOPY PUSH22 0xD7FFF0F8398E9BA15764736F6C634300081800330000 "
		},
		"gasEstimates": {
			"creation": {
				"codeDepositCost": "2368800",
				"executionCost": "infinite",
				"totalCost": "infinite"
			},
			"external": {
				"DRAW_THRESHOLD()": "392",
				"TICKETS_PER_SERIES()": "413",
				"WINNING_TICKETS_COUNT()": "370",
				"buyTickets(uint256,uint256)": "infinite",
				"buyTicketsAt(uint256,uint256[])": "infinite",
				"distributeRewards(uint256)": "infinite",
				"executeDraw(uint256)": "infinite",
				"generateSeries()": "infinite",
				"getOwnedTicketIds(address)": "infinite",
				"getSeriesInfo(uint256)": "infinite",
				"owner()": "2528",
				"rewardPerUser()": "2558",
				"rewardsDistributed(uint256)": "2896",
				"seriesInfo(uint256)": "infinite",
				"setReward(uint256)": "infinite",
				"setTicketPrice(uint256)": "infinite",
				"ticketBalances(address)": "2869",
				"ticketOwners(uint256)": "2916",
				"ticketPrice()": "2449",
				"ticketSeries(uint256)": "infinite",
				"ticketsSold()": "2492",
				"totalSeriesCount()": "2493",
				"transferFunds(address,uint256)": "infinite",
				"transferOwnership(address)": "26959",
				"usdt()": "infinite"
			},
			"internal": {
				"_completePurchase(address,uint256,struct Lottery.Series storage pointer,uint256[] memory)": "infinite",
				"_generateWinningNumbers(uint256,uint256)": "infinite",
				"_getUniqueAddresses(address[] memory,uint256)": "infinite",
				"_mintTickets(address,uint256,uint256,uint256[] memory)": "infinite",
				"_validateTicketNumbers(uint256[] calldata,uint256)": "infinite"
			}
		},
		"methodIdentifiers": {
			"DRAW_THRESHOLD()": "63375e16",
			"TICKETS_PER_SERIES()": "f4c2af93",
			"WINNING_TICKETS_COUNT()": "8ef7fe56",
			"buyTickets(uint256,uint256)": "8627df46",
			"buyTicketsAt(uint256,uint256[])": "cdadc666",
			"distributeRewards(uint256)": "59974e38",
			"executeDraw(uint256)": "75d2bf60",
			"generateSeries()": "30b48213",
			"getOwnedTicketIds(address)": "a4bfd0cc",
			"getSeriesInfo(uint256)": "616eb255",
			"owner()": "8da5cb5b",
			"rewardPerUser()": "8861d532",
			"rewardsDistributed(uint256)": "a3b5fcd8",
			"seriesInfo(uint256)": "fe8ace85",
			"setReward(uint256)": "293be456",
			"setTicketPrice(uint256)": "15981650",
			"ticketBalances(address)": "e54566f3",
			"ticketOwners(uint256)": "eb2dbcf6",
			"ticketPrice()": "1209b1f6",
			"ticketSeries(uint256)": "f3eec42f",
			"ticketsSold()": "8f15024f",
			"totalSeriesCount()": "15b5386e",
			"transferFunds(address,uint256)": "990dc9db",
			"transferOwnership(address)": "f2fde38b",
			"usdt()": "2f48ab7d"
		}
	},
	"abi": [
		{
			"inputs": [
				{
					"internalType": "address",
					"name": "usdtAddress",
					"type": "address"
				}
			],
			"stateMutability": "nonpayable",
			"type": "constructor"
		},
		{
			"inputs": [
				{
					"internalType": "uint256",
					"name": "seriesId",
					"type": "uint256"
				}
			],
			"name": "DrawAlreadyExecuted",
			"type": "error"
		},
		{
			"inputs": [
				{
					"internalType": "uint256",
					"name": "seriesId",
					"type": "uint256"
				}
			],
			"name": "DrawNotExecuted",
			"type": "error"
		},
		{
			"inputs": [],
			"name": "InsufficientTickets",
			"type": "error"
		},
		{
			"inputs": [
				{
					"internalType": "uint256",
					"name": "seriesId",
					"type": "uint256"
				}
			],
			"name": "InsufficientWinners",
			"type": "error"
		},
		{
			"inputs": [],
			"name": "InvalidAddress",
			"type": "error"
		},
		{
			"inputs": [
				{
					"internalType": "uint256",
					"name": "seriesId",
					"type": "uint256"
				}
			],
			"name": "InvalidSeriesId",
			"type": "error"
		},
		{
			"inputs": [],
			"name": "InvalidTicketCount",
			"type": "error"
		},
		{
			"inputs": [],
			"name": "InvalidTicketNumber",
			"type": "error"
		},
		{
			"inputs": [
				{
					"internalType": "uint256",
					"name": "seriesId",
					"type": "uint256"
				}
			],
			"name": "NotEnoughTicketsSold",
			"type": "error"
		},
		{
			"inputs": [],
			"name": "NotOwner",
			"type": "error"
		},
		{
			"inputs": [
				{
					"internalType": "uint256",
					"name": "seriesId",
					"type": "uint256"
				}
			],
			"name": "RewardsAlreadyDistributed",
			"type": "error"
		},
		{
			"inputs": [
				{
					"internalType": "uint256",
					"name": "seriesId",
					"type": "uint256"
				}
			],
			"name": "SeriesNotCompleted",
			"type": "error"
		},
		{
			"inputs": [
				{
					"internalType": "uint256",
					"name": "seriesId",
					"type": "uint256"
				}
			],
			"name": "SeriesNotReadyForDraw",
			"type": "error"
		},
		{
			"inputs": [
				{
					"internalType": "uint256",
					"name": "ticketNumber",
					"type": "uint256"
				}
			],
			"name": "TicketAlreadySold",
			"type": "error"
		},
		{
			"inputs": [],
			"name": "TransferFailed",
			"type": "error"
		},
		{
			"anonymous": false,
			"inputs": [
				{
					"indexed": true,
					"internalType": "uint256",
					"name": "seriesId",
					"type": "uint256"
				},
				{
					"indexed": false,
					"internalType": "uint256[]",
					"name": "winningTicketNumbers",
					"type": "uint256[]"
				},
				{
					"indexed": false,
					"internalType": "uint256",
					"name": "randomSeed",
					"type": "uint256"
				}
			],
			"name": "DrawExecuted",
			"type": "event"
		},
		{
			"anonymous": false,
			"inputs": [
				{
					"indexed": false,
					"internalType": "uint256",
					"name": "newReward",
					"type": "uint256"
				}
			],
			"name": "RewardUpdated",
			"type": "event"
		},
		{
			"anonymous": false,
			"inputs": [
				{
					"indexed": true,
					"internalType": "uint256",
					"name": "seriesId",
					"type": "uint256"
				},
				{
					"indexed": false,
					"internalType": "address[]",
					"name": "winners",
					"type": "address[]"
				},
				{
					"indexed": false,
					"internalType": "uint256",
					"name": "rewardPerWinner",
					"type": "uint256"
				},
				{
					"indexed": false,
					"internalType": "uint256",
					"name": "totalRewardAmount",
					"type": "uint256"
				}
			],
			"name": "RewardsDistributed",
			"type": "event"
		},
		{
			"anonymous": false,
			"inputs": [
				{
					"indexed": true,
					"internalType": "uint256",
					"name": "seriesId",
					"type": "uint256"
				}
			],
			"name": "SeriesCompleted",
			"type": "event"
		},
		{
			"anonymous": false,
			"inputs": [
				{
					"indexed": true,
					"internalType": "uint256",
					"name": "seriesId",
					"type": "uint256"
				},
				{
					"indexed": false,
					"internalType": "uint256",
					"name": "totalTickets",
					"type": "uint256"
				}
			],
			"name": "SeriesConfigured",
			"type": "event"
		},
		{
			"anonymous": false,
			"inputs": [
				{
					"indexed": false,
					"internalType": "uint256",
					"name": "newPrice",
					"type": "uint256"
				}
			],
			"name": "TicketPriceUpdated",
			"type": "event"
		},
		{
			"anonymous": false,
			"inputs": [
				{
					"indexed": true,
					"internalType": "address",
					"name": "buyer",
					"type": "address"
				},
				{
					"indexed": false,
					"internalType": "uint256",
					"name": "count",
					"type": "uint256"
				},
				{
					"indexed": false,
					"internalType": "uint256",
					"name": "totalCost",
					"type": "uint256"
				},
				{
					"indexed": false,
					"internalType": "uint256[]",
					"name": "ticketIds",
					"type": "uint256[]"
				},
				{
					"indexed": true,
					"internalType": "uint256",
					"name": "seriesId",
					"type": "uint256"
				}
			],
			"name": "TicketPurchased",
			"type": "event"
		},
		{
			"anonymous": false,
			"inputs": [
				{
					"indexed": true,
					"internalType": "address",
					"name": "to",
					"type": "address"
				},
				{
					"indexed": false,
					"internalType": "uint256",
					"name": "amount",
					"type": "uint256"
				}
			],
			"name": "Withdraw",
			"type": "event"
		},
		{
			"inputs": [],
			"name": "DRAW_THRESHOLD",
			"outputs": [
				{
					"internalType": "uint256",
					"name": "",
					"type": "uint256"
				}
			],
			"stateMutability": "view",
			"type": "function"
		},
		{
			"inputs": [],
			"name": "TICKETS_PER_SERIES",
			"outputs": [
				{
					"internalType": "uint256",
					"name": "",
					"type": "uint256"
				}
			],
			"stateMutability": "view",
			"type": "function"
		},
		{
			"inputs": [],
			"name": "WINNING_TICKETS_COUNT",
			"outputs": [
				{
					"internalType": "uint256",
					"name": "",
					"type": "uint256"
				}
			],
			"stateMutability": "view",
			"type": "function"
		},
		{
			"inputs": [
				{
					"internalType": "uint256",
					"name": "seriesId",
					"type": "uint256"
				},
				{
					"internalType": "uint256",
					"name": "count",
					"type": "uint256"
				}
			],
			"name": "buyTickets",
			"outputs": [],
			"stateMutability": "nonpayable",
			"type": "function"
		},
		{
			"inputs": [
				{
					"internalType": "uint256",
					"name": "seriesId",
					"type": "uint256"
				},
				{
					"internalType": "uint256[]",
					"name": "ticketNumbers",
					"type": "uint256[]"
				}
			],
			"name": "buyTicketsAt",
			"outputs": [],
			"stateMutability": "nonpayable",
			"type": "function"
		},
		{
			"inputs": [
				{
					"internalType": "uint256",
					"name": "seriesId",
					"type": "uint256"
				}
			],
			"name": "distributeRewards",
			"outputs": [],
			"stateMutability": "nonpayable",
			"type": "function"
		},
		{
			"inputs": [
				{
					"internalType": "uint256",
					"name": "seriesId",
					"type": "uint256"
				}
			],
			"name": "executeDraw",
			"outputs": [],
			"stateMutability": "nonpayable",
			"type": "function"
		},
		{
			"inputs": [],
			"name": "generateSeries",
			"outputs": [],
			"stateMutability": "nonpayable",
			"type": "function"
		},
		{
			"inputs": [
				{
					"internalType": "address",
					"name": "account",
					"type": "address"
				}
			],
			"name": "getOwnedTicketIds",
			"outputs": [
				{
					"internalType": "uint256[]",
					"name": "",
					"type": "uint256[]"
				}
			],
			"stateMutability": "view",
			"type": "function"
		},
		{
			"inputs": [
				{
					"internalType": "uint256",
					"name": "seriesId",
					"type": "uint256"
				}
			],
			"name": "getSeriesInfo",
			"outputs": [
				{
					"internalType": "uint256",
					"name": "totalTickets",
					"type": "uint256"
				},
				{
					"internalType": "uint256",
					"name": "soldCount",
					"type": "uint256"
				},
				{
					"internalType": "bool",
					"name": "drawExecuted",
					"type": "bool"
				},
				{
					"internalType": "bool",
					"name": "readyForDraw",
					"type": "bool"
				},
				{
					"internalType": "uint256[]",
					"name": "winningTicketNumbers",
					"type": "uint256[]"
				}
			],
			"stateMutability": "view",
			"type": "function"
		},
		{
			"inputs": [],
			"name": "owner",
			"outputs": [
				{
					"internalType": "address",
					"name": "",
					"type": "address"
				}
			],
			"stateMutability": "view",
			"type": "function"
		},
		{
			"inputs": [],
			"name": "rewardPerUser",
			"outputs": [
				{
					"internalType": "uint256",
					"name": "",
					"type": "uint256"
				}
			],
			"stateMutability": "view",
			"type": "function"
		},
		{
			"inputs": [
				{
					"internalType": "uint256",
					"name": "",
					"type": "uint256"
				}
			],
			"name": "rewardsDistributed",
			"outputs": [
				{
					"internalType": "bool",
					"name": "",
					"type": "bool"
				}
			],
			"stateMutability": "view",
			"type": "function"
		},
		{
			"inputs": [
				{
					"internalType": "uint256",
					"name": "",
					"type": "uint256"
				}
			],
			"name": "seriesInfo",
			"outputs": [
				{
					"internalType": "uint256",
					"name": "totalTickets",
					"type": "uint256"
				},
				{
					"internalType": "uint256",
					"name": "ticketsSold",
					"type": "uint256"
				},
				{
					"internalType": "bool",
					"name": "drawExecuted",
					"type": "bool"
				},
				{
					"internalType": "uint256",
					"name": "drawRandomSeed",
					"type": "uint256"
				}
			],
			"stateMutability": "view",
			"type": "function"
		},
		{
			"inputs": [
				{
					"internalType": "uint256",
					"name": "newReward",
					"type": "uint256"
				}
			],
			"name": "setReward",
			"outputs": [],
			"stateMutability": "nonpayable",
			"type": "function"
		},
		{
			"inputs": [
				{
					"internalType": "uint256",
					"name": "newTicketPrice",
					"type": "uint256"
				}
			],
			"name": "setTicketPrice",
			"outputs": [],
			"stateMutability": "nonpayable",
			"type": "function"
		},
		{
			"inputs": [
				{
					"internalType": "address",
					"name": "",
					"type": "address"
				}
			],
			"name": "ticketBalances",
			"outputs": [
				{
					"internalType": "uint256",
					"name": "",
					"type": "uint256"
				}
			],
			"stateMutability": "view",
			"type": "function"
		},
		{
			"inputs": [
				{
					"internalType": "uint256",
					"name": "",
					"type": "uint256"
				}
			],
			"name": "ticketOwners",
			"outputs": [
				{
					"internalType": "address",
					"name": "",
					"type": "address"
				}
			],
			"stateMutability": "view",
			"type": "function"
		},
		{
			"inputs": [],
			"name": "ticketPrice",
			"outputs": [
				{
					"internalType": "uint256",
					"name": "",
					"type": "uint256"
				}
			],
			"stateMutability": "view",
			"type": "function"
		},
		{
			"inputs": [
				{
					"internalType": "uint256",
					"name": "",
					"type": "uint256"
				}
			],
			"name": "ticketSeries",
			"outputs": [
				{
					"internalType": "uint256",
					"name": "",
					"type": "uint256"
				}
			],
			"stateMutability": "view",
			"type": "function"
		},
		{
			"inputs": [],
			"name": "ticketsSold",
			"outputs": [
				{
					"internalType": "uint256",
					"name": "",
					"type": "uint256"
				}
			],
			"stateMutability": "view",
			"type": "function"
		},
		{
			"inputs": [],
			"name": "totalSeriesCount",
			"outputs": [
				{
					"internalType": "uint256",
					"name": "",
					"type": "uint256"
				}
			],
			"stateMutability": "view",
			"type": "function"
		},
		{
			"inputs": [
				{
					"internalType": "address",
					"name": "to",
					"type": "address"
				},
				{
					"internalType": "uint256",
					"name": "amount",
					"type": "uint256"
				}
			],
			"name": "transferFunds",
			"outputs": [],
			"stateMutability": "nonpayable",
			"type": "function"
		},
		{
			"inputs": [
				{
					"internalType": "address",
					"name": "newOwner",
					"type": "address"
				}
			],
			"name": "transferOwnership",
			"outputs": [],
			"stateMutability": "nonpayable",
			"type": "function"
		},
		{
			"inputs": [],
			"name": "usdt",
			"outputs": [
				{
					"internalType": "contract IERC20",
					"name": "",
					"type": "address"
				}
			],
			"stateMutability": "view",
			"type": "function"
		}
	]
}